{
	"Beginner Level/Voting System/contracts/Voting.sol": {
		"VotingSystem": {
			"abi": [
				{
					"inputs": [],
					"stateMutability": "nonpayable",
					"type": "constructor"
				},
				{
					"anonymous": false,
					"inputs": [
						{
							"indexed": false,
							"internalType": "string",
							"name": "name",
							"type": "string"
						}
					],
					"name": "CandidateAdded",
					"type": "event"
				},
				{
					"anonymous": false,
					"inputs": [
						{
							"indexed": false,
							"internalType": "address",
							"name": "voter",
							"type": "address"
						},
						{
							"indexed": false,
							"internalType": "uint256",
							"name": "candidateId",
							"type": "uint256"
						}
					],
					"name": "Voted",
					"type": "event"
				},
				{
					"anonymous": false,
					"inputs": [
						{
							"indexed": false,
							"internalType": "uint256",
							"name": "timestamp",
							"type": "uint256"
						}
					],
					"name": "VotingEndeded",
					"type": "event"
				},
				{
					"inputs": [
						{
							"internalType": "string",
							"name": "_name",
							"type": "string"
						}
					],
					"name": "addCandidate",
					"outputs": [],
					"stateMutability": "nonpayable",
					"type": "function"
				},
				{
					"inputs": [
						{
							"internalType": "uint256",
							"name": "",
							"type": "uint256"
						}
					],
					"name": "candidates",
					"outputs": [
						{
							"internalType": "string",
							"name": "name",
							"type": "string"
						},
						{
							"internalType": "uint256",
							"name": "voteCount",
							"type": "uint256"
						}
					],
					"stateMutability": "view",
					"type": "function"
				},
				{
					"inputs": [],
					"name": "endVoting",
					"outputs": [],
					"stateMutability": "nonpayable",
					"type": "function"
				},
				{
					"inputs": [
						{
							"internalType": "uint256",
							"name": "_candidateId",
							"type": "uint256"
						}
					],
					"name": "getCandidate",
					"outputs": [
						{
							"internalType": "string",
							"name": "name",
							"type": "string"
						},
						{
							"internalType": "uint256",
							"name": "voteCount",
							"type": "uint256"
						}
					],
					"stateMutability": "view",
					"type": "function"
				},
				{
					"inputs": [],
					"name": "getCandidateCount",
					"outputs": [
						{
							"internalType": "uint256",
							"name": "",
							"type": "uint256"
						}
					],
					"stateMutability": "view",
					"type": "function"
				},
				{
					"inputs": [
						{
							"internalType": "address",
							"name": "",
							"type": "address"
						}
					],
					"name": "hasVoted",
					"outputs": [
						{
							"internalType": "bool",
							"name": "",
							"type": "bool"
						}
					],
					"stateMutability": "view",
					"type": "function"
				},
				{
					"inputs": [],
					"name": "owner",
					"outputs": [
						{
							"internalType": "address",
							"name": "",
							"type": "address"
						}
					],
					"stateMutability": "view",
					"type": "function"
				},
				{
					"inputs": [
						{
							"internalType": "uint256",
							"name": "_candidateId",
							"type": "uint256"
						}
					],
					"name": "vote",
					"outputs": [],
					"stateMutability": "nonpayable",
					"type": "function"
				},
				{
					"inputs": [],
					"name": "votingEnded",
					"outputs": [
						{
							"internalType": "bool",
							"name": "",
							"type": "bool"
						}
					],
					"stateMutability": "view",
					"type": "function"
				}
			],
			"devdoc": {
				"kind": "dev",
				"methods": {},
				"version": 1
			},
			"evm": {
				"assembly": "    /* \"Beginner Level/Voting System/contracts/Voting.sol\":60:1932  contract VotingSystem {... */\n  mstore(0x40, 0x80)\n    /* \"Beginner Level/Voting System/contracts/Voting.sol\":704:755  constructor() {... */\n  callvalue\n  dup1\n  iszero\n  tag_1\n  jumpi\n  0x00\n  dup1\n  revert\ntag_1:\n  pop\n    /* \"Beginner Level/Voting System/contracts/Voting.sol\":737:747  msg.sender */\n  caller\n    /* \"Beginner Level/Voting System/contracts/Voting.sol\":729:734  owner */\n  0x00\n  dup1\n    /* \"Beginner Level/Voting System/contracts/Voting.sol\":729:747  owner = msg.sender */\n  0x0100\n  exp\n  dup2\n  sload\n  dup2\n  0xffffffffffffffffffffffffffffffffffffffff\n  mul\n  not\n  and\n  swap1\n  dup4\n  0xffffffffffffffffffffffffffffffffffffffff\n  and\n  mul\n  or\n  swap1\n  sstore\n  pop\n    /* \"Beginner Level/Voting System/contracts/Voting.sol\":60:1932  contract VotingSystem {... */\n  dataSize(sub_0)\n  dup1\n  dataOffset(sub_0)\n  0x00\n  codecopy\n  0x00\n  return\nstop\n\nsub_0: assembly {\n        /* \"Beginner Level/Voting System/contracts/Voting.sol\":60:1932  contract VotingSystem {... */\n      mstore(0x40, 0x80)\n      callvalue\n      dup1\n      iszero\n      tag_1\n      jumpi\n      0x00\n      dup1\n      revert\n    tag_1:\n      pop\n      jumpi(tag_2, lt(calldatasize, 0x04))\n      shr(0xe0, calldataload(0x00))\n      dup1\n      0x35b8e820\n      gt\n      tag_12\n      jumpi\n      dup1\n      0x35b8e820\n      eq\n      tag_7\n      jumpi\n      dup1\n      0x462e91ec\n      eq\n      tag_8\n      jumpi\n      dup1\n      0x8da5cb5b\n      eq\n      tag_9\n      jumpi\n      dup1\n      0x9d5a0529\n      eq\n      tag_10\n      jumpi\n      dup1\n      0xc3403ddf\n      eq\n      tag_11\n      jumpi\n      jump(tag_2)\n    tag_12:\n      dup1\n      0x0121b93f\n      eq\n      tag_3\n      jumpi\n      dup1\n      0x09eef43e\n      eq\n      tag_4\n      jumpi\n      dup1\n      0x30a56347\n      eq\n      tag_5\n      jumpi\n      dup1\n      0x3477ee2e\n      eq\n      tag_6\n      jumpi\n    tag_2:\n      0x00\n      dup1\n      revert\n        /* \"Beginner Level/Voting System/contracts/Voting.sol\":1000:1350  function vote(uint256 _candidateId) public votingActive {... */\n    tag_3:\n      tag_13\n      0x04\n      dup1\n      calldatasize\n      sub\n      dup2\n      add\n      swap1\n      tag_14\n      swap2\n      swap1\n      tag_15\n      jump\t// in\n    tag_14:\n      tag_16\n      jump\t// in\n    tag_13:\n      stop\n        /* \"Beginner Level/Voting System/contracts/Voting.sol\":203:243  mapping(address => bool) public hasVoted */\n    tag_4:\n      tag_17\n      0x04\n      dup1\n      calldatasize\n      sub\n      dup2\n      add\n      swap1\n      tag_18\n      swap2\n      swap1\n      tag_19\n      jump\t// in\n    tag_18:\n      tag_20\n      jump\t// in\n    tag_17:\n      mload(0x40)\n      tag_21\n      swap2\n      swap1\n      tag_22\n      jump\t// in\n    tag_21:\n      mload(0x40)\n      dup1\n      swap2\n      sub\n      swap1\n      return\n        /* \"Beginner Level/Voting System/contracts/Voting.sol\":1508:1610  function getCandidateCount() public view returns (uint256) {... */\n    tag_5:\n      tag_23\n      tag_24\n      jump\t// in\n    tag_23:\n      mload(0x40)\n      tag_25\n      swap2\n      swap1\n      tag_26\n      jump\t// in\n    tag_25:\n      mload(0x40)\n      dup1\n      swap2\n      sub\n      swap1\n      return\n        /* \"Beginner Level/Voting System/contracts/Voting.sol\":250:279  Candidate[] public candidates */\n    tag_6:\n      tag_27\n      0x04\n      dup1\n      calldatasize\n      sub\n      dup2\n      add\n      swap1\n      tag_28\n      swap2\n      swap1\n      tag_15\n      jump\t// in\n    tag_28:\n      tag_29\n      jump\t// in\n    tag_27:\n      mload(0x40)\n      tag_30\n      swap3\n      swap2\n      swap1\n      tag_31\n      jump\t// in\n    tag_30:\n      mload(0x40)\n      dup1\n      swap2\n      sub\n      swap1\n      return\n        /* \"Beginner Level/Voting System/contracts/Voting.sol\":1622:1929  function getCandidate(uint256 _candidateId) public view returns (string memory name, uint256 voteCount) {... */\n    tag_7:\n      tag_32\n      0x04\n      dup1\n      calldatasize\n      sub\n      dup2\n      add\n      swap1\n      tag_33\n      swap2\n      swap1\n      tag_15\n      jump\t// in\n    tag_33:\n      tag_34\n      jump\t// in\n    tag_32:\n      mload(0x40)\n      tag_35\n      swap3\n      swap2\n      swap1\n      tag_31\n      jump\t// in\n    tag_35:\n      mload(0x40)\n      dup1\n      swap2\n      sub\n      swap1\n      return\n        /* \"Beginner Level/Voting System/contracts/Voting.sol\":767:988  function addCandidate(string memory _name) public onlyOwner votingActive {... */\n    tag_8:\n      tag_36\n      0x04\n      dup1\n      calldatasize\n      sub\n      dup2\n      add\n      swap1\n      tag_37\n      swap2\n      swap1\n      tag_38\n      jump\t// in\n    tag_37:\n      tag_39\n      jump\t// in\n    tag_36:\n      stop\n        /* \"Beginner Level/Voting System/contracts/Voting.sol\":176:196  address public owner */\n    tag_9:\n      tag_40\n      tag_41\n      jump\t// in\n    tag_40:\n      mload(0x40)\n      tag_42\n      swap2\n      swap1\n      tag_43\n      jump\t// in\n    tag_42:\n      mload(0x40)\n      dup1\n      swap2\n      sub\n      swap1\n      return\n        /* \"Beginner Level/Voting System/contracts/Voting.sol\":286:309  bool public votingEnded */\n    tag_10:\n      tag_44\n      tag_45\n      jump\t// in\n    tag_44:\n      mload(0x40)\n      tag_46\n      swap2\n      swap1\n      tag_22\n      jump\t// in\n    tag_46:\n      mload(0x40)\n      dup1\n      swap2\n      sub\n      swap1\n      return\n        /* \"Beginner Level/Voting System/contracts/Voting.sol\":1362:1496  function endVoting() public onlyOwner votingActive {... */\n    tag_11:\n      tag_47\n      tag_48\n      jump\t// in\n    tag_47:\n      stop\n        /* \"Beginner Level/Voting System/contracts/Voting.sol\":1000:1350  function vote(uint256 _candidateId) public votingActive {... */\n    tag_16:\n        /* \"Beginner Level/Voting System/contracts/Voting.sol\":640:651  votingEnded */\n      0x03\n      0x00\n      swap1\n      sload\n      swap1\n      0x0100\n      exp\n      swap1\n      div\n      0xff\n      and\n        /* \"Beginner Level/Voting System/contracts/Voting.sol\":639:651  !votingEnded */\n      iszero\n        /* \"Beginner Level/Voting System/contracts/Voting.sol\":631:672  require(!votingEnded, \"Voting has ended\") */\n      tag_50\n      jumpi\n      mload(0x40)\n      0x08c379a000000000000000000000000000000000000000000000000000000000\n      dup2\n      mstore\n      0x04\n      add\n      tag_51\n      swap1\n      tag_52\n      jump\t// in\n    tag_51:\n      mload(0x40)\n      dup1\n      swap2\n      sub\n      swap1\n      revert\n    tag_50:\n        /* \"Beginner Level/Voting System/contracts/Voting.sol\":1090:1100  candidates */\n      0x02\n        /* \"Beginner Level/Voting System/contracts/Voting.sol\":1090:1107  candidates.length */\n      dup1\n      sload\n      swap1\n      pop\n        /* \"Beginner Level/Voting System/contracts/Voting.sol\":1075:1087  _candidateId */\n      dup2\n        /* \"Beginner Level/Voting System/contracts/Voting.sol\":1075:1107  _candidateId < candidates.length */\n      lt\n        /* \"Beginner Level/Voting System/contracts/Voting.sol\":1067:1132  require(_candidateId < candidates.length, \"Invalid candidate ID\") */\n      tag_54\n      jumpi\n      mload(0x40)\n      0x08c379a000000000000000000000000000000000000000000000000000000000\n      dup2\n      mstore\n      0x04\n      add\n      tag_55\n      swap1\n      tag_56\n      jump\t// in\n    tag_55:\n      mload(0x40)\n      dup1\n      swap2\n      sub\n      swap1\n      revert\n    tag_54:\n        /* \"Beginner Level/Voting System/contracts/Voting.sol\":1152:1160  hasVoted */\n      0x01\n        /* \"Beginner Level/Voting System/contracts/Voting.sol\":1152:1172  hasVoted[msg.sender] */\n      0x00\n        /* \"Beginner Level/Voting System/contracts/Voting.sol\":1161:1171  msg.sender */\n      caller\n        /* \"Beginner Level/Voting System/contracts/Voting.sol\":1152:1172  hasVoted[msg.sender] */\n      0xffffffffffffffffffffffffffffffffffffffff\n      and\n      0xffffffffffffffffffffffffffffffffffffffff\n      and\n      dup2\n      mstore\n      0x20\n      add\n      swap1\n      dup2\n      mstore\n      0x20\n      add\n      0x00\n      keccak256\n      0x00\n      swap1\n      sload\n      swap1\n      0x0100\n      exp\n      swap1\n      div\n      0xff\n      and\n        /* \"Beginner Level/Voting System/contracts/Voting.sol\":1151:1172  !hasVoted[msg.sender] */\n      iszero\n        /* \"Beginner Level/Voting System/contracts/Voting.sol\":1143:1190  require(!hasVoted[msg.sender], \"Already voted\") */\n      tag_57\n      jumpi\n      mload(0x40)\n      0x08c379a000000000000000000000000000000000000000000000000000000000\n      dup2\n      mstore\n      0x04\n      add\n      tag_58\n      swap1\n      tag_59\n      jump\t// in\n    tag_58:\n      mload(0x40)\n      dup1\n      swap2\n      sub\n      swap1\n      revert\n    tag_57:\n        /* \"Beginner Level/Voting System/contracts/Voting.sol\":1211:1221  candidates */\n      0x02\n        /* \"Beginner Level/Voting System/contracts/Voting.sol\":1222:1234  _candidateId */\n      dup2\n        /* \"Beginner Level/Voting System/contracts/Voting.sol\":1211:1235  candidates[_candidateId] */\n      dup2\n      sload\n      dup2\n      lt\n      tag_60\n      jumpi\n      tag_61\n      tag_62\n      jump\t// in\n    tag_61:\n    tag_60:\n      swap1\n      0x00\n      mstore\n      keccak256(0x00, 0x20)\n      swap1\n      0x02\n      mul\n      add\n        /* \"Beginner Level/Voting System/contracts/Voting.sol\":1211:1245  candidates[_candidateId].voteCount */\n      0x01\n      add\n      0x00\n        /* \"Beginner Level/Voting System/contracts/Voting.sol\":1211:1247  candidates[_candidateId].voteCount++ */\n      dup2\n      sload\n      dup1\n      swap3\n      swap2\n      swap1\n      tag_64\n      swap1\n      tag_65\n      jump\t// in\n    tag_64:\n      swap2\n      swap1\n      pop\n      sstore\n      pop\n        /* \"Beginner Level/Voting System/contracts/Voting.sol\":1281:1285  true */\n      0x01\n        /* \"Beginner Level/Voting System/contracts/Voting.sol\":1258:1266  hasVoted */\n      dup1\n        /* \"Beginner Level/Voting System/contracts/Voting.sol\":1258:1278  hasVoted[msg.sender] */\n      0x00\n        /* \"Beginner Level/Voting System/contracts/Voting.sol\":1267:1277  msg.sender */\n      caller\n        /* \"Beginner Level/Voting System/contracts/Voting.sol\":1258:1278  hasVoted[msg.sender] */\n      0xffffffffffffffffffffffffffffffffffffffff\n      and\n      0xffffffffffffffffffffffffffffffffffffffff\n      and\n      dup2\n      mstore\n      0x20\n      add\n      swap1\n      dup2\n      mstore\n      0x20\n      add\n      0x00\n      keccak256\n      0x00\n        /* \"Beginner Level/Voting System/contracts/Voting.sol\":1258:1285  hasVoted[msg.sender] = true */\n      0x0100\n      exp\n      dup2\n      sload\n      dup2\n      0xff\n      mul\n      not\n      and\n      swap1\n      dup4\n      iszero\n      iszero\n      mul\n      or\n      swap1\n      sstore\n      pop\n        /* \"Beginner Level/Voting System/contracts/Voting.sol\":1311:1342  Voted(msg.sender, _candidateId) */\n      0x4d99b957a2bc29a30ebd96a7be8e68fe50a3c701db28a91436490b7d53870ca4\n        /* \"Beginner Level/Voting System/contracts/Voting.sol\":1317:1327  msg.sender */\n      caller\n        /* \"Beginner Level/Voting System/contracts/Voting.sol\":1329:1341  _candidateId */\n      dup3\n        /* \"Beginner Level/Voting System/contracts/Voting.sol\":1311:1342  Voted(msg.sender, _candidateId) */\n      mload(0x40)\n      tag_66\n      swap3\n      swap2\n      swap1\n      tag_67\n      jump\t// in\n    tag_66:\n      mload(0x40)\n      dup1\n      swap2\n      sub\n      swap1\n      log1\n        /* \"Beginner Level/Voting System/contracts/Voting.sol\":1000:1350  function vote(uint256 _candidateId) public votingActive {... */\n      pop\n      jump\t// out\n        /* \"Beginner Level/Voting System/contracts/Voting.sol\":203:243  mapping(address => bool) public hasVoted */\n    tag_20:\n      mstore(0x20, 0x01)\n      dup1\n      0x00\n      mstore\n      keccak256(0x00, 0x40)\n      0x00\n      swap2\n      pop\n      sload\n      swap1\n      0x0100\n      exp\n      swap1\n      div\n      0xff\n      and\n      dup2\n      jump\t// out\n        /* \"Beginner Level/Voting System/contracts/Voting.sol\":1508:1610  function getCandidateCount() public view returns (uint256) {... */\n    tag_24:\n        /* \"Beginner Level/Voting System/contracts/Voting.sol\":1558:1565  uint256 */\n      0x00\n        /* \"Beginner Level/Voting System/contracts/Voting.sol\":1585:1595  candidates */\n      0x02\n        /* \"Beginner Level/Voting System/contracts/Voting.sol\":1585:1602  candidates.length */\n      dup1\n      sload\n      swap1\n      pop\n        /* \"Beginner Level/Voting System/contracts/Voting.sol\":1578:1602  return candidates.length */\n      swap1\n      pop\n        /* \"Beginner Level/Voting System/contracts/Voting.sol\":1508:1610  function getCandidateCount() public view returns (uint256) {... */\n      swap1\n      jump\t// out\n        /* \"Beginner Level/Voting System/contracts/Voting.sol\":250:279  Candidate[] public candidates */\n    tag_29:\n      0x02\n      dup2\n      dup2\n      sload\n      dup2\n      lt\n      tag_69\n      jumpi\n      0x00\n      dup1\n      revert\n    tag_69:\n      swap1\n      0x00\n      mstore\n      keccak256(0x00, 0x20)\n      swap1\n      0x02\n      mul\n      add\n      0x00\n      swap2\n      pop\n      swap1\n      pop\n      dup1\n      0x00\n      add\n      dup1\n      sload\n      tag_71\n      swap1\n      tag_72\n      jump\t// in\n    tag_71:\n      dup1\n      0x1f\n      add\n      0x20\n      dup1\n      swap2\n      div\n      mul\n      0x20\n      add\n      mload(0x40)\n      swap1\n      dup2\n      add\n      0x40\n      mstore\n      dup1\n      swap3\n      swap2\n      swap1\n      dup2\n      dup2\n      mstore\n      0x20\n      add\n      dup3\n      dup1\n      sload\n      tag_73\n      swap1\n      tag_72\n      jump\t// in\n    tag_73:\n      dup1\n      iszero\n      tag_74\n      jumpi\n      dup1\n      0x1f\n      lt\n      tag_75\n      jumpi\n      0x0100\n      dup1\n      dup4\n      sload\n      div\n      mul\n      dup4\n      mstore\n      swap2\n      0x20\n      add\n      swap2\n      jump(tag_74)\n    tag_75:\n      dup3\n      add\n      swap2\n      swap1\n      0x00\n      mstore\n      keccak256(0x00, 0x20)\n      swap1\n    tag_76:\n      dup2\n      sload\n      dup2\n      mstore\n      swap1\n      0x01\n      add\n      swap1\n      0x20\n      add\n      dup1\n      dup4\n      gt\n      tag_76\n      jumpi\n      dup3\n      swap1\n      sub\n      0x1f\n      and\n      dup3\n      add\n      swap2\n    tag_74:\n      pop\n      pop\n      pop\n      pop\n      pop\n      swap1\n      dup1\n      0x01\n      add\n      sload\n      swap1\n      pop\n      dup3\n      jump\t// out\n        /* \"Beginner Level/Voting System/contracts/Voting.sol\":1622:1929  function getCandidate(uint256 _candidateId) public view returns (string memory name, uint256 voteCount) {... */\n    tag_34:\n        /* \"Beginner Level/Voting System/contracts/Voting.sol\":1687:1705  string memory name */\n      0x60\n        /* \"Beginner Level/Voting System/contracts/Voting.sol\":1707:1724  uint256 voteCount */\n      0x00\n        /* \"Beginner Level/Voting System/contracts/Voting.sol\":1760:1770  candidates */\n      0x02\n        /* \"Beginner Level/Voting System/contracts/Voting.sol\":1760:1777  candidates.length */\n      dup1\n      sload\n      swap1\n      pop\n        /* \"Beginner Level/Voting System/contracts/Voting.sol\":1745:1757  _candidateId */\n      dup4\n        /* \"Beginner Level/Voting System/contracts/Voting.sol\":1745:1777  _candidateId < candidates.length */\n      lt\n        /* \"Beginner Level/Voting System/contracts/Voting.sol\":1737:1802  require(_candidateId < candidates.length, \"Invalid candidate ID\") */\n      tag_78\n      jumpi\n      mload(0x40)\n      0x08c379a000000000000000000000000000000000000000000000000000000000\n      dup2\n      mstore\n      0x04\n      add\n      tag_79\n      swap1\n      tag_56\n      jump\t// in\n    tag_79:\n      mload(0x40)\n      dup1\n      swap2\n      sub\n      swap1\n      revert\n    tag_78:\n        /* \"Beginner Level/Voting System/contracts/Voting.sol\":1813:1839  Candidate memory candidate */\n      0x00\n        /* \"Beginner Level/Voting System/contracts/Voting.sol\":1842:1852  candidates */\n      0x02\n        /* \"Beginner Level/Voting System/contracts/Voting.sol\":1853:1865  _candidateId */\n      dup5\n        /* \"Beginner Level/Voting System/contracts/Voting.sol\":1842:1866  candidates[_candidateId] */\n      dup2\n      sload\n      dup2\n      lt\n      tag_80\n      jumpi\n      tag_81\n      tag_62\n      jump\t// in\n    tag_81:\n    tag_80:\n      swap1\n      0x00\n      mstore\n      keccak256(0x00, 0x20)\n      swap1\n      0x02\n      mul\n      add\n        /* \"Beginner Level/Voting System/contracts/Voting.sol\":1813:1866  Candidate memory candidate = candidates[_candidateId] */\n      mload(0x40)\n      dup1\n      0x40\n      add\n      0x40\n      mstore\n      swap1\n      dup2\n      0x00\n      dup3\n      add\n      dup1\n      sload\n      tag_83\n      swap1\n      tag_72\n      jump\t// in\n    tag_83:\n      dup1\n      0x1f\n      add\n      0x20\n      dup1\n      swap2\n      div\n      mul\n      0x20\n      add\n      mload(0x40)\n      swap1\n      dup2\n      add\n      0x40\n      mstore\n      dup1\n      swap3\n      swap2\n      swap1\n      dup2\n      dup2\n      mstore\n      0x20\n      add\n      dup3\n      dup1\n      sload\n      tag_84\n      swap1\n      tag_72\n      jump\t// in\n    tag_84:\n      dup1\n      iszero\n      tag_85\n      jumpi\n      dup1\n      0x1f\n      lt\n      tag_86\n      jumpi\n      0x0100\n      dup1\n      dup4\n      sload\n      div\n      mul\n      dup4\n      mstore\n      swap2\n      0x20\n      add\n      swap2\n      jump(tag_85)\n    tag_86:\n      dup3\n      add\n      swap2\n      swap1\n      0x00\n      mstore\n      keccak256(0x00, 0x20)\n      swap1\n    tag_87:\n      dup2\n      sload\n      dup2\n      mstore\n      swap1\n      0x01\n      add\n      swap1\n      0x20\n      add\n      dup1\n      dup4\n      gt\n      tag_87\n      jumpi\n      dup3\n      swap1\n      sub\n      0x1f\n      and\n      dup3\n      add\n      swap2\n    tag_85:\n      pop\n      pop\n      pop\n      pop\n      pop\n      dup2\n      mstore\n      0x20\n      add\n      0x01\n      dup3\n      add\n      sload\n      dup2\n      mstore\n      pop\n      pop\n      swap1\n      pop\n        /* \"Beginner Level/Voting System/contracts/Voting.sol\":1885:1894  candidate */\n      dup1\n        /* \"Beginner Level/Voting System/contracts/Voting.sol\":1885:1899  candidate.name */\n      0x00\n      add\n      mload\n        /* \"Beginner Level/Voting System/contracts/Voting.sol\":1901:1910  candidate */\n      dup2\n        /* \"Beginner Level/Voting System/contracts/Voting.sol\":1901:1920  candidate.voteCount */\n      0x20\n      add\n      mload\n        /* \"Beginner Level/Voting System/contracts/Voting.sol\":1877:1921  return (candidate.name, candidate.voteCount) */\n      swap3\n      pop\n      swap3\n      pop\n      pop\n        /* \"Beginner Level/Voting System/contracts/Voting.sol\":1622:1929  function getCandidate(uint256 _candidateId) public view returns (string memory name, uint256 voteCount) {... */\n      swap2\n      pop\n      swap2\n      jump\t// out\n        /* \"Beginner Level/Voting System/contracts/Voting.sol\":767:988  function addCandidate(string memory _name) public onlyOwner votingActive {... */\n    tag_39:\n        /* \"Beginner Level/Voting System/contracts/Voting.sol\":521:526  owner */\n      0x00\n      dup1\n      sload\n      swap1\n      0x0100\n      exp\n      swap1\n      div\n      0xffffffffffffffffffffffffffffffffffffffff\n      and\n        /* \"Beginner Level/Voting System/contracts/Voting.sol\":507:526  msg.sender == owner */\n      0xffffffffffffffffffffffffffffffffffffffff\n      and\n        /* \"Beginner Level/Voting System/contracts/Voting.sol\":507:517  msg.sender */\n      caller\n        /* \"Beginner Level/Voting System/contracts/Voting.sol\":507:526  msg.sender == owner */\n      0xffffffffffffffffffffffffffffffffffffffff\n      and\n      eq\n        /* \"Beginner Level/Voting System/contracts/Voting.sol\":499:564  require(msg.sender == owner, \"Only owner can call this function\") */\n      tag_89\n      jumpi\n      mload(0x40)\n      0x08c379a000000000000000000000000000000000000000000000000000000000\n      dup2\n      mstore\n      0x04\n      add\n      tag_90\n      swap1\n      tag_91\n      jump\t// in\n    tag_90:\n      mload(0x40)\n      dup1\n      swap2\n      sub\n      swap1\n      revert\n    tag_89:\n        /* \"Beginner Level/Voting System/contracts/Voting.sol\":640:651  votingEnded */\n      0x03\n      0x00\n      swap1\n      sload\n      swap1\n      0x0100\n      exp\n      swap1\n      div\n      0xff\n      and\n        /* \"Beginner Level/Voting System/contracts/Voting.sol\":639:651  !votingEnded */\n      iszero\n        /* \"Beginner Level/Voting System/contracts/Voting.sol\":631:672  require(!votingEnded, \"Voting has ended\") */\n      tag_93\n      jumpi\n      mload(0x40)\n      0x08c379a000000000000000000000000000000000000000000000000000000000\n      dup2\n      mstore\n      0x04\n      add\n      tag_94\n      swap1\n      tag_52\n      jump\t// in\n    tag_94:\n      mload(0x40)\n      dup1\n      swap2\n      sub\n      swap1\n      revert\n    tag_93:\n        /* \"Beginner Level/Voting System/contracts/Voting.sol\":851:861  candidates */\n      0x02\n        /* \"Beginner Level/Voting System/contracts/Voting.sol\":867:942  Candidate({... */\n      mload(0x40)\n      dup1\n      0x40\n      add\n      0x40\n      mstore\n      dup1\n        /* \"Beginner Level/Voting System/contracts/Voting.sol\":898:903  _name */\n      dup4\n        /* \"Beginner Level/Voting System/contracts/Voting.sol\":867:942  Candidate({... */\n      dup2\n      mstore\n      0x20\n      add\n        /* \"Beginner Level/Voting System/contracts/Voting.sol\":929:930  0 */\n      0x00\n        /* \"Beginner Level/Voting System/contracts/Voting.sol\":867:942  Candidate({... */\n      dup2\n      mstore\n      pop\n        /* \"Beginner Level/Voting System/contracts/Voting.sol\":851:943  candidates.push(Candidate({... */\n      swap1\n      dup1\n      0x01\n      dup2\n      sload\n      add\n      dup1\n      dup3\n      sstore\n      dup1\n      swap2\n      pop\n      pop\n      0x01\n      swap1\n      sub\n      swap1\n      0x00\n      mstore\n      keccak256(0x00, 0x20)\n      swap1\n      0x02\n      mul\n      add\n      0x00\n      swap1\n      swap2\n      swap1\n      swap2\n      swap1\n      swap2\n      pop\n      0x00\n      dup3\n      add\n      mload\n      dup2\n      0x00\n      add\n      swap1\n      dup2\n      tag_97\n      swap2\n      swap1\n      tag_98\n      jump\t// in\n    tag_97:\n      pop\n      0x20\n      dup3\n      add\n      mload\n      dup2\n      0x01\n      add\n      sstore\n      pop\n      pop\n        /* \"Beginner Level/Voting System/contracts/Voting.sol\":959:980  CandidateAdded(_name) */\n      0xf29562dad1599aea0ebb142466120aab326d5efa8f839df82a9c064bf78e8938\n        /* \"Beginner Level/Voting System/contracts/Voting.sol\":974:979  _name */\n      dup2\n        /* \"Beginner Level/Voting System/contracts/Voting.sol\":959:980  CandidateAdded(_name) */\n      mload(0x40)\n      tag_99\n      swap2\n      swap1\n      tag_100\n      jump\t// in\n    tag_99:\n      mload(0x40)\n      dup1\n      swap2\n      sub\n      swap1\n      log1\n        /* \"Beginner Level/Voting System/contracts/Voting.sol\":767:988  function addCandidate(string memory _name) public onlyOwner votingActive {... */\n      pop\n      jump\t// out\n        /* \"Beginner Level/Voting System/contracts/Voting.sol\":176:196  address public owner */\n    tag_41:\n      0x00\n      dup1\n      sload\n      swap1\n      0x0100\n      exp\n      swap1\n      div\n      0xffffffffffffffffffffffffffffffffffffffff\n      and\n      dup2\n      jump\t// out\n        /* \"Beginner Level/Voting System/contracts/Voting.sol\":286:309  bool public votingEnded */\n    tag_45:\n      0x03\n      0x00\n      swap1\n      sload\n      swap1\n      0x0100\n      exp\n      swap1\n      div\n      0xff\n      and\n      dup2\n      jump\t// out\n        /* \"Beginner Level/Voting System/contracts/Voting.sol\":1362:1496  function endVoting() public onlyOwner votingActive {... */\n    tag_48:\n        /* \"Beginner Level/Voting System/contracts/Voting.sol\":521:526  owner */\n      0x00\n      dup1\n      sload\n      swap1\n      0x0100\n      exp\n      swap1\n      div\n      0xffffffffffffffffffffffffffffffffffffffff\n      and\n        /* \"Beginner Level/Voting System/contracts/Voting.sol\":507:526  msg.sender == owner */\n      0xffffffffffffffffffffffffffffffffffffffff\n      and\n        /* \"Beginner Level/Voting System/contracts/Voting.sol\":507:517  msg.sender */\n      caller\n        /* \"Beginner Level/Voting System/contracts/Voting.sol\":507:526  msg.sender == owner */\n      0xffffffffffffffffffffffffffffffffffffffff\n      and\n      eq\n        /* \"Beginner Level/Voting System/contracts/Voting.sol\":499:564  require(msg.sender == owner, \"Only owner can call this function\") */\n      tag_102\n      jumpi\n      mload(0x40)\n      0x08c379a000000000000000000000000000000000000000000000000000000000\n      dup2\n      mstore\n      0x04\n      add\n      tag_103\n      swap1\n      tag_91\n      jump\t// in\n    tag_103:\n      mload(0x40)\n      dup1\n      swap2\n      sub\n      swap1\n      revert\n    tag_102:\n        /* \"Beginner Level/Voting System/contracts/Voting.sol\":640:651  votingEnded */\n      0x03\n      0x00\n      swap1\n      sload\n      swap1\n      0x0100\n      exp\n      swap1\n      div\n      0xff\n      and\n        /* \"Beginner Level/Voting System/contracts/Voting.sol\":639:651  !votingEnded */\n      iszero\n        /* \"Beginner Level/Voting System/contracts/Voting.sol\":631:672  require(!votingEnded, \"Voting has ended\") */\n      tag_105\n      jumpi\n      mload(0x40)\n      0x08c379a000000000000000000000000000000000000000000000000000000000\n      dup2\n      mstore\n      0x04\n      add\n      tag_106\n      swap1\n      tag_52\n      jump\t// in\n    tag_106:\n      mload(0x40)\n      dup1\n      swap2\n      sub\n      swap1\n      revert\n    tag_105:\n        /* \"Beginner Level/Voting System/contracts/Voting.sol\":1438:1442  true */\n      0x01\n        /* \"Beginner Level/Voting System/contracts/Voting.sol\":1424:1435  votingEnded */\n      0x03\n      0x00\n        /* \"Beginner Level/Voting System/contracts/Voting.sol\":1424:1442  votingEnded = true */\n      0x0100\n      exp\n      dup2\n      sload\n      dup2\n      0xff\n      mul\n      not\n      and\n      swap1\n      dup4\n      iszero\n      iszero\n      mul\n      or\n      swap1\n      sstore\n      pop\n        /* \"Beginner Level/Voting System/contracts/Voting.sol\":1458:1488  VotingEndeded(block.timestamp) */\n      0x2e81cdb492c9f62b4f74d65b09cda9579dc5245b2e8b243b4957662f2c0b1bef\n        /* \"Beginner Level/Voting System/contracts/Voting.sol\":1472:1487  block.timestamp */\n      timestamp\n        /* \"Beginner Level/Voting System/contracts/Voting.sol\":1458:1488  VotingEndeded(block.timestamp) */\n      mload(0x40)\n      tag_108\n      swap2\n      swap1\n      tag_26\n      jump\t// in\n    tag_108:\n      mload(0x40)\n      dup1\n      swap2\n      sub\n      swap1\n      log1\n        /* \"Beginner Level/Voting System/contracts/Voting.sol\":1362:1496  function endVoting() public onlyOwner votingActive {... */\n      jump\t// out\n        /* \"#utility.yul\":7:82   */\n    tag_109:\n        /* \"#utility.yul\":40:46   */\n      0x00\n        /* \"#utility.yul\":73:75   */\n      0x40\n        /* \"#utility.yul\":67:76   */\n      mload\n        /* \"#utility.yul\":57:76   */\n      swap1\n      pop\n        /* \"#utility.yul\":7:82   */\n      swap1\n      jump\t// out\n        /* \"#utility.yul\":88:205   */\n    tag_110:\n        /* \"#utility.yul\":197:198   */\n      0x00\n        /* \"#utility.yul\":194:195   */\n      dup1\n        /* \"#utility.yul\":187:199   */\n      revert\n        /* \"#utility.yul\":211:328   */\n    tag_111:\n        /* \"#utility.yul\":320:321   */\n      0x00\n        /* \"#utility.yul\":317:318   */\n      dup1\n        /* \"#utility.yul\":310:322   */\n      revert\n        /* \"#utility.yul\":334:411   */\n    tag_112:\n        /* \"#utility.yul\":371:378   */\n      0x00\n        /* \"#utility.yul\":400:405   */\n      dup2\n        /* \"#utility.yul\":389:405   */\n      swap1\n      pop\n        /* \"#utility.yul\":334:411   */\n      swap2\n      swap1\n      pop\n      jump\t// out\n        /* \"#utility.yul\":417:539   */\n    tag_113:\n        /* \"#utility.yul\":490:514   */\n      tag_168\n        /* \"#utility.yul\":508:513   */\n      dup2\n        /* \"#utility.yul\":490:514   */\n      tag_112\n      jump\t// in\n    tag_168:\n        /* \"#utility.yul\":483:488   */\n      dup2\n        /* \"#utility.yul\":480:515   */\n      eq\n        /* \"#utility.yul\":470:533   */\n      tag_169\n      jumpi\n        /* \"#utility.yul\":529:530   */\n      0x00\n        /* \"#utility.yul\":526:527   */\n      dup1\n        /* \"#utility.yul\":519:531   */\n      revert\n        /* \"#utility.yul\":470:533   */\n    tag_169:\n        /* \"#utility.yul\":417:539   */\n      pop\n      jump\t// out\n        /* \"#utility.yul\":545:684   */\n    tag_114:\n        /* \"#utility.yul\":591:596   */\n      0x00\n        /* \"#utility.yul\":629:635   */\n      dup2\n        /* \"#utility.yul\":616:636   */\n      calldataload\n        /* \"#utility.yul\":607:636   */\n      swap1\n      pop\n        /* \"#utility.yul\":645:678   */\n      tag_171\n        /* \"#utility.yul\":672:677   */\n      dup2\n        /* \"#utility.yul\":645:678   */\n      tag_113\n      jump\t// in\n    tag_171:\n        /* \"#utility.yul\":545:684   */\n      swap3\n      swap2\n      pop\n      pop\n      jump\t// out\n        /* \"#utility.yul\":690:1019   */\n    tag_15:\n        /* \"#utility.yul\":749:755   */\n      0x00\n        /* \"#utility.yul\":798:800   */\n      0x20\n        /* \"#utility.yul\":786:795   */\n      dup3\n        /* \"#utility.yul\":777:784   */\n      dup5\n        /* \"#utility.yul\":773:796   */\n      sub\n        /* \"#utility.yul\":769:801   */\n      slt\n        /* \"#utility.yul\":766:885   */\n      iszero\n      tag_173\n      jumpi\n        /* \"#utility.yul\":804:883   */\n      tag_174\n      tag_110\n      jump\t// in\n    tag_174:\n        /* \"#utility.yul\":766:885   */\n    tag_173:\n        /* \"#utility.yul\":924:925   */\n      0x00\n        /* \"#utility.yul\":949:1002   */\n      tag_175\n        /* \"#utility.yul\":994:1001   */\n      dup5\n        /* \"#utility.yul\":985:991   */\n      dup3\n        /* \"#utility.yul\":974:983   */\n      dup6\n        /* \"#utility.yul\":970:992   */\n      add\n        /* \"#utility.yul\":949:1002   */\n      tag_114\n      jump\t// in\n    tag_175:\n        /* \"#utility.yul\":939:1002   */\n      swap2\n      pop\n        /* \"#utility.yul\":895:1012   */\n      pop\n        /* \"#utility.yul\":690:1019   */\n      swap3\n      swap2\n      pop\n      pop\n      jump\t// out\n        /* \"#utility.yul\":1025:1151   */\n    tag_115:\n        /* \"#utility.yul\":1062:1069   */\n      0x00\n        /* \"#utility.yul\":1102:1144   */\n      0xffffffffffffffffffffffffffffffffffffffff\n        /* \"#utility.yul\":1095:1100   */\n      dup3\n        /* \"#utility.yul\":1091:1145   */\n      and\n        /* \"#utility.yul\":1080:1145   */\n      swap1\n      pop\n        /* \"#utility.yul\":1025:1151   */\n      swap2\n      swap1\n      pop\n      jump\t// out\n        /* \"#utility.yul\":1157:1253   */\n    tag_116:\n        /* \"#utility.yul\":1194:1201   */\n      0x00\n        /* \"#utility.yul\":1223:1247   */\n      tag_178\n        /* \"#utility.yul\":1241:1246   */\n      dup3\n        /* \"#utility.yul\":1223:1247   */\n      tag_115\n      jump\t// in\n    tag_178:\n        /* \"#utility.yul\":1212:1247   */\n      swap1\n      pop\n        /* \"#utility.yul\":1157:1253   */\n      swap2\n      swap1\n      pop\n      jump\t// out\n        /* \"#utility.yul\":1259:1381   */\n    tag_117:\n        /* \"#utility.yul\":1332:1356   */\n      tag_180\n        /* \"#utility.yul\":1350:1355   */\n      dup2\n        /* \"#utility.yul\":1332:1356   */\n      tag_116\n      jump\t// in\n    tag_180:\n        /* \"#utility.yul\":1325:1330   */\n      dup2\n        /* \"#utility.yul\":1322:1357   */\n      eq\n        /* \"#utility.yul\":1312:1375   */\n      tag_181\n      jumpi\n        /* \"#utility.yul\":1371:1372   */\n      0x00\n        /* \"#utility.yul\":1368:1369   */\n      dup1\n        /* \"#utility.yul\":1361:1373   */\n      revert\n        /* \"#utility.yul\":1312:1375   */\n    tag_181:\n        /* \"#utility.yul\":1259:1381   */\n      pop\n      jump\t// out\n        /* \"#utility.yul\":1387:1526   */\n    tag_118:\n        /* \"#utility.yul\":1433:1438   */\n      0x00\n        /* \"#utility.yul\":1471:1477   */\n      dup2\n        /* \"#utility.yul\":1458:1478   */\n      calldataload\n        /* \"#utility.yul\":1449:1478   */\n      swap1\n      pop\n        /* \"#utility.yul\":1487:1520   */\n      tag_183\n        /* \"#utility.yul\":1514:1519   */\n      dup2\n        /* \"#utility.yul\":1487:1520   */\n      tag_117\n      jump\t// in\n    tag_183:\n        /* \"#utility.yul\":1387:1526   */\n      swap3\n      swap2\n      pop\n      pop\n      jump\t// out\n        /* \"#utility.yul\":1532:1861   */\n    tag_19:\n        /* \"#utility.yul\":1591:1597   */\n      0x00\n        /* \"#utility.yul\":1640:1642   */\n      0x20\n        /* \"#utility.yul\":1628:1637   */\n      dup3\n        /* \"#utility.yul\":1619:1626   */\n      dup5\n        /* \"#utility.yul\":1615:1638   */\n      sub\n        /* \"#utility.yul\":1611:1643   */\n      slt\n        /* \"#utility.yul\":1608:1727   */\n      iszero\n      tag_185\n      jumpi\n        /* \"#utility.yul\":1646:1725   */\n      tag_186\n      tag_110\n      jump\t// in\n    tag_186:\n        /* \"#utility.yul\":1608:1727   */\n    tag_185:\n        /* \"#utility.yul\":1766:1767   */\n      0x00\n        /* \"#utility.yul\":1791:1844   */\n      tag_187\n        /* \"#utility.yul\":1836:1843   */\n      dup5\n        /* \"#utility.yul\":1827:1833   */\n      dup3\n        /* \"#utility.yul\":1816:1825   */\n      dup6\n        /* \"#utility.yul\":1812:1834   */\n      add\n        /* \"#utility.yul\":1791:1844   */\n      tag_118\n      jump\t// in\n    tag_187:\n        /* \"#utility.yul\":1781:1844   */\n      swap2\n      pop\n        /* \"#utility.yul\":1737:1854   */\n      pop\n        /* \"#utility.yul\":1532:1861   */\n      swap3\n      swap2\n      pop\n      pop\n      jump\t// out\n        /* \"#utility.yul\":1867:1957   */\n    tag_119:\n        /* \"#utility.yul\":1901:1908   */\n      0x00\n        /* \"#utility.yul\":1944:1949   */\n      dup2\n        /* \"#utility.yul\":1937:1950   */\n      iszero\n        /* \"#utility.yul\":1930:1951   */\n      iszero\n        /* \"#utility.yul\":1919:1951   */\n      swap1\n      pop\n        /* \"#utility.yul\":1867:1957   */\n      swap2\n      swap1\n      pop\n      jump\t// out\n        /* \"#utility.yul\":1963:2072   */\n    tag_120:\n        /* \"#utility.yul\":2044:2065   */\n      tag_190\n        /* \"#utility.yul\":2059:2064   */\n      dup2\n        /* \"#utility.yul\":2044:2065   */\n      tag_119\n      jump\t// in\n    tag_190:\n        /* \"#utility.yul\":2039:2042   */\n      dup3\n        /* \"#utility.yul\":2032:2066   */\n      mstore\n        /* \"#utility.yul\":1963:2072   */\n      pop\n      pop\n      jump\t// out\n        /* \"#utility.yul\":2078:2288   */\n    tag_22:\n        /* \"#utility.yul\":2165:2169   */\n      0x00\n        /* \"#utility.yul\":2203:2205   */\n      0x20\n        /* \"#utility.yul\":2192:2201   */\n      dup3\n        /* \"#utility.yul\":2188:2206   */\n      add\n        /* \"#utility.yul\":2180:2206   */\n      swap1\n      pop\n        /* \"#utility.yul\":2216:2281   */\n      tag_192\n        /* \"#utility.yul\":2278:2279   */\n      0x00\n        /* \"#utility.yul\":2267:2276   */\n      dup4\n        /* \"#utility.yul\":2263:2280   */\n      add\n        /* \"#utility.yul\":2254:2260   */\n      dup5\n        /* \"#utility.yul\":2216:2281   */\n      tag_120\n      jump\t// in\n    tag_192:\n        /* \"#utility.yul\":2078:2288   */\n      swap3\n      swap2\n      pop\n      pop\n      jump\t// out\n        /* \"#utility.yul\":2294:2412   */\n    tag_121:\n        /* \"#utility.yul\":2381:2405   */\n      tag_194\n        /* \"#utility.yul\":2399:2404   */\n      dup2\n        /* \"#utility.yul\":2381:2405   */\n      tag_112\n      jump\t// in\n    tag_194:\n        /* \"#utility.yul\":2376:2379   */\n      dup3\n        /* \"#utility.yul\":2369:2406   */\n      mstore\n        /* \"#utility.yul\":2294:2412   */\n      pop\n      pop\n      jump\t// out\n        /* \"#utility.yul\":2418:2640   */\n    tag_26:\n        /* \"#utility.yul\":2511:2515   */\n      0x00\n        /* \"#utility.yul\":2549:2551   */\n      0x20\n        /* \"#utility.yul\":2538:2547   */\n      dup3\n        /* \"#utility.yul\":2534:2552   */\n      add\n        /* \"#utility.yul\":2526:2552   */\n      swap1\n      pop\n        /* \"#utility.yul\":2562:2633   */\n      tag_196\n        /* \"#utility.yul\":2630:2631   */\n      0x00\n        /* \"#utility.yul\":2619:2628   */\n      dup4\n        /* \"#utility.yul\":2615:2632   */\n      add\n        /* \"#utility.yul\":2606:2612   */\n      dup5\n        /* \"#utility.yul\":2562:2633   */\n      tag_121\n      jump\t// in\n    tag_196:\n        /* \"#utility.yul\":2418:2640   */\n      swap3\n      swap2\n      pop\n      pop\n      jump\t// out\n        /* \"#utility.yul\":2646:2745   */\n    tag_122:\n        /* \"#utility.yul\":2698:2704   */\n      0x00\n        /* \"#utility.yul\":2732:2737   */\n      dup2\n        /* \"#utility.yul\":2726:2738   */\n      mload\n        /* \"#utility.yul\":2716:2738   */\n      swap1\n      pop\n        /* \"#utility.yul\":2646:2745   */\n      swap2\n      swap1\n      pop\n      jump\t// out\n        /* \"#utility.yul\":2751:2920   */\n    tag_123:\n        /* \"#utility.yul\":2835:2846   */\n      0x00\n        /* \"#utility.yul\":2869:2875   */\n      dup3\n        /* \"#utility.yul\":2864:2867   */\n      dup3\n        /* \"#utility.yul\":2857:2876   */\n      mstore\n        /* \"#utility.yul\":2909:2913   */\n      0x20\n        /* \"#utility.yul\":2904:2907   */\n      dup3\n        /* \"#utility.yul\":2900:2914   */\n      add\n        /* \"#utility.yul\":2885:2914   */\n      swap1\n      pop\n        /* \"#utility.yul\":2751:2920   */\n      swap3\n      swap2\n      pop\n      pop\n      jump\t// out\n        /* \"#utility.yul\":2926:3065   */\n    tag_124:\n        /* \"#utility.yul\":3015:3021   */\n      dup3\n        /* \"#utility.yul\":3010:3013   */\n      dup2\n        /* \"#utility.yul\":3005:3008   */\n      dup4\n        /* \"#utility.yul\":2999:3022   */\n      mcopy\n        /* \"#utility.yul\":3056:3057   */\n      0x00\n        /* \"#utility.yul\":3047:3053   */\n      dup4\n        /* \"#utility.yul\":3042:3045   */\n      dup4\n        /* \"#utility.yul\":3038:3054   */\n      add\n        /* \"#utility.yul\":3031:3058   */\n      mstore\n        /* \"#utility.yul\":2926:3065   */\n      pop\n      pop\n      pop\n      jump\t// out\n        /* \"#utility.yul\":3071:3173   */\n    tag_125:\n        /* \"#utility.yul\":3112:3118   */\n      0x00\n        /* \"#utility.yul\":3163:3165   */\n      0x1f\n        /* \"#utility.yul\":3159:3166   */\n      not\n        /* \"#utility.yul\":3154:3156   */\n      0x1f\n        /* \"#utility.yul\":3147:3152   */\n      dup4\n        /* \"#utility.yul\":3143:3157   */\n      add\n        /* \"#utility.yul\":3139:3167   */\n      and\n        /* \"#utility.yul\":3129:3167   */\n      swap1\n      pop\n        /* \"#utility.yul\":3071:3173   */\n      swap2\n      swap1\n      pop\n      jump\t// out\n        /* \"#utility.yul\":3179:3556   */\n    tag_126:\n        /* \"#utility.yul\":3267:3270   */\n      0x00\n        /* \"#utility.yul\":3295:3334   */\n      tag_202\n        /* \"#utility.yul\":3328:3333   */\n      dup3\n        /* \"#utility.yul\":3295:3334   */\n      tag_122\n      jump\t// in\n    tag_202:\n        /* \"#utility.yul\":3350:3421   */\n      tag_203\n        /* \"#utility.yul\":3414:3420   */\n      dup2\n        /* \"#utility.yul\":3409:3412   */\n      dup6\n        /* \"#utility.yul\":3350:3421   */\n      tag_123\n      jump\t// in\n    tag_203:\n        /* \"#utility.yul\":3343:3421   */\n      swap4\n      pop\n        /* \"#utility.yul\":3430:3495   */\n      tag_204\n        /* \"#utility.yul\":3488:3494   */\n      dup2\n        /* \"#utility.yul\":3483:3486   */\n      dup6\n        /* \"#utility.yul\":3476:3480   */\n      0x20\n        /* \"#utility.yul\":3469:3474   */\n      dup7\n        /* \"#utility.yul\":3465:3481   */\n      add\n        /* \"#utility.yul\":3430:3495   */\n      tag_124\n      jump\t// in\n    tag_204:\n        /* \"#utility.yul\":3520:3549   */\n      tag_205\n        /* \"#utility.yul\":3542:3548   */\n      dup2\n        /* \"#utility.yul\":3520:3549   */\n      tag_125\n      jump\t// in\n    tag_205:\n        /* \"#utility.yul\":3515:3518   */\n      dup5\n        /* \"#utility.yul\":3511:3550   */\n      add\n        /* \"#utility.yul\":3504:3550   */\n      swap2\n      pop\n        /* \"#utility.yul\":3271:3556   */\n      pop\n        /* \"#utility.yul\":3179:3556   */\n      swap3\n      swap2\n      pop\n      pop\n      jump\t// out\n        /* \"#utility.yul\":3562:3985   */\n    tag_31:\n        /* \"#utility.yul\":3703:3707   */\n      0x00\n        /* \"#utility.yul\":3741:3743   */\n      0x40\n        /* \"#utility.yul\":3730:3739   */\n      dup3\n        /* \"#utility.yul\":3726:3744   */\n      add\n        /* \"#utility.yul\":3718:3744   */\n      swap1\n      pop\n        /* \"#utility.yul\":3790:3799   */\n      dup2\n        /* \"#utility.yul\":3784:3788   */\n      dup2\n        /* \"#utility.yul\":3780:3800   */\n      sub\n        /* \"#utility.yul\":3776:3777   */\n      0x00\n        /* \"#utility.yul\":3765:3774   */\n      dup4\n        /* \"#utility.yul\":3761:3778   */\n      add\n        /* \"#utility.yul\":3754:3801   */\n      mstore\n        /* \"#utility.yul\":3818:3896   */\n      tag_207\n        /* \"#utility.yul\":3891:3895   */\n      dup2\n        /* \"#utility.yul\":3882:3888   */\n      dup6\n        /* \"#utility.yul\":3818:3896   */\n      tag_126\n      jump\t// in\n    tag_207:\n        /* \"#utility.yul\":3810:3896   */\n      swap1\n      pop\n        /* \"#utility.yul\":3906:3978   */\n      tag_208\n        /* \"#utility.yul\":3974:3976   */\n      0x20\n        /* \"#utility.yul\":3963:3972   */\n      dup4\n        /* \"#utility.yul\":3959:3977   */\n      add\n        /* \"#utility.yul\":3950:3956   */\n      dup5\n        /* \"#utility.yul\":3906:3978   */\n      tag_121\n      jump\t// in\n    tag_208:\n        /* \"#utility.yul\":3562:3985   */\n      swap4\n      swap3\n      pop\n      pop\n      pop\n      jump\t// out\n        /* \"#utility.yul\":3991:4108   */\n    tag_127:\n        /* \"#utility.yul\":4100:4101   */\n      0x00\n        /* \"#utility.yul\":4097:4098   */\n      dup1\n        /* \"#utility.yul\":4090:4102   */\n      revert\n        /* \"#utility.yul\":4114:4231   */\n    tag_128:\n        /* \"#utility.yul\":4223:4224   */\n      0x00\n        /* \"#utility.yul\":4220:4221   */\n      dup1\n        /* \"#utility.yul\":4213:4225   */\n      revert\n        /* \"#utility.yul\":4237:4417   */\n    tag_129:\n        /* \"#utility.yul\":4285:4362   */\n      0x4e487b7100000000000000000000000000000000000000000000000000000000\n        /* \"#utility.yul\":4282:4283   */\n      0x00\n        /* \"#utility.yul\":4275:4363   */\n      mstore\n        /* \"#utility.yul\":4382:4386   */\n      0x41\n        /* \"#utility.yul\":4379:4380   */\n      0x04\n        /* \"#utility.yul\":4372:4387   */\n      mstore\n        /* \"#utility.yul\":4406:4410   */\n      0x24\n        /* \"#utility.yul\":4403:4404   */\n      0x00\n        /* \"#utility.yul\":4396:4411   */\n      revert\n        /* \"#utility.yul\":4423:4704   */\n    tag_130:\n        /* \"#utility.yul\":4506:4533   */\n      tag_213\n        /* \"#utility.yul\":4528:4532   */\n      dup3\n        /* \"#utility.yul\":4506:4533   */\n      tag_125\n      jump\t// in\n    tag_213:\n        /* \"#utility.yul\":4498:4504   */\n      dup2\n        /* \"#utility.yul\":4494:4534   */\n      add\n        /* \"#utility.yul\":4636:4642   */\n      dup2\n        /* \"#utility.yul\":4624:4634   */\n      dup2\n        /* \"#utility.yul\":4621:4643   */\n      lt\n        /* \"#utility.yul\":4600:4618   */\n      0xffffffffffffffff\n        /* \"#utility.yul\":4588:4598   */\n      dup3\n        /* \"#utility.yul\":4585:4619   */\n      gt\n        /* \"#utility.yul\":4582:4644   */\n      or\n        /* \"#utility.yul\":4579:4667   */\n      iszero\n      tag_214\n      jumpi\n        /* \"#utility.yul\":4647:4665   */\n      tag_215\n      tag_129\n      jump\t// in\n    tag_215:\n        /* \"#utility.yul\":4579:4667   */\n    tag_214:\n        /* \"#utility.yul\":4687:4697   */\n      dup1\n        /* \"#utility.yul\":4683:4685   */\n      0x40\n        /* \"#utility.yul\":4676:4698   */\n      mstore\n        /* \"#utility.yul\":4466:4704   */\n      pop\n        /* \"#utility.yul\":4423:4704   */\n      pop\n      pop\n      jump\t// out\n        /* \"#utility.yul\":4710:4839   */\n    tag_131:\n        /* \"#utility.yul\":4744:4750   */\n      0x00\n        /* \"#utility.yul\":4771:4791   */\n      tag_217\n      tag_109\n      jump\t// in\n    tag_217:\n        /* \"#utility.yul\":4761:4791   */\n      swap1\n      pop\n        /* \"#utility.yul\":4800:4833   */\n      tag_218\n        /* \"#utility.yul\":4828:4832   */\n      dup3\n        /* \"#utility.yul\":4820:4826   */\n      dup3\n        /* \"#utility.yul\":4800:4833   */\n      tag_130\n      jump\t// in\n    tag_218:\n        /* \"#utility.yul\":4710:4839   */\n      swap2\n      swap1\n      pop\n      jump\t// out\n        /* \"#utility.yul\":4845:5153   */\n    tag_132:\n        /* \"#utility.yul\":4907:4911   */\n      0x00\n        /* \"#utility.yul\":4997:5015   */\n      0xffffffffffffffff\n        /* \"#utility.yul\":4989:4995   */\n      dup3\n        /* \"#utility.yul\":4986:5016   */\n      gt\n        /* \"#utility.yul\":4983:5039   */\n      iszero\n      tag_220\n      jumpi\n        /* \"#utility.yul\":5019:5037   */\n      tag_221\n      tag_129\n      jump\t// in\n    tag_221:\n        /* \"#utility.yul\":4983:5039   */\n    tag_220:\n        /* \"#utility.yul\":5057:5086   */\n      tag_222\n        /* \"#utility.yul\":5079:5085   */\n      dup3\n        /* \"#utility.yul\":5057:5086   */\n      tag_125\n      jump\t// in\n    tag_222:\n        /* \"#utility.yul\":5049:5086   */\n      swap1\n      pop\n        /* \"#utility.yul\":5141:5145   */\n      0x20\n        /* \"#utility.yul\":5135:5139   */\n      dup2\n        /* \"#utility.yul\":5131:5146   */\n      add\n        /* \"#utility.yul\":5123:5146   */\n      swap1\n      pop\n        /* \"#utility.yul\":4845:5153   */\n      swap2\n      swap1\n      pop\n      jump\t// out\n        /* \"#utility.yul\":5159:5307   */\n    tag_133:\n        /* \"#utility.yul\":5257:5263   */\n      dup3\n        /* \"#utility.yul\":5252:5255   */\n      dup2\n        /* \"#utility.yul\":5247:5250   */\n      dup4\n        /* \"#utility.yul\":5234:5264   */\n      calldatacopy\n        /* \"#utility.yul\":5298:5299   */\n      0x00\n        /* \"#utility.yul\":5289:5295   */\n      dup4\n        /* \"#utility.yul\":5284:5287   */\n      dup4\n        /* \"#utility.yul\":5280:5296   */\n      add\n        /* \"#utility.yul\":5273:5300   */\n      mstore\n        /* \"#utility.yul\":5159:5307   */\n      pop\n      pop\n      pop\n      jump\t// out\n        /* \"#utility.yul\":5313:5738   */\n    tag_134:\n        /* \"#utility.yul\":5391:5396   */\n      0x00\n        /* \"#utility.yul\":5416:5482   */\n      tag_225\n        /* \"#utility.yul\":5432:5481   */\n      tag_226\n        /* \"#utility.yul\":5474:5480   */\n      dup5\n        /* \"#utility.yul\":5432:5481   */\n      tag_132\n      jump\t// in\n    tag_226:\n        /* \"#utility.yul\":5416:5482   */\n      tag_131\n      jump\t// in\n    tag_225:\n        /* \"#utility.yul\":5407:5482   */\n      swap1\n      pop\n        /* \"#utility.yul\":5505:5511   */\n      dup3\n        /* \"#utility.yul\":5498:5503   */\n      dup2\n        /* \"#utility.yul\":5491:5512   */\n      mstore\n        /* \"#utility.yul\":5543:5547   */\n      0x20\n        /* \"#utility.yul\":5536:5541   */\n      dup2\n        /* \"#utility.yul\":5532:5548   */\n      add\n        /* \"#utility.yul\":5581:5584   */\n      dup5\n        /* \"#utility.yul\":5572:5578   */\n      dup5\n        /* \"#utility.yul\":5567:5570   */\n      dup5\n        /* \"#utility.yul\":5563:5579   */\n      add\n        /* \"#utility.yul\":5560:5585   */\n      gt\n        /* \"#utility.yul\":5557:5669   */\n      iszero\n      tag_227\n      jumpi\n        /* \"#utility.yul\":5588:5667   */\n      tag_228\n      tag_128\n      jump\t// in\n    tag_228:\n        /* \"#utility.yul\":5557:5669   */\n    tag_227:\n        /* \"#utility.yul\":5678:5732   */\n      tag_229\n        /* \"#utility.yul\":5725:5731   */\n      dup5\n        /* \"#utility.yul\":5720:5723   */\n      dup3\n        /* \"#utility.yul\":5715:5718   */\n      dup6\n        /* \"#utility.yul\":5678:5732   */\n      tag_133\n      jump\t// in\n    tag_229:\n        /* \"#utility.yul\":5397:5738   */\n      pop\n        /* \"#utility.yul\":5313:5738   */\n      swap4\n      swap3\n      pop\n      pop\n      pop\n      jump\t// out\n        /* \"#utility.yul\":5758:6098   */\n    tag_135:\n        /* \"#utility.yul\":5814:5819   */\n      0x00\n        /* \"#utility.yul\":5863:5866   */\n      dup3\n        /* \"#utility.yul\":5856:5860   */\n      0x1f\n        /* \"#utility.yul\":5848:5854   */\n      dup4\n        /* \"#utility.yul\":5844:5861   */\n      add\n        /* \"#utility.yul\":5840:5867   */\n      slt\n        /* \"#utility.yul\":5830:5952   */\n      tag_231\n      jumpi\n        /* \"#utility.yul\":5871:5950   */\n      tag_232\n      tag_127\n      jump\t// in\n    tag_232:\n        /* \"#utility.yul\":5830:5952   */\n    tag_231:\n        /* \"#utility.yul\":5988:5994   */\n      dup2\n        /* \"#utility.yul\":5975:5995   */\n      calldataload\n        /* \"#utility.yul\":6013:6092   */\n      tag_233\n        /* \"#utility.yul\":6088:6091   */\n      dup5\n        /* \"#utility.yul\":6080:6086   */\n      dup3\n        /* \"#utility.yul\":6073:6077   */\n      0x20\n        /* \"#utility.yul\":6065:6071   */\n      dup7\n        /* \"#utility.yul\":6061:6078   */\n      add\n        /* \"#utility.yul\":6013:6092   */\n      tag_134\n      jump\t// in\n    tag_233:\n        /* \"#utility.yul\":6004:6092   */\n      swap2\n      pop\n        /* \"#utility.yul\":5820:6098   */\n      pop\n        /* \"#utility.yul\":5758:6098   */\n      swap3\n      swap2\n      pop\n      pop\n      jump\t// out\n        /* \"#utility.yul\":6104:6613   */\n    tag_38:\n        /* \"#utility.yul\":6173:6179   */\n      0x00\n        /* \"#utility.yul\":6222:6224   */\n      0x20\n        /* \"#utility.yul\":6210:6219   */\n      dup3\n        /* \"#utility.yul\":6201:6208   */\n      dup5\n        /* \"#utility.yul\":6197:6220   */\n      sub\n        /* \"#utility.yul\":6193:6225   */\n      slt\n        /* \"#utility.yul\":6190:6309   */\n      iszero\n      tag_235\n      jumpi\n        /* \"#utility.yul\":6228:6307   */\n      tag_236\n      tag_110\n      jump\t// in\n    tag_236:\n        /* \"#utility.yul\":6190:6309   */\n    tag_235:\n        /* \"#utility.yul\":6376:6377   */\n      0x00\n        /* \"#utility.yul\":6365:6374   */\n      dup3\n        /* \"#utility.yul\":6361:6378   */\n      add\n        /* \"#utility.yul\":6348:6379   */\n      calldataload\n        /* \"#utility.yul\":6406:6424   */\n      0xffffffffffffffff\n        /* \"#utility.yul\":6398:6404   */\n      dup2\n        /* \"#utility.yul\":6395:6425   */\n      gt\n        /* \"#utility.yul\":6392:6509   */\n      iszero\n      tag_237\n      jumpi\n        /* \"#utility.yul\":6428:6507   */\n      tag_238\n      tag_111\n      jump\t// in\n    tag_238:\n        /* \"#utility.yul\":6392:6509   */\n    tag_237:\n        /* \"#utility.yul\":6533:6596   */\n      tag_239\n        /* \"#utility.yul\":6588:6595   */\n      dup5\n        /* \"#utility.yul\":6579:6585   */\n      dup3\n        /* \"#utility.yul\":6568:6577   */\n      dup6\n        /* \"#utility.yul\":6564:6586   */\n      add\n        /* \"#utility.yul\":6533:6596   */\n      tag_135\n      jump\t// in\n    tag_239:\n        /* \"#utility.yul\":6523:6596   */\n      swap2\n      pop\n        /* \"#utility.yul\":6319:6606   */\n      pop\n        /* \"#utility.yul\":6104:6613   */\n      swap3\n      swap2\n      pop\n      pop\n      jump\t// out\n        /* \"#utility.yul\":6619:6737   */\n    tag_136:\n        /* \"#utility.yul\":6706:6730   */\n      tag_241\n        /* \"#utility.yul\":6724:6729   */\n      dup2\n        /* \"#utility.yul\":6706:6730   */\n      tag_116\n      jump\t// in\n    tag_241:\n        /* \"#utility.yul\":6701:6704   */\n      dup3\n        /* \"#utility.yul\":6694:6731   */\n      mstore\n        /* \"#utility.yul\":6619:6737   */\n      pop\n      pop\n      jump\t// out\n        /* \"#utility.yul\":6743:6965   */\n    tag_43:\n        /* \"#utility.yul\":6836:6840   */\n      0x00\n        /* \"#utility.yul\":6874:6876   */\n      0x20\n        /* \"#utility.yul\":6863:6872   */\n      dup3\n        /* \"#utility.yul\":6859:6877   */\n      add\n        /* \"#utility.yul\":6851:6877   */\n      swap1\n      pop\n        /* \"#utility.yul\":6887:6958   */\n      tag_243\n        /* \"#utility.yul\":6955:6956   */\n      0x00\n        /* \"#utility.yul\":6944:6953   */\n      dup4\n        /* \"#utility.yul\":6940:6957   */\n      add\n        /* \"#utility.yul\":6931:6937   */\n      dup5\n        /* \"#utility.yul\":6887:6958   */\n      tag_136\n      jump\t// in\n    tag_243:\n        /* \"#utility.yul\":6743:6965   */\n      swap3\n      swap2\n      pop\n      pop\n      jump\t// out\n        /* \"#utility.yul\":6971:7137   */\n    tag_137:\n        /* \"#utility.yul\":7111:7129   */\n      0x566f74696e672068617320656e64656400000000000000000000000000000000\n        /* \"#utility.yul\":7107:7108   */\n      0x00\n        /* \"#utility.yul\":7099:7105   */\n      dup3\n        /* \"#utility.yul\":7095:7109   */\n      add\n        /* \"#utility.yul\":7088:7130   */\n      mstore\n        /* \"#utility.yul\":6971:7137   */\n      pop\n      jump\t// out\n        /* \"#utility.yul\":7143:7509   */\n    tag_138:\n        /* \"#utility.yul\":7285:7288   */\n      0x00\n        /* \"#utility.yul\":7306:7373   */\n      tag_246\n        /* \"#utility.yul\":7370:7372   */\n      0x10\n        /* \"#utility.yul\":7365:7368   */\n      dup4\n        /* \"#utility.yul\":7306:7373   */\n      tag_123\n      jump\t// in\n    tag_246:\n        /* \"#utility.yul\":7299:7373   */\n      swap2\n      pop\n        /* \"#utility.yul\":7382:7475   */\n      tag_247\n        /* \"#utility.yul\":7471:7474   */\n      dup3\n        /* \"#utility.yul\":7382:7475   */\n      tag_137\n      jump\t// in\n    tag_247:\n        /* \"#utility.yul\":7500:7502   */\n      0x20\n        /* \"#utility.yul\":7495:7498   */\n      dup3\n        /* \"#utility.yul\":7491:7503   */\n      add\n        /* \"#utility.yul\":7484:7503   */\n      swap1\n      pop\n        /* \"#utility.yul\":7143:7509   */\n      swap2\n      swap1\n      pop\n      jump\t// out\n        /* \"#utility.yul\":7515:7934   */\n    tag_52:\n        /* \"#utility.yul\":7681:7685   */\n      0x00\n        /* \"#utility.yul\":7719:7721   */\n      0x20\n        /* \"#utility.yul\":7708:7717   */\n      dup3\n        /* \"#utility.yul\":7704:7722   */\n      add\n        /* \"#utility.yul\":7696:7722   */\n      swap1\n      pop\n        /* \"#utility.yul\":7768:7777   */\n      dup2\n        /* \"#utility.yul\":7762:7766   */\n      dup2\n        /* \"#utility.yul\":7758:7778   */\n      sub\n        /* \"#utility.yul\":7754:7755   */\n      0x00\n        /* \"#utility.yul\":7743:7752   */\n      dup4\n        /* \"#utility.yul\":7739:7756   */\n      add\n        /* \"#utility.yul\":7732:7779   */\n      mstore\n        /* \"#utility.yul\":7796:7927   */\n      tag_249\n        /* \"#utility.yul\":7922:7926   */\n      dup2\n        /* \"#utility.yul\":7796:7927   */\n      tag_138\n      jump\t// in\n    tag_249:\n        /* \"#utility.yul\":7788:7927   */\n      swap1\n      pop\n        /* \"#utility.yul\":7515:7934   */\n      swap2\n      swap1\n      pop\n      jump\t// out\n        /* \"#utility.yul\":7940:8110   */\n    tag_139:\n        /* \"#utility.yul\":8080:8102   */\n      0x496e76616c69642063616e646964617465204944000000000000000000000000\n        /* \"#utility.yul\":8076:8077   */\n      0x00\n        /* \"#utility.yul\":8068:8074   */\n      dup3\n        /* \"#utility.yul\":8064:8078   */\n      add\n        /* \"#utility.yul\":8057:8103   */\n      mstore\n        /* \"#utility.yul\":7940:8110   */\n      pop\n      jump\t// out\n        /* \"#utility.yul\":8116:8482   */\n    tag_140:\n        /* \"#utility.yul\":8258:8261   */\n      0x00\n        /* \"#utility.yul\":8279:8346   */\n      tag_252\n        /* \"#utility.yul\":8343:8345   */\n      0x14\n        /* \"#utility.yul\":8338:8341   */\n      dup4\n        /* \"#utility.yul\":8279:8346   */\n      tag_123\n      jump\t// in\n    tag_252:\n        /* \"#utility.yul\":8272:8346   */\n      swap2\n      pop\n        /* \"#utility.yul\":8355:8448   */\n      tag_253\n        /* \"#utility.yul\":8444:8447   */\n      dup3\n        /* \"#utility.yul\":8355:8448   */\n      tag_139\n      jump\t// in\n    tag_253:\n        /* \"#utility.yul\":8473:8475   */\n      0x20\n        /* \"#utility.yul\":8468:8471   */\n      dup3\n        /* \"#utility.yul\":8464:8476   */\n      add\n        /* \"#utility.yul\":8457:8476   */\n      swap1\n      pop\n        /* \"#utility.yul\":8116:8482   */\n      swap2\n      swap1\n      pop\n      jump\t// out\n        /* \"#utility.yul\":8488:8907   */\n    tag_56:\n        /* \"#utility.yul\":8654:8658   */\n      0x00\n        /* \"#utility.yul\":8692:8694   */\n      0x20\n        /* \"#utility.yul\":8681:8690   */\n      dup3\n        /* \"#utility.yul\":8677:8695   */\n      add\n        /* \"#utility.yul\":8669:8695   */\n      swap1\n      pop\n        /* \"#utility.yul\":8741:8750   */\n      dup2\n        /* \"#utility.yul\":8735:8739   */\n      dup2\n        /* \"#utility.yul\":8731:8751   */\n      sub\n        /* \"#utility.yul\":8727:8728   */\n      0x00\n        /* \"#utility.yul\":8716:8725   */\n      dup4\n        /* \"#utility.yul\":8712:8729   */\n      add\n        /* \"#utility.yul\":8705:8752   */\n      mstore\n        /* \"#utility.yul\":8769:8900   */\n      tag_255\n        /* \"#utility.yul\":8895:8899   */\n      dup2\n        /* \"#utility.yul\":8769:8900   */\n      tag_140\n      jump\t// in\n    tag_255:\n        /* \"#utility.yul\":8761:8900   */\n      swap1\n      pop\n        /* \"#utility.yul\":8488:8907   */\n      swap2\n      swap1\n      pop\n      jump\t// out\n        /* \"#utility.yul\":8913:9076   */\n    tag_141:\n        /* \"#utility.yul\":9053:9068   */\n      0x416c726561647920766f74656400000000000000000000000000000000000000\n        /* \"#utility.yul\":9049:9050   */\n      0x00\n        /* \"#utility.yul\":9041:9047   */\n      dup3\n        /* \"#utility.yul\":9037:9051   */\n      add\n        /* \"#utility.yul\":9030:9069   */\n      mstore\n        /* \"#utility.yul\":8913:9076   */\n      pop\n      jump\t// out\n        /* \"#utility.yul\":9082:9448   */\n    tag_142:\n        /* \"#utility.yul\":9224:9227   */\n      0x00\n        /* \"#utility.yul\":9245:9312   */\n      tag_258\n        /* \"#utility.yul\":9309:9311   */\n      0x0d\n        /* \"#utility.yul\":9304:9307   */\n      dup4\n        /* \"#utility.yul\":9245:9312   */\n      tag_123\n      jump\t// in\n    tag_258:\n        /* \"#utility.yul\":9238:9312   */\n      swap2\n      pop\n        /* \"#utility.yul\":9321:9414   */\n      tag_259\n        /* \"#utility.yul\":9410:9413   */\n      dup3\n        /* \"#utility.yul\":9321:9414   */\n      tag_141\n      jump\t// in\n    tag_259:\n        /* \"#utility.yul\":9439:9441   */\n      0x20\n        /* \"#utility.yul\":9434:9437   */\n      dup3\n        /* \"#utility.yul\":9430:9442   */\n      add\n        /* \"#utility.yul\":9423:9442   */\n      swap1\n      pop\n        /* \"#utility.yul\":9082:9448   */\n      swap2\n      swap1\n      pop\n      jump\t// out\n        /* \"#utility.yul\":9454:9873   */\n    tag_59:\n        /* \"#utility.yul\":9620:9624   */\n      0x00\n        /* \"#utility.yul\":9658:9660   */\n      0x20\n        /* \"#utility.yul\":9647:9656   */\n      dup3\n        /* \"#utility.yul\":9643:9661   */\n      add\n        /* \"#utility.yul\":9635:9661   */\n      swap1\n      pop\n        /* \"#utility.yul\":9707:9716   */\n      dup2\n        /* \"#utility.yul\":9701:9705   */\n      dup2\n        /* \"#utility.yul\":9697:9717   */\n      sub\n        /* \"#utility.yul\":9693:9694   */\n      0x00\n        /* \"#utility.yul\":9682:9691   */\n      dup4\n        /* \"#utility.yul\":9678:9695   */\n      add\n        /* \"#utility.yul\":9671:9718   */\n      mstore\n        /* \"#utility.yul\":9735:9866   */\n      tag_261\n        /* \"#utility.yul\":9861:9865   */\n      dup2\n        /* \"#utility.yul\":9735:9866   */\n      tag_142\n      jump\t// in\n    tag_261:\n        /* \"#utility.yul\":9727:9866   */\n      swap1\n      pop\n        /* \"#utility.yul\":9454:9873   */\n      swap2\n      swap1\n      pop\n      jump\t// out\n        /* \"#utility.yul\":9879:10059   */\n    tag_62:\n        /* \"#utility.yul\":9927:10004   */\n      0x4e487b7100000000000000000000000000000000000000000000000000000000\n        /* \"#utility.yul\":9924:9925   */\n      0x00\n        /* \"#utility.yul\":9917:10005   */\n      mstore\n        /* \"#utility.yul\":10024:10028   */\n      0x32\n        /* \"#utility.yul\":10021:10022   */\n      0x04\n        /* \"#utility.yul\":10014:10029   */\n      mstore\n        /* \"#utility.yul\":10048:10052   */\n      0x24\n        /* \"#utility.yul\":10045:10046   */\n      0x00\n        /* \"#utility.yul\":10038:10053   */\n      revert\n        /* \"#utility.yul\":10065:10245   */\n    tag_143:\n        /* \"#utility.yul\":10113:10190   */\n      0x4e487b7100000000000000000000000000000000000000000000000000000000\n        /* \"#utility.yul\":10110:10111   */\n      0x00\n        /* \"#utility.yul\":10103:10191   */\n      mstore\n        /* \"#utility.yul\":10210:10214   */\n      0x11\n        /* \"#utility.yul\":10207:10208   */\n      0x04\n        /* \"#utility.yul\":10200:10215   */\n      mstore\n        /* \"#utility.yul\":10234:10238   */\n      0x24\n        /* \"#utility.yul\":10231:10232   */\n      0x00\n        /* \"#utility.yul\":10224:10239   */\n      revert\n        /* \"#utility.yul\":10251:10484   */\n    tag_65:\n        /* \"#utility.yul\":10290:10293   */\n      0x00\n        /* \"#utility.yul\":10313:10337   */\n      tag_265\n        /* \"#utility.yul\":10331:10336   */\n      dup3\n        /* \"#utility.yul\":10313:10337   */\n      tag_112\n      jump\t// in\n    tag_265:\n        /* \"#utility.yul\":10304:10337   */\n      swap2\n      pop\n        /* \"#utility.yul\":10359:10425   */\n      0xffffffffffffffffffffffffffffffffffffffffffffffffffffffffffffffff\n        /* \"#utility.yul\":10352:10357   */\n      dup3\n        /* \"#utility.yul\":10349:10426   */\n      sub\n        /* \"#utility.yul\":10346:10449   */\n      tag_266\n      jumpi\n        /* \"#utility.yul\":10429:10447   */\n      tag_267\n      tag_143\n      jump\t// in\n    tag_267:\n        /* \"#utility.yul\":10346:10449   */\n    tag_266:\n        /* \"#utility.yul\":10476:10477   */\n      0x01\n        /* \"#utility.yul\":10469:10474   */\n      dup3\n        /* \"#utility.yul\":10465:10478   */\n      add\n        /* \"#utility.yul\":10458:10478   */\n      swap1\n      pop\n        /* \"#utility.yul\":10251:10484   */\n      swap2\n      swap1\n      pop\n      jump\t// out\n        /* \"#utility.yul\":10490:10822   */\n    tag_67:\n        /* \"#utility.yul\":10611:10615   */\n      0x00\n        /* \"#utility.yul\":10649:10651   */\n      0x40\n        /* \"#utility.yul\":10638:10647   */\n      dup3\n        /* \"#utility.yul\":10634:10652   */\n      add\n        /* \"#utility.yul\":10626:10652   */\n      swap1\n      pop\n        /* \"#utility.yul\":10662:10733   */\n      tag_269\n        /* \"#utility.yul\":10730:10731   */\n      0x00\n        /* \"#utility.yul\":10719:10728   */\n      dup4\n        /* \"#utility.yul\":10715:10732   */\n      add\n        /* \"#utility.yul\":10706:10712   */\n      dup6\n        /* \"#utility.yul\":10662:10733   */\n      tag_136\n      jump\t// in\n    tag_269:\n        /* \"#utility.yul\":10743:10815   */\n      tag_270\n        /* \"#utility.yul\":10811:10813   */\n      0x20\n        /* \"#utility.yul\":10800:10809   */\n      dup4\n        /* \"#utility.yul\":10796:10814   */\n      add\n        /* \"#utility.yul\":10787:10793   */\n      dup5\n        /* \"#utility.yul\":10743:10815   */\n      tag_121\n      jump\t// in\n    tag_270:\n        /* \"#utility.yul\":10490:10822   */\n      swap4\n      swap3\n      pop\n      pop\n      pop\n      jump\t// out\n        /* \"#utility.yul\":10828:11008   */\n    tag_144:\n        /* \"#utility.yul\":10876:10953   */\n      0x4e487b7100000000000000000000000000000000000000000000000000000000\n        /* \"#utility.yul\":10873:10874   */\n      0x00\n        /* \"#utility.yul\":10866:10954   */\n      mstore\n        /* \"#utility.yul\":10973:10977   */\n      0x22\n        /* \"#utility.yul\":10970:10971   */\n      0x04\n        /* \"#utility.yul\":10963:10978   */\n      mstore\n        /* \"#utility.yul\":10997:11001   */\n      0x24\n        /* \"#utility.yul\":10994:10995   */\n      0x00\n        /* \"#utility.yul\":10987:11002   */\n      revert\n        /* \"#utility.yul\":11014:11334   */\n    tag_72:\n        /* \"#utility.yul\":11058:11064   */\n      0x00\n        /* \"#utility.yul\":11095:11096   */\n      0x02\n        /* \"#utility.yul\":11089:11093   */\n      dup3\n        /* \"#utility.yul\":11085:11097   */\n      div\n        /* \"#utility.yul\":11075:11097   */\n      swap1\n      pop\n        /* \"#utility.yul\":11142:11143   */\n      0x01\n        /* \"#utility.yul\":11136:11140   */\n      dup3\n        /* \"#utility.yul\":11132:11144   */\n      and\n        /* \"#utility.yul\":11163:11181   */\n      dup1\n        /* \"#utility.yul\":11153:11234   */\n      tag_273\n      jumpi\n        /* \"#utility.yul\":11219:11223   */\n      0x7f\n        /* \"#utility.yul\":11211:11217   */\n      dup3\n        /* \"#utility.yul\":11207:11224   */\n      and\n        /* \"#utility.yul\":11197:11224   */\n      swap2\n      pop\n        /* \"#utility.yul\":11153:11234   */\n    tag_273:\n        /* \"#utility.yul\":11281:11283   */\n      0x20\n        /* \"#utility.yul\":11273:11279   */\n      dup3\n        /* \"#utility.yul\":11270:11284   */\n      lt\n        /* \"#utility.yul\":11250:11268   */\n      dup2\n        /* \"#utility.yul\":11247:11285   */\n      sub\n        /* \"#utility.yul\":11244:11328   */\n      tag_274\n      jumpi\n        /* \"#utility.yul\":11300:11318   */\n      tag_275\n      tag_144\n      jump\t// in\n    tag_275:\n        /* \"#utility.yul\":11244:11328   */\n    tag_274:\n        /* \"#utility.yul\":11065:11334   */\n      pop\n        /* \"#utility.yul\":11014:11334   */\n      swap2\n      swap1\n      pop\n      jump\t// out\n        /* \"#utility.yul\":11340:11560   */\n    tag_145:\n        /* \"#utility.yul\":11480:11514   */\n      0x4f6e6c79206f776e65722063616e2063616c6c20746869732066756e6374696f\n        /* \"#utility.yul\":11476:11477   */\n      0x00\n        /* \"#utility.yul\":11468:11474   */\n      dup3\n        /* \"#utility.yul\":11464:11478   */\n      add\n        /* \"#utility.yul\":11457:11515   */\n      mstore\n        /* \"#utility.yul\":11549:11552   */\n      0x6e00000000000000000000000000000000000000000000000000000000000000\n        /* \"#utility.yul\":11544:11546   */\n      0x20\n        /* \"#utility.yul\":11536:11542   */\n      dup3\n        /* \"#utility.yul\":11532:11547   */\n      add\n        /* \"#utility.yul\":11525:11553   */\n      mstore\n        /* \"#utility.yul\":11340:11560   */\n      pop\n      jump\t// out\n        /* \"#utility.yul\":11566:11932   */\n    tag_146:\n        /* \"#utility.yul\":11708:11711   */\n      0x00\n        /* \"#utility.yul\":11729:11796   */\n      tag_278\n        /* \"#utility.yul\":11793:11795   */\n      0x21\n        /* \"#utility.yul\":11788:11791   */\n      dup4\n        /* \"#utility.yul\":11729:11796   */\n      tag_123\n      jump\t// in\n    tag_278:\n        /* \"#utility.yul\":11722:11796   */\n      swap2\n      pop\n        /* \"#utility.yul\":11805:11898   */\n      tag_279\n        /* \"#utility.yul\":11894:11897   */\n      dup3\n        /* \"#utility.yul\":11805:11898   */\n      tag_145\n      jump\t// in\n    tag_279:\n        /* \"#utility.yul\":11923:11925   */\n      0x40\n        /* \"#utility.yul\":11918:11921   */\n      dup3\n        /* \"#utility.yul\":11914:11926   */\n      add\n        /* \"#utility.yul\":11907:11926   */\n      swap1\n      pop\n        /* \"#utility.yul\":11566:11932   */\n      swap2\n      swap1\n      pop\n      jump\t// out\n        /* \"#utility.yul\":11938:12357   */\n    tag_91:\n        /* \"#utility.yul\":12104:12108   */\n      0x00\n        /* \"#utility.yul\":12142:12144   */\n      0x20\n        /* \"#utility.yul\":12131:12140   */\n      dup3\n        /* \"#utility.yul\":12127:12145   */\n      add\n        /* \"#utility.yul\":12119:12145   */\n      swap1\n      pop\n        /* \"#utility.yul\":12191:12200   */\n      dup2\n        /* \"#utility.yul\":12185:12189   */\n      dup2\n        /* \"#utility.yul\":12181:12201   */\n      sub\n        /* \"#utility.yul\":12177:12178   */\n      0x00\n        /* \"#utility.yul\":12166:12175   */\n      dup4\n        /* \"#utility.yul\":12162:12179   */\n      add\n        /* \"#utility.yul\":12155:12202   */\n      mstore\n        /* \"#utility.yul\":12219:12350   */\n      tag_281\n        /* \"#utility.yul\":12345:12349   */\n      dup2\n        /* \"#utility.yul\":12219:12350   */\n      tag_146\n      jump\t// in\n    tag_281:\n        /* \"#utility.yul\":12211:12350   */\n      swap1\n      pop\n        /* \"#utility.yul\":11938:12357   */\n      swap2\n      swap1\n      pop\n      jump\t// out\n        /* \"#utility.yul\":12363:12504   */\n    tag_147:\n        /* \"#utility.yul\":12412:12416   */\n      0x00\n        /* \"#utility.yul\":12435:12438   */\n      dup2\n        /* \"#utility.yul\":12427:12438   */\n      swap1\n      pop\n        /* \"#utility.yul\":12458:12461   */\n      dup2\n        /* \"#utility.yul\":12455:12456   */\n      0x00\n        /* \"#utility.yul\":12448:12462   */\n      mstore\n        /* \"#utility.yul\":12492:12496   */\n      0x20\n        /* \"#utility.yul\":12489:12490   */\n      0x00\n        /* \"#utility.yul\":12479:12497   */\n      keccak256\n        /* \"#utility.yul\":12471:12497   */\n      swap1\n      pop\n        /* \"#utility.yul\":12363:12504   */\n      swap2\n      swap1\n      pop\n      jump\t// out\n        /* \"#utility.yul\":12510:12603   */\n    tag_148:\n        /* \"#utility.yul\":12547:12553   */\n      0x00\n        /* \"#utility.yul\":12594:12596   */\n      0x20\n        /* \"#utility.yul\":12589:12591   */\n      0x1f\n        /* \"#utility.yul\":12582:12587   */\n      dup4\n        /* \"#utility.yul\":12578:12592   */\n      add\n        /* \"#utility.yul\":12574:12597   */\n      div\n        /* \"#utility.yul\":12564:12597   */\n      swap1\n      pop\n        /* \"#utility.yul\":12510:12603   */\n      swap2\n      swap1\n      pop\n      jump\t// out\n        /* \"#utility.yul\":12609:12716   */\n    tag_149:\n        /* \"#utility.yul\":12653:12661   */\n      0x00\n        /* \"#utility.yul\":12703:12708   */\n      dup3\n        /* \"#utility.yul\":12697:12701   */\n      dup3\n        /* \"#utility.yul\":12693:12709   */\n      shl\n        /* \"#utility.yul\":12672:12709   */\n      swap1\n      pop\n        /* \"#utility.yul\":12609:12716   */\n      swap3\n      swap2\n      pop\n      pop\n      jump\t// out\n        /* \"#utility.yul\":12722:13115   */\n    tag_150:\n        /* \"#utility.yul\":12791:12797   */\n      0x00\n        /* \"#utility.yul\":12841:12842   */\n      0x08\n        /* \"#utility.yul\":12829:12839   */\n      dup4\n        /* \"#utility.yul\":12825:12843   */\n      mul\n        /* \"#utility.yul\":12864:12961   */\n      tag_286\n        /* \"#utility.yul\":12894:12960   */\n      0xffffffffffffffffffffffffffffffffffffffffffffffffffffffffffffffff\n        /* \"#utility.yul\":12883:12892   */\n      dup3\n        /* \"#utility.yul\":12864:12961   */\n      tag_149\n      jump\t// in\n    tag_286:\n        /* \"#utility.yul\":12982:13021   */\n      tag_287\n        /* \"#utility.yul\":13012:13020   */\n      dup7\n        /* \"#utility.yul\":13001:13010   */\n      dup4\n        /* \"#utility.yul\":12982:13021   */\n      tag_149\n      jump\t// in\n    tag_287:\n        /* \"#utility.yul\":12970:13021   */\n      swap6\n      pop\n        /* \"#utility.yul\":13054:13058   */\n      dup1\n        /* \"#utility.yul\":13050:13059   */\n      not\n        /* \"#utility.yul\":13043:13048   */\n      dup5\n        /* \"#utility.yul\":13039:13060   */\n      and\n        /* \"#utility.yul\":13030:13060   */\n      swap4\n      pop\n        /* \"#utility.yul\":13103:13107   */\n      dup1\n        /* \"#utility.yul\":13093:13101   */\n      dup7\n        /* \"#utility.yul\":13089:13108   */\n      and\n        /* \"#utility.yul\":13082:13087   */\n      dup5\n        /* \"#utility.yul\":13079:13109   */\n      or\n        /* \"#utility.yul\":13069:13109   */\n      swap3\n      pop\n        /* \"#utility.yul\":12798:13115   */\n      pop\n      pop\n        /* \"#utility.yul\":12722:13115   */\n      swap4\n      swap3\n      pop\n      pop\n      pop\n      jump\t// out\n        /* \"#utility.yul\":13121:13181   */\n    tag_151:\n        /* \"#utility.yul\":13149:13152   */\n      0x00\n        /* \"#utility.yul\":13170:13175   */\n      dup2\n        /* \"#utility.yul\":13163:13175   */\n      swap1\n      pop\n        /* \"#utility.yul\":13121:13181   */\n      swap2\n      swap1\n      pop\n      jump\t// out\n        /* \"#utility.yul\":13187:13329   */\n    tag_152:\n        /* \"#utility.yul\":13237:13246   */\n      0x00\n        /* \"#utility.yul\":13270:13323   */\n      tag_290\n        /* \"#utility.yul\":13288:13322   */\n      tag_291\n        /* \"#utility.yul\":13297:13321   */\n      tag_292\n        /* \"#utility.yul\":13315:13320   */\n      dup5\n        /* \"#utility.yul\":13297:13321   */\n      tag_112\n      jump\t// in\n    tag_292:\n        /* \"#utility.yul\":13288:13322   */\n      tag_151\n      jump\t// in\n    tag_291:\n        /* \"#utility.yul\":13270:13323   */\n      tag_112\n      jump\t// in\n    tag_290:\n        /* \"#utility.yul\":13257:13323   */\n      swap1\n      pop\n        /* \"#utility.yul\":13187:13329   */\n      swap2\n      swap1\n      pop\n      jump\t// out\n        /* \"#utility.yul\":13335:13410   */\n    tag_153:\n        /* \"#utility.yul\":13378:13381   */\n      0x00\n        /* \"#utility.yul\":13399:13404   */\n      dup2\n        /* \"#utility.yul\":13392:13404   */\n      swap1\n      pop\n        /* \"#utility.yul\":13335:13410   */\n      swap2\n      swap1\n      pop\n      jump\t// out\n        /* \"#utility.yul\":13416:13685   */\n    tag_154:\n        /* \"#utility.yul\":13526:13565   */\n      tag_295\n        /* \"#utility.yul\":13557:13564   */\n      dup4\n        /* \"#utility.yul\":13526:13565   */\n      tag_152\n      jump\t// in\n    tag_295:\n        /* \"#utility.yul\":13587:13678   */\n      tag_296\n        /* \"#utility.yul\":13636:13677   */\n      tag_297\n        /* \"#utility.yul\":13660:13676   */\n      dup3\n        /* \"#utility.yul\":13636:13677   */\n      tag_153\n      jump\t// in\n    tag_297:\n        /* \"#utility.yul\":13628:13634   */\n      dup5\n        /* \"#utility.yul\":13621:13625   */\n      dup5\n        /* \"#utility.yul\":13615:13626   */\n      sload\n        /* \"#utility.yul\":13587:13678   */\n      tag_150\n      jump\t// in\n    tag_296:\n        /* \"#utility.yul\":13581:13585   */\n      dup3\n        /* \"#utility.yul\":13574:13679   */\n      sstore\n        /* \"#utility.yul\":13492:13685   */\n      pop\n        /* \"#utility.yul\":13416:13685   */\n      pop\n      pop\n      pop\n      jump\t// out\n        /* \"#utility.yul\":13691:13764   */\n    tag_155:\n        /* \"#utility.yul\":13736:13739   */\n      0x00\n        /* \"#utility.yul\":13691:13764   */\n      swap1\n      jump\t// out\n        /* \"#utility.yul\":13770:13959   */\n    tag_156:\n        /* \"#utility.yul\":13847:13879   */\n      tag_300\n      tag_155\n      jump\t// in\n    tag_300:\n        /* \"#utility.yul\":13888:13953   */\n      tag_301\n        /* \"#utility.yul\":13946:13952   */\n      dup2\n        /* \"#utility.yul\":13938:13944   */\n      dup5\n        /* \"#utility.yul\":13932:13936   */\n      dup5\n        /* \"#utility.yul\":13888:13953   */\n      tag_154\n      jump\t// in\n    tag_301:\n        /* \"#utility.yul\":13823:13959   */\n      pop\n        /* \"#utility.yul\":13770:13959   */\n      pop\n      pop\n      jump\t// out\n        /* \"#utility.yul\":13965:14151   */\n    tag_157:\n        /* \"#utility.yul\":14025:14145   */\n    tag_303:\n        /* \"#utility.yul\":14042:14045   */\n      dup2\n        /* \"#utility.yul\":14035:14040   */\n      dup2\n        /* \"#utility.yul\":14032:14046   */\n      lt\n        /* \"#utility.yul\":14025:14145   */\n      iszero\n      tag_305\n      jumpi\n        /* \"#utility.yul\":14096:14135   */\n      tag_306\n        /* \"#utility.yul\":14133:14134   */\n      0x00\n        /* \"#utility.yul\":14126:14131   */\n      dup3\n        /* \"#utility.yul\":14096:14135   */\n      tag_156\n      jump\t// in\n    tag_306:\n        /* \"#utility.yul\":14069:14070   */\n      0x01\n        /* \"#utility.yul\":14062:14067   */\n      dup2\n        /* \"#utility.yul\":14058:14071   */\n      add\n        /* \"#utility.yul\":14049:14071   */\n      swap1\n      pop\n        /* \"#utility.yul\":14025:14145   */\n      jump(tag_303)\n    tag_305:\n        /* \"#utility.yul\":13965:14151   */\n      pop\n      pop\n      jump\t// out\n        /* \"#utility.yul\":14157:14700   */\n    tag_158:\n        /* \"#utility.yul\":14258:14260   */\n      0x1f\n        /* \"#utility.yul\":14253:14256   */\n      dup3\n        /* \"#utility.yul\":14250:14261   */\n      gt\n        /* \"#utility.yul\":14247:14693   */\n      iszero\n      tag_308\n      jumpi\n        /* \"#utility.yul\":14292:14330   */\n      tag_309\n        /* \"#utility.yul\":14324:14329   */\n      dup2\n        /* \"#utility.yul\":14292:14330   */\n      tag_147\n      jump\t// in\n    tag_309:\n        /* \"#utility.yul\":14376:14405   */\n      tag_310\n        /* \"#utility.yul\":14394:14404   */\n      dup5\n        /* \"#utility.yul\":14376:14405   */\n      tag_148\n      jump\t// in\n    tag_310:\n        /* \"#utility.yul\":14366:14374   */\n      dup2\n        /* \"#utility.yul\":14362:14406   */\n      add\n        /* \"#utility.yul\":14559:14561   */\n      0x20\n        /* \"#utility.yul\":14547:14557   */\n      dup6\n        /* \"#utility.yul\":14544:14562   */\n      lt\n        /* \"#utility.yul\":14541:14590   */\n      iszero\n      tag_311\n      jumpi\n        /* \"#utility.yul\":14580:14588   */\n      dup2\n        /* \"#utility.yul\":14565:14588   */\n      swap1\n      pop\n        /* \"#utility.yul\":14541:14590   */\n    tag_311:\n        /* \"#utility.yul\":14603:14683   */\n      tag_312\n        /* \"#utility.yul\":14659:14681   */\n      tag_313\n        /* \"#utility.yul\":14677:14680   */\n      dup6\n        /* \"#utility.yul\":14659:14681   */\n      tag_148\n      jump\t// in\n    tag_313:\n        /* \"#utility.yul\":14649:14657   */\n      dup4\n        /* \"#utility.yul\":14645:14682   */\n      add\n        /* \"#utility.yul\":14632:14643   */\n      dup3\n        /* \"#utility.yul\":14603:14683   */\n      tag_157\n      jump\t// in\n    tag_312:\n        /* \"#utility.yul\":14262:14693   */\n      pop\n      pop\n        /* \"#utility.yul\":14247:14693   */\n    tag_308:\n        /* \"#utility.yul\":14157:14700   */\n      pop\n      pop\n      pop\n      jump\t// out\n        /* \"#utility.yul\":14706:14823   */\n    tag_159:\n        /* \"#utility.yul\":14760:14768   */\n      0x00\n        /* \"#utility.yul\":14810:14815   */\n      dup3\n        /* \"#utility.yul\":14804:14808   */\n      dup3\n        /* \"#utility.yul\":14800:14816   */\n      shr\n        /* \"#utility.yul\":14779:14816   */\n      swap1\n      pop\n        /* \"#utility.yul\":14706:14823   */\n      swap3\n      swap2\n      pop\n      pop\n      jump\t// out\n        /* \"#utility.yul\":14829:14998   */\n    tag_160:\n        /* \"#utility.yul\":14873:14879   */\n      0x00\n        /* \"#utility.yul\":14906:14957   */\n      tag_316\n        /* \"#utility.yul\":14954:14955   */\n      0x00\n        /* \"#utility.yul\":14950:14956   */\n      not\n        /* \"#utility.yul\":14942:14947   */\n      dup5\n        /* \"#utility.yul\":14939:14940   */\n      0x08\n        /* \"#utility.yul\":14935:14948   */\n      mul\n        /* \"#utility.yul\":14906:14957   */\n      tag_159\n      jump\t// in\n    tag_316:\n        /* \"#utility.yul\":14902:14958   */\n      not\n        /* \"#utility.yul\":14987:14991   */\n      dup1\n        /* \"#utility.yul\":14981:14985   */\n      dup4\n        /* \"#utility.yul\":14977:14992   */\n      and\n        /* \"#utility.yul\":14967:14992   */\n      swap2\n      pop\n        /* \"#utility.yul\":14880:14998   */\n      pop\n        /* \"#utility.yul\":14829:14998   */\n      swap3\n      swap2\n      pop\n      pop\n      jump\t// out\n        /* \"#utility.yul\":15003:15298   */\n    tag_161:\n        /* \"#utility.yul\":15079:15083   */\n      0x00\n        /* \"#utility.yul\":15225:15254   */\n      tag_318\n        /* \"#utility.yul\":15250:15253   */\n      dup4\n        /* \"#utility.yul\":15244:15248   */\n      dup4\n        /* \"#utility.yul\":15225:15254   */\n      tag_160\n      jump\t// in\n    tag_318:\n        /* \"#utility.yul\":15217:15254   */\n      swap2\n      pop\n        /* \"#utility.yul\":15287:15290   */\n      dup3\n        /* \"#utility.yul\":15284:15285   */\n      0x02\n        /* \"#utility.yul\":15280:15291   */\n      mul\n        /* \"#utility.yul\":15274:15278   */\n      dup3\n        /* \"#utility.yul\":15271:15292   */\n      or\n        /* \"#utility.yul\":15263:15292   */\n      swap1\n      pop\n        /* \"#utility.yul\":15003:15298   */\n      swap3\n      swap2\n      pop\n      pop\n      jump\t// out\n        /* \"#utility.yul\":15303:16698   */\n    tag_98:\n        /* \"#utility.yul\":15420:15457   */\n      tag_320\n        /* \"#utility.yul\":15453:15456   */\n      dup3\n        /* \"#utility.yul\":15420:15457   */\n      tag_122\n      jump\t// in\n    tag_320:\n        /* \"#utility.yul\":15522:15540   */\n      0xffffffffffffffff\n        /* \"#utility.yul\":15514:15520   */\n      dup2\n        /* \"#utility.yul\":15511:15541   */\n      gt\n        /* \"#utility.yul\":15508:15564   */\n      iszero\n      tag_321\n      jumpi\n        /* \"#utility.yul\":15544:15562   */\n      tag_322\n      tag_129\n      jump\t// in\n    tag_322:\n        /* \"#utility.yul\":15508:15564   */\n    tag_321:\n        /* \"#utility.yul\":15588:15626   */\n      tag_323\n        /* \"#utility.yul\":15620:15624   */\n      dup3\n        /* \"#utility.yul\":15614:15625   */\n      sload\n        /* \"#utility.yul\":15588:15626   */\n      tag_72\n      jump\t// in\n    tag_323:\n        /* \"#utility.yul\":15673:15740   */\n      tag_324\n        /* \"#utility.yul\":15733:15739   */\n      dup3\n        /* \"#utility.yul\":15725:15731   */\n      dup3\n        /* \"#utility.yul\":15719:15723   */\n      dup6\n        /* \"#utility.yul\":15673:15740   */\n      tag_158\n      jump\t// in\n    tag_324:\n        /* \"#utility.yul\":15767:15768   */\n      0x00\n        /* \"#utility.yul\":15791:15795   */\n      0x20\n        /* \"#utility.yul\":15778:15795   */\n      swap1\n      pop\n        /* \"#utility.yul\":15823:15825   */\n      0x1f\n        /* \"#utility.yul\":15815:15821   */\n      dup4\n        /* \"#utility.yul\":15812:15826   */\n      gt\n        /* \"#utility.yul\":15840:15841   */\n      0x01\n        /* \"#utility.yul\":15835:16453   */\n      dup2\n      eq\n      tag_326\n      jumpi\n        /* \"#utility.yul\":16497:16498   */\n      0x00\n        /* \"#utility.yul\":16514:16520   */\n      dup5\n        /* \"#utility.yul\":16511:16588   */\n      iszero\n      tag_327\n      jumpi\n        /* \"#utility.yul\":16563:16572   */\n      dup3\n        /* \"#utility.yul\":16558:16561   */\n      dup8\n        /* \"#utility.yul\":16554:16573   */\n      add\n        /* \"#utility.yul\":16548:16574   */\n      mload\n        /* \"#utility.yul\":16539:16574   */\n      swap1\n      pop\n        /* \"#utility.yul\":16511:16588   */\n    tag_327:\n        /* \"#utility.yul\":16614:16681   */\n      tag_328\n        /* \"#utility.yul\":16674:16680   */\n      dup6\n        /* \"#utility.yul\":16667:16672   */\n      dup3\n        /* \"#utility.yul\":16614:16681   */\n      tag_161\n      jump\t// in\n    tag_328:\n        /* \"#utility.yul\":16608:16612   */\n      dup7\n        /* \"#utility.yul\":16601:16682   */\n      sstore\n        /* \"#utility.yul\":16470:16692   */\n      pop\n        /* \"#utility.yul\":15805:16692   */\n      jump(tag_325)\n        /* \"#utility.yul\":15835:16453   */\n    tag_326:\n        /* \"#utility.yul\":15887:15891   */\n      0x1f\n        /* \"#utility.yul\":15883:15892   */\n      not\n        /* \"#utility.yul\":15875:15881   */\n      dup5\n        /* \"#utility.yul\":15871:15893   */\n      and\n        /* \"#utility.yul\":15921:15958   */\n      tag_329\n        /* \"#utility.yul\":15953:15957   */\n      dup7\n        /* \"#utility.yul\":15921:15958   */\n      tag_147\n      jump\t// in\n    tag_329:\n        /* \"#utility.yul\":15980:15981   */\n      0x00\n        /* \"#utility.yul\":15994:16202   */\n    tag_330:\n        /* \"#utility.yul\":16008:16015   */\n      dup3\n        /* \"#utility.yul\":16005:16006   */\n      dup2\n        /* \"#utility.yul\":16002:16016   */\n      lt\n        /* \"#utility.yul\":15994:16202   */\n      iszero\n      tag_332\n      jumpi\n        /* \"#utility.yul\":16087:16096   */\n      dup5\n        /* \"#utility.yul\":16082:16085   */\n      dup10\n        /* \"#utility.yul\":16078:16097   */\n      add\n        /* \"#utility.yul\":16072:16098   */\n      mload\n        /* \"#utility.yul\":16064:16070   */\n      dup3\n        /* \"#utility.yul\":16057:16099   */\n      sstore\n        /* \"#utility.yul\":16138:16139   */\n      0x01\n        /* \"#utility.yul\":16130:16136   */\n      dup3\n        /* \"#utility.yul\":16126:16140   */\n      add\n        /* \"#utility.yul\":16116:16140   */\n      swap2\n      pop\n        /* \"#utility.yul\":16185:16187   */\n      0x20\n        /* \"#utility.yul\":16174:16183   */\n      dup6\n        /* \"#utility.yul\":16170:16188   */\n      add\n        /* \"#utility.yul\":16157:16188   */\n      swap5\n      pop\n        /* \"#utility.yul\":16031:16035   */\n      0x20\n        /* \"#utility.yul\":16028:16029   */\n      dup2\n        /* \"#utility.yul\":16024:16036   */\n      add\n        /* \"#utility.yul\":16019:16036   */\n      swap1\n      pop\n        /* \"#utility.yul\":15994:16202   */\n      jump(tag_330)\n    tag_332:\n        /* \"#utility.yul\":16230:16236   */\n      dup7\n        /* \"#utility.yul\":16221:16228   */\n      dup4\n        /* \"#utility.yul\":16218:16237   */\n      lt\n        /* \"#utility.yul\":16215:16394   */\n      iszero\n      tag_333\n      jumpi\n        /* \"#utility.yul\":16288:16297   */\n      dup5\n        /* \"#utility.yul\":16283:16286   */\n      dup10\n        /* \"#utility.yul\":16279:16298   */\n      add\n        /* \"#utility.yul\":16273:16299   */\n      mload\n        /* \"#utility.yul\":16331:16379   */\n      tag_334\n        /* \"#utility.yul\":16373:16377   */\n      0x1f\n        /* \"#utility.yul\":16365:16371   */\n      dup10\n        /* \"#utility.yul\":16361:16378   */\n      and\n        /* \"#utility.yul\":16350:16359   */\n      dup3\n        /* \"#utility.yul\":16331:16379   */\n      tag_160\n      jump\t// in\n    tag_334:\n        /* \"#utility.yul\":16323:16329   */\n      dup4\n        /* \"#utility.yul\":16316:16380   */\n      sstore\n        /* \"#utility.yul\":16238:16394   */\n      pop\n        /* \"#utility.yul\":16215:16394   */\n    tag_333:\n        /* \"#utility.yul\":16440:16441   */\n      0x01\n        /* \"#utility.yul\":16436:16437   */\n      0x02\n        /* \"#utility.yul\":16428:16434   */\n      dup9\n        /* \"#utility.yul\":16424:16438   */\n      mul\n        /* \"#utility.yul\":16420:16442   */\n      add\n        /* \"#utility.yul\":16414:16418   */\n      dup9\n        /* \"#utility.yul\":16407:16443   */\n      sstore\n        /* \"#utility.yul\":15842:16453   */\n      pop\n      pop\n      pop\n        /* \"#utility.yul\":15805:16692   */\n    tag_325:\n      pop\n        /* \"#utility.yul\":15395:16698   */\n      pop\n      pop\n      pop\n        /* \"#utility.yul\":15303:16698   */\n      pop\n      pop\n      jump\t// out\n        /* \"#utility.yul\":16704:17017   */\n    tag_100:\n        /* \"#utility.yul\":16817:16821   */\n      0x00\n        /* \"#utility.yul\":16855:16857   */\n      0x20\n        /* \"#utility.yul\":16844:16853   */\n      dup3\n        /* \"#utility.yul\":16840:16858   */\n      add\n        /* \"#utility.yul\":16832:16858   */\n      swap1\n      pop\n        /* \"#utility.yul\":16904:16913   */\n      dup2\n        /* \"#utility.yul\":16898:16902   */\n      dup2\n        /* \"#utility.yul\":16894:16914   */\n      sub\n        /* \"#utility.yul\":16890:16891   */\n      0x00\n        /* \"#utility.yul\":16879:16888   */\n      dup4\n        /* \"#utility.yul\":16875:16892   */\n      add\n        /* \"#utility.yul\":16868:16915   */\n      mstore\n        /* \"#utility.yul\":16932:17010   */\n      tag_336\n        /* \"#utility.yul\":17005:17009   */\n      dup2\n        /* \"#utility.yul\":16996:17002   */\n      dup5\n        /* \"#utility.yul\":16932:17010   */\n      tag_126\n      jump\t// in\n    tag_336:\n        /* \"#utility.yul\":16924:17010   */\n      swap1\n      pop\n        /* \"#utility.yul\":16704:17017   */\n      swap3\n      swap2\n      pop\n      pop\n      jump\t// out\n\n    auxdata: 0xa2646970667358221220d024ec9c428033c9a883f774aea12a6180643a76362360efba949ce50eeb50f664736f6c634300081a0033\n}\n",
				"bytecode": {
					"linkReferences": {},
					"object": "6080604052348015600e575f80fd5b50335f806101000a81548173ffffffffffffffffffffffffffffffffffffffff021916908373ffffffffffffffffffffffffffffffffffffffff1602179055506111b98061005b5f395ff3fe608060405234801561000f575f80fd5b5060043610610091575f3560e01c806335b8e8201161006457806335b8e82014610130578063462e91ec146101615780638da5cb5b1461017d5780639d5a05291461019b578063c3403ddf146101b957610091565b80630121b93f1461009557806309eef43e146100b157806330a56347146100e15780633477ee2e146100ff575b5f80fd5b6100af60048036038101906100aa91906108c8565b6101c3565b005b6100cb60048036038101906100c6919061094d565b6103ab565b6040516100d89190610992565b60405180910390f35b6100e96103c8565b6040516100f691906109ba565b60405180910390f35b610119600480360381019061011491906108c8565b6103d4565b604051610127929190610a43565b60405180910390f35b61014a600480360381019061014591906108c8565b610489565b604051610158929190610a43565b60405180910390f35b61017b60048036038101906101769190610b9d565b6105ad565b005b610185610720565b6040516101929190610bf3565b60405180910390f35b6101a3610743565b6040516101b09190610992565b60405180910390f35b6101c1610755565b005b60035f9054906101000a900460ff1615610212576040517f08c379a000000000000000000000000000000000000000000000000000000000815260040161020990610c56565b60405180910390fd5b6002805490508110610259576040517f08c379a000000000000000000000000000000000000000000000000000000000815260040161025090610cbe565b60405180910390fd5b60015f3373ffffffffffffffffffffffffffffffffffffffff1673ffffffffffffffffffffffffffffffffffffffff1681526020019081526020015f205f9054906101000a900460ff16156102e3576040517f08c379a00000000000000000000000000000000000000000000000000000000081526004016102da90610d26565b60405180910390fd5b600281815481106102f7576102f6610d44565b5b905f5260205f2090600202016001015f81548092919061031690610d9e565b91905055506001805f3373ffffffffffffffffffffffffffffffffffffffff1673ffffffffffffffffffffffffffffffffffffffff1681526020019081526020015f205f6101000a81548160ff0219169083151502179055507f4d99b957a2bc29a30ebd96a7be8e68fe50a3c701db28a91436490b7d53870ca433826040516103a0929190610de5565b60405180910390a150565b6001602052805f5260405f205f915054906101000a900460ff1681565b5f600280549050905090565b600281815481106103e3575f80fd5b905f5260205f2090600202015f91509050805f01805461040290610e39565b80601f016020809104026020016040519081016040528092919081815260200182805461042e90610e39565b80156104795780601f1061045057610100808354040283529160200191610479565b820191905f5260205f20905b81548152906001019060200180831161045c57829003601f168201915b5050505050908060010154905082565b60605f60028054905083106104d3576040517f08c379a00000000000000000000000000000000000000000000000000000000081526004016104ca90610cbe565b60405180910390fd5b5f600284815481106104e8576104e7610d44565b5b905f5260205f2090600202016040518060400160405290815f8201805461050e90610e39565b80601f016020809104026020016040519081016040528092919081815260200182805461053a90610e39565b80156105855780601f1061055c57610100808354040283529160200191610585565b820191905f5260205f20905b81548152906001019060200180831161056857829003601f168201915b505050505081526020016001820154815250509050805f015181602001519250925050915091565b5f8054906101000a900473ffffffffffffffffffffffffffffffffffffffff1673ffffffffffffffffffffffffffffffffffffffff163373ffffffffffffffffffffffffffffffffffffffff161461063a576040517f08c379a000000000000000000000000000000000000000000000000000000000815260040161063190610ed9565b60405180910390fd5b60035f9054906101000a900460ff1615610689576040517f08c379a000000000000000000000000000000000000000000000000000000000815260040161068090610c56565b60405180910390fd5b600260405180604001604052808381526020015f815250908060018154018082558091505060019003905f5260205f2090600202015f909190919091505f820151815f0190816106d99190611094565b506020820151816001015550507ff29562dad1599aea0ebb142466120aab326d5efa8f839df82a9c064bf78e8938816040516107159190611163565b60405180910390a150565b5f8054906101000a900473ffffffffffffffffffffffffffffffffffffffff1681565b60035f9054906101000a900460ff1681565b5f8054906101000a900473ffffffffffffffffffffffffffffffffffffffff1673ffffffffffffffffffffffffffffffffffffffff163373ffffffffffffffffffffffffffffffffffffffff16146107e2576040517f08c379a00000000000000000000000000000000000000000000000000000000081526004016107d990610ed9565b60405180910390fd5b60035f9054906101000a900460ff1615610831576040517f08c379a000000000000000000000000000000000000000000000000000000000815260040161082890610c56565b60405180910390fd5b600160035f6101000a81548160ff0219169083151502179055507f2e81cdb492c9f62b4f74d65b09cda9579dc5245b2e8b243b4957662f2c0b1bef4260405161087a91906109ba565b60405180910390a1565b5f604051905090565b5f80fd5b5f80fd5b5f819050919050565b6108a781610895565b81146108b1575f80fd5b50565b5f813590506108c28161089e565b92915050565b5f602082840312156108dd576108dc61088d565b5b5f6108ea848285016108b4565b91505092915050565b5f73ffffffffffffffffffffffffffffffffffffffff82169050919050565b5f61091c826108f3565b9050919050565b61092c81610912565b8114610936575f80fd5b50565b5f8135905061094781610923565b92915050565b5f602082840312156109625761096161088d565b5b5f61096f84828501610939565b91505092915050565b5f8115159050919050565b61098c81610978565b82525050565b5f6020820190506109a55f830184610983565b92915050565b6109b481610895565b82525050565b5f6020820190506109cd5f8301846109ab565b92915050565b5f81519050919050565b5f82825260208201905092915050565b8281835e5f83830152505050565b5f601f19601f8301169050919050565b5f610a15826109d3565b610a1f81856109dd565b9350610a2f8185602086016109ed565b610a38816109fb565b840191505092915050565b5f6040820190508181035f830152610a5b8185610a0b565b9050610a6a60208301846109ab565b9392505050565b5f80fd5b5f80fd5b7f4e487b71000000000000000000000000000000000000000000000000000000005f52604160045260245ffd5b610aaf826109fb565b810181811067ffffffffffffffff82111715610ace57610acd610a79565b5b80604052505050565b5f610ae0610884565b9050610aec8282610aa6565b919050565b5f67ffffffffffffffff821115610b0b57610b0a610a79565b5b610b14826109fb565b9050602081019050919050565b828183375f83830152505050565b5f610b41610b3c84610af1565b610ad7565b905082815260208101848484011115610b5d57610b5c610a75565b5b610b68848285610b21565b509392505050565b5f82601f830112610b8457610b83610a71565b5b8135610b94848260208601610b2f565b91505092915050565b5f60208284031215610bb257610bb161088d565b5b5f82013567ffffffffffffffff811115610bcf57610bce610891565b5b610bdb84828501610b70565b91505092915050565b610bed81610912565b82525050565b5f602082019050610c065f830184610be4565b92915050565b7f566f74696e672068617320656e646564000000000000000000000000000000005f82015250565b5f610c406010836109dd565b9150610c4b82610c0c565b602082019050919050565b5f6020820190508181035f830152610c6d81610c34565b9050919050565b7f496e76616c69642063616e6469646174652049440000000000000000000000005f82015250565b5f610ca86014836109dd565b9150610cb382610c74565b602082019050919050565b5f6020820190508181035f830152610cd581610c9c565b9050919050565b7f416c726561647920766f746564000000000000000000000000000000000000005f82015250565b5f610d10600d836109dd565b9150610d1b82610cdc565b602082019050919050565b5f6020820190508181035f830152610d3d81610d04565b9050919050565b7f4e487b71000000000000000000000000000000000000000000000000000000005f52603260045260245ffd5b7f4e487b71000000000000000000000000000000000000000000000000000000005f52601160045260245ffd5b5f610da882610895565b91507fffffffffffffffffffffffffffffffffffffffffffffffffffffffffffffffff8203610dda57610dd9610d71565b5b600182019050919050565b5f604082019050610df85f830185610be4565b610e0560208301846109ab565b9392505050565b7f4e487b71000000000000000000000000000000000000000000000000000000005f52602260045260245ffd5b5f6002820490506001821680610e5057607f821691505b602082108103610e6357610e62610e0c565b5b50919050565b7f4f6e6c79206f776e65722063616e2063616c6c20746869732066756e6374696f5f8201527f6e00000000000000000000000000000000000000000000000000000000000000602082015250565b5f610ec36021836109dd565b9150610ece82610e69565b604082019050919050565b5f6020820190508181035f830152610ef081610eb7565b9050919050565b5f819050815f5260205f209050919050565b5f6020601f8301049050919050565b5f82821b905092915050565b5f60088302610f537fffffffffffffffffffffffffffffffffffffffffffffffffffffffffffffffff82610f18565b610f5d8683610f18565b95508019841693508086168417925050509392505050565b5f819050919050565b5f610f98610f93610f8e84610895565b610f75565b610895565b9050919050565b5f819050919050565b610fb183610f7e565b610fc5610fbd82610f9f565b848454610f24565b825550505050565b5f90565b610fd9610fcd565b610fe4818484610fa8565b505050565b5b8181101561100757610ffc5f82610fd1565b600181019050610fea565b5050565b601f82111561104c5761101d81610ef7565b61102684610f09565b81016020851015611035578190505b61104961104185610f09565b830182610fe9565b50505b505050565b5f82821c905092915050565b5f61106c5f1984600802611051565b1980831691505092915050565b5f611084838361105d565b9150826002028217905092915050565b61109d826109d3565b67ffffffffffffffff8111156110b6576110b5610a79565b5b6110c08254610e39565b6110cb82828561100b565b5f60209050601f8311600181146110fc575f84156110ea578287015190505b6110f48582611079565b86555061115b565b601f19841661110a86610ef7565b5f5b828110156111315784890151825560018201915060208501945060208101905061110c565b8683101561114e578489015161114a601f89168261105d565b8355505b6001600288020188555050505b505050505050565b5f6020820190508181035f83015261117b8184610a0b565b90509291505056fea2646970667358221220d024ec9c428033c9a883f774aea12a6180643a76362360efba949ce50eeb50f664736f6c634300081a0033",
					"opcodes": "PUSH1 0x80 PUSH1 0x40 MSTORE CALLVALUE DUP1 ISZERO PUSH1 0xE JUMPI PUSH0 DUP1 REVERT JUMPDEST POP CALLER PUSH0 DUP1 PUSH2 0x100 EXP DUP2 SLOAD DUP2 PUSH20 0xFFFFFFFFFFFFFFFFFFFFFFFFFFFFFFFFFFFFFFFF MUL NOT AND SWAP1 DUP4 PUSH20 0xFFFFFFFFFFFFFFFFFFFFFFFFFFFFFFFFFFFFFFFF AND MUL OR SWAP1 SSTORE POP PUSH2 0x11B9 DUP1 PUSH2 0x5B PUSH0 CODECOPY PUSH0 RETURN INVALID PUSH1 0x80 PUSH1 0x40 MSTORE CALLVALUE DUP1 ISZERO PUSH2 0xF JUMPI PUSH0 DUP1 REVERT JUMPDEST POP PUSH1 0x4 CALLDATASIZE LT PUSH2 0x91 JUMPI PUSH0 CALLDATALOAD PUSH1 0xE0 SHR DUP1 PUSH4 0x35B8E820 GT PUSH2 0x64 JUMPI DUP1 PUSH4 0x35B8E820 EQ PUSH2 0x130 JUMPI DUP1 PUSH4 0x462E91EC EQ PUSH2 0x161 JUMPI DUP1 PUSH4 0x8DA5CB5B EQ PUSH2 0x17D JUMPI DUP1 PUSH4 0x9D5A0529 EQ PUSH2 0x19B JUMPI DUP1 PUSH4 0xC3403DDF EQ PUSH2 0x1B9 JUMPI PUSH2 0x91 JUMP JUMPDEST DUP1 PUSH4 0x121B93F EQ PUSH2 0x95 JUMPI DUP1 PUSH4 0x9EEF43E EQ PUSH2 0xB1 JUMPI DUP1 PUSH4 0x30A56347 EQ PUSH2 0xE1 JUMPI DUP1 PUSH4 0x3477EE2E EQ PUSH2 0xFF JUMPI JUMPDEST PUSH0 DUP1 REVERT JUMPDEST PUSH2 0xAF PUSH1 0x4 DUP1 CALLDATASIZE SUB DUP2 ADD SWAP1 PUSH2 0xAA SWAP2 SWAP1 PUSH2 0x8C8 JUMP JUMPDEST PUSH2 0x1C3 JUMP JUMPDEST STOP JUMPDEST PUSH2 0xCB PUSH1 0x4 DUP1 CALLDATASIZE SUB DUP2 ADD SWAP1 PUSH2 0xC6 SWAP2 SWAP1 PUSH2 0x94D JUMP JUMPDEST PUSH2 0x3AB JUMP JUMPDEST PUSH1 0x40 MLOAD PUSH2 0xD8 SWAP2 SWAP1 PUSH2 0x992 JUMP JUMPDEST PUSH1 0x40 MLOAD DUP1 SWAP2 SUB SWAP1 RETURN JUMPDEST PUSH2 0xE9 PUSH2 0x3C8 JUMP JUMPDEST PUSH1 0x40 MLOAD PUSH2 0xF6 SWAP2 SWAP1 PUSH2 0x9BA JUMP JUMPDEST PUSH1 0x40 MLOAD DUP1 SWAP2 SUB SWAP1 RETURN JUMPDEST PUSH2 0x119 PUSH1 0x4 DUP1 CALLDATASIZE SUB DUP2 ADD SWAP1 PUSH2 0x114 SWAP2 SWAP1 PUSH2 0x8C8 JUMP JUMPDEST PUSH2 0x3D4 JUMP JUMPDEST PUSH1 0x40 MLOAD PUSH2 0x127 SWAP3 SWAP2 SWAP1 PUSH2 0xA43 JUMP JUMPDEST PUSH1 0x40 MLOAD DUP1 SWAP2 SUB SWAP1 RETURN JUMPDEST PUSH2 0x14A PUSH1 0x4 DUP1 CALLDATASIZE SUB DUP2 ADD SWAP1 PUSH2 0x145 SWAP2 SWAP1 PUSH2 0x8C8 JUMP JUMPDEST PUSH2 0x489 JUMP JUMPDEST PUSH1 0x40 MLOAD PUSH2 0x158 SWAP3 SWAP2 SWAP1 PUSH2 0xA43 JUMP JUMPDEST PUSH1 0x40 MLOAD DUP1 SWAP2 SUB SWAP1 RETURN JUMPDEST PUSH2 0x17B PUSH1 0x4 DUP1 CALLDATASIZE SUB DUP2 ADD SWAP1 PUSH2 0x176 SWAP2 SWAP1 PUSH2 0xB9D JUMP JUMPDEST PUSH2 0x5AD JUMP JUMPDEST STOP JUMPDEST PUSH2 0x185 PUSH2 0x720 JUMP JUMPDEST PUSH1 0x40 MLOAD PUSH2 0x192 SWAP2 SWAP1 PUSH2 0xBF3 JUMP JUMPDEST PUSH1 0x40 MLOAD DUP1 SWAP2 SUB SWAP1 RETURN JUMPDEST PUSH2 0x1A3 PUSH2 0x743 JUMP JUMPDEST PUSH1 0x40 MLOAD PUSH2 0x1B0 SWAP2 SWAP1 PUSH2 0x992 JUMP JUMPDEST PUSH1 0x40 MLOAD DUP1 SWAP2 SUB SWAP1 RETURN JUMPDEST PUSH2 0x1C1 PUSH2 0x755 JUMP JUMPDEST STOP JUMPDEST PUSH1 0x3 PUSH0 SWAP1 SLOAD SWAP1 PUSH2 0x100 EXP SWAP1 DIV PUSH1 0xFF AND ISZERO PUSH2 0x212 JUMPI PUSH1 0x40 MLOAD PUSH32 0x8C379A000000000000000000000000000000000000000000000000000000000 DUP2 MSTORE PUSH1 0x4 ADD PUSH2 0x209 SWAP1 PUSH2 0xC56 JUMP JUMPDEST PUSH1 0x40 MLOAD DUP1 SWAP2 SUB SWAP1 REVERT JUMPDEST PUSH1 0x2 DUP1 SLOAD SWAP1 POP DUP2 LT PUSH2 0x259 JUMPI PUSH1 0x40 MLOAD PUSH32 0x8C379A000000000000000000000000000000000000000000000000000000000 DUP2 MSTORE PUSH1 0x4 ADD PUSH2 0x250 SWAP1 PUSH2 0xCBE JUMP JUMPDEST PUSH1 0x40 MLOAD DUP1 SWAP2 SUB SWAP1 REVERT JUMPDEST PUSH1 0x1 PUSH0 CALLER PUSH20 0xFFFFFFFFFFFFFFFFFFFFFFFFFFFFFFFFFFFFFFFF AND PUSH20 0xFFFFFFFFFFFFFFFFFFFFFFFFFFFFFFFFFFFFFFFF AND DUP2 MSTORE PUSH1 0x20 ADD SWAP1 DUP2 MSTORE PUSH1 0x20 ADD PUSH0 KECCAK256 PUSH0 SWAP1 SLOAD SWAP1 PUSH2 0x100 EXP SWAP1 DIV PUSH1 0xFF AND ISZERO PUSH2 0x2E3 JUMPI PUSH1 0x40 MLOAD PUSH32 0x8C379A000000000000000000000000000000000000000000000000000000000 DUP2 MSTORE PUSH1 0x4 ADD PUSH2 0x2DA SWAP1 PUSH2 0xD26 JUMP JUMPDEST PUSH1 0x40 MLOAD DUP1 SWAP2 SUB SWAP1 REVERT JUMPDEST PUSH1 0x2 DUP2 DUP2 SLOAD DUP2 LT PUSH2 0x2F7 JUMPI PUSH2 0x2F6 PUSH2 0xD44 JUMP JUMPDEST JUMPDEST SWAP1 PUSH0 MSTORE PUSH1 0x20 PUSH0 KECCAK256 SWAP1 PUSH1 0x2 MUL ADD PUSH1 0x1 ADD PUSH0 DUP2 SLOAD DUP1 SWAP3 SWAP2 SWAP1 PUSH2 0x316 SWAP1 PUSH2 0xD9E JUMP JUMPDEST SWAP2 SWAP1 POP SSTORE POP PUSH1 0x1 DUP1 PUSH0 CALLER PUSH20 0xFFFFFFFFFFFFFFFFFFFFFFFFFFFFFFFFFFFFFFFF AND PUSH20 0xFFFFFFFFFFFFFFFFFFFFFFFFFFFFFFFFFFFFFFFF AND DUP2 MSTORE PUSH1 0x20 ADD SWAP1 DUP2 MSTORE PUSH1 0x20 ADD PUSH0 KECCAK256 PUSH0 PUSH2 0x100 EXP DUP2 SLOAD DUP2 PUSH1 0xFF MUL NOT AND SWAP1 DUP4 ISZERO ISZERO MUL OR SWAP1 SSTORE POP PUSH32 0x4D99B957A2BC29A30EBD96A7BE8E68FE50A3C701DB28A91436490B7D53870CA4 CALLER DUP3 PUSH1 0x40 MLOAD PUSH2 0x3A0 SWAP3 SWAP2 SWAP1 PUSH2 0xDE5 JUMP JUMPDEST PUSH1 0x40 MLOAD DUP1 SWAP2 SUB SWAP1 LOG1 POP JUMP JUMPDEST PUSH1 0x1 PUSH1 0x20 MSTORE DUP1 PUSH0 MSTORE PUSH1 0x40 PUSH0 KECCAK256 PUSH0 SWAP2 POP SLOAD SWAP1 PUSH2 0x100 EXP SWAP1 DIV PUSH1 0xFF AND DUP2 JUMP JUMPDEST PUSH0 PUSH1 0x2 DUP1 SLOAD SWAP1 POP SWAP1 POP SWAP1 JUMP JUMPDEST PUSH1 0x2 DUP2 DUP2 SLOAD DUP2 LT PUSH2 0x3E3 JUMPI PUSH0 DUP1 REVERT JUMPDEST SWAP1 PUSH0 MSTORE PUSH1 0x20 PUSH0 KECCAK256 SWAP1 PUSH1 0x2 MUL ADD PUSH0 SWAP2 POP SWAP1 POP DUP1 PUSH0 ADD DUP1 SLOAD PUSH2 0x402 SWAP1 PUSH2 0xE39 JUMP JUMPDEST DUP1 PUSH1 0x1F ADD PUSH1 0x20 DUP1 SWAP2 DIV MUL PUSH1 0x20 ADD PUSH1 0x40 MLOAD SWAP1 DUP2 ADD PUSH1 0x40 MSTORE DUP1 SWAP3 SWAP2 SWAP1 DUP2 DUP2 MSTORE PUSH1 0x20 ADD DUP3 DUP1 SLOAD PUSH2 0x42E SWAP1 PUSH2 0xE39 JUMP JUMPDEST DUP1 ISZERO PUSH2 0x479 JUMPI DUP1 PUSH1 0x1F LT PUSH2 0x450 JUMPI PUSH2 0x100 DUP1 DUP4 SLOAD DIV MUL DUP4 MSTORE SWAP2 PUSH1 0x20 ADD SWAP2 PUSH2 0x479 JUMP JUMPDEST DUP3 ADD SWAP2 SWAP1 PUSH0 MSTORE PUSH1 0x20 PUSH0 KECCAK256 SWAP1 JUMPDEST DUP2 SLOAD DUP2 MSTORE SWAP1 PUSH1 0x1 ADD SWAP1 PUSH1 0x20 ADD DUP1 DUP4 GT PUSH2 0x45C JUMPI DUP3 SWAP1 SUB PUSH1 0x1F AND DUP3 ADD SWAP2 JUMPDEST POP POP POP POP POP SWAP1 DUP1 PUSH1 0x1 ADD SLOAD SWAP1 POP DUP3 JUMP JUMPDEST PUSH1 0x60 PUSH0 PUSH1 0x2 DUP1 SLOAD SWAP1 POP DUP4 LT PUSH2 0x4D3 JUMPI PUSH1 0x40 MLOAD PUSH32 0x8C379A000000000000000000000000000000000000000000000000000000000 DUP2 MSTORE PUSH1 0x4 ADD PUSH2 0x4CA SWAP1 PUSH2 0xCBE JUMP JUMPDEST PUSH1 0x40 MLOAD DUP1 SWAP2 SUB SWAP1 REVERT JUMPDEST PUSH0 PUSH1 0x2 DUP5 DUP2 SLOAD DUP2 LT PUSH2 0x4E8 JUMPI PUSH2 0x4E7 PUSH2 0xD44 JUMP JUMPDEST JUMPDEST SWAP1 PUSH0 MSTORE PUSH1 0x20 PUSH0 KECCAK256 SWAP1 PUSH1 0x2 MUL ADD PUSH1 0x40 MLOAD DUP1 PUSH1 0x40 ADD PUSH1 0x40 MSTORE SWAP1 DUP2 PUSH0 DUP3 ADD DUP1 SLOAD PUSH2 0x50E SWAP1 PUSH2 0xE39 JUMP JUMPDEST DUP1 PUSH1 0x1F ADD PUSH1 0x20 DUP1 SWAP2 DIV MUL PUSH1 0x20 ADD PUSH1 0x40 MLOAD SWAP1 DUP2 ADD PUSH1 0x40 MSTORE DUP1 SWAP3 SWAP2 SWAP1 DUP2 DUP2 MSTORE PUSH1 0x20 ADD DUP3 DUP1 SLOAD PUSH2 0x53A SWAP1 PUSH2 0xE39 JUMP JUMPDEST DUP1 ISZERO PUSH2 0x585 JUMPI DUP1 PUSH1 0x1F LT PUSH2 0x55C JUMPI PUSH2 0x100 DUP1 DUP4 SLOAD DIV MUL DUP4 MSTORE SWAP2 PUSH1 0x20 ADD SWAP2 PUSH2 0x585 JUMP JUMPDEST DUP3 ADD SWAP2 SWAP1 PUSH0 MSTORE PUSH1 0x20 PUSH0 KECCAK256 SWAP1 JUMPDEST DUP2 SLOAD DUP2 MSTORE SWAP1 PUSH1 0x1 ADD SWAP1 PUSH1 0x20 ADD DUP1 DUP4 GT PUSH2 0x568 JUMPI DUP3 SWAP1 SUB PUSH1 0x1F AND DUP3 ADD SWAP2 JUMPDEST POP POP POP POP POP DUP2 MSTORE PUSH1 0x20 ADD PUSH1 0x1 DUP3 ADD SLOAD DUP2 MSTORE POP POP SWAP1 POP DUP1 PUSH0 ADD MLOAD DUP2 PUSH1 0x20 ADD MLOAD SWAP3 POP SWAP3 POP POP SWAP2 POP SWAP2 JUMP JUMPDEST PUSH0 DUP1 SLOAD SWAP1 PUSH2 0x100 EXP SWAP1 DIV PUSH20 0xFFFFFFFFFFFFFFFFFFFFFFFFFFFFFFFFFFFFFFFF AND PUSH20 0xFFFFFFFFFFFFFFFFFFFFFFFFFFFFFFFFFFFFFFFF AND CALLER PUSH20 0xFFFFFFFFFFFFFFFFFFFFFFFFFFFFFFFFFFFFFFFF AND EQ PUSH2 0x63A JUMPI PUSH1 0x40 MLOAD PUSH32 0x8C379A000000000000000000000000000000000000000000000000000000000 DUP2 MSTORE PUSH1 0x4 ADD PUSH2 0x631 SWAP1 PUSH2 0xED9 JUMP JUMPDEST PUSH1 0x40 MLOAD DUP1 SWAP2 SUB SWAP1 REVERT JUMPDEST PUSH1 0x3 PUSH0 SWAP1 SLOAD SWAP1 PUSH2 0x100 EXP SWAP1 DIV PUSH1 0xFF AND ISZERO PUSH2 0x689 JUMPI PUSH1 0x40 MLOAD PUSH32 0x8C379A000000000000000000000000000000000000000000000000000000000 DUP2 MSTORE PUSH1 0x4 ADD PUSH2 0x680 SWAP1 PUSH2 0xC56 JUMP JUMPDEST PUSH1 0x40 MLOAD DUP1 SWAP2 SUB SWAP1 REVERT JUMPDEST PUSH1 0x2 PUSH1 0x40 MLOAD DUP1 PUSH1 0x40 ADD PUSH1 0x40 MSTORE DUP1 DUP4 DUP2 MSTORE PUSH1 0x20 ADD PUSH0 DUP2 MSTORE POP SWAP1 DUP1 PUSH1 0x1 DUP2 SLOAD ADD DUP1 DUP3 SSTORE DUP1 SWAP2 POP POP PUSH1 0x1 SWAP1 SUB SWAP1 PUSH0 MSTORE PUSH1 0x20 PUSH0 KECCAK256 SWAP1 PUSH1 0x2 MUL ADD PUSH0 SWAP1 SWAP2 SWAP1 SWAP2 SWAP1 SWAP2 POP PUSH0 DUP3 ADD MLOAD DUP2 PUSH0 ADD SWAP1 DUP2 PUSH2 0x6D9 SWAP2 SWAP1 PUSH2 0x1094 JUMP JUMPDEST POP PUSH1 0x20 DUP3 ADD MLOAD DUP2 PUSH1 0x1 ADD SSTORE POP POP PUSH32 0xF29562DAD1599AEA0EBB142466120AAB326D5EFA8F839DF82A9C064BF78E8938 DUP2 PUSH1 0x40 MLOAD PUSH2 0x715 SWAP2 SWAP1 PUSH2 0x1163 JUMP JUMPDEST PUSH1 0x40 MLOAD DUP1 SWAP2 SUB SWAP1 LOG1 POP JUMP JUMPDEST PUSH0 DUP1 SLOAD SWAP1 PUSH2 0x100 EXP SWAP1 DIV PUSH20 0xFFFFFFFFFFFFFFFFFFFFFFFFFFFFFFFFFFFFFFFF AND DUP2 JUMP JUMPDEST PUSH1 0x3 PUSH0 SWAP1 SLOAD SWAP1 PUSH2 0x100 EXP SWAP1 DIV PUSH1 0xFF AND DUP2 JUMP JUMPDEST PUSH0 DUP1 SLOAD SWAP1 PUSH2 0x100 EXP SWAP1 DIV PUSH20 0xFFFFFFFFFFFFFFFFFFFFFFFFFFFFFFFFFFFFFFFF AND PUSH20 0xFFFFFFFFFFFFFFFFFFFFFFFFFFFFFFFFFFFFFFFF AND CALLER PUSH20 0xFFFFFFFFFFFFFFFFFFFFFFFFFFFFFFFFFFFFFFFF AND EQ PUSH2 0x7E2 JUMPI PUSH1 0x40 MLOAD PUSH32 0x8C379A000000000000000000000000000000000000000000000000000000000 DUP2 MSTORE PUSH1 0x4 ADD PUSH2 0x7D9 SWAP1 PUSH2 0xED9 JUMP JUMPDEST PUSH1 0x40 MLOAD DUP1 SWAP2 SUB SWAP1 REVERT JUMPDEST PUSH1 0x3 PUSH0 SWAP1 SLOAD SWAP1 PUSH2 0x100 EXP SWAP1 DIV PUSH1 0xFF AND ISZERO PUSH2 0x831 JUMPI PUSH1 0x40 MLOAD PUSH32 0x8C379A000000000000000000000000000000000000000000000000000000000 DUP2 MSTORE PUSH1 0x4 ADD PUSH2 0x828 SWAP1 PUSH2 0xC56 JUMP JUMPDEST PUSH1 0x40 MLOAD DUP1 SWAP2 SUB SWAP1 REVERT JUMPDEST PUSH1 0x1 PUSH1 0x3 PUSH0 PUSH2 0x100 EXP DUP2 SLOAD DUP2 PUSH1 0xFF MUL NOT AND SWAP1 DUP4 ISZERO ISZERO MUL OR SWAP1 SSTORE POP PUSH32 0x2E81CDB492C9F62B4F74D65B09CDA9579DC5245B2E8B243B4957662F2C0B1BEF TIMESTAMP PUSH1 0x40 MLOAD PUSH2 0x87A SWAP2 SWAP1 PUSH2 0x9BA JUMP JUMPDEST PUSH1 0x40 MLOAD DUP1 SWAP2 SUB SWAP1 LOG1 JUMP JUMPDEST PUSH0 PUSH1 0x40 MLOAD SWAP1 POP SWAP1 JUMP JUMPDEST PUSH0 DUP1 REVERT JUMPDEST PUSH0 DUP1 REVERT JUMPDEST PUSH0 DUP2 SWAP1 POP SWAP2 SWAP1 POP JUMP JUMPDEST PUSH2 0x8A7 DUP2 PUSH2 0x895 JUMP JUMPDEST DUP2 EQ PUSH2 0x8B1 JUMPI PUSH0 DUP1 REVERT JUMPDEST POP JUMP JUMPDEST PUSH0 DUP2 CALLDATALOAD SWAP1 POP PUSH2 0x8C2 DUP2 PUSH2 0x89E JUMP JUMPDEST SWAP3 SWAP2 POP POP JUMP JUMPDEST PUSH0 PUSH1 0x20 DUP3 DUP5 SUB SLT ISZERO PUSH2 0x8DD JUMPI PUSH2 0x8DC PUSH2 0x88D JUMP JUMPDEST JUMPDEST PUSH0 PUSH2 0x8EA DUP5 DUP3 DUP6 ADD PUSH2 0x8B4 JUMP JUMPDEST SWAP2 POP POP SWAP3 SWAP2 POP POP JUMP JUMPDEST PUSH0 PUSH20 0xFFFFFFFFFFFFFFFFFFFFFFFFFFFFFFFFFFFFFFFF DUP3 AND SWAP1 POP SWAP2 SWAP1 POP JUMP JUMPDEST PUSH0 PUSH2 0x91C DUP3 PUSH2 0x8F3 JUMP JUMPDEST SWAP1 POP SWAP2 SWAP1 POP JUMP JUMPDEST PUSH2 0x92C DUP2 PUSH2 0x912 JUMP JUMPDEST DUP2 EQ PUSH2 0x936 JUMPI PUSH0 DUP1 REVERT JUMPDEST POP JUMP JUMPDEST PUSH0 DUP2 CALLDATALOAD SWAP1 POP PUSH2 0x947 DUP2 PUSH2 0x923 JUMP JUMPDEST SWAP3 SWAP2 POP POP JUMP JUMPDEST PUSH0 PUSH1 0x20 DUP3 DUP5 SUB SLT ISZERO PUSH2 0x962 JUMPI PUSH2 0x961 PUSH2 0x88D JUMP JUMPDEST JUMPDEST PUSH0 PUSH2 0x96F DUP5 DUP3 DUP6 ADD PUSH2 0x939 JUMP JUMPDEST SWAP2 POP POP SWAP3 SWAP2 POP POP JUMP JUMPDEST PUSH0 DUP2 ISZERO ISZERO SWAP1 POP SWAP2 SWAP1 POP JUMP JUMPDEST PUSH2 0x98C DUP2 PUSH2 0x978 JUMP JUMPDEST DUP3 MSTORE POP POP JUMP JUMPDEST PUSH0 PUSH1 0x20 DUP3 ADD SWAP1 POP PUSH2 0x9A5 PUSH0 DUP4 ADD DUP5 PUSH2 0x983 JUMP JUMPDEST SWAP3 SWAP2 POP POP JUMP JUMPDEST PUSH2 0x9B4 DUP2 PUSH2 0x895 JUMP JUMPDEST DUP3 MSTORE POP POP JUMP JUMPDEST PUSH0 PUSH1 0x20 DUP3 ADD SWAP1 POP PUSH2 0x9CD PUSH0 DUP4 ADD DUP5 PUSH2 0x9AB JUMP JUMPDEST SWAP3 SWAP2 POP POP JUMP JUMPDEST PUSH0 DUP2 MLOAD SWAP1 POP SWAP2 SWAP1 POP JUMP JUMPDEST PUSH0 DUP3 DUP3 MSTORE PUSH1 0x20 DUP3 ADD SWAP1 POP SWAP3 SWAP2 POP POP JUMP JUMPDEST DUP3 DUP2 DUP4 MCOPY PUSH0 DUP4 DUP4 ADD MSTORE POP POP POP JUMP JUMPDEST PUSH0 PUSH1 0x1F NOT PUSH1 0x1F DUP4 ADD AND SWAP1 POP SWAP2 SWAP1 POP JUMP JUMPDEST PUSH0 PUSH2 0xA15 DUP3 PUSH2 0x9D3 JUMP JUMPDEST PUSH2 0xA1F DUP2 DUP6 PUSH2 0x9DD JUMP JUMPDEST SWAP4 POP PUSH2 0xA2F DUP2 DUP6 PUSH1 0x20 DUP7 ADD PUSH2 0x9ED JUMP JUMPDEST PUSH2 0xA38 DUP2 PUSH2 0x9FB JUMP JUMPDEST DUP5 ADD SWAP2 POP POP SWAP3 SWAP2 POP POP JUMP JUMPDEST PUSH0 PUSH1 0x40 DUP3 ADD SWAP1 POP DUP2 DUP2 SUB PUSH0 DUP4 ADD MSTORE PUSH2 0xA5B DUP2 DUP6 PUSH2 0xA0B JUMP JUMPDEST SWAP1 POP PUSH2 0xA6A PUSH1 0x20 DUP4 ADD DUP5 PUSH2 0x9AB JUMP JUMPDEST SWAP4 SWAP3 POP POP POP JUMP JUMPDEST PUSH0 DUP1 REVERT JUMPDEST PUSH0 DUP1 REVERT JUMPDEST PUSH32 0x4E487B7100000000000000000000000000000000000000000000000000000000 PUSH0 MSTORE PUSH1 0x41 PUSH1 0x4 MSTORE PUSH1 0x24 PUSH0 REVERT JUMPDEST PUSH2 0xAAF DUP3 PUSH2 0x9FB JUMP JUMPDEST DUP2 ADD DUP2 DUP2 LT PUSH8 0xFFFFFFFFFFFFFFFF DUP3 GT OR ISZERO PUSH2 0xACE JUMPI PUSH2 0xACD PUSH2 0xA79 JUMP JUMPDEST JUMPDEST DUP1 PUSH1 0x40 MSTORE POP POP POP JUMP JUMPDEST PUSH0 PUSH2 0xAE0 PUSH2 0x884 JUMP JUMPDEST SWAP1 POP PUSH2 0xAEC DUP3 DUP3 PUSH2 0xAA6 JUMP JUMPDEST SWAP2 SWAP1 POP JUMP JUMPDEST PUSH0 PUSH8 0xFFFFFFFFFFFFFFFF DUP3 GT ISZERO PUSH2 0xB0B JUMPI PUSH2 0xB0A PUSH2 0xA79 JUMP JUMPDEST JUMPDEST PUSH2 0xB14 DUP3 PUSH2 0x9FB JUMP JUMPDEST SWAP1 POP PUSH1 0x20 DUP2 ADD SWAP1 POP SWAP2 SWAP1 POP JUMP JUMPDEST DUP3 DUP2 DUP4 CALLDATACOPY PUSH0 DUP4 DUP4 ADD MSTORE POP POP POP JUMP JUMPDEST PUSH0 PUSH2 0xB41 PUSH2 0xB3C DUP5 PUSH2 0xAF1 JUMP JUMPDEST PUSH2 0xAD7 JUMP JUMPDEST SWAP1 POP DUP3 DUP2 MSTORE PUSH1 0x20 DUP2 ADD DUP5 DUP5 DUP5 ADD GT ISZERO PUSH2 0xB5D JUMPI PUSH2 0xB5C PUSH2 0xA75 JUMP JUMPDEST JUMPDEST PUSH2 0xB68 DUP5 DUP3 DUP6 PUSH2 0xB21 JUMP JUMPDEST POP SWAP4 SWAP3 POP POP POP JUMP JUMPDEST PUSH0 DUP3 PUSH1 0x1F DUP4 ADD SLT PUSH2 0xB84 JUMPI PUSH2 0xB83 PUSH2 0xA71 JUMP JUMPDEST JUMPDEST DUP2 CALLDATALOAD PUSH2 0xB94 DUP5 DUP3 PUSH1 0x20 DUP7 ADD PUSH2 0xB2F JUMP JUMPDEST SWAP2 POP POP SWAP3 SWAP2 POP POP JUMP JUMPDEST PUSH0 PUSH1 0x20 DUP3 DUP5 SUB SLT ISZERO PUSH2 0xBB2 JUMPI PUSH2 0xBB1 PUSH2 0x88D JUMP JUMPDEST JUMPDEST PUSH0 DUP3 ADD CALLDATALOAD PUSH8 0xFFFFFFFFFFFFFFFF DUP2 GT ISZERO PUSH2 0xBCF JUMPI PUSH2 0xBCE PUSH2 0x891 JUMP JUMPDEST JUMPDEST PUSH2 0xBDB DUP5 DUP3 DUP6 ADD PUSH2 0xB70 JUMP JUMPDEST SWAP2 POP POP SWAP3 SWAP2 POP POP JUMP JUMPDEST PUSH2 0xBED DUP2 PUSH2 0x912 JUMP JUMPDEST DUP3 MSTORE POP POP JUMP JUMPDEST PUSH0 PUSH1 0x20 DUP3 ADD SWAP1 POP PUSH2 0xC06 PUSH0 DUP4 ADD DUP5 PUSH2 0xBE4 JUMP JUMPDEST SWAP3 SWAP2 POP POP JUMP JUMPDEST PUSH32 0x566F74696E672068617320656E64656400000000000000000000000000000000 PUSH0 DUP3 ADD MSTORE POP JUMP JUMPDEST PUSH0 PUSH2 0xC40 PUSH1 0x10 DUP4 PUSH2 0x9DD JUMP JUMPDEST SWAP2 POP PUSH2 0xC4B DUP3 PUSH2 0xC0C JUMP JUMPDEST PUSH1 0x20 DUP3 ADD SWAP1 POP SWAP2 SWAP1 POP JUMP JUMPDEST PUSH0 PUSH1 0x20 DUP3 ADD SWAP1 POP DUP2 DUP2 SUB PUSH0 DUP4 ADD MSTORE PUSH2 0xC6D DUP2 PUSH2 0xC34 JUMP JUMPDEST SWAP1 POP SWAP2 SWAP1 POP JUMP JUMPDEST PUSH32 0x496E76616C69642063616E646964617465204944000000000000000000000000 PUSH0 DUP3 ADD MSTORE POP JUMP JUMPDEST PUSH0 PUSH2 0xCA8 PUSH1 0x14 DUP4 PUSH2 0x9DD JUMP JUMPDEST SWAP2 POP PUSH2 0xCB3 DUP3 PUSH2 0xC74 JUMP JUMPDEST PUSH1 0x20 DUP3 ADD SWAP1 POP SWAP2 SWAP1 POP JUMP JUMPDEST PUSH0 PUSH1 0x20 DUP3 ADD SWAP1 POP DUP2 DUP2 SUB PUSH0 DUP4 ADD MSTORE PUSH2 0xCD5 DUP2 PUSH2 0xC9C JUMP JUMPDEST SWAP1 POP SWAP2 SWAP1 POP JUMP JUMPDEST PUSH32 0x416C726561647920766F74656400000000000000000000000000000000000000 PUSH0 DUP3 ADD MSTORE POP JUMP JUMPDEST PUSH0 PUSH2 0xD10 PUSH1 0xD DUP4 PUSH2 0x9DD JUMP JUMPDEST SWAP2 POP PUSH2 0xD1B DUP3 PUSH2 0xCDC JUMP JUMPDEST PUSH1 0x20 DUP3 ADD SWAP1 POP SWAP2 SWAP1 POP JUMP JUMPDEST PUSH0 PUSH1 0x20 DUP3 ADD SWAP1 POP DUP2 DUP2 SUB PUSH0 DUP4 ADD MSTORE PUSH2 0xD3D DUP2 PUSH2 0xD04 JUMP JUMPDEST SWAP1 POP SWAP2 SWAP1 POP JUMP JUMPDEST PUSH32 0x4E487B7100000000000000000000000000000000000000000000000000000000 PUSH0 MSTORE PUSH1 0x32 PUSH1 0x4 MSTORE PUSH1 0x24 PUSH0 REVERT JUMPDEST PUSH32 0x4E487B7100000000000000000000000000000000000000000000000000000000 PUSH0 MSTORE PUSH1 0x11 PUSH1 0x4 MSTORE PUSH1 0x24 PUSH0 REVERT JUMPDEST PUSH0 PUSH2 0xDA8 DUP3 PUSH2 0x895 JUMP JUMPDEST SWAP2 POP PUSH32 0xFFFFFFFFFFFFFFFFFFFFFFFFFFFFFFFFFFFFFFFFFFFFFFFFFFFFFFFFFFFFFFFF DUP3 SUB PUSH2 0xDDA JUMPI PUSH2 0xDD9 PUSH2 0xD71 JUMP JUMPDEST JUMPDEST PUSH1 0x1 DUP3 ADD SWAP1 POP SWAP2 SWAP1 POP JUMP JUMPDEST PUSH0 PUSH1 0x40 DUP3 ADD SWAP1 POP PUSH2 0xDF8 PUSH0 DUP4 ADD DUP6 PUSH2 0xBE4 JUMP JUMPDEST PUSH2 0xE05 PUSH1 0x20 DUP4 ADD DUP5 PUSH2 0x9AB JUMP JUMPDEST SWAP4 SWAP3 POP POP POP JUMP JUMPDEST PUSH32 0x4E487B7100000000000000000000000000000000000000000000000000000000 PUSH0 MSTORE PUSH1 0x22 PUSH1 0x4 MSTORE PUSH1 0x24 PUSH0 REVERT JUMPDEST PUSH0 PUSH1 0x2 DUP3 DIV SWAP1 POP PUSH1 0x1 DUP3 AND DUP1 PUSH2 0xE50 JUMPI PUSH1 0x7F DUP3 AND SWAP2 POP JUMPDEST PUSH1 0x20 DUP3 LT DUP2 SUB PUSH2 0xE63 JUMPI PUSH2 0xE62 PUSH2 0xE0C JUMP JUMPDEST JUMPDEST POP SWAP2 SWAP1 POP JUMP JUMPDEST PUSH32 0x4F6E6C79206F776E65722063616E2063616C6C20746869732066756E6374696F PUSH0 DUP3 ADD MSTORE PUSH32 0x6E00000000000000000000000000000000000000000000000000000000000000 PUSH1 0x20 DUP3 ADD MSTORE POP JUMP JUMPDEST PUSH0 PUSH2 0xEC3 PUSH1 0x21 DUP4 PUSH2 0x9DD JUMP JUMPDEST SWAP2 POP PUSH2 0xECE DUP3 PUSH2 0xE69 JUMP JUMPDEST PUSH1 0x40 DUP3 ADD SWAP1 POP SWAP2 SWAP1 POP JUMP JUMPDEST PUSH0 PUSH1 0x20 DUP3 ADD SWAP1 POP DUP2 DUP2 SUB PUSH0 DUP4 ADD MSTORE PUSH2 0xEF0 DUP2 PUSH2 0xEB7 JUMP JUMPDEST SWAP1 POP SWAP2 SWAP1 POP JUMP JUMPDEST PUSH0 DUP2 SWAP1 POP DUP2 PUSH0 MSTORE PUSH1 0x20 PUSH0 KECCAK256 SWAP1 POP SWAP2 SWAP1 POP JUMP JUMPDEST PUSH0 PUSH1 0x20 PUSH1 0x1F DUP4 ADD DIV SWAP1 POP SWAP2 SWAP1 POP JUMP JUMPDEST PUSH0 DUP3 DUP3 SHL SWAP1 POP SWAP3 SWAP2 POP POP JUMP JUMPDEST PUSH0 PUSH1 0x8 DUP4 MUL PUSH2 0xF53 PUSH32 0xFFFFFFFFFFFFFFFFFFFFFFFFFFFFFFFFFFFFFFFFFFFFFFFFFFFFFFFFFFFFFFFF DUP3 PUSH2 0xF18 JUMP JUMPDEST PUSH2 0xF5D DUP7 DUP4 PUSH2 0xF18 JUMP JUMPDEST SWAP6 POP DUP1 NOT DUP5 AND SWAP4 POP DUP1 DUP7 AND DUP5 OR SWAP3 POP POP POP SWAP4 SWAP3 POP POP POP JUMP JUMPDEST PUSH0 DUP2 SWAP1 POP SWAP2 SWAP1 POP JUMP JUMPDEST PUSH0 PUSH2 0xF98 PUSH2 0xF93 PUSH2 0xF8E DUP5 PUSH2 0x895 JUMP JUMPDEST PUSH2 0xF75 JUMP JUMPDEST PUSH2 0x895 JUMP JUMPDEST SWAP1 POP SWAP2 SWAP1 POP JUMP JUMPDEST PUSH0 DUP2 SWAP1 POP SWAP2 SWAP1 POP JUMP JUMPDEST PUSH2 0xFB1 DUP4 PUSH2 0xF7E JUMP JUMPDEST PUSH2 0xFC5 PUSH2 0xFBD DUP3 PUSH2 0xF9F JUMP JUMPDEST DUP5 DUP5 SLOAD PUSH2 0xF24 JUMP JUMPDEST DUP3 SSTORE POP POP POP POP JUMP JUMPDEST PUSH0 SWAP1 JUMP JUMPDEST PUSH2 0xFD9 PUSH2 0xFCD JUMP JUMPDEST PUSH2 0xFE4 DUP2 DUP5 DUP5 PUSH2 0xFA8 JUMP JUMPDEST POP POP POP JUMP JUMPDEST JUMPDEST DUP2 DUP2 LT ISZERO PUSH2 0x1007 JUMPI PUSH2 0xFFC PUSH0 DUP3 PUSH2 0xFD1 JUMP JUMPDEST PUSH1 0x1 DUP2 ADD SWAP1 POP PUSH2 0xFEA JUMP JUMPDEST POP POP JUMP JUMPDEST PUSH1 0x1F DUP3 GT ISZERO PUSH2 0x104C JUMPI PUSH2 0x101D DUP2 PUSH2 0xEF7 JUMP JUMPDEST PUSH2 0x1026 DUP5 PUSH2 0xF09 JUMP JUMPDEST DUP2 ADD PUSH1 0x20 DUP6 LT ISZERO PUSH2 0x1035 JUMPI DUP2 SWAP1 POP JUMPDEST PUSH2 0x1049 PUSH2 0x1041 DUP6 PUSH2 0xF09 JUMP JUMPDEST DUP4 ADD DUP3 PUSH2 0xFE9 JUMP JUMPDEST POP POP JUMPDEST POP POP POP JUMP JUMPDEST PUSH0 DUP3 DUP3 SHR SWAP1 POP SWAP3 SWAP2 POP POP JUMP JUMPDEST PUSH0 PUSH2 0x106C PUSH0 NOT DUP5 PUSH1 0x8 MUL PUSH2 0x1051 JUMP JUMPDEST NOT DUP1 DUP4 AND SWAP2 POP POP SWAP3 SWAP2 POP POP JUMP JUMPDEST PUSH0 PUSH2 0x1084 DUP4 DUP4 PUSH2 0x105D JUMP JUMPDEST SWAP2 POP DUP3 PUSH1 0x2 MUL DUP3 OR SWAP1 POP SWAP3 SWAP2 POP POP JUMP JUMPDEST PUSH2 0x109D DUP3 PUSH2 0x9D3 JUMP JUMPDEST PUSH8 0xFFFFFFFFFFFFFFFF DUP2 GT ISZERO PUSH2 0x10B6 JUMPI PUSH2 0x10B5 PUSH2 0xA79 JUMP JUMPDEST JUMPDEST PUSH2 0x10C0 DUP3 SLOAD PUSH2 0xE39 JUMP JUMPDEST PUSH2 0x10CB DUP3 DUP3 DUP6 PUSH2 0x100B JUMP JUMPDEST PUSH0 PUSH1 0x20 SWAP1 POP PUSH1 0x1F DUP4 GT PUSH1 0x1 DUP2 EQ PUSH2 0x10FC JUMPI PUSH0 DUP5 ISZERO PUSH2 0x10EA JUMPI DUP3 DUP8 ADD MLOAD SWAP1 POP JUMPDEST PUSH2 0x10F4 DUP6 DUP3 PUSH2 0x1079 JUMP JUMPDEST DUP7 SSTORE POP PUSH2 0x115B JUMP JUMPDEST PUSH1 0x1F NOT DUP5 AND PUSH2 0x110A DUP7 PUSH2 0xEF7 JUMP JUMPDEST PUSH0 JUMPDEST DUP3 DUP2 LT ISZERO PUSH2 0x1131 JUMPI DUP5 DUP10 ADD MLOAD DUP3 SSTORE PUSH1 0x1 DUP3 ADD SWAP2 POP PUSH1 0x20 DUP6 ADD SWAP5 POP PUSH1 0x20 DUP2 ADD SWAP1 POP PUSH2 0x110C JUMP JUMPDEST DUP7 DUP4 LT ISZERO PUSH2 0x114E JUMPI DUP5 DUP10 ADD MLOAD PUSH2 0x114A PUSH1 0x1F DUP10 AND DUP3 PUSH2 0x105D JUMP JUMPDEST DUP4 SSTORE POP JUMPDEST PUSH1 0x1 PUSH1 0x2 DUP9 MUL ADD DUP9 SSTORE POP POP POP JUMPDEST POP POP POP POP POP POP JUMP JUMPDEST PUSH0 PUSH1 0x20 DUP3 ADD SWAP1 POP DUP2 DUP2 SUB PUSH0 DUP4 ADD MSTORE PUSH2 0x117B DUP2 DUP5 PUSH2 0xA0B JUMP JUMPDEST SWAP1 POP SWAP3 SWAP2 POP POP JUMP INVALID LOG2 PUSH5 0x6970667358 0x22 SLT KECCAK256 0xD0 0x24 0xEC SWAP13 TIMESTAMP DUP1 CALLER 0xC9 0xA8 DUP4 0xF7 PUSH21 0xAEA12A6180643A76362360EFBA949CE50EEB50F664 PUSH20 0x6F6C634300081A00330000000000000000000000 "
				},
				"gasEstimates": {
					"creation": {
						"codeDepositCost": "907400",
						"executionCost": "25205",
						"totalCost": "932605"
					},
					"external": {
						"addCandidate(string)": "infinite",
						"candidates(uint256)": "infinite",
						"endVoting()": "30005",
						"getCandidate(uint256)": "infinite",
						"getCandidateCount()": "2485",
						"hasVoted(address)": "2856",
						"owner()": "2549",
						"vote(uint256)": "infinite",
						"votingEnded()": "2532"
					}
				},
				"methodIdentifiers": {
					"addCandidate(string)": "462e91ec",
					"candidates(uint256)": "3477ee2e",
					"endVoting()": "c3403ddf",
					"getCandidate(uint256)": "35b8e820",
					"getCandidateCount()": "30a56347",
					"hasVoted(address)": "09eef43e",
					"owner()": "8da5cb5b",
					"vote(uint256)": "0121b93f",
					"votingEnded()": "9d5a0529"
				}
			},
			"storageLayout": {
				"storage": [
					{
						"astId": 8,
						"contract": "Beginner Level/Voting System/contracts/Voting.sol:VotingSystem",
						"label": "owner",
						"offset": 0,
						"slot": "0",
						"type": "t_address"
					},
					{
						"astId": 12,
						"contract": "Beginner Level/Voting System/contracts/Voting.sol:VotingSystem",
						"label": "hasVoted",
						"offset": 0,
						"slot": "1",
						"type": "t_mapping(t_address,t_bool)"
					},
					{
						"astId": 16,
						"contract": "Beginner Level/Voting System/contracts/Voting.sol:VotingSystem",
						"label": "candidates",
						"offset": 0,
						"slot": "2",
						"type": "t_array(t_struct(Candidate)6_storage)dyn_storage"
					},
					{
						"astId": 18,
						"contract": "Beginner Level/Voting System/contracts/Voting.sol:VotingSystem",
						"label": "votingEnded",
						"offset": 0,
						"slot": "3",
						"type": "t_bool"
					}
				],
				"types": {
					"t_address": {
						"encoding": "inplace",
						"label": "address",
						"numberOfBytes": "20"
					},
					"t_array(t_struct(Candidate)6_storage)dyn_storage": {
						"base": "t_struct(Candidate)6_storage",
						"encoding": "dynamic_array",
						"label": "struct VotingSystem.Candidate[]",
						"numberOfBytes": "32"
					},
					"t_bool": {
						"encoding": "inplace",
						"label": "bool",
						"numberOfBytes": "1"
					},
					"t_mapping(t_address,t_bool)": {
						"encoding": "mapping",
						"key": "t_address",
						"label": "mapping(address => bool)",
						"numberOfBytes": "32",
						"value": "t_bool"
					},
					"t_string_storage": {
						"encoding": "bytes",
						"label": "string",
						"numberOfBytes": "32"
					},
					"t_struct(Candidate)6_storage": {
						"encoding": "inplace",
						"label": "struct VotingSystem.Candidate",
						"members": [
							{
								"astId": 3,
								"contract": "Beginner Level/Voting System/contracts/Voting.sol:VotingSystem",
								"label": "name",
								"offset": 0,
								"slot": "0",
								"type": "t_string_storage"
							},
							{
								"astId": 5,
								"contract": "Beginner Level/Voting System/contracts/Voting.sol:VotingSystem",
								"label": "voteCount",
								"offset": 0,
								"slot": "1",
								"type": "t_uint256"
							}
						],
						"numberOfBytes": "64"
					},
					"t_uint256": {
						"encoding": "inplace",
						"label": "uint256",
						"numberOfBytes": "32"
					}
				}
			},
			"userdoc": {
				"kind": "user",
				"methods": {},
				"version": 1
			}
		}
	}
}