{
	"Intermediate Level LOL/Time-Locked Wallet/contracts/TimeLock.sol": {
		"TimeLockedWallet": {
			"abi": [
				{
					"inputs": [],
					"stateMutability": "nonpayable",
					"type": "constructor"
				},
				{
					"anonymous": false,
					"inputs": [
						{
							"indexed": true,
							"internalType": "uint256",
							"name": "lockId",
							"type": "uint256"
						},
						{
							"indexed": false,
							"internalType": "uint256",
							"name": "amount",
							"type": "uint256"
						},
						{
							"indexed": false,
							"internalType": "uint256",
							"name": "releaseTime",
							"type": "uint256"
						}
					],
					"name": "FundsDeposited",
					"type": "event"
				},
				{
					"anonymous": false,
					"inputs": [
						{
							"indexed": true,
							"internalType": "uint256",
							"name": "lockId",
							"type": "uint256"
						},
						{
							"indexed": false,
							"internalType": "uint256",
							"name": "amount",
							"type": "uint256"
						}
					],
					"name": "FundsReleased",
					"type": "event"
				},
				{
					"inputs": [
						{
							"internalType": "uint256",
							"name": "_releaseTime",
							"type": "uint256"
						}
					],
					"name": "deposit",
					"outputs": [
						{
							"internalType": "uint256",
							"name": "",
							"type": "uint256"
						}
					],
					"stateMutability": "payable",
					"type": "function"
				},
				{
					"inputs": [],
					"name": "getBalance",
					"outputs": [
						{
							"internalType": "uint256",
							"name": "",
							"type": "uint256"
						}
					],
					"stateMutability": "view",
					"type": "function"
				},
				{
					"inputs": [
						{
							"internalType": "uint256",
							"name": "_lockId",
							"type": "uint256"
						}
					],
					"name": "getLock",
					"outputs": [
						{
							"internalType": "uint256",
							"name": "amount",
							"type": "uint256"
						},
						{
							"internalType": "uint256",
							"name": "releaseTime",
							"type": "uint256"
						},
						{
							"internalType": "bool",
							"name": "released",
							"type": "bool"
						}
					],
					"stateMutability": "view",
					"type": "function"
				},
				{
					"inputs": [],
					"name": "lockCount",
					"outputs": [
						{
							"internalType": "uint256",
							"name": "",
							"type": "uint256"
						}
					],
					"stateMutability": "view",
					"type": "function"
				},
				{
					"inputs": [
						{
							"internalType": "uint256",
							"name": "",
							"type": "uint256"
						}
					],
					"name": "locks",
					"outputs": [
						{
							"internalType": "uint256",
							"name": "amount",
							"type": "uint256"
						},
						{
							"internalType": "uint256",
							"name": "releaseTime",
							"type": "uint256"
						},
						{
							"internalType": "bool",
							"name": "released",
							"type": "bool"
						}
					],
					"stateMutability": "view",
					"type": "function"
				},
				{
					"inputs": [],
					"name": "owner",
					"outputs": [
						{
							"internalType": "address",
							"name": "",
							"type": "address"
						}
					],
					"stateMutability": "view",
					"type": "function"
				},
				{
					"inputs": [
						{
							"internalType": "uint256",
							"name": "_lockId",
							"type": "uint256"
						}
					],
					"name": "release",
					"outputs": [],
					"stateMutability": "nonpayable",
					"type": "function"
				},
				{
					"inputs": [
						{
							"internalType": "uint256",
							"name": "_lockId",
							"type": "uint256"
						}
					],
					"name": "timeUntilRelease",
					"outputs": [
						{
							"internalType": "uint256",
							"name": "",
							"type": "uint256"
						}
					],
					"stateMutability": "view",
					"type": "function"
				},
				{
					"stateMutability": "payable",
					"type": "receive"
				}
			],
			"devdoc": {
				"kind": "dev",
				"methods": {},
				"version": 1
			},
			"evm": {
				"assembly": "    /* \"Intermediate Level LOL/Time-Locked Wallet/contracts/TimeLock.sol\":60:2466  contract TimeLockedWallet {... */\n  mstore(0x40, 0x80)\n    /* \"Intermediate Level LOL/Time-Locked Wallet/contracts/TimeLock.sol\":601:652  constructor() {... */\n  callvalue\n  dup1\n  iszero\n  tag_1\n  jumpi\n  0x00\n  dup1\n  revert\ntag_1:\n  pop\n    /* \"Intermediate Level LOL/Time-Locked Wallet/contracts/TimeLock.sol\":634:644  msg.sender */\n  caller\n    /* \"Intermediate Level LOL/Time-Locked Wallet/contracts/TimeLock.sol\":626:631  owner */\n  0x00\n  dup1\n    /* \"Intermediate Level LOL/Time-Locked Wallet/contracts/TimeLock.sol\":626:644  owner = msg.sender */\n  0x0100\n  exp\n  dup2\n  sload\n  dup2\n  0xffffffffffffffffffffffffffffffffffffffff\n  mul\n  not\n  and\n  swap1\n  dup4\n  0xffffffffffffffffffffffffffffffffffffffff\n  and\n  mul\n  or\n  swap1\n  sstore\n  pop\n    /* \"Intermediate Level LOL/Time-Locked Wallet/contracts/TimeLock.sol\":60:2466  contract TimeLockedWallet {... */\n  dataSize(sub_0)\n  dup1\n  dataOffset(sub_0)\n  0x00\n  codecopy\n  0x00\n  return\nstop\n\nsub_0: assembly {\n        /* \"Intermediate Level LOL/Time-Locked Wallet/contracts/TimeLock.sol\":60:2466  contract TimeLockedWallet {... */\n      mstore(0x40, 0x80)\n      jumpi(tag_1, lt(calldatasize, 0x04))\n      shr(0xe0, calldataload(0x00))\n      dup1\n      0x9b10b6f5\n      gt\n      tag_11\n      jumpi\n      dup1\n      0x9b10b6f5\n      eq\n      tag_7\n      jumpi\n      dup1\n      0xb6b55f25\n      eq\n      tag_8\n      jumpi\n      dup1\n      0xd68f4dd1\n      eq\n      tag_9\n      jumpi\n      dup1\n      0xf4dadc61\n      eq\n      tag_10\n      jumpi\n      jump(tag_2)\n    tag_11:\n      dup1\n      0x12065fe0\n      eq\n      tag_3\n      jumpi\n      dup1\n      0x37bdc99b\n      eq\n      tag_4\n      jumpi\n      dup1\n      0x83e43ee5\n      eq\n      tag_5\n      jumpi\n      dup1\n      0x8da5cb5b\n      eq\n      tag_6\n      jumpi\n      jump(tag_2)\n    tag_1:\n      jumpi(tag_2, calldatasize)\n        /* \"Intermediate Level LOL/Time-Locked Wallet/contracts/TimeLock.sol\":2411:2455  revert(\"Use deposit function to lock funds\") */\n      mload(0x40)\n      0x08c379a000000000000000000000000000000000000000000000000000000000\n      dup2\n      mstore\n      0x04\n      add\n      tag_14\n      swap1\n      tag_15\n      jump\t// in\n    tag_14:\n      mload(0x40)\n      dup1\n      swap2\n      sub\n      swap1\n      revert\n        /* \"Intermediate Level LOL/Time-Locked Wallet/contracts/TimeLock.sol\":60:2466  contract TimeLockedWallet {... */\n    tag_2:\n      0x00\n      dup1\n      revert\n        /* \"Intermediate Level LOL/Time-Locked Wallet/contracts/TimeLock.sol\":1982:2083  function getBalance() external view returns (uint256) {... */\n    tag_3:\n      callvalue\n      dup1\n      iszero\n      tag_16\n      jumpi\n      0x00\n      dup1\n      revert\n    tag_16:\n      pop\n      tag_17\n      tag_18\n      jump\t// in\n    tag_17:\n      mload(0x40)\n      tag_19\n      swap2\n      swap1\n      tag_20\n      jump\t// in\n    tag_19:\n      mload(0x40)\n      dup1\n      swap2\n      sub\n      swap1\n      return\n        /* \"Intermediate Level LOL/Time-Locked Wallet/contracts/TimeLock.sol\":1224:1698  function release(uint256 _lockId) external onlyOwner {... */\n    tag_4:\n      callvalue\n      dup1\n      iszero\n      tag_21\n      jumpi\n      0x00\n      dup1\n      revert\n    tag_21:\n      pop\n      tag_22\n      0x04\n      dup1\n      calldatasize\n      sub\n      dup2\n      add\n      swap1\n      tag_23\n      swap2\n      swap1\n      tag_24\n      jump\t// in\n    tag_23:\n      tag_25\n      jump\t// in\n    tag_22:\n      stop\n        /* \"Intermediate Level LOL/Time-Locked Wallet/contracts/TimeLock.sol\":2095:2361  function timeUntilRelease(uint256 _lockId) external view returns (uint256) {... */\n    tag_5:\n      callvalue\n      dup1\n      iszero\n      tag_26\n      jumpi\n      0x00\n      dup1\n      revert\n    tag_26:\n      pop\n      tag_27\n      0x04\n      dup1\n      calldatasize\n      sub\n      dup2\n      add\n      swap1\n      tag_28\n      swap2\n      swap1\n      tag_24\n      jump\t// in\n    tag_28:\n      tag_29\n      jump\t// in\n    tag_27:\n      mload(0x40)\n      tag_30\n      swap2\n      swap1\n      tag_20\n      jump\t// in\n    tag_30:\n      mload(0x40)\n      dup1\n      swap2\n      sub\n      swap1\n      return\n        /* \"Intermediate Level LOL/Time-Locked Wallet/contracts/TimeLock.sol\":204:224  address public owner */\n    tag_6:\n      callvalue\n      dup1\n      iszero\n      tag_31\n      jumpi\n      0x00\n      dup1\n      revert\n    tag_31:\n      pop\n      tag_32\n      tag_33\n      jump\t// in\n    tag_32:\n      mload(0x40)\n      tag_34\n      swap2\n      swap1\n      tag_35\n      jump\t// in\n    tag_34:\n      mload(0x40)\n      dup1\n      swap2\n      sub\n      swap1\n      return\n        /* \"Intermediate Level LOL/Time-Locked Wallet/contracts/TimeLock.sol\":275:299  uint256 public lockCount */\n    tag_7:\n      callvalue\n      dup1\n      iszero\n      tag_36\n      jumpi\n      0x00\n      dup1\n      revert\n    tag_36:\n      pop\n      tag_37\n      tag_38\n      jump\t// in\n    tag_37:\n      mload(0x40)\n      tag_39\n      swap2\n      swap1\n      tag_20\n      jump\t// in\n    tag_39:\n      mload(0x40)\n      dup1\n      swap2\n      sub\n      swap1\n      return\n        /* \"Intermediate Level LOL/Time-Locked Wallet/contracts/TimeLock.sol\":664:1212  function deposit(uint256 _releaseTime) external payable returns (uint256) {... */\n    tag_8:\n      tag_40\n      0x04\n      dup1\n      calldatasize\n      sub\n      dup2\n      add\n      swap1\n      tag_41\n      swap2\n      swap1\n      tag_24\n      jump\t// in\n    tag_41:\n      tag_42\n      jump\t// in\n    tag_40:\n      mload(0x40)\n      tag_43\n      swap2\n      swap1\n      tag_20\n      jump\t// in\n    tag_43:\n      mload(0x40)\n      dup1\n      swap2\n      sub\n      swap1\n      return\n        /* \"Intermediate Level LOL/Time-Locked Wallet/contracts/TimeLock.sol\":1710:1970  function getLock(uint256 _lockId) external view returns (... */\n    tag_9:\n      callvalue\n      dup1\n      iszero\n      tag_44\n      jumpi\n      0x00\n      dup1\n      revert\n    tag_44:\n      pop\n      tag_45\n      0x04\n      dup1\n      calldatasize\n      sub\n      dup2\n      add\n      swap1\n      tag_46\n      swap2\n      swap1\n      tag_24\n      jump\t// in\n    tag_46:\n      tag_47\n      jump\t// in\n    tag_45:\n      mload(0x40)\n      tag_48\n      swap4\n      swap3\n      swap2\n      swap1\n      tag_49\n      jump\t// in\n    tag_48:\n      mload(0x40)\n      dup1\n      swap2\n      sub\n      swap1\n      return\n        /* \"Intermediate Level LOL/Time-Locked Wallet/contracts/TimeLock.sol\":231:268  mapping(uint256 => Lock) public locks */\n    tag_10:\n      callvalue\n      dup1\n      iszero\n      tag_50\n      jumpi\n      0x00\n      dup1\n      revert\n    tag_50:\n      pop\n      tag_51\n      0x04\n      dup1\n      calldatasize\n      sub\n      dup2\n      add\n      swap1\n      tag_52\n      swap2\n      swap1\n      tag_24\n      jump\t// in\n    tag_52:\n      tag_53\n      jump\t// in\n    tag_51:\n      mload(0x40)\n      tag_54\n      swap4\n      swap3\n      swap2\n      swap1\n      tag_49\n      jump\t// in\n    tag_54:\n      mload(0x40)\n      dup1\n      swap2\n      sub\n      swap1\n      return\n        /* \"Intermediate Level LOL/Time-Locked Wallet/contracts/TimeLock.sol\":1982:2083  function getBalance() external view returns (uint256) {... */\n    tag_18:\n        /* \"Intermediate Level LOL/Time-Locked Wallet/contracts/TimeLock.sol\":2027:2034  uint256 */\n      0x00\n        /* \"Intermediate Level LOL/Time-Locked Wallet/contracts/TimeLock.sol\":2054:2075  address(this).balance */\n      selfbalance\n        /* \"Intermediate Level LOL/Time-Locked Wallet/contracts/TimeLock.sol\":2047:2075  return address(this).balance */\n      swap1\n      pop\n        /* \"Intermediate Level LOL/Time-Locked Wallet/contracts/TimeLock.sol\":1982:2083  function getBalance() external view returns (uint256) {... */\n      swap1\n      jump\t// out\n        /* \"Intermediate Level LOL/Time-Locked Wallet/contracts/TimeLock.sol\":1224:1698  function release(uint256 _lockId) external onlyOwner {... */\n    tag_25:\n        /* \"Intermediate Level LOL/Time-Locked Wallet/contracts/TimeLock.sol\":526:531  owner */\n      0x00\n      dup1\n      sload\n      swap1\n      0x0100\n      exp\n      swap1\n      div\n      0xffffffffffffffffffffffffffffffffffffffff\n      and\n        /* \"Intermediate Level LOL/Time-Locked Wallet/contracts/TimeLock.sol\":512:531  msg.sender == owner */\n      0xffffffffffffffffffffffffffffffffffffffff\n      and\n        /* \"Intermediate Level LOL/Time-Locked Wallet/contracts/TimeLock.sol\":512:522  msg.sender */\n      caller\n        /* \"Intermediate Level LOL/Time-Locked Wallet/contracts/TimeLock.sol\":512:531  msg.sender == owner */\n      0xffffffffffffffffffffffffffffffffffffffff\n      and\n      eq\n        /* \"Intermediate Level LOL/Time-Locked Wallet/contracts/TimeLock.sol\":504:569  require(msg.sender == owner, \"Only owner can call this function\") */\n      tag_57\n      jumpi\n      mload(0x40)\n      0x08c379a000000000000000000000000000000000000000000000000000000000\n      dup2\n      mstore\n      0x04\n      add\n      tag_58\n      swap1\n      tag_59\n      jump\t// in\n    tag_58:\n      mload(0x40)\n      dup1\n      swap2\n      sub\n      swap1\n      revert\n    tag_57:\n        /* \"Intermediate Level LOL/Time-Locked Wallet/contracts/TimeLock.sol\":1288:1305  Lock storage lock */\n      0x00\n        /* \"Intermediate Level LOL/Time-Locked Wallet/contracts/TimeLock.sol\":1308:1313  locks */\n      0x01\n        /* \"Intermediate Level LOL/Time-Locked Wallet/contracts/TimeLock.sol\":1308:1322  locks[_lockId] */\n      0x00\n        /* \"Intermediate Level LOL/Time-Locked Wallet/contracts/TimeLock.sol\":1314:1321  _lockId */\n      dup4\n        /* \"Intermediate Level LOL/Time-Locked Wallet/contracts/TimeLock.sol\":1308:1322  locks[_lockId] */\n      dup2\n      mstore\n      0x20\n      add\n      swap1\n      dup2\n      mstore\n      0x20\n      add\n      0x00\n      keccak256\n        /* \"Intermediate Level LOL/Time-Locked Wallet/contracts/TimeLock.sol\":1288:1322  Lock storage lock = locks[_lockId] */\n      swap1\n      pop\n        /* \"Intermediate Level LOL/Time-Locked Wallet/contracts/TimeLock.sol\":1352:1356  lock */\n      dup1\n        /* \"Intermediate Level LOL/Time-Locked Wallet/contracts/TimeLock.sol\":1352:1365  lock.released */\n      0x02\n      add\n      0x00\n      swap1\n      sload\n      swap1\n      0x0100\n      exp\n      swap1\n      div\n      0xff\n      and\n        /* \"Intermediate Level LOL/Time-Locked Wallet/contracts/TimeLock.sol\":1351:1365  !lock.released */\n      iszero\n        /* \"Intermediate Level LOL/Time-Locked Wallet/contracts/TimeLock.sol\":1343:1392  require(!lock.released, \"Funds already released\") */\n      tag_61\n      jumpi\n      mload(0x40)\n      0x08c379a000000000000000000000000000000000000000000000000000000000\n      dup2\n      mstore\n      0x04\n      add\n      tag_62\n      swap1\n      tag_63\n      jump\t// in\n    tag_62:\n      mload(0x40)\n      dup1\n      swap2\n      sub\n      swap1\n      revert\n    tag_61:\n        /* \"Intermediate Level LOL/Time-Locked Wallet/contracts/TimeLock.sol\":1430:1434  lock */\n      dup1\n        /* \"Intermediate Level LOL/Time-Locked Wallet/contracts/TimeLock.sol\":1430:1446  lock.releaseTime */\n      0x01\n      add\n      sload\n        /* \"Intermediate Level LOL/Time-Locked Wallet/contracts/TimeLock.sol\":1411:1426  block.timestamp */\n      timestamp\n        /* \"Intermediate Level LOL/Time-Locked Wallet/contracts/TimeLock.sol\":1411:1446  block.timestamp >= lock.releaseTime */\n      lt\n      iszero\n        /* \"Intermediate Level LOL/Time-Locked Wallet/contracts/TimeLock.sol\":1403:1473  require(block.timestamp >= lock.releaseTime, \"Funds are still locked\") */\n      tag_64\n      jumpi\n      mload(0x40)\n      0x08c379a000000000000000000000000000000000000000000000000000000000\n      dup2\n      mstore\n      0x04\n      add\n      tag_65\n      swap1\n      tag_66\n      jump\t// in\n    tag_65:\n      mload(0x40)\n      dup1\n      swap2\n      sub\n      swap1\n      revert\n    tag_64:\n        /* \"Intermediate Level LOL/Time-Locked Wallet/contracts/TimeLock.sol\":1506:1507  0 */\n      0x00\n        /* \"Intermediate Level LOL/Time-Locked Wallet/contracts/TimeLock.sol\":1492:1496  lock */\n      dup2\n        /* \"Intermediate Level LOL/Time-Locked Wallet/contracts/TimeLock.sol\":1492:1503  lock.amount */\n      0x00\n      add\n      sload\n        /* \"Intermediate Level LOL/Time-Locked Wallet/contracts/TimeLock.sol\":1492:1507  lock.amount > 0 */\n      gt\n        /* \"Intermediate Level LOL/Time-Locked Wallet/contracts/TimeLock.sol\":1484:1531  require(lock.amount > 0, \"No funds to release\") */\n      tag_67\n      jumpi\n      mload(0x40)\n      0x08c379a000000000000000000000000000000000000000000000000000000000\n      dup2\n      mstore\n      0x04\n      add\n      tag_68\n      swap1\n      tag_69\n      jump\t// in\n    tag_68:\n      mload(0x40)\n      dup1\n      swap2\n      sub\n      swap1\n      revert\n    tag_67:\n        /* \"Intermediate Level LOL/Time-Locked Wallet/contracts/TimeLock.sol\":1568:1572  true */\n      0x01\n        /* \"Intermediate Level LOL/Time-Locked Wallet/contracts/TimeLock.sol\":1552:1556  lock */\n      dup2\n        /* \"Intermediate Level LOL/Time-Locked Wallet/contracts/TimeLock.sol\":1552:1565  lock.released */\n      0x02\n      add\n      0x00\n        /* \"Intermediate Level LOL/Time-Locked Wallet/contracts/TimeLock.sol\":1552:1572  lock.released = true */\n      0x0100\n      exp\n      dup2\n      sload\n      dup2\n      0xff\n      mul\n      not\n      and\n      swap1\n      dup4\n      iszero\n      iszero\n      mul\n      or\n      swap1\n      sstore\n      pop\n        /* \"Intermediate Level LOL/Time-Locked Wallet/contracts/TimeLock.sol\":1601:1606  owner */\n      0x00\n      dup1\n      sload\n      swap1\n      0x0100\n      exp\n      swap1\n      div\n      0xffffffffffffffffffffffffffffffffffffffff\n      and\n        /* \"Intermediate Level LOL/Time-Locked Wallet/contracts/TimeLock.sol\":1593:1616  payable(owner).transfer */\n      0xffffffffffffffffffffffffffffffffffffffff\n      and\n        /* \"Intermediate Level LOL/Time-Locked Wallet/contracts/TimeLock.sol\":1593:1629  payable(owner).transfer(lock.amount) */\n      0x08fc\n        /* \"Intermediate Level LOL/Time-Locked Wallet/contracts/TimeLock.sol\":1617:1621  lock */\n      dup3\n        /* \"Intermediate Level LOL/Time-Locked Wallet/contracts/TimeLock.sol\":1617:1628  lock.amount */\n      0x00\n      add\n      sload\n        /* \"Intermediate Level LOL/Time-Locked Wallet/contracts/TimeLock.sol\":1593:1629  payable(owner).transfer(lock.amount) */\n      swap1\n      dup2\n      iszero\n      mul\n      swap1\n      mload(0x40)\n      0x00\n      mload(0x40)\n      dup1\n      dup4\n      sub\n      dup2\n      dup6\n      dup9\n      dup9\n      call\n      swap4\n      pop\n      pop\n      pop\n      pop\n      iszero\n      dup1\n      iszero\n      tag_71\n      jumpi\n      returndatasize\n      0x00\n      dup1\n      returndatacopy\n      revert(0x00, returndatasize)\n    tag_71:\n      pop\n        /* \"Intermediate Level LOL/Time-Locked Wallet/contracts/TimeLock.sol\":1669:1676  _lockId */\n      dup2\n        /* \"Intermediate Level LOL/Time-Locked Wallet/contracts/TimeLock.sol\":1655:1690  FundsReleased(_lockId, lock.amount) */\n      0x80230996023d69b50793fa73f1919127c9d8e741d3989743c479169f22e7a288\n        /* \"Intermediate Level LOL/Time-Locked Wallet/contracts/TimeLock.sol\":1678:1682  lock */\n      dup3\n        /* \"Intermediate Level LOL/Time-Locked Wallet/contracts/TimeLock.sol\":1678:1689  lock.amount */\n      0x00\n      add\n      sload\n        /* \"Intermediate Level LOL/Time-Locked Wallet/contracts/TimeLock.sol\":1655:1690  FundsReleased(_lockId, lock.amount) */\n      mload(0x40)\n      tag_72\n      swap2\n      swap1\n      tag_20\n      jump\t// in\n    tag_72:\n      mload(0x40)\n      dup1\n      swap2\n      sub\n      swap1\n      log2\n        /* \"Intermediate Level LOL/Time-Locked Wallet/contracts/TimeLock.sol\":1277:1698  {... */\n      pop\n        /* \"Intermediate Level LOL/Time-Locked Wallet/contracts/TimeLock.sol\":1224:1698  function release(uint256 _lockId) external onlyOwner {... */\n      pop\n      jump\t// out\n        /* \"Intermediate Level LOL/Time-Locked Wallet/contracts/TimeLock.sol\":2095:2361  function timeUntilRelease(uint256 _lockId) external view returns (uint256) {... */\n    tag_29:\n        /* \"Intermediate Level LOL/Time-Locked Wallet/contracts/TimeLock.sol\":2161:2168  uint256 */\n      0x00\n        /* \"Intermediate Level LOL/Time-Locked Wallet/contracts/TimeLock.sol\":2181:2198  Lock storage lock */\n      dup1\n        /* \"Intermediate Level LOL/Time-Locked Wallet/contracts/TimeLock.sol\":2201:2206  locks */\n      0x01\n        /* \"Intermediate Level LOL/Time-Locked Wallet/contracts/TimeLock.sol\":2201:2215  locks[_lockId] */\n      0x00\n        /* \"Intermediate Level LOL/Time-Locked Wallet/contracts/TimeLock.sol\":2207:2214  _lockId */\n      dup5\n        /* \"Intermediate Level LOL/Time-Locked Wallet/contracts/TimeLock.sol\":2201:2215  locks[_lockId] */\n      dup2\n      mstore\n      0x20\n      add\n      swap1\n      dup2\n      mstore\n      0x20\n      add\n      0x00\n      keccak256\n        /* \"Intermediate Level LOL/Time-Locked Wallet/contracts/TimeLock.sol\":2181:2215  Lock storage lock = locks[_lockId] */\n      swap1\n      pop\n        /* \"Intermediate Level LOL/Time-Locked Wallet/contracts/TimeLock.sol\":2249:2253  lock */\n      dup1\n        /* \"Intermediate Level LOL/Time-Locked Wallet/contracts/TimeLock.sol\":2249:2265  lock.releaseTime */\n      0x01\n      add\n      sload\n        /* \"Intermediate Level LOL/Time-Locked Wallet/contracts/TimeLock.sol\":2230:2245  block.timestamp */\n      timestamp\n        /* \"Intermediate Level LOL/Time-Locked Wallet/contracts/TimeLock.sol\":2230:2265  block.timestamp >= lock.releaseTime */\n      lt\n        /* \"Intermediate Level LOL/Time-Locked Wallet/contracts/TimeLock.sol\":2226:2302  if (block.timestamp >= lock.releaseTime) {... */\n      tag_74\n      jumpi\n        /* \"Intermediate Level LOL/Time-Locked Wallet/contracts/TimeLock.sol\":2289:2290  0 */\n      0x00\n        /* \"Intermediate Level LOL/Time-Locked Wallet/contracts/TimeLock.sol\":2282:2290  return 0 */\n      swap2\n      pop\n      pop\n      jump(tag_73)\n        /* \"Intermediate Level LOL/Time-Locked Wallet/contracts/TimeLock.sol\":2226:2302  if (block.timestamp >= lock.releaseTime) {... */\n    tag_74:\n        /* \"Intermediate Level LOL/Time-Locked Wallet/contracts/TimeLock.sol\":2338:2353  block.timestamp */\n      timestamp\n        /* \"Intermediate Level LOL/Time-Locked Wallet/contracts/TimeLock.sol\":2319:2323  lock */\n      dup2\n        /* \"Intermediate Level LOL/Time-Locked Wallet/contracts/TimeLock.sol\":2319:2335  lock.releaseTime */\n      0x01\n      add\n      sload\n        /* \"Intermediate Level LOL/Time-Locked Wallet/contracts/TimeLock.sol\":2319:2353  lock.releaseTime - block.timestamp */\n      tag_75\n      swap2\n      swap1\n      tag_76\n      jump\t// in\n    tag_75:\n        /* \"Intermediate Level LOL/Time-Locked Wallet/contracts/TimeLock.sol\":2312:2353  return lock.releaseTime - block.timestamp */\n      swap2\n      pop\n      pop\n        /* \"Intermediate Level LOL/Time-Locked Wallet/contracts/TimeLock.sol\":2095:2361  function timeUntilRelease(uint256 _lockId) external view returns (uint256) {... */\n    tag_73:\n      swap2\n      swap1\n      pop\n      jump\t// out\n        /* \"Intermediate Level LOL/Time-Locked Wallet/contracts/TimeLock.sol\":204:224  address public owner */\n    tag_33:\n      0x00\n      dup1\n      sload\n      swap1\n      0x0100\n      exp\n      swap1\n      div\n      0xffffffffffffffffffffffffffffffffffffffff\n      and\n      dup2\n      jump\t// out\n        /* \"Intermediate Level LOL/Time-Locked Wallet/contracts/TimeLock.sol\":275:299  uint256 public lockCount */\n    tag_38:\n      sload(0x02)\n      dup2\n      jump\t// out\n        /* \"Intermediate Level LOL/Time-Locked Wallet/contracts/TimeLock.sol\":664:1212  function deposit(uint256 _releaseTime) external payable returns (uint256) {... */\n    tag_42:\n        /* \"Intermediate Level LOL/Time-Locked Wallet/contracts/TimeLock.sol\":729:736  uint256 */\n      0x00\n        /* \"Intermediate Level LOL/Time-Locked Wallet/contracts/TimeLock.sol\":769:770  0 */\n      dup1\n        /* \"Intermediate Level LOL/Time-Locked Wallet/contracts/TimeLock.sol\":757:766  msg.value */\n      callvalue\n        /* \"Intermediate Level LOL/Time-Locked Wallet/contracts/TimeLock.sol\":757:770  msg.value > 0 */\n      gt\n        /* \"Intermediate Level LOL/Time-Locked Wallet/contracts/TimeLock.sol\":749:804  require(msg.value > 0, \"Amount must be greater than 0\") */\n      tag_78\n      jumpi\n      mload(0x40)\n      0x08c379a000000000000000000000000000000000000000000000000000000000\n      dup2\n      mstore\n      0x04\n      add\n      tag_79\n      swap1\n      tag_80\n      jump\t// in\n    tag_79:\n      mload(0x40)\n      dup1\n      swap2\n      sub\n      swap1\n      revert\n    tag_78:\n        /* \"Intermediate Level LOL/Time-Locked Wallet/contracts/TimeLock.sol\":838:853  block.timestamp */\n      timestamp\n        /* \"Intermediate Level LOL/Time-Locked Wallet/contracts/TimeLock.sol\":823:835  _releaseTime */\n      dup3\n        /* \"Intermediate Level LOL/Time-Locked Wallet/contracts/TimeLock.sol\":823:853  _releaseTime > block.timestamp */\n      gt\n        /* \"Intermediate Level LOL/Time-Locked Wallet/contracts/TimeLock.sol\":815:892  require(_releaseTime > block.timestamp, \"Release time must be in the future\") */\n      tag_81\n      jumpi\n      mload(0x40)\n      0x08c379a000000000000000000000000000000000000000000000000000000000\n      dup2\n      mstore\n      0x04\n      add\n      tag_82\n      swap1\n      tag_83\n      jump\t// in\n    tag_82:\n      mload(0x40)\n      dup1\n      swap2\n      sub\n      swap1\n      revert\n    tag_81:\n        /* \"Intermediate Level LOL/Time-Locked Wallet/contracts/TimeLock.sol\":913:927  uint256 lockId */\n      0x00\n        /* \"Intermediate Level LOL/Time-Locked Wallet/contracts/TimeLock.sol\":930:939  lockCount */\n      0x02\n      0x00\n        /* \"Intermediate Level LOL/Time-Locked Wallet/contracts/TimeLock.sol\":930:941  lockCount++ */\n      dup2\n      sload\n      dup1\n      swap3\n      swap2\n      swap1\n      tag_84\n      swap1\n      tag_85\n      jump\t// in\n    tag_84:\n      swap2\n      swap1\n      pop\n      sstore\n        /* \"Intermediate Level LOL/Time-Locked Wallet/contracts/TimeLock.sol\":913:941  uint256 lockId = lockCount++ */\n      swap1\n      pop\n        /* \"Intermediate Level LOL/Time-Locked Wallet/contracts/TimeLock.sol\":978:1097  Lock({... */\n      mload(0x40)\n      dup1\n      0x60\n      add\n      0x40\n      mstore\n      dup1\n        /* \"Intermediate Level LOL/Time-Locked Wallet/contracts/TimeLock.sol\":1006:1015  msg.value */\n      callvalue\n        /* \"Intermediate Level LOL/Time-Locked Wallet/contracts/TimeLock.sol\":978:1097  Lock({... */\n      dup2\n      mstore\n      0x20\n      add\n        /* \"Intermediate Level LOL/Time-Locked Wallet/contracts/TimeLock.sol\":1043:1055  _releaseTime */\n      dup5\n        /* \"Intermediate Level LOL/Time-Locked Wallet/contracts/TimeLock.sol\":978:1097  Lock({... */\n      dup2\n      mstore\n      0x20\n      add\n        /* \"Intermediate Level LOL/Time-Locked Wallet/contracts/TimeLock.sol\":1080:1085  false */\n      0x00\n        /* \"Intermediate Level LOL/Time-Locked Wallet/contracts/TimeLock.sol\":978:1097  Lock({... */\n      iszero\n      iszero\n      dup2\n      mstore\n      pop\n        /* \"Intermediate Level LOL/Time-Locked Wallet/contracts/TimeLock.sol\":962:967  locks */\n      0x01\n        /* \"Intermediate Level LOL/Time-Locked Wallet/contracts/TimeLock.sol\":962:975  locks[lockId] */\n      0x00\n        /* \"Intermediate Level LOL/Time-Locked Wallet/contracts/TimeLock.sol\":968:974  lockId */\n      dup4\n        /* \"Intermediate Level LOL/Time-Locked Wallet/contracts/TimeLock.sol\":962:975  locks[lockId] */\n      dup2\n      mstore\n      0x20\n      add\n      swap1\n      dup2\n      mstore\n      0x20\n      add\n      0x00\n      keccak256\n        /* \"Intermediate Level LOL/Time-Locked Wallet/contracts/TimeLock.sol\":962:1097  locks[lockId] = Lock({... */\n      0x00\n      dup3\n      add\n      mload\n      dup2\n      0x00\n      add\n      sstore\n      0x20\n      dup3\n      add\n      mload\n      dup2\n      0x01\n      add\n      sstore\n      0x40\n      dup3\n      add\n      mload\n      dup2\n      0x02\n      add\n      exp(0x0100, 0x00)\n      dup2\n      sload\n      dup2\n      0xff\n      mul\n      not\n      and\n      swap1\n      dup4\n      iszero\n      iszero\n      mul\n      or\n      swap1\n      sstore\n      pop\n      swap1\n      pop\n      pop\n        /* \"Intermediate Level LOL/Time-Locked Wallet/contracts/TimeLock.sol\":1138:1144  lockId */\n      dup1\n        /* \"Intermediate Level LOL/Time-Locked Wallet/contracts/TimeLock.sol\":1123:1170  FundsDeposited(lockId, msg.value, _releaseTime) */\n      0xed2de103da084463a1b2895568d352fd796dfd1d033c0e8ee9fabe73a6715389\n        /* \"Intermediate Level LOL/Time-Locked Wallet/contracts/TimeLock.sol\":1146:1155  msg.value */\n      callvalue\n        /* \"Intermediate Level LOL/Time-Locked Wallet/contracts/TimeLock.sol\":1157:1169  _releaseTime */\n      dup6\n        /* \"Intermediate Level LOL/Time-Locked Wallet/contracts/TimeLock.sol\":1123:1170  FundsDeposited(lockId, msg.value, _releaseTime) */\n      mload(0x40)\n      tag_86\n      swap3\n      swap2\n      swap1\n      tag_87\n      jump\t// in\n    tag_86:\n      mload(0x40)\n      dup1\n      swap2\n      sub\n      swap1\n      log2\n        /* \"Intermediate Level LOL/Time-Locked Wallet/contracts/TimeLock.sol\":1198:1204  lockId */\n      dup1\n        /* \"Intermediate Level LOL/Time-Locked Wallet/contracts/TimeLock.sol\":1191:1204  return lockId */\n      swap2\n      pop\n      pop\n        /* \"Intermediate Level LOL/Time-Locked Wallet/contracts/TimeLock.sol\":664:1212  function deposit(uint256 _releaseTime) external payable returns (uint256) {... */\n      swap2\n      swap1\n      pop\n      jump\t// out\n        /* \"Intermediate Level LOL/Time-Locked Wallet/contracts/TimeLock.sol\":1710:1970  function getLock(uint256 _lockId) external view returns (... */\n    tag_47:\n        /* \"Intermediate Level LOL/Time-Locked Wallet/contracts/TimeLock.sol\":1777:1791  uint256 amount */\n      0x00\n        /* \"Intermediate Level LOL/Time-Locked Wallet/contracts/TimeLock.sol\":1802:1821  uint256 releaseTime */\n      dup1\n        /* \"Intermediate Level LOL/Time-Locked Wallet/contracts/TimeLock.sol\":1832:1845  bool released */\n      0x00\n        /* \"Intermediate Level LOL/Time-Locked Wallet/contracts/TimeLock.sol\":1864:1881  Lock storage lock */\n      dup1\n        /* \"Intermediate Level LOL/Time-Locked Wallet/contracts/TimeLock.sol\":1884:1889  locks */\n      0x01\n        /* \"Intermediate Level LOL/Time-Locked Wallet/contracts/TimeLock.sol\":1884:1898  locks[_lockId] */\n      0x00\n        /* \"Intermediate Level LOL/Time-Locked Wallet/contracts/TimeLock.sol\":1890:1897  _lockId */\n      dup7\n        /* \"Intermediate Level LOL/Time-Locked Wallet/contracts/TimeLock.sol\":1884:1898  locks[_lockId] */\n      dup2\n      mstore\n      0x20\n      add\n      swap1\n      dup2\n      mstore\n      0x20\n      add\n      0x00\n      keccak256\n        /* \"Intermediate Level LOL/Time-Locked Wallet/contracts/TimeLock.sol\":1864:1898  Lock storage lock = locks[_lockId] */\n      swap1\n      pop\n        /* \"Intermediate Level LOL/Time-Locked Wallet/contracts/TimeLock.sol\":1917:1921  lock */\n      dup1\n        /* \"Intermediate Level LOL/Time-Locked Wallet/contracts/TimeLock.sol\":1917:1928  lock.amount */\n      0x00\n      add\n      sload\n        /* \"Intermediate Level LOL/Time-Locked Wallet/contracts/TimeLock.sol\":1930:1934  lock */\n      dup2\n        /* \"Intermediate Level LOL/Time-Locked Wallet/contracts/TimeLock.sol\":1930:1946  lock.releaseTime */\n      0x01\n      add\n      sload\n        /* \"Intermediate Level LOL/Time-Locked Wallet/contracts/TimeLock.sol\":1948:1952  lock */\n      dup3\n        /* \"Intermediate Level LOL/Time-Locked Wallet/contracts/TimeLock.sol\":1948:1961  lock.released */\n      0x02\n      add\n      0x00\n      swap1\n      sload\n      swap1\n      0x0100\n      exp\n      swap1\n      div\n      0xff\n      and\n        /* \"Intermediate Level LOL/Time-Locked Wallet/contracts/TimeLock.sol\":1909:1962  return (lock.amount, lock.releaseTime, lock.released) */\n      swap4\n      pop\n      swap4\n      pop\n      swap4\n      pop\n      pop\n        /* \"Intermediate Level LOL/Time-Locked Wallet/contracts/TimeLock.sol\":1710:1970  function getLock(uint256 _lockId) external view returns (... */\n      swap2\n      swap4\n      swap1\n      swap3\n      pop\n      jump\t// out\n        /* \"Intermediate Level LOL/Time-Locked Wallet/contracts/TimeLock.sol\":231:268  mapping(uint256 => Lock) public locks */\n    tag_53:\n      mstore(0x20, 0x01)\n      dup1\n      0x00\n      mstore\n      keccak256(0x00, 0x40)\n      0x00\n      swap2\n      pop\n      swap1\n      pop\n      dup1\n      0x00\n      add\n      sload\n      swap1\n      dup1\n      0x01\n      add\n      sload\n      swap1\n      dup1\n      0x02\n      add\n      0x00\n      swap1\n      sload\n      swap1\n      0x0100\n      exp\n      swap1\n      div\n      0xff\n      and\n      swap1\n      pop\n      dup4\n      jump\t// out\n        /* \"#utility.yul\":7:176   */\n    tag_89:\n        /* \"#utility.yul\":91:102   */\n      0x00\n        /* \"#utility.yul\":125:131   */\n      dup3\n        /* \"#utility.yul\":120:123   */\n      dup3\n        /* \"#utility.yul\":113:132   */\n      mstore\n        /* \"#utility.yul\":165:169   */\n      0x20\n        /* \"#utility.yul\":160:163   */\n      dup3\n        /* \"#utility.yul\":156:170   */\n      add\n        /* \"#utility.yul\":141:170   */\n      swap1\n      pop\n        /* \"#utility.yul\":7:176   */\n      swap3\n      swap2\n      pop\n      pop\n      jump\t// out\n        /* \"#utility.yul\":182:403   */\n    tag_90:\n        /* \"#utility.yul\":322:356   */\n      0x557365206465706f7369742066756e6374696f6e20746f206c6f636b2066756e\n        /* \"#utility.yul\":318:319   */\n      0x00\n        /* \"#utility.yul\":310:316   */\n      dup3\n        /* \"#utility.yul\":306:320   */\n      add\n        /* \"#utility.yul\":299:357   */\n      mstore\n        /* \"#utility.yul\":391:395   */\n      0x6473000000000000000000000000000000000000000000000000000000000000\n        /* \"#utility.yul\":386:388   */\n      0x20\n        /* \"#utility.yul\":378:384   */\n      dup3\n        /* \"#utility.yul\":374:389   */\n      add\n        /* \"#utility.yul\":367:396   */\n      mstore\n        /* \"#utility.yul\":182:403   */\n      pop\n      jump\t// out\n        /* \"#utility.yul\":409:775   */\n    tag_91:\n        /* \"#utility.yul\":551:554   */\n      0x00\n        /* \"#utility.yul\":572:639   */\n      tag_121\n        /* \"#utility.yul\":636:638   */\n      0x22\n        /* \"#utility.yul\":631:634   */\n      dup4\n        /* \"#utility.yul\":572:639   */\n      tag_89\n      jump\t// in\n    tag_121:\n        /* \"#utility.yul\":565:639   */\n      swap2\n      pop\n        /* \"#utility.yul\":648:741   */\n      tag_122\n        /* \"#utility.yul\":737:740   */\n      dup3\n        /* \"#utility.yul\":648:741   */\n      tag_90\n      jump\t// in\n    tag_122:\n        /* \"#utility.yul\":766:768   */\n      0x40\n        /* \"#utility.yul\":761:764   */\n      dup3\n        /* \"#utility.yul\":757:769   */\n      add\n        /* \"#utility.yul\":750:769   */\n      swap1\n      pop\n        /* \"#utility.yul\":409:775   */\n      swap2\n      swap1\n      pop\n      jump\t// out\n        /* \"#utility.yul\":781:1200   */\n    tag_15:\n        /* \"#utility.yul\":947:951   */\n      0x00\n        /* \"#utility.yul\":985:987   */\n      0x20\n        /* \"#utility.yul\":974:983   */\n      dup3\n        /* \"#utility.yul\":970:988   */\n      add\n        /* \"#utility.yul\":962:988   */\n      swap1\n      pop\n        /* \"#utility.yul\":1034:1043   */\n      dup2\n        /* \"#utility.yul\":1028:1032   */\n      dup2\n        /* \"#utility.yul\":1024:1044   */\n      sub\n        /* \"#utility.yul\":1020:1021   */\n      0x00\n        /* \"#utility.yul\":1009:1018   */\n      dup4\n        /* \"#utility.yul\":1005:1022   */\n      add\n        /* \"#utility.yul\":998:1045   */\n      mstore\n        /* \"#utility.yul\":1062:1193   */\n      tag_124\n        /* \"#utility.yul\":1188:1192   */\n      dup2\n        /* \"#utility.yul\":1062:1193   */\n      tag_91\n      jump\t// in\n    tag_124:\n        /* \"#utility.yul\":1054:1193   */\n      swap1\n      pop\n        /* \"#utility.yul\":781:1200   */\n      swap2\n      swap1\n      pop\n      jump\t// out\n        /* \"#utility.yul\":1206:1283   */\n    tag_92:\n        /* \"#utility.yul\":1243:1250   */\n      0x00\n        /* \"#utility.yul\":1272:1277   */\n      dup2\n        /* \"#utility.yul\":1261:1277   */\n      swap1\n      pop\n        /* \"#utility.yul\":1206:1283   */\n      swap2\n      swap1\n      pop\n      jump\t// out\n        /* \"#utility.yul\":1289:1407   */\n    tag_93:\n        /* \"#utility.yul\":1376:1400   */\n      tag_127\n        /* \"#utility.yul\":1394:1399   */\n      dup2\n        /* \"#utility.yul\":1376:1400   */\n      tag_92\n      jump\t// in\n    tag_127:\n        /* \"#utility.yul\":1371:1374   */\n      dup3\n        /* \"#utility.yul\":1364:1401   */\n      mstore\n        /* \"#utility.yul\":1289:1407   */\n      pop\n      pop\n      jump\t// out\n        /* \"#utility.yul\":1413:1635   */\n    tag_20:\n        /* \"#utility.yul\":1506:1510   */\n      0x00\n        /* \"#utility.yul\":1544:1546   */\n      0x20\n        /* \"#utility.yul\":1533:1542   */\n      dup3\n        /* \"#utility.yul\":1529:1547   */\n      add\n        /* \"#utility.yul\":1521:1547   */\n      swap1\n      pop\n        /* \"#utility.yul\":1557:1628   */\n      tag_129\n        /* \"#utility.yul\":1625:1626   */\n      0x00\n        /* \"#utility.yul\":1614:1623   */\n      dup4\n        /* \"#utility.yul\":1610:1627   */\n      add\n        /* \"#utility.yul\":1601:1607   */\n      dup5\n        /* \"#utility.yul\":1557:1628   */\n      tag_93\n      jump\t// in\n    tag_129:\n        /* \"#utility.yul\":1413:1635   */\n      swap3\n      swap2\n      pop\n      pop\n      jump\t// out\n        /* \"#utility.yul\":1722:1839   */\n    tag_95:\n        /* \"#utility.yul\":1831:1832   */\n      0x00\n        /* \"#utility.yul\":1828:1829   */\n      dup1\n        /* \"#utility.yul\":1821:1833   */\n      revert\n        /* \"#utility.yul\":1968:2090   */\n    tag_97:\n        /* \"#utility.yul\":2041:2065   */\n      tag_134\n        /* \"#utility.yul\":2059:2064   */\n      dup2\n        /* \"#utility.yul\":2041:2065   */\n      tag_92\n      jump\t// in\n    tag_134:\n        /* \"#utility.yul\":2034:2039   */\n      dup2\n        /* \"#utility.yul\":2031:2066   */\n      eq\n        /* \"#utility.yul\":2021:2084   */\n      tag_135\n      jumpi\n        /* \"#utility.yul\":2080:2081   */\n      0x00\n        /* \"#utility.yul\":2077:2078   */\n      dup1\n        /* \"#utility.yul\":2070:2082   */\n      revert\n        /* \"#utility.yul\":2021:2084   */\n    tag_135:\n        /* \"#utility.yul\":1968:2090   */\n      pop\n      jump\t// out\n        /* \"#utility.yul\":2096:2235   */\n    tag_98:\n        /* \"#utility.yul\":2142:2147   */\n      0x00\n        /* \"#utility.yul\":2180:2186   */\n      dup2\n        /* \"#utility.yul\":2167:2187   */\n      calldataload\n        /* \"#utility.yul\":2158:2187   */\n      swap1\n      pop\n        /* \"#utility.yul\":2196:2229   */\n      tag_137\n        /* \"#utility.yul\":2223:2228   */\n      dup2\n        /* \"#utility.yul\":2196:2229   */\n      tag_97\n      jump\t// in\n    tag_137:\n        /* \"#utility.yul\":2096:2235   */\n      swap3\n      swap2\n      pop\n      pop\n      jump\t// out\n        /* \"#utility.yul\":2241:2570   */\n    tag_24:\n        /* \"#utility.yul\":2300:2306   */\n      0x00\n        /* \"#utility.yul\":2349:2351   */\n      0x20\n        /* \"#utility.yul\":2337:2346   */\n      dup3\n        /* \"#utility.yul\":2328:2335   */\n      dup5\n        /* \"#utility.yul\":2324:2347   */\n      sub\n        /* \"#utility.yul\":2320:2352   */\n      slt\n        /* \"#utility.yul\":2317:2436   */\n      iszero\n      tag_139\n      jumpi\n        /* \"#utility.yul\":2355:2434   */\n      tag_140\n      tag_95\n      jump\t// in\n    tag_140:\n        /* \"#utility.yul\":2317:2436   */\n    tag_139:\n        /* \"#utility.yul\":2475:2476   */\n      0x00\n        /* \"#utility.yul\":2500:2553   */\n      tag_141\n        /* \"#utility.yul\":2545:2552   */\n      dup5\n        /* \"#utility.yul\":2536:2542   */\n      dup3\n        /* \"#utility.yul\":2525:2534   */\n      dup6\n        /* \"#utility.yul\":2521:2543   */\n      add\n        /* \"#utility.yul\":2500:2553   */\n      tag_98\n      jump\t// in\n    tag_141:\n        /* \"#utility.yul\":2490:2553   */\n      swap2\n      pop\n        /* \"#utility.yul\":2446:2563   */\n      pop\n        /* \"#utility.yul\":2241:2570   */\n      swap3\n      swap2\n      pop\n      pop\n      jump\t// out\n        /* \"#utility.yul\":2576:2702   */\n    tag_99:\n        /* \"#utility.yul\":2613:2620   */\n      0x00\n        /* \"#utility.yul\":2653:2695   */\n      0xffffffffffffffffffffffffffffffffffffffff\n        /* \"#utility.yul\":2646:2651   */\n      dup3\n        /* \"#utility.yul\":2642:2696   */\n      and\n        /* \"#utility.yul\":2631:2696   */\n      swap1\n      pop\n        /* \"#utility.yul\":2576:2702   */\n      swap2\n      swap1\n      pop\n      jump\t// out\n        /* \"#utility.yul\":2708:2804   */\n    tag_100:\n        /* \"#utility.yul\":2745:2752   */\n      0x00\n        /* \"#utility.yul\":2774:2798   */\n      tag_144\n        /* \"#utility.yul\":2792:2797   */\n      dup3\n        /* \"#utility.yul\":2774:2798   */\n      tag_99\n      jump\t// in\n    tag_144:\n        /* \"#utility.yul\":2763:2798   */\n      swap1\n      pop\n        /* \"#utility.yul\":2708:2804   */\n      swap2\n      swap1\n      pop\n      jump\t// out\n        /* \"#utility.yul\":2810:2928   */\n    tag_101:\n        /* \"#utility.yul\":2897:2921   */\n      tag_146\n        /* \"#utility.yul\":2915:2920   */\n      dup2\n        /* \"#utility.yul\":2897:2921   */\n      tag_100\n      jump\t// in\n    tag_146:\n        /* \"#utility.yul\":2892:2895   */\n      dup3\n        /* \"#utility.yul\":2885:2922   */\n      mstore\n        /* \"#utility.yul\":2810:2928   */\n      pop\n      pop\n      jump\t// out\n        /* \"#utility.yul\":2934:3156   */\n    tag_35:\n        /* \"#utility.yul\":3027:3031   */\n      0x00\n        /* \"#utility.yul\":3065:3067   */\n      0x20\n        /* \"#utility.yul\":3054:3063   */\n      dup3\n        /* \"#utility.yul\":3050:3068   */\n      add\n        /* \"#utility.yul\":3042:3068   */\n      swap1\n      pop\n        /* \"#utility.yul\":3078:3149   */\n      tag_148\n        /* \"#utility.yul\":3146:3147   */\n      0x00\n        /* \"#utility.yul\":3135:3144   */\n      dup4\n        /* \"#utility.yul\":3131:3148   */\n      add\n        /* \"#utility.yul\":3122:3128   */\n      dup5\n        /* \"#utility.yul\":3078:3149   */\n      tag_101\n      jump\t// in\n    tag_148:\n        /* \"#utility.yul\":2934:3156   */\n      swap3\n      swap2\n      pop\n      pop\n      jump\t// out\n        /* \"#utility.yul\":3162:3252   */\n    tag_102:\n        /* \"#utility.yul\":3196:3203   */\n      0x00\n        /* \"#utility.yul\":3239:3244   */\n      dup2\n        /* \"#utility.yul\":3232:3245   */\n      iszero\n        /* \"#utility.yul\":3225:3246   */\n      iszero\n        /* \"#utility.yul\":3214:3246   */\n      swap1\n      pop\n        /* \"#utility.yul\":3162:3252   */\n      swap2\n      swap1\n      pop\n      jump\t// out\n        /* \"#utility.yul\":3258:3367   */\n    tag_103:\n        /* \"#utility.yul\":3339:3360   */\n      tag_151\n        /* \"#utility.yul\":3354:3359   */\n      dup2\n        /* \"#utility.yul\":3339:3360   */\n      tag_102\n      jump\t// in\n    tag_151:\n        /* \"#utility.yul\":3334:3337   */\n      dup3\n        /* \"#utility.yul\":3327:3361   */\n      mstore\n        /* \"#utility.yul\":3258:3367   */\n      pop\n      pop\n      jump\t// out\n        /* \"#utility.yul\":3373:3803   */\n    tag_49:\n        /* \"#utility.yul\":3516:3520   */\n      0x00\n        /* \"#utility.yul\":3554:3556   */\n      0x60\n        /* \"#utility.yul\":3543:3552   */\n      dup3\n        /* \"#utility.yul\":3539:3557   */\n      add\n        /* \"#utility.yul\":3531:3557   */\n      swap1\n      pop\n        /* \"#utility.yul\":3567:3638   */\n      tag_153\n        /* \"#utility.yul\":3635:3636   */\n      0x00\n        /* \"#utility.yul\":3624:3633   */\n      dup4\n        /* \"#utility.yul\":3620:3637   */\n      add\n        /* \"#utility.yul\":3611:3617   */\n      dup7\n        /* \"#utility.yul\":3567:3638   */\n      tag_93\n      jump\t// in\n    tag_153:\n        /* \"#utility.yul\":3648:3720   */\n      tag_154\n        /* \"#utility.yul\":3716:3718   */\n      0x20\n        /* \"#utility.yul\":3705:3714   */\n      dup4\n        /* \"#utility.yul\":3701:3719   */\n      add\n        /* \"#utility.yul\":3692:3698   */\n      dup6\n        /* \"#utility.yul\":3648:3720   */\n      tag_93\n      jump\t// in\n    tag_154:\n        /* \"#utility.yul\":3730:3796   */\n      tag_155\n        /* \"#utility.yul\":3792:3794   */\n      0x40\n        /* \"#utility.yul\":3781:3790   */\n      dup4\n        /* \"#utility.yul\":3777:3795   */\n      add\n        /* \"#utility.yul\":3768:3774   */\n      dup5\n        /* \"#utility.yul\":3730:3796   */\n      tag_103\n      jump\t// in\n    tag_155:\n        /* \"#utility.yul\":3373:3803   */\n      swap5\n      swap4\n      pop\n      pop\n      pop\n      pop\n      jump\t// out\n        /* \"#utility.yul\":3809:4029   */\n    tag_104:\n        /* \"#utility.yul\":3949:3983   */\n      0x4f6e6c79206f776e65722063616e2063616c6c20746869732066756e6374696f\n        /* \"#utility.yul\":3945:3946   */\n      0x00\n        /* \"#utility.yul\":3937:3943   */\n      dup3\n        /* \"#utility.yul\":3933:3947   */\n      add\n        /* \"#utility.yul\":3926:3984   */\n      mstore\n        /* \"#utility.yul\":4018:4021   */\n      0x6e00000000000000000000000000000000000000000000000000000000000000\n        /* \"#utility.yul\":4013:4015   */\n      0x20\n        /* \"#utility.yul\":4005:4011   */\n      dup3\n        /* \"#utility.yul\":4001:4016   */\n      add\n        /* \"#utility.yul\":3994:4022   */\n      mstore\n        /* \"#utility.yul\":3809:4029   */\n      pop\n      jump\t// out\n        /* \"#utility.yul\":4035:4401   */\n    tag_105:\n        /* \"#utility.yul\":4177:4180   */\n      0x00\n        /* \"#utility.yul\":4198:4265   */\n      tag_158\n        /* \"#utility.yul\":4262:4264   */\n      0x21\n        /* \"#utility.yul\":4257:4260   */\n      dup4\n        /* \"#utility.yul\":4198:4265   */\n      tag_89\n      jump\t// in\n    tag_158:\n        /* \"#utility.yul\":4191:4265   */\n      swap2\n      pop\n        /* \"#utility.yul\":4274:4367   */\n      tag_159\n        /* \"#utility.yul\":4363:4366   */\n      dup3\n        /* \"#utility.yul\":4274:4367   */\n      tag_104\n      jump\t// in\n    tag_159:\n        /* \"#utility.yul\":4392:4394   */\n      0x40\n        /* \"#utility.yul\":4387:4390   */\n      dup3\n        /* \"#utility.yul\":4383:4395   */\n      add\n        /* \"#utility.yul\":4376:4395   */\n      swap1\n      pop\n        /* \"#utility.yul\":4035:4401   */\n      swap2\n      swap1\n      pop\n      jump\t// out\n        /* \"#utility.yul\":4407:4826   */\n    tag_59:\n        /* \"#utility.yul\":4573:4577   */\n      0x00\n        /* \"#utility.yul\":4611:4613   */\n      0x20\n        /* \"#utility.yul\":4600:4609   */\n      dup3\n        /* \"#utility.yul\":4596:4614   */\n      add\n        /* \"#utility.yul\":4588:4614   */\n      swap1\n      pop\n        /* \"#utility.yul\":4660:4669   */\n      dup2\n        /* \"#utility.yul\":4654:4658   */\n      dup2\n        /* \"#utility.yul\":4650:4670   */\n      sub\n        /* \"#utility.yul\":4646:4647   */\n      0x00\n        /* \"#utility.yul\":4635:4644   */\n      dup4\n        /* \"#utility.yul\":4631:4648   */\n      add\n        /* \"#utility.yul\":4624:4671   */\n      mstore\n        /* \"#utility.yul\":4688:4819   */\n      tag_161\n        /* \"#utility.yul\":4814:4818   */\n      dup2\n        /* \"#utility.yul\":4688:4819   */\n      tag_105\n      jump\t// in\n    tag_161:\n        /* \"#utility.yul\":4680:4819   */\n      swap1\n      pop\n        /* \"#utility.yul\":4407:4826   */\n      swap2\n      swap1\n      pop\n      jump\t// out\n        /* \"#utility.yul\":4832:5004   */\n    tag_106:\n        /* \"#utility.yul\":4972:4996   */\n      0x46756e647320616c72656164792072656c656173656400000000000000000000\n        /* \"#utility.yul\":4968:4969   */\n      0x00\n        /* \"#utility.yul\":4960:4966   */\n      dup3\n        /* \"#utility.yul\":4956:4970   */\n      add\n        /* \"#utility.yul\":4949:4997   */\n      mstore\n        /* \"#utility.yul\":4832:5004   */\n      pop\n      jump\t// out\n        /* \"#utility.yul\":5010:5376   */\n    tag_107:\n        /* \"#utility.yul\":5152:5155   */\n      0x00\n        /* \"#utility.yul\":5173:5240   */\n      tag_164\n        /* \"#utility.yul\":5237:5239   */\n      0x16\n        /* \"#utility.yul\":5232:5235   */\n      dup4\n        /* \"#utility.yul\":5173:5240   */\n      tag_89\n      jump\t// in\n    tag_164:\n        /* \"#utility.yul\":5166:5240   */\n      swap2\n      pop\n        /* \"#utility.yul\":5249:5342   */\n      tag_165\n        /* \"#utility.yul\":5338:5341   */\n      dup3\n        /* \"#utility.yul\":5249:5342   */\n      tag_106\n      jump\t// in\n    tag_165:\n        /* \"#utility.yul\":5367:5369   */\n      0x20\n        /* \"#utility.yul\":5362:5365   */\n      dup3\n        /* \"#utility.yul\":5358:5370   */\n      add\n        /* \"#utility.yul\":5351:5370   */\n      swap1\n      pop\n        /* \"#utility.yul\":5010:5376   */\n      swap2\n      swap1\n      pop\n      jump\t// out\n        /* \"#utility.yul\":5382:5801   */\n    tag_63:\n        /* \"#utility.yul\":5548:5552   */\n      0x00\n        /* \"#utility.yul\":5586:5588   */\n      0x20\n        /* \"#utility.yul\":5575:5584   */\n      dup3\n        /* \"#utility.yul\":5571:5589   */\n      add\n        /* \"#utility.yul\":5563:5589   */\n      swap1\n      pop\n        /* \"#utility.yul\":5635:5644   */\n      dup2\n        /* \"#utility.yul\":5629:5633   */\n      dup2\n        /* \"#utility.yul\":5625:5645   */\n      sub\n        /* \"#utility.yul\":5621:5622   */\n      0x00\n        /* \"#utility.yul\":5610:5619   */\n      dup4\n        /* \"#utility.yul\":5606:5623   */\n      add\n        /* \"#utility.yul\":5599:5646   */\n      mstore\n        /* \"#utility.yul\":5663:5794   */\n      tag_167\n        /* \"#utility.yul\":5789:5793   */\n      dup2\n        /* \"#utility.yul\":5663:5794   */\n      tag_107\n      jump\t// in\n    tag_167:\n        /* \"#utility.yul\":5655:5794   */\n      swap1\n      pop\n        /* \"#utility.yul\":5382:5801   */\n      swap2\n      swap1\n      pop\n      jump\t// out\n        /* \"#utility.yul\":5807:5979   */\n    tag_108:\n        /* \"#utility.yul\":5947:5971   */\n      0x46756e647320617265207374696c6c206c6f636b656400000000000000000000\n        /* \"#utility.yul\":5943:5944   */\n      0x00\n        /* \"#utility.yul\":5935:5941   */\n      dup3\n        /* \"#utility.yul\":5931:5945   */\n      add\n        /* \"#utility.yul\":5924:5972   */\n      mstore\n        /* \"#utility.yul\":5807:5979   */\n      pop\n      jump\t// out\n        /* \"#utility.yul\":5985:6351   */\n    tag_109:\n        /* \"#utility.yul\":6127:6130   */\n      0x00\n        /* \"#utility.yul\":6148:6215   */\n      tag_170\n        /* \"#utility.yul\":6212:6214   */\n      0x16\n        /* \"#utility.yul\":6207:6210   */\n      dup4\n        /* \"#utility.yul\":6148:6215   */\n      tag_89\n      jump\t// in\n    tag_170:\n        /* \"#utility.yul\":6141:6215   */\n      swap2\n      pop\n        /* \"#utility.yul\":6224:6317   */\n      tag_171\n        /* \"#utility.yul\":6313:6316   */\n      dup3\n        /* \"#utility.yul\":6224:6317   */\n      tag_108\n      jump\t// in\n    tag_171:\n        /* \"#utility.yul\":6342:6344   */\n      0x20\n        /* \"#utility.yul\":6337:6340   */\n      dup3\n        /* \"#utility.yul\":6333:6345   */\n      add\n        /* \"#utility.yul\":6326:6345   */\n      swap1\n      pop\n        /* \"#utility.yul\":5985:6351   */\n      swap2\n      swap1\n      pop\n      jump\t// out\n        /* \"#utility.yul\":6357:6776   */\n    tag_66:\n        /* \"#utility.yul\":6523:6527   */\n      0x00\n        /* \"#utility.yul\":6561:6563   */\n      0x20\n        /* \"#utility.yul\":6550:6559   */\n      dup3\n        /* \"#utility.yul\":6546:6564   */\n      add\n        /* \"#utility.yul\":6538:6564   */\n      swap1\n      pop\n        /* \"#utility.yul\":6610:6619   */\n      dup2\n        /* \"#utility.yul\":6604:6608   */\n      dup2\n        /* \"#utility.yul\":6600:6620   */\n      sub\n        /* \"#utility.yul\":6596:6597   */\n      0x00\n        /* \"#utility.yul\":6585:6594   */\n      dup4\n        /* \"#utility.yul\":6581:6598   */\n      add\n        /* \"#utility.yul\":6574:6621   */\n      mstore\n        /* \"#utility.yul\":6638:6769   */\n      tag_173\n        /* \"#utility.yul\":6764:6768   */\n      dup2\n        /* \"#utility.yul\":6638:6769   */\n      tag_109\n      jump\t// in\n    tag_173:\n        /* \"#utility.yul\":6630:6769   */\n      swap1\n      pop\n        /* \"#utility.yul\":6357:6776   */\n      swap2\n      swap1\n      pop\n      jump\t// out\n        /* \"#utility.yul\":6782:6951   */\n    tag_110:\n        /* \"#utility.yul\":6922:6943   */\n      0x4e6f2066756e647320746f2072656c6561736500000000000000000000000000\n        /* \"#utility.yul\":6918:6919   */\n      0x00\n        /* \"#utility.yul\":6910:6916   */\n      dup3\n        /* \"#utility.yul\":6906:6920   */\n      add\n        /* \"#utility.yul\":6899:6944   */\n      mstore\n        /* \"#utility.yul\":6782:6951   */\n      pop\n      jump\t// out\n        /* \"#utility.yul\":6957:7323   */\n    tag_111:\n        /* \"#utility.yul\":7099:7102   */\n      0x00\n        /* \"#utility.yul\":7120:7187   */\n      tag_176\n        /* \"#utility.yul\":7184:7186   */\n      0x13\n        /* \"#utility.yul\":7179:7182   */\n      dup4\n        /* \"#utility.yul\":7120:7187   */\n      tag_89\n      jump\t// in\n    tag_176:\n        /* \"#utility.yul\":7113:7187   */\n      swap2\n      pop\n        /* \"#utility.yul\":7196:7289   */\n      tag_177\n        /* \"#utility.yul\":7285:7288   */\n      dup3\n        /* \"#utility.yul\":7196:7289   */\n      tag_110\n      jump\t// in\n    tag_177:\n        /* \"#utility.yul\":7314:7316   */\n      0x20\n        /* \"#utility.yul\":7309:7312   */\n      dup3\n        /* \"#utility.yul\":7305:7317   */\n      add\n        /* \"#utility.yul\":7298:7317   */\n      swap1\n      pop\n        /* \"#utility.yul\":6957:7323   */\n      swap2\n      swap1\n      pop\n      jump\t// out\n        /* \"#utility.yul\":7329:7748   */\n    tag_69:\n        /* \"#utility.yul\":7495:7499   */\n      0x00\n        /* \"#utility.yul\":7533:7535   */\n      0x20\n        /* \"#utility.yul\":7522:7531   */\n      dup3\n        /* \"#utility.yul\":7518:7536   */\n      add\n        /* \"#utility.yul\":7510:7536   */\n      swap1\n      pop\n        /* \"#utility.yul\":7582:7591   */\n      dup2\n        /* \"#utility.yul\":7576:7580   */\n      dup2\n        /* \"#utility.yul\":7572:7592   */\n      sub\n        /* \"#utility.yul\":7568:7569   */\n      0x00\n        /* \"#utility.yul\":7557:7566   */\n      dup4\n        /* \"#utility.yul\":7553:7570   */\n      add\n        /* \"#utility.yul\":7546:7593   */\n      mstore\n        /* \"#utility.yul\":7610:7741   */\n      tag_179\n        /* \"#utility.yul\":7736:7740   */\n      dup2\n        /* \"#utility.yul\":7610:7741   */\n      tag_111\n      jump\t// in\n    tag_179:\n        /* \"#utility.yul\":7602:7741   */\n      swap1\n      pop\n        /* \"#utility.yul\":7329:7748   */\n      swap2\n      swap1\n      pop\n      jump\t// out\n        /* \"#utility.yul\":7754:7934   */\n    tag_112:\n        /* \"#utility.yul\":7802:7879   */\n      0x4e487b7100000000000000000000000000000000000000000000000000000000\n        /* \"#utility.yul\":7799:7800   */\n      0x00\n        /* \"#utility.yul\":7792:7880   */\n      mstore\n        /* \"#utility.yul\":7899:7903   */\n      0x11\n        /* \"#utility.yul\":7896:7897   */\n      0x04\n        /* \"#utility.yul\":7889:7904   */\n      mstore\n        /* \"#utility.yul\":7923:7927   */\n      0x24\n        /* \"#utility.yul\":7920:7921   */\n      0x00\n        /* \"#utility.yul\":7913:7928   */\n      revert\n        /* \"#utility.yul\":7940:8134   */\n    tag_76:\n        /* \"#utility.yul\":7980:7984   */\n      0x00\n        /* \"#utility.yul\":8000:8020   */\n      tag_182\n        /* \"#utility.yul\":8018:8019   */\n      dup3\n        /* \"#utility.yul\":8000:8020   */\n      tag_92\n      jump\t// in\n    tag_182:\n        /* \"#utility.yul\":7995:8020   */\n      swap2\n      pop\n        /* \"#utility.yul\":8034:8054   */\n      tag_183\n        /* \"#utility.yul\":8052:8053   */\n      dup4\n        /* \"#utility.yul\":8034:8054   */\n      tag_92\n      jump\t// in\n    tag_183:\n        /* \"#utility.yul\":8029:8054   */\n      swap3\n      pop\n        /* \"#utility.yul\":8078:8079   */\n      dup3\n        /* \"#utility.yul\":8075:8076   */\n      dup3\n        /* \"#utility.yul\":8071:8080   */\n      sub\n        /* \"#utility.yul\":8063:8080   */\n      swap1\n      pop\n        /* \"#utility.yul\":8102:8103   */\n      dup2\n        /* \"#utility.yul\":8096:8100   */\n      dup2\n        /* \"#utility.yul\":8093:8104   */\n      gt\n        /* \"#utility.yul\":8090:8127   */\n      iszero\n      tag_184\n      jumpi\n        /* \"#utility.yul\":8107:8125   */\n      tag_185\n      tag_112\n      jump\t// in\n    tag_185:\n        /* \"#utility.yul\":8090:8127   */\n    tag_184:\n        /* \"#utility.yul\":7940:8134   */\n      swap3\n      swap2\n      pop\n      pop\n      jump\t// out\n        /* \"#utility.yul\":8140:8319   */\n    tag_113:\n        /* \"#utility.yul\":8280:8311   */\n      0x416d6f756e74206d7573742062652067726561746572207468616e2030000000\n        /* \"#utility.yul\":8276:8277   */\n      0x00\n        /* \"#utility.yul\":8268:8274   */\n      dup3\n        /* \"#utility.yul\":8264:8278   */\n      add\n        /* \"#utility.yul\":8257:8312   */\n      mstore\n        /* \"#utility.yul\":8140:8319   */\n      pop\n      jump\t// out\n        /* \"#utility.yul\":8325:8691   */\n    tag_114:\n        /* \"#utility.yul\":8467:8470   */\n      0x00\n        /* \"#utility.yul\":8488:8555   */\n      tag_188\n        /* \"#utility.yul\":8552:8554   */\n      0x1d\n        /* \"#utility.yul\":8547:8550   */\n      dup4\n        /* \"#utility.yul\":8488:8555   */\n      tag_89\n      jump\t// in\n    tag_188:\n        /* \"#utility.yul\":8481:8555   */\n      swap2\n      pop\n        /* \"#utility.yul\":8564:8657   */\n      tag_189\n        /* \"#utility.yul\":8653:8656   */\n      dup3\n        /* \"#utility.yul\":8564:8657   */\n      tag_113\n      jump\t// in\n    tag_189:\n        /* \"#utility.yul\":8682:8684   */\n      0x20\n        /* \"#utility.yul\":8677:8680   */\n      dup3\n        /* \"#utility.yul\":8673:8685   */\n      add\n        /* \"#utility.yul\":8666:8685   */\n      swap1\n      pop\n        /* \"#utility.yul\":8325:8691   */\n      swap2\n      swap1\n      pop\n      jump\t// out\n        /* \"#utility.yul\":8697:9116   */\n    tag_80:\n        /* \"#utility.yul\":8863:8867   */\n      0x00\n        /* \"#utility.yul\":8901:8903   */\n      0x20\n        /* \"#utility.yul\":8890:8899   */\n      dup3\n        /* \"#utility.yul\":8886:8904   */\n      add\n        /* \"#utility.yul\":8878:8904   */\n      swap1\n      pop\n        /* \"#utility.yul\":8950:8959   */\n      dup2\n        /* \"#utility.yul\":8944:8948   */\n      dup2\n        /* \"#utility.yul\":8940:8960   */\n      sub\n        /* \"#utility.yul\":8936:8937   */\n      0x00\n        /* \"#utility.yul\":8925:8934   */\n      dup4\n        /* \"#utility.yul\":8921:8938   */\n      add\n        /* \"#utility.yul\":8914:8961   */\n      mstore\n        /* \"#utility.yul\":8978:9109   */\n      tag_191\n        /* \"#utility.yul\":9104:9108   */\n      dup2\n        /* \"#utility.yul\":8978:9109   */\n      tag_114\n      jump\t// in\n    tag_191:\n        /* \"#utility.yul\":8970:9109   */\n      swap1\n      pop\n        /* \"#utility.yul\":8697:9116   */\n      swap2\n      swap1\n      pop\n      jump\t// out\n        /* \"#utility.yul\":9122:9343   */\n    tag_115:\n        /* \"#utility.yul\":9262:9296   */\n      0x52656c656173652074696d65206d75737420626520696e207468652066757475\n        /* \"#utility.yul\":9258:9259   */\n      0x00\n        /* \"#utility.yul\":9250:9256   */\n      dup3\n        /* \"#utility.yul\":9246:9260   */\n      add\n        /* \"#utility.yul\":9239:9297   */\n      mstore\n        /* \"#utility.yul\":9331:9335   */\n      0x7265000000000000000000000000000000000000000000000000000000000000\n        /* \"#utility.yul\":9326:9328   */\n      0x20\n        /* \"#utility.yul\":9318:9324   */\n      dup3\n        /* \"#utility.yul\":9314:9329   */\n      add\n        /* \"#utility.yul\":9307:9336   */\n      mstore\n        /* \"#utility.yul\":9122:9343   */\n      pop\n      jump\t// out\n        /* \"#utility.yul\":9349:9715   */\n    tag_116:\n        /* \"#utility.yul\":9491:9494   */\n      0x00\n        /* \"#utility.yul\":9512:9579   */\n      tag_194\n        /* \"#utility.yul\":9576:9578   */\n      0x22\n        /* \"#utility.yul\":9571:9574   */\n      dup4\n        /* \"#utility.yul\":9512:9579   */\n      tag_89\n      jump\t// in\n    tag_194:\n        /* \"#utility.yul\":9505:9579   */\n      swap2\n      pop\n        /* \"#utility.yul\":9588:9681   */\n      tag_195\n        /* \"#utility.yul\":9677:9680   */\n      dup3\n        /* \"#utility.yul\":9588:9681   */\n      tag_115\n      jump\t// in\n    tag_195:\n        /* \"#utility.yul\":9706:9708   */\n      0x40\n        /* \"#utility.yul\":9701:9704   */\n      dup3\n        /* \"#utility.yul\":9697:9709   */\n      add\n        /* \"#utility.yul\":9690:9709   */\n      swap1\n      pop\n        /* \"#utility.yul\":9349:9715   */\n      swap2\n      swap1\n      pop\n      jump\t// out\n        /* \"#utility.yul\":9721:10140   */\n    tag_83:\n        /* \"#utility.yul\":9887:9891   */\n      0x00\n        /* \"#utility.yul\":9925:9927   */\n      0x20\n        /* \"#utility.yul\":9914:9923   */\n      dup3\n        /* \"#utility.yul\":9910:9928   */\n      add\n        /* \"#utility.yul\":9902:9928   */\n      swap1\n      pop\n        /* \"#utility.yul\":9974:9983   */\n      dup2\n        /* \"#utility.yul\":9968:9972   */\n      dup2\n        /* \"#utility.yul\":9964:9984   */\n      sub\n        /* \"#utility.yul\":9960:9961   */\n      0x00\n        /* \"#utility.yul\":9949:9958   */\n      dup4\n        /* \"#utility.yul\":9945:9962   */\n      add\n        /* \"#utility.yul\":9938:9985   */\n      mstore\n        /* \"#utility.yul\":10002:10133   */\n      tag_197\n        /* \"#utility.yul\":10128:10132   */\n      dup2\n        /* \"#utility.yul\":10002:10133   */\n      tag_116\n      jump\t// in\n    tag_197:\n        /* \"#utility.yul\":9994:10133   */\n      swap1\n      pop\n        /* \"#utility.yul\":9721:10140   */\n      swap2\n      swap1\n      pop\n      jump\t// out\n        /* \"#utility.yul\":10146:10379   */\n    tag_85:\n        /* \"#utility.yul\":10185:10188   */\n      0x00\n        /* \"#utility.yul\":10208:10232   */\n      tag_199\n        /* \"#utility.yul\":10226:10231   */\n      dup3\n        /* \"#utility.yul\":10208:10232   */\n      tag_92\n      jump\t// in\n    tag_199:\n        /* \"#utility.yul\":10199:10232   */\n      swap2\n      pop\n        /* \"#utility.yul\":10254:10320   */\n      0xffffffffffffffffffffffffffffffffffffffffffffffffffffffffffffffff\n        /* \"#utility.yul\":10247:10252   */\n      dup3\n        /* \"#utility.yul\":10244:10321   */\n      sub\n        /* \"#utility.yul\":10241:10344   */\n      tag_200\n      jumpi\n        /* \"#utility.yul\":10324:10342   */\n      tag_201\n      tag_112\n      jump\t// in\n    tag_201:\n        /* \"#utility.yul\":10241:10344   */\n    tag_200:\n        /* \"#utility.yul\":10371:10372   */\n      0x01\n        /* \"#utility.yul\":10364:10369   */\n      dup3\n        /* \"#utility.yul\":10360:10373   */\n      add\n        /* \"#utility.yul\":10353:10373   */\n      swap1\n      pop\n        /* \"#utility.yul\":10146:10379   */\n      swap2\n      swap1\n      pop\n      jump\t// out\n        /* \"#utility.yul\":10385:10717   */\n    tag_87:\n        /* \"#utility.yul\":10506:10510   */\n      0x00\n        /* \"#utility.yul\":10544:10546   */\n      0x40\n        /* \"#utility.yul\":10533:10542   */\n      dup3\n        /* \"#utility.yul\":10529:10547   */\n      add\n        /* \"#utility.yul\":10521:10547   */\n      swap1\n      pop\n        /* \"#utility.yul\":10557:10628   */\n      tag_203\n        /* \"#utility.yul\":10625:10626   */\n      0x00\n        /* \"#utility.yul\":10614:10623   */\n      dup4\n        /* \"#utility.yul\":10610:10627   */\n      add\n        /* \"#utility.yul\":10601:10607   */\n      dup6\n        /* \"#utility.yul\":10557:10628   */\n      tag_93\n      jump\t// in\n    tag_203:\n        /* \"#utility.yul\":10638:10710   */\n      tag_204\n        /* \"#utility.yul\":10706:10708   */\n      0x20\n        /* \"#utility.yul\":10695:10704   */\n      dup4\n        /* \"#utility.yul\":10691:10709   */\n      add\n        /* \"#utility.yul\":10682:10688   */\n      dup5\n        /* \"#utility.yul\":10638:10710   */\n      tag_93\n      jump\t// in\n    tag_204:\n        /* \"#utility.yul\":10385:10717   */\n      swap4\n      swap3\n      pop\n      pop\n      pop\n      jump\t// out\n\n    auxdata: 0xa2646970667358221220143bf282eeb8d2d8980cb53a09fe892b99beaf3c91e5bacee9d3a14971e82f8164736f6c634300081a0033\n}\n",
				"bytecode": {
					"linkReferences": {},
					"object": "6080604052348015600e575f80fd5b50335f806101000a81548173ffffffffffffffffffffffffffffffffffffffff021916908373ffffffffffffffffffffffffffffffffffffffff160217905550610c448061005b5f395ff3fe60806040526004361061007e575f3560e01c80639b10b6f51161004d5780639b10b6f51461017a578063b6b55f25146101a4578063d68f4dd1146101d4578063f4dadc6114610212576100be565b806312065fe0146100c257806337bdc99b146100ec57806383e43ee5146101145780638da5cb5b14610150576100be565b366100be576040517f08c379a00000000000000000000000000000000000000000000000000000000081526004016100b590610735565b60405180910390fd5b5f80fd5b3480156100cd575f80fd5b506100d6610250565b6040516100e3919061076b565b60405180910390f35b3480156100f7575f80fd5b50610112600480360381019061010d91906107b2565b610257565b005b34801561011f575f80fd5b5061013a600480360381019061013591906107b2565b610496565b604051610147919061076b565b60405180910390f35b34801561015b575f80fd5b506101646104d8565b604051610171919061081c565b60405180910390f35b348015610185575f80fd5b5061018e6104fb565b60405161019b919061076b565b60405180910390f35b6101be60048036038101906101b991906107b2565b610501565b6040516101cb919061076b565b60405180910390f35b3480156101df575f80fd5b506101fa60048036038101906101f591906107b2565b610644565b6040516102099392919061084f565b60405180910390f35b34801561021d575f80fd5b50610238600480360381019061023391906107b2565b610683565b6040516102479392919061084f565b60405180910390f35b5f47905090565b5f8054906101000a900473ffffffffffffffffffffffffffffffffffffffff1673ffffffffffffffffffffffffffffffffffffffff163373ffffffffffffffffffffffffffffffffffffffff16146102e4576040517f08c379a00000000000000000000000000000000000000000000000000000000081526004016102db906108f4565b60405180910390fd5b5f60015f8381526020019081526020015f209050806002015f9054906101000a900460ff1615610349576040517f08c379a00000000000000000000000000000000000000000000000000000000081526004016103409061095c565b60405180910390fd5b8060010154421015610390576040517f08c379a0000000000000000000000000000000000000000000000000000000008152600401610387906109c4565b60405180910390fd5b5f815f0154116103d5576040517f08c379a00000000000000000000000000000000000000000000000000000000081526004016103cc90610a2c565b60405180910390fd5b6001816002015f6101000a81548160ff0219169083151502179055505f8054906101000a900473ffffffffffffffffffffffffffffffffffffffff1673ffffffffffffffffffffffffffffffffffffffff166108fc825f015490811502906040515f60405180830381858888f19350505050158015610456573d5f803e3d5ffd5b50817f80230996023d69b50793fa73f1919127c9d8e741d3989743c479169f22e7a288825f015460405161048a919061076b565b60405180910390a25050565b5f8060015f8481526020019081526020015f209050806001015442106104bf575f9150506104d3565b4281600101546104cf9190610a77565b9150505b919050565b5f8054906101000a900473ffffffffffffffffffffffffffffffffffffffff1681565b60025481565b5f803411610544576040517f08c379a000000000000000000000000000000000000000000000000000000000815260040161053b90610af4565b60405180910390fd5b428211610586576040517f08c379a000000000000000000000000000000000000000000000000000000000815260040161057d90610b82565b60405180910390fd5b5f60025f81548092919061059990610ba0565b91905055905060405180606001604052803481526020018481526020015f151581525060015f8381526020019081526020015f205f820151815f0155602082015181600101556040820151816002015f6101000a81548160ff021916908315150217905550905050807fed2de103da084463a1b2895568d352fd796dfd1d033c0e8ee9fabe73a67153893485604051610633929190610be7565b60405180910390a280915050919050565b5f805f8060015f8681526020019081526020015f209050805f01548160010154826002015f9054906101000a900460ff16935093509350509193909250565b6001602052805f5260405f205f91509050805f015490806001015490806002015f9054906101000a900460ff16905083565b5f82825260208201905092915050565b7f557365206465706f7369742066756e6374696f6e20746f206c6f636b2066756e5f8201527f6473000000000000000000000000000000000000000000000000000000000000602082015250565b5f61071f6022836106b5565b915061072a826106c5565b604082019050919050565b5f6020820190508181035f83015261074c81610713565b9050919050565b5f819050919050565b61076581610753565b82525050565b5f60208201905061077e5f83018461075c565b92915050565b5f80fd5b61079181610753565b811461079b575f80fd5b50565b5f813590506107ac81610788565b92915050565b5f602082840312156107c7576107c6610784565b5b5f6107d48482850161079e565b91505092915050565b5f73ffffffffffffffffffffffffffffffffffffffff82169050919050565b5f610806826107dd565b9050919050565b610816816107fc565b82525050565b5f60208201905061082f5f83018461080d565b92915050565b5f8115159050919050565b61084981610835565b82525050565b5f6060820190506108625f83018661075c565b61086f602083018561075c565b61087c6040830184610840565b949350505050565b7f4f6e6c79206f776e65722063616e2063616c6c20746869732066756e6374696f5f8201527f6e00000000000000000000000000000000000000000000000000000000000000602082015250565b5f6108de6021836106b5565b91506108e982610884565b604082019050919050565b5f6020820190508181035f83015261090b816108d2565b9050919050565b7f46756e647320616c72656164792072656c6561736564000000000000000000005f82015250565b5f6109466016836106b5565b915061095182610912565b602082019050919050565b5f6020820190508181035f8301526109738161093a565b9050919050565b7f46756e647320617265207374696c6c206c6f636b6564000000000000000000005f82015250565b5f6109ae6016836106b5565b91506109b98261097a565b602082019050919050565b5f6020820190508181035f8301526109db816109a2565b9050919050565b7f4e6f2066756e647320746f2072656c65617365000000000000000000000000005f82015250565b5f610a166013836106b5565b9150610a21826109e2565b602082019050919050565b5f6020820190508181035f830152610a4381610a0a565b9050919050565b7f4e487b71000000000000000000000000000000000000000000000000000000005f52601160045260245ffd5b5f610a8182610753565b9150610a8c83610753565b9250828203905081811115610aa457610aa3610a4a565b5b92915050565b7f416d6f756e74206d7573742062652067726561746572207468616e20300000005f82015250565b5f610ade601d836106b5565b9150610ae982610aaa565b602082019050919050565b5f6020820190508181035f830152610b0b81610ad2565b9050919050565b7f52656c656173652074696d65206d75737420626520696e2074686520667574755f8201527f7265000000000000000000000000000000000000000000000000000000000000602082015250565b5f610b6c6022836106b5565b9150610b7782610b12565b604082019050919050565b5f6020820190508181035f830152610b9981610b60565b9050919050565b5f610baa82610753565b91507fffffffffffffffffffffffffffffffffffffffffffffffffffffffffffffffff8203610bdc57610bdb610a4a565b5b600182019050919050565b5f604082019050610bfa5f83018561075c565b610c07602083018461075c565b939250505056fea2646970667358221220143bf282eeb8d2d8980cb53a09fe892b99beaf3c91e5bacee9d3a14971e82f8164736f6c634300081a0033",
					"opcodes": "PUSH1 0x80 PUSH1 0x40 MSTORE CALLVALUE DUP1 ISZERO PUSH1 0xE JUMPI PUSH0 DUP1 REVERT JUMPDEST POP CALLER PUSH0 DUP1 PUSH2 0x100 EXP DUP2 SLOAD DUP2 PUSH20 0xFFFFFFFFFFFFFFFFFFFFFFFFFFFFFFFFFFFFFFFF MUL NOT AND SWAP1 DUP4 PUSH20 0xFFFFFFFFFFFFFFFFFFFFFFFFFFFFFFFFFFFFFFFF AND MUL OR SWAP1 SSTORE POP PUSH2 0xC44 DUP1 PUSH2 0x5B PUSH0 CODECOPY PUSH0 RETURN INVALID PUSH1 0x80 PUSH1 0x40 MSTORE PUSH1 0x4 CALLDATASIZE LT PUSH2 0x7E JUMPI PUSH0 CALLDATALOAD PUSH1 0xE0 SHR DUP1 PUSH4 0x9B10B6F5 GT PUSH2 0x4D JUMPI DUP1 PUSH4 0x9B10B6F5 EQ PUSH2 0x17A JUMPI DUP1 PUSH4 0xB6B55F25 EQ PUSH2 0x1A4 JUMPI DUP1 PUSH4 0xD68F4DD1 EQ PUSH2 0x1D4 JUMPI DUP1 PUSH4 0xF4DADC61 EQ PUSH2 0x212 JUMPI PUSH2 0xBE JUMP JUMPDEST DUP1 PUSH4 0x12065FE0 EQ PUSH2 0xC2 JUMPI DUP1 PUSH4 0x37BDC99B EQ PUSH2 0xEC JUMPI DUP1 PUSH4 0x83E43EE5 EQ PUSH2 0x114 JUMPI DUP1 PUSH4 0x8DA5CB5B EQ PUSH2 0x150 JUMPI PUSH2 0xBE JUMP JUMPDEST CALLDATASIZE PUSH2 0xBE JUMPI PUSH1 0x40 MLOAD PUSH32 0x8C379A000000000000000000000000000000000000000000000000000000000 DUP2 MSTORE PUSH1 0x4 ADD PUSH2 0xB5 SWAP1 PUSH2 0x735 JUMP JUMPDEST PUSH1 0x40 MLOAD DUP1 SWAP2 SUB SWAP1 REVERT JUMPDEST PUSH0 DUP1 REVERT JUMPDEST CALLVALUE DUP1 ISZERO PUSH2 0xCD JUMPI PUSH0 DUP1 REVERT JUMPDEST POP PUSH2 0xD6 PUSH2 0x250 JUMP JUMPDEST PUSH1 0x40 MLOAD PUSH2 0xE3 SWAP2 SWAP1 PUSH2 0x76B JUMP JUMPDEST PUSH1 0x40 MLOAD DUP1 SWAP2 SUB SWAP1 RETURN JUMPDEST CALLVALUE DUP1 ISZERO PUSH2 0xF7 JUMPI PUSH0 DUP1 REVERT JUMPDEST POP PUSH2 0x112 PUSH1 0x4 DUP1 CALLDATASIZE SUB DUP2 ADD SWAP1 PUSH2 0x10D SWAP2 SWAP1 PUSH2 0x7B2 JUMP JUMPDEST PUSH2 0x257 JUMP JUMPDEST STOP JUMPDEST CALLVALUE DUP1 ISZERO PUSH2 0x11F JUMPI PUSH0 DUP1 REVERT JUMPDEST POP PUSH2 0x13A PUSH1 0x4 DUP1 CALLDATASIZE SUB DUP2 ADD SWAP1 PUSH2 0x135 SWAP2 SWAP1 PUSH2 0x7B2 JUMP JUMPDEST PUSH2 0x496 JUMP JUMPDEST PUSH1 0x40 MLOAD PUSH2 0x147 SWAP2 SWAP1 PUSH2 0x76B JUMP JUMPDEST PUSH1 0x40 MLOAD DUP1 SWAP2 SUB SWAP1 RETURN JUMPDEST CALLVALUE DUP1 ISZERO PUSH2 0x15B JUMPI PUSH0 DUP1 REVERT JUMPDEST POP PUSH2 0x164 PUSH2 0x4D8 JUMP JUMPDEST PUSH1 0x40 MLOAD PUSH2 0x171 SWAP2 SWAP1 PUSH2 0x81C JUMP JUMPDEST PUSH1 0x40 MLOAD DUP1 SWAP2 SUB SWAP1 RETURN JUMPDEST CALLVALUE DUP1 ISZERO PUSH2 0x185 JUMPI PUSH0 DUP1 REVERT JUMPDEST POP PUSH2 0x18E PUSH2 0x4FB JUMP JUMPDEST PUSH1 0x40 MLOAD PUSH2 0x19B SWAP2 SWAP1 PUSH2 0x76B JUMP JUMPDEST PUSH1 0x40 MLOAD DUP1 SWAP2 SUB SWAP1 RETURN JUMPDEST PUSH2 0x1BE PUSH1 0x4 DUP1 CALLDATASIZE SUB DUP2 ADD SWAP1 PUSH2 0x1B9 SWAP2 SWAP1 PUSH2 0x7B2 JUMP JUMPDEST PUSH2 0x501 JUMP JUMPDEST PUSH1 0x40 MLOAD PUSH2 0x1CB SWAP2 SWAP1 PUSH2 0x76B JUMP JUMPDEST PUSH1 0x40 MLOAD DUP1 SWAP2 SUB SWAP1 RETURN JUMPDEST CALLVALUE DUP1 ISZERO PUSH2 0x1DF JUMPI PUSH0 DUP1 REVERT JUMPDEST POP PUSH2 0x1FA PUSH1 0x4 DUP1 CALLDATASIZE SUB DUP2 ADD SWAP1 PUSH2 0x1F5 SWAP2 SWAP1 PUSH2 0x7B2 JUMP JUMPDEST PUSH2 0x644 JUMP JUMPDEST PUSH1 0x40 MLOAD PUSH2 0x209 SWAP4 SWAP3 SWAP2 SWAP1 PUSH2 0x84F JUMP JUMPDEST PUSH1 0x40 MLOAD DUP1 SWAP2 SUB SWAP1 RETURN JUMPDEST CALLVALUE DUP1 ISZERO PUSH2 0x21D JUMPI PUSH0 DUP1 REVERT JUMPDEST POP PUSH2 0x238 PUSH1 0x4 DUP1 CALLDATASIZE SUB DUP2 ADD SWAP1 PUSH2 0x233 SWAP2 SWAP1 PUSH2 0x7B2 JUMP JUMPDEST PUSH2 0x683 JUMP JUMPDEST PUSH1 0x40 MLOAD PUSH2 0x247 SWAP4 SWAP3 SWAP2 SWAP1 PUSH2 0x84F JUMP JUMPDEST PUSH1 0x40 MLOAD DUP1 SWAP2 SUB SWAP1 RETURN JUMPDEST PUSH0 SELFBALANCE SWAP1 POP SWAP1 JUMP JUMPDEST PUSH0 DUP1 SLOAD SWAP1 PUSH2 0x100 EXP SWAP1 DIV PUSH20 0xFFFFFFFFFFFFFFFFFFFFFFFFFFFFFFFFFFFFFFFF AND PUSH20 0xFFFFFFFFFFFFFFFFFFFFFFFFFFFFFFFFFFFFFFFF AND CALLER PUSH20 0xFFFFFFFFFFFFFFFFFFFFFFFFFFFFFFFFFFFFFFFF AND EQ PUSH2 0x2E4 JUMPI PUSH1 0x40 MLOAD PUSH32 0x8C379A000000000000000000000000000000000000000000000000000000000 DUP2 MSTORE PUSH1 0x4 ADD PUSH2 0x2DB SWAP1 PUSH2 0x8F4 JUMP JUMPDEST PUSH1 0x40 MLOAD DUP1 SWAP2 SUB SWAP1 REVERT JUMPDEST PUSH0 PUSH1 0x1 PUSH0 DUP4 DUP2 MSTORE PUSH1 0x20 ADD SWAP1 DUP2 MSTORE PUSH1 0x20 ADD PUSH0 KECCAK256 SWAP1 POP DUP1 PUSH1 0x2 ADD PUSH0 SWAP1 SLOAD SWAP1 PUSH2 0x100 EXP SWAP1 DIV PUSH1 0xFF AND ISZERO PUSH2 0x349 JUMPI PUSH1 0x40 MLOAD PUSH32 0x8C379A000000000000000000000000000000000000000000000000000000000 DUP2 MSTORE PUSH1 0x4 ADD PUSH2 0x340 SWAP1 PUSH2 0x95C JUMP JUMPDEST PUSH1 0x40 MLOAD DUP1 SWAP2 SUB SWAP1 REVERT JUMPDEST DUP1 PUSH1 0x1 ADD SLOAD TIMESTAMP LT ISZERO PUSH2 0x390 JUMPI PUSH1 0x40 MLOAD PUSH32 0x8C379A000000000000000000000000000000000000000000000000000000000 DUP2 MSTORE PUSH1 0x4 ADD PUSH2 0x387 SWAP1 PUSH2 0x9C4 JUMP JUMPDEST PUSH1 0x40 MLOAD DUP1 SWAP2 SUB SWAP1 REVERT JUMPDEST PUSH0 DUP2 PUSH0 ADD SLOAD GT PUSH2 0x3D5 JUMPI PUSH1 0x40 MLOAD PUSH32 0x8C379A000000000000000000000000000000000000000000000000000000000 DUP2 MSTORE PUSH1 0x4 ADD PUSH2 0x3CC SWAP1 PUSH2 0xA2C JUMP JUMPDEST PUSH1 0x40 MLOAD DUP1 SWAP2 SUB SWAP1 REVERT JUMPDEST PUSH1 0x1 DUP2 PUSH1 0x2 ADD PUSH0 PUSH2 0x100 EXP DUP2 SLOAD DUP2 PUSH1 0xFF MUL NOT AND SWAP1 DUP4 ISZERO ISZERO MUL OR SWAP1 SSTORE POP PUSH0 DUP1 SLOAD SWAP1 PUSH2 0x100 EXP SWAP1 DIV PUSH20 0xFFFFFFFFFFFFFFFFFFFFFFFFFFFFFFFFFFFFFFFF AND PUSH20 0xFFFFFFFFFFFFFFFFFFFFFFFFFFFFFFFFFFFFFFFF AND PUSH2 0x8FC DUP3 PUSH0 ADD SLOAD SWAP1 DUP2 ISZERO MUL SWAP1 PUSH1 0x40 MLOAD PUSH0 PUSH1 0x40 MLOAD DUP1 DUP4 SUB DUP2 DUP6 DUP9 DUP9 CALL SWAP4 POP POP POP POP ISZERO DUP1 ISZERO PUSH2 0x456 JUMPI RETURNDATASIZE PUSH0 DUP1 RETURNDATACOPY RETURNDATASIZE PUSH0 REVERT JUMPDEST POP DUP2 PUSH32 0x80230996023D69B50793FA73F1919127C9D8E741D3989743C479169F22E7A288 DUP3 PUSH0 ADD SLOAD PUSH1 0x40 MLOAD PUSH2 0x48A SWAP2 SWAP1 PUSH2 0x76B JUMP JUMPDEST PUSH1 0x40 MLOAD DUP1 SWAP2 SUB SWAP1 LOG2 POP POP JUMP JUMPDEST PUSH0 DUP1 PUSH1 0x1 PUSH0 DUP5 DUP2 MSTORE PUSH1 0x20 ADD SWAP1 DUP2 MSTORE PUSH1 0x20 ADD PUSH0 KECCAK256 SWAP1 POP DUP1 PUSH1 0x1 ADD SLOAD TIMESTAMP LT PUSH2 0x4BF JUMPI PUSH0 SWAP2 POP POP PUSH2 0x4D3 JUMP JUMPDEST TIMESTAMP DUP2 PUSH1 0x1 ADD SLOAD PUSH2 0x4CF SWAP2 SWAP1 PUSH2 0xA77 JUMP JUMPDEST SWAP2 POP POP JUMPDEST SWAP2 SWAP1 POP JUMP JUMPDEST PUSH0 DUP1 SLOAD SWAP1 PUSH2 0x100 EXP SWAP1 DIV PUSH20 0xFFFFFFFFFFFFFFFFFFFFFFFFFFFFFFFFFFFFFFFF AND DUP2 JUMP JUMPDEST PUSH1 0x2 SLOAD DUP2 JUMP JUMPDEST PUSH0 DUP1 CALLVALUE GT PUSH2 0x544 JUMPI PUSH1 0x40 MLOAD PUSH32 0x8C379A000000000000000000000000000000000000000000000000000000000 DUP2 MSTORE PUSH1 0x4 ADD PUSH2 0x53B SWAP1 PUSH2 0xAF4 JUMP JUMPDEST PUSH1 0x40 MLOAD DUP1 SWAP2 SUB SWAP1 REVERT JUMPDEST TIMESTAMP DUP3 GT PUSH2 0x586 JUMPI PUSH1 0x40 MLOAD PUSH32 0x8C379A000000000000000000000000000000000000000000000000000000000 DUP2 MSTORE PUSH1 0x4 ADD PUSH2 0x57D SWAP1 PUSH2 0xB82 JUMP JUMPDEST PUSH1 0x40 MLOAD DUP1 SWAP2 SUB SWAP1 REVERT JUMPDEST PUSH0 PUSH1 0x2 PUSH0 DUP2 SLOAD DUP1 SWAP3 SWAP2 SWAP1 PUSH2 0x599 SWAP1 PUSH2 0xBA0 JUMP JUMPDEST SWAP2 SWAP1 POP SSTORE SWAP1 POP PUSH1 0x40 MLOAD DUP1 PUSH1 0x60 ADD PUSH1 0x40 MSTORE DUP1 CALLVALUE DUP2 MSTORE PUSH1 0x20 ADD DUP5 DUP2 MSTORE PUSH1 0x20 ADD PUSH0 ISZERO ISZERO DUP2 MSTORE POP PUSH1 0x1 PUSH0 DUP4 DUP2 MSTORE PUSH1 0x20 ADD SWAP1 DUP2 MSTORE PUSH1 0x20 ADD PUSH0 KECCAK256 PUSH0 DUP3 ADD MLOAD DUP2 PUSH0 ADD SSTORE PUSH1 0x20 DUP3 ADD MLOAD DUP2 PUSH1 0x1 ADD SSTORE PUSH1 0x40 DUP3 ADD MLOAD DUP2 PUSH1 0x2 ADD PUSH0 PUSH2 0x100 EXP DUP2 SLOAD DUP2 PUSH1 0xFF MUL NOT AND SWAP1 DUP4 ISZERO ISZERO MUL OR SWAP1 SSTORE POP SWAP1 POP POP DUP1 PUSH32 0xED2DE103DA084463A1B2895568D352FD796DFD1D033C0E8EE9FABE73A6715389 CALLVALUE DUP6 PUSH1 0x40 MLOAD PUSH2 0x633 SWAP3 SWAP2 SWAP1 PUSH2 0xBE7 JUMP JUMPDEST PUSH1 0x40 MLOAD DUP1 SWAP2 SUB SWAP1 LOG2 DUP1 SWAP2 POP POP SWAP2 SWAP1 POP JUMP JUMPDEST PUSH0 DUP1 PUSH0 DUP1 PUSH1 0x1 PUSH0 DUP7 DUP2 MSTORE PUSH1 0x20 ADD SWAP1 DUP2 MSTORE PUSH1 0x20 ADD PUSH0 KECCAK256 SWAP1 POP DUP1 PUSH0 ADD SLOAD DUP2 PUSH1 0x1 ADD SLOAD DUP3 PUSH1 0x2 ADD PUSH0 SWAP1 SLOAD SWAP1 PUSH2 0x100 EXP SWAP1 DIV PUSH1 0xFF AND SWAP4 POP SWAP4 POP SWAP4 POP POP SWAP2 SWAP4 SWAP1 SWAP3 POP JUMP JUMPDEST PUSH1 0x1 PUSH1 0x20 MSTORE DUP1 PUSH0 MSTORE PUSH1 0x40 PUSH0 KECCAK256 PUSH0 SWAP2 POP SWAP1 POP DUP1 PUSH0 ADD SLOAD SWAP1 DUP1 PUSH1 0x1 ADD SLOAD SWAP1 DUP1 PUSH1 0x2 ADD PUSH0 SWAP1 SLOAD SWAP1 PUSH2 0x100 EXP SWAP1 DIV PUSH1 0xFF AND SWAP1 POP DUP4 JUMP JUMPDEST PUSH0 DUP3 DUP3 MSTORE PUSH1 0x20 DUP3 ADD SWAP1 POP SWAP3 SWAP2 POP POP JUMP JUMPDEST PUSH32 0x557365206465706F7369742066756E6374696F6E20746F206C6F636B2066756E PUSH0 DUP3 ADD MSTORE PUSH32 0x6473000000000000000000000000000000000000000000000000000000000000 PUSH1 0x20 DUP3 ADD MSTORE POP JUMP JUMPDEST PUSH0 PUSH2 0x71F PUSH1 0x22 DUP4 PUSH2 0x6B5 JUMP JUMPDEST SWAP2 POP PUSH2 0x72A DUP3 PUSH2 0x6C5 JUMP JUMPDEST PUSH1 0x40 DUP3 ADD SWAP1 POP SWAP2 SWAP1 POP JUMP JUMPDEST PUSH0 PUSH1 0x20 DUP3 ADD SWAP1 POP DUP2 DUP2 SUB PUSH0 DUP4 ADD MSTORE PUSH2 0x74C DUP2 PUSH2 0x713 JUMP JUMPDEST SWAP1 POP SWAP2 SWAP1 POP JUMP JUMPDEST PUSH0 DUP2 SWAP1 POP SWAP2 SWAP1 POP JUMP JUMPDEST PUSH2 0x765 DUP2 PUSH2 0x753 JUMP JUMPDEST DUP3 MSTORE POP POP JUMP JUMPDEST PUSH0 PUSH1 0x20 DUP3 ADD SWAP1 POP PUSH2 0x77E PUSH0 DUP4 ADD DUP5 PUSH2 0x75C JUMP JUMPDEST SWAP3 SWAP2 POP POP JUMP JUMPDEST PUSH0 DUP1 REVERT JUMPDEST PUSH2 0x791 DUP2 PUSH2 0x753 JUMP JUMPDEST DUP2 EQ PUSH2 0x79B JUMPI PUSH0 DUP1 REVERT JUMPDEST POP JUMP JUMPDEST PUSH0 DUP2 CALLDATALOAD SWAP1 POP PUSH2 0x7AC DUP2 PUSH2 0x788 JUMP JUMPDEST SWAP3 SWAP2 POP POP JUMP JUMPDEST PUSH0 PUSH1 0x20 DUP3 DUP5 SUB SLT ISZERO PUSH2 0x7C7 JUMPI PUSH2 0x7C6 PUSH2 0x784 JUMP JUMPDEST JUMPDEST PUSH0 PUSH2 0x7D4 DUP5 DUP3 DUP6 ADD PUSH2 0x79E JUMP JUMPDEST SWAP2 POP POP SWAP3 SWAP2 POP POP JUMP JUMPDEST PUSH0 PUSH20 0xFFFFFFFFFFFFFFFFFFFFFFFFFFFFFFFFFFFFFFFF DUP3 AND SWAP1 POP SWAP2 SWAP1 POP JUMP JUMPDEST PUSH0 PUSH2 0x806 DUP3 PUSH2 0x7DD JUMP JUMPDEST SWAP1 POP SWAP2 SWAP1 POP JUMP JUMPDEST PUSH2 0x816 DUP2 PUSH2 0x7FC JUMP JUMPDEST DUP3 MSTORE POP POP JUMP JUMPDEST PUSH0 PUSH1 0x20 DUP3 ADD SWAP1 POP PUSH2 0x82F PUSH0 DUP4 ADD DUP5 PUSH2 0x80D JUMP JUMPDEST SWAP3 SWAP2 POP POP JUMP JUMPDEST PUSH0 DUP2 ISZERO ISZERO SWAP1 POP SWAP2 SWAP1 POP JUMP JUMPDEST PUSH2 0x849 DUP2 PUSH2 0x835 JUMP JUMPDEST DUP3 MSTORE POP POP JUMP JUMPDEST PUSH0 PUSH1 0x60 DUP3 ADD SWAP1 POP PUSH2 0x862 PUSH0 DUP4 ADD DUP7 PUSH2 0x75C JUMP JUMPDEST PUSH2 0x86F PUSH1 0x20 DUP4 ADD DUP6 PUSH2 0x75C JUMP JUMPDEST PUSH2 0x87C PUSH1 0x40 DUP4 ADD DUP5 PUSH2 0x840 JUMP JUMPDEST SWAP5 SWAP4 POP POP POP POP JUMP JUMPDEST PUSH32 0x4F6E6C79206F776E65722063616E2063616C6C20746869732066756E6374696F PUSH0 DUP3 ADD MSTORE PUSH32 0x6E00000000000000000000000000000000000000000000000000000000000000 PUSH1 0x20 DUP3 ADD MSTORE POP JUMP JUMPDEST PUSH0 PUSH2 0x8DE PUSH1 0x21 DUP4 PUSH2 0x6B5 JUMP JUMPDEST SWAP2 POP PUSH2 0x8E9 DUP3 PUSH2 0x884 JUMP JUMPDEST PUSH1 0x40 DUP3 ADD SWAP1 POP SWAP2 SWAP1 POP JUMP JUMPDEST PUSH0 PUSH1 0x20 DUP3 ADD SWAP1 POP DUP2 DUP2 SUB PUSH0 DUP4 ADD MSTORE PUSH2 0x90B DUP2 PUSH2 0x8D2 JUMP JUMPDEST SWAP1 POP SWAP2 SWAP1 POP JUMP JUMPDEST PUSH32 0x46756E647320616C72656164792072656C656173656400000000000000000000 PUSH0 DUP3 ADD MSTORE POP JUMP JUMPDEST PUSH0 PUSH2 0x946 PUSH1 0x16 DUP4 PUSH2 0x6B5 JUMP JUMPDEST SWAP2 POP PUSH2 0x951 DUP3 PUSH2 0x912 JUMP JUMPDEST PUSH1 0x20 DUP3 ADD SWAP1 POP SWAP2 SWAP1 POP JUMP JUMPDEST PUSH0 PUSH1 0x20 DUP3 ADD SWAP1 POP DUP2 DUP2 SUB PUSH0 DUP4 ADD MSTORE PUSH2 0x973 DUP2 PUSH2 0x93A JUMP JUMPDEST SWAP1 POP SWAP2 SWAP1 POP JUMP JUMPDEST PUSH32 0x46756E647320617265207374696C6C206C6F636B656400000000000000000000 PUSH0 DUP3 ADD MSTORE POP JUMP JUMPDEST PUSH0 PUSH2 0x9AE PUSH1 0x16 DUP4 PUSH2 0x6B5 JUMP JUMPDEST SWAP2 POP PUSH2 0x9B9 DUP3 PUSH2 0x97A JUMP JUMPDEST PUSH1 0x20 DUP3 ADD SWAP1 POP SWAP2 SWAP1 POP JUMP JUMPDEST PUSH0 PUSH1 0x20 DUP3 ADD SWAP1 POP DUP2 DUP2 SUB PUSH0 DUP4 ADD MSTORE PUSH2 0x9DB DUP2 PUSH2 0x9A2 JUMP JUMPDEST SWAP1 POP SWAP2 SWAP1 POP JUMP JUMPDEST PUSH32 0x4E6F2066756E647320746F2072656C6561736500000000000000000000000000 PUSH0 DUP3 ADD MSTORE POP JUMP JUMPDEST PUSH0 PUSH2 0xA16 PUSH1 0x13 DUP4 PUSH2 0x6B5 JUMP JUMPDEST SWAP2 POP PUSH2 0xA21 DUP3 PUSH2 0x9E2 JUMP JUMPDEST PUSH1 0x20 DUP3 ADD SWAP1 POP SWAP2 SWAP1 POP JUMP JUMPDEST PUSH0 PUSH1 0x20 DUP3 ADD SWAP1 POP DUP2 DUP2 SUB PUSH0 DUP4 ADD MSTORE PUSH2 0xA43 DUP2 PUSH2 0xA0A JUMP JUMPDEST SWAP1 POP SWAP2 SWAP1 POP JUMP JUMPDEST PUSH32 0x4E487B7100000000000000000000000000000000000000000000000000000000 PUSH0 MSTORE PUSH1 0x11 PUSH1 0x4 MSTORE PUSH1 0x24 PUSH0 REVERT JUMPDEST PUSH0 PUSH2 0xA81 DUP3 PUSH2 0x753 JUMP JUMPDEST SWAP2 POP PUSH2 0xA8C DUP4 PUSH2 0x753 JUMP JUMPDEST SWAP3 POP DUP3 DUP3 SUB SWAP1 POP DUP2 DUP2 GT ISZERO PUSH2 0xAA4 JUMPI PUSH2 0xAA3 PUSH2 0xA4A JUMP JUMPDEST JUMPDEST SWAP3 SWAP2 POP POP JUMP JUMPDEST PUSH32 0x416D6F756E74206D7573742062652067726561746572207468616E2030000000 PUSH0 DUP3 ADD MSTORE POP JUMP JUMPDEST PUSH0 PUSH2 0xADE PUSH1 0x1D DUP4 PUSH2 0x6B5 JUMP JUMPDEST SWAP2 POP PUSH2 0xAE9 DUP3 PUSH2 0xAAA JUMP JUMPDEST PUSH1 0x20 DUP3 ADD SWAP1 POP SWAP2 SWAP1 POP JUMP JUMPDEST PUSH0 PUSH1 0x20 DUP3 ADD SWAP1 POP DUP2 DUP2 SUB PUSH0 DUP4 ADD MSTORE PUSH2 0xB0B DUP2 PUSH2 0xAD2 JUMP JUMPDEST SWAP1 POP SWAP2 SWAP1 POP JUMP JUMPDEST PUSH32 0x52656C656173652074696D65206D75737420626520696E207468652066757475 PUSH0 DUP3 ADD MSTORE PUSH32 0x7265000000000000000000000000000000000000000000000000000000000000 PUSH1 0x20 DUP3 ADD MSTORE POP JUMP JUMPDEST PUSH0 PUSH2 0xB6C PUSH1 0x22 DUP4 PUSH2 0x6B5 JUMP JUMPDEST SWAP2 POP PUSH2 0xB77 DUP3 PUSH2 0xB12 JUMP JUMPDEST PUSH1 0x40 DUP3 ADD SWAP1 POP SWAP2 SWAP1 POP JUMP JUMPDEST PUSH0 PUSH1 0x20 DUP3 ADD SWAP1 POP DUP2 DUP2 SUB PUSH0 DUP4 ADD MSTORE PUSH2 0xB99 DUP2 PUSH2 0xB60 JUMP JUMPDEST SWAP1 POP SWAP2 SWAP1 POP JUMP JUMPDEST PUSH0 PUSH2 0xBAA DUP3 PUSH2 0x753 JUMP JUMPDEST SWAP2 POP PUSH32 0xFFFFFFFFFFFFFFFFFFFFFFFFFFFFFFFFFFFFFFFFFFFFFFFFFFFFFFFFFFFFFFFF DUP3 SUB PUSH2 0xBDC JUMPI PUSH2 0xBDB PUSH2 0xA4A JUMP JUMPDEST JUMPDEST PUSH1 0x1 DUP3 ADD SWAP1 POP SWAP2 SWAP1 POP JUMP JUMPDEST PUSH0 PUSH1 0x40 DUP3 ADD SWAP1 POP PUSH2 0xBFA PUSH0 DUP4 ADD DUP6 PUSH2 0x75C JUMP JUMPDEST PUSH2 0xC07 PUSH1 0x20 DUP4 ADD DUP5 PUSH2 0x75C JUMP JUMPDEST SWAP4 SWAP3 POP POP POP JUMP INVALID LOG2 PUSH5 0x6970667358 0x22 SLT KECCAK256 EQ EXTCODESIZE CALLCODE DUP3 0xEE 0xB8 0xD2 0xD8 SWAP9 0xC 0xB5 GASPRICE MULMOD INVALID DUP10 0x2B SWAP10 0xBE 0xAF EXTCODECOPY SWAP2 0xE5 0xBA 0xCE 0xE9 0xD3 LOG1 BLOBHASH PUSH18 0xE82F8164736F6C634300081A003300000000 "
				},
				"gasEstimates": {
					"creation": {
						"codeDepositCost": "628000",
						"executionCost": "24927",
						"totalCost": "652927"
					},
					"external": {
						"deposit(uint256)": "infinite",
						"getBalance()": "335",
						"getLock(uint256)": "infinite",
						"lockCount()": "2425",
						"locks(uint256)": "infinite",
						"owner()": "2572",
						"release(uint256)": "infinite",
						"timeUntilRelease(uint256)": "infinite"
					}
				},
				"methodIdentifiers": {
					"deposit(uint256)": "b6b55f25",
					"getBalance()": "12065fe0",
					"getLock(uint256)": "d68f4dd1",
					"lockCount()": "9b10b6f5",
					"locks(uint256)": "f4dadc61",
					"owner()": "8da5cb5b",
					"release(uint256)": "37bdc99b",
					"timeUntilRelease(uint256)": "83e43ee5"
				}
			},
			"storageLayout": {
				"storage": [
					{
						"astId": 10,
						"contract": "Intermediate Level LOL/Time-Locked Wallet/contracts/TimeLock.sol:TimeLockedWallet",
						"label": "owner",
						"offset": 0,
						"slot": "0",
						"type": "t_address"
					},
					{
						"astId": 15,
						"contract": "Intermediate Level LOL/Time-Locked Wallet/contracts/TimeLock.sol:TimeLockedWallet",
						"label": "locks",
						"offset": 0,
						"slot": "1",
						"type": "t_mapping(t_uint256,t_struct(Lock)8_storage)"
					},
					{
						"astId": 17,
						"contract": "Intermediate Level LOL/Time-Locked Wallet/contracts/TimeLock.sol:TimeLockedWallet",
						"label": "lockCount",
						"offset": 0,
						"slot": "2",
						"type": "t_uint256"
					}
				],
				"types": {
					"t_address": {
						"encoding": "inplace",
						"label": "address",
						"numberOfBytes": "20"
					},
					"t_bool": {
						"encoding": "inplace",
						"label": "bool",
						"numberOfBytes": "1"
					},
					"t_mapping(t_uint256,t_struct(Lock)8_storage)": {
						"encoding": "mapping",
						"key": "t_uint256",
						"label": "mapping(uint256 => struct TimeLockedWallet.Lock)",
						"numberOfBytes": "32",
						"value": "t_struct(Lock)8_storage"
					},
					"t_struct(Lock)8_storage": {
						"encoding": "inplace",
						"label": "struct TimeLockedWallet.Lock",
						"members": [
							{
								"astId": 3,
								"contract": "Intermediate Level LOL/Time-Locked Wallet/contracts/TimeLock.sol:TimeLockedWallet",
								"label": "amount",
								"offset": 0,
								"slot": "0",
								"type": "t_uint256"
							},
							{
								"astId": 5,
								"contract": "Intermediate Level LOL/Time-Locked Wallet/contracts/TimeLock.sol:TimeLockedWallet",
								"label": "releaseTime",
								"offset": 0,
								"slot": "1",
								"type": "t_uint256"
							},
							{
								"astId": 7,
								"contract": "Intermediate Level LOL/Time-Locked Wallet/contracts/TimeLock.sol:TimeLockedWallet",
								"label": "released",
								"offset": 0,
								"slot": "2",
								"type": "t_bool"
							}
						],
						"numberOfBytes": "96"
					},
					"t_uint256": {
						"encoding": "inplace",
						"label": "uint256",
						"numberOfBytes": "32"
					}
				}
			},
			"userdoc": {
				"kind": "user",
				"methods": {},
				"version": 1
			}
		}
	}
}