{
	"Intermediate Level LOL/NFT Marketplace/contracts/NFTMark.sol": {
		"NFTMarketplace": {
			"abi": [
				{
					"inputs": [],
					"stateMutability": "nonpayable",
					"type": "constructor"
				},
				{
					"anonymous": false,
					"inputs": [
						{
							"indexed": true,
							"internalType": "uint256",
							"name": "itemId",
							"type": "uint256"
						},
						{
							"indexed": true,
							"internalType": "address",
							"name": "nftContract",
							"type": "address"
						},
						{
							"indexed": true,
							"internalType": "uint256",
							"name": "tokenId",
							"type": "uint256"
						},
						{
							"indexed": false,
							"internalType": "address",
							"name": "seller",
							"type": "address"
						},
						{
							"indexed": false,
							"internalType": "address",
							"name": "owner",
							"type": "address"
						},
						{
							"indexed": false,
							"internalType": "uint256",
							"name": "price",
							"type": "uint256"
						},
						{
							"indexed": false,
							"internalType": "bool",
							"name": "sold",
							"type": "bool"
						}
					],
					"name": "MarketItemCreated",
					"type": "event"
				},
				{
					"inputs": [
						{
							"internalType": "address",
							"name": "nftContract",
							"type": "address"
						},
						{
							"internalType": "uint256",
							"name": "tokenId",
							"type": "uint256"
						},
						{
							"internalType": "uint256",
							"name": "price",
							"type": "uint256"
						}
					],
					"name": "createMarketItem",
					"outputs": [],
					"stateMutability": "payable",
					"type": "function"
				},
				{
					"inputs": [
						{
							"internalType": "address",
							"name": "nftContract",
							"type": "address"
						},
						{
							"internalType": "uint256",
							"name": "itemId",
							"type": "uint256"
						}
					],
					"name": "createMarketSale",
					"outputs": [],
					"stateMutability": "payable",
					"type": "function"
				},
				{
					"inputs": [],
					"name": "fetchMarketItems",
					"outputs": [
						{
							"components": [
								{
									"internalType": "uint256",
									"name": "itemId",
									"type": "uint256"
								},
								{
									"internalType": "address",
									"name": "nftContract",
									"type": "address"
								},
								{
									"internalType": "uint256",
									"name": "tokenId",
									"type": "uint256"
								},
								{
									"internalType": "address payable",
									"name": "seller",
									"type": "address"
								},
								{
									"internalType": "address payable",
									"name": "owner",
									"type": "address"
								},
								{
									"internalType": "uint256",
									"name": "price",
									"type": "uint256"
								},
								{
									"internalType": "bool",
									"name": "sold",
									"type": "bool"
								}
							],
							"internalType": "struct NFTMarketplace.MarketItem[]",
							"name": "",
							"type": "tuple[]"
						}
					],
					"stateMutability": "view",
					"type": "function"
				},
				{
					"inputs": [],
					"name": "getListingPrice",
					"outputs": [
						{
							"internalType": "uint256",
							"name": "",
							"type": "uint256"
						}
					],
					"stateMutability": "view",
					"type": "function"
				}
			],
			"devdoc": {
				"kind": "dev",
				"methods": {},
				"version": 1
			},
			"evm": {
				"assembly": "    /* \"Intermediate Level LOL/NFT Marketplace/contracts/NFTMark.sol\":239:3420  contract NFTMarketplace is ReentrancyGuard {... */\n  mstore(0x40, 0x80)\n    /* \"Intermediate Level LOL/NFT Marketplace/contracts/NFTMark.sol\":466:477  0.025 ether */\n  0x58d15e17628000\n    /* \"Intermediate Level LOL/NFT Marketplace/contracts/NFTMark.sol\":443:477  uint256 listingPrice = 0.025 ether */\n  0x04\n  sstore\n    /* \"Intermediate Level LOL/NFT Marketplace/contracts/NFTMark.sol\":1009:1069  constructor() {... */\n  callvalue\n  dup1\n  iszero\n  tag_1\n  jumpi\n  0x00\n  dup1\n  revert\ntag_1:\n  pop\n    /* \"@openzeppelin/contracts/security/ReentrancyGuard.sol\":1716:1717  1 */\n  0x01\n    /* \"@openzeppelin/contracts/security/ReentrancyGuard.sol\":1821:1828  _status */\n  0x00\n    /* \"@openzeppelin/contracts/security/ReentrancyGuard.sol\":1821:1843  _status = _NOT_ENTERED */\n  dup2\n  swap1\n  sstore\n  pop\n    /* \"Intermediate Level LOL/NFT Marketplace/contracts/NFTMark.sol\":1050:1060  msg.sender */\n  caller\n    /* \"Intermediate Level LOL/NFT Marketplace/contracts/NFTMark.sol\":1034:1039  owner */\n  0x03\n  0x00\n    /* \"Intermediate Level LOL/NFT Marketplace/contracts/NFTMark.sol\":1034:1061  owner = payable(msg.sender) */\n  0x0100\n  exp\n  dup2\n  sload\n  dup2\n  0xffffffffffffffffffffffffffffffffffffffff\n  mul\n  not\n  and\n  swap1\n  dup4\n  0xffffffffffffffffffffffffffffffffffffffff\n  and\n  mul\n  or\n  swap1\n  sstore\n  pop\n    /* \"Intermediate Level LOL/NFT Marketplace/contracts/NFTMark.sol\":239:3420  contract NFTMarketplace is ReentrancyGuard {... */\n  dataSize(sub_0)\n  dup1\n  dataOffset(sub_0)\n  0x00\n  codecopy\n  0x00\n  return\nstop\n\nsub_0: assembly {\n        /* \"Intermediate Level LOL/NFT Marketplace/contracts/NFTMark.sol\":239:3420  contract NFTMarketplace is ReentrancyGuard {... */\n      mstore(0x40, 0x80)\n      jumpi(tag_1, lt(calldatasize, 0x04))\n      shr(0xe0, calldataload(0x00))\n      dup1\n      0x0f08efe0\n      eq\n      tag_2\n      jumpi\n      dup1\n      0x12e85585\n      eq\n      tag_3\n      jumpi\n      dup1\n      0x58eb2df5\n      eq\n      tag_4\n      jumpi\n      dup1\n      0xc23b139e\n      eq\n      tag_5\n      jumpi\n    tag_1:\n      0x00\n      dup1\n      revert\n        /* \"Intermediate Level LOL/NFT Marketplace/contracts/NFTMark.sol\":2732:3417  function fetchMarketItems() public view returns (MarketItem[] memory) {... */\n    tag_2:\n      callvalue\n      dup1\n      iszero\n      tag_6\n      jumpi\n      0x00\n      dup1\n      revert\n    tag_6:\n      pop\n      tag_7\n      tag_8\n      jump\t// in\n    tag_7:\n      mload(0x40)\n      tag_9\n      swap2\n      swap1\n      tag_10\n      jump\t// in\n    tag_9:\n      mload(0x40)\n      dup1\n      swap2\n      sub\n      swap1\n      return\n        /* \"Intermediate Level LOL/NFT Marketplace/contracts/NFTMark.sol\":1077:1172  function getListingPrice() public view returns (uint256) {... */\n    tag_3:\n      callvalue\n      dup1\n      iszero\n      tag_11\n      jumpi\n      0x00\n      dup1\n      revert\n    tag_11:\n      pop\n      tag_12\n      tag_13\n      jump\t// in\n    tag_12:\n      mload(0x40)\n      tag_14\n      swap2\n      swap1\n      tag_15\n      jump\t// in\n    tag_14:\n      mload(0x40)\n      dup1\n      swap2\n      sub\n      swap1\n      return\n        /* \"Intermediate Level LOL/NFT Marketplace/contracts/NFTMark.sol\":1180:2077  function createMarketItem(... */\n    tag_4:\n      tag_16\n      0x04\n      dup1\n      calldatasize\n      sub\n      dup2\n      add\n      swap1\n      tag_17\n      swap2\n      swap1\n      tag_18\n      jump\t// in\n    tag_17:\n      tag_19\n      jump\t// in\n    tag_16:\n      stop\n        /* \"Intermediate Level LOL/NFT Marketplace/contracts/NFTMark.sol\":2085:2724  function createMarketSale(... */\n    tag_5:\n      tag_20\n      0x04\n      dup1\n      calldatasize\n      sub\n      dup2\n      add\n      swap1\n      tag_21\n      swap2\n      swap1\n      tag_22\n      jump\t// in\n    tag_21:\n      tag_23\n      jump\t// in\n    tag_20:\n      stop\n        /* \"Intermediate Level LOL/NFT Marketplace/contracts/NFTMark.sol\":2732:3417  function fetchMarketItems() public view returns (MarketItem[] memory) {... */\n    tag_8:\n        /* \"Intermediate Level LOL/NFT Marketplace/contracts/NFTMark.sol\":2781:2800  MarketItem[] memory */\n      0x60\n        /* \"Intermediate Level LOL/NFT Marketplace/contracts/NFTMark.sol\":2813:2830  uint256 itemCount */\n      0x00\n        /* \"Intermediate Level LOL/NFT Marketplace/contracts/NFTMark.sol\":2833:2851  _itemIds.current() */\n      tag_25\n        /* \"Intermediate Level LOL/NFT Marketplace/contracts/NFTMark.sol\":2833:2841  _itemIds */\n      0x01\n        /* \"Intermediate Level LOL/NFT Marketplace/contracts/NFTMark.sol\":2833:2849  _itemIds.current */\n      tag_26\n        /* \"Intermediate Level LOL/NFT Marketplace/contracts/NFTMark.sol\":2833:2851  _itemIds.current() */\n      jump\t// in\n    tag_25:\n        /* \"Intermediate Level LOL/NFT Marketplace/contracts/NFTMark.sol\":2813:2851  uint256 itemCount = _itemIds.current() */\n      swap1\n      pop\n        /* \"Intermediate Level LOL/NFT Marketplace/contracts/NFTMark.sol\":2862:2885  uint256 unsoldItemCount */\n      0x00\n        /* \"Intermediate Level LOL/NFT Marketplace/contracts/NFTMark.sol\":2909:2929  _itemsSold.current() */\n      tag_27\n        /* \"Intermediate Level LOL/NFT Marketplace/contracts/NFTMark.sol\":2909:2919  _itemsSold */\n      0x02\n        /* \"Intermediate Level LOL/NFT Marketplace/contracts/NFTMark.sol\":2909:2927  _itemsSold.current */\n      tag_26\n        /* \"Intermediate Level LOL/NFT Marketplace/contracts/NFTMark.sol\":2909:2929  _itemsSold.current() */\n      jump\t// in\n    tag_27:\n        /* \"Intermediate Level LOL/NFT Marketplace/contracts/NFTMark.sol\":2888:2906  _itemIds.current() */\n      tag_28\n        /* \"Intermediate Level LOL/NFT Marketplace/contracts/NFTMark.sol\":2888:2896  _itemIds */\n      0x01\n        /* \"Intermediate Level LOL/NFT Marketplace/contracts/NFTMark.sol\":2888:2904  _itemIds.current */\n      tag_26\n        /* \"Intermediate Level LOL/NFT Marketplace/contracts/NFTMark.sol\":2888:2906  _itemIds.current() */\n      jump\t// in\n    tag_28:\n        /* \"Intermediate Level LOL/NFT Marketplace/contracts/NFTMark.sol\":2888:2929  _itemIds.current() - _itemsSold.current() */\n      tag_29\n      swap2\n      swap1\n      tag_30\n      jump\t// in\n    tag_29:\n        /* \"Intermediate Level LOL/NFT Marketplace/contracts/NFTMark.sol\":2862:2929  uint256 unsoldItemCount = _itemIds.current() - _itemsSold.current() */\n      swap1\n      pop\n        /* \"Intermediate Level LOL/NFT Marketplace/contracts/NFTMark.sol\":2940:2960  uint256 currentIndex */\n      0x00\n        /* \"Intermediate Level LOL/NFT Marketplace/contracts/NFTMark.sol\":2977:3002  MarketItem[] memory items */\n      dup1\n        /* \"Intermediate Level LOL/NFT Marketplace/contracts/NFTMark.sol\":3022:3037  unsoldItemCount */\n      dup3\n        /* \"Intermediate Level LOL/NFT Marketplace/contracts/NFTMark.sol\":3005:3038  new MarketItem[](unsoldItemCount) */\n      0xffffffffffffffff\n      dup2\n      gt\n      iszero\n      tag_31\n      jumpi\n      tag_32\n      tag_33\n      jump\t// in\n    tag_32:\n    tag_31:\n      mload(0x40)\n      swap1\n      dup1\n      dup3\n      mstore\n      dup1\n      0x20\n      mul\n      0x20\n      add\n      dup3\n      add\n      0x40\n      mstore\n      dup1\n      iszero\n      tag_34\n      jumpi\n      dup2\n      0x20\n      add\n    tag_35:\n      tag_36\n      tag_37\n      jump\t// in\n    tag_36:\n      dup2\n      mstore\n      0x20\n      add\n      swap1\n      0x01\n      swap1\n      sub\n      swap1\n      dup2\n      tag_35\n      jumpi\n      swap1\n      pop\n    tag_34:\n      pop\n        /* \"Intermediate Level LOL/NFT Marketplace/contracts/NFTMark.sol\":2977:3038  MarketItem[] memory items = new MarketItem[](unsoldItemCount) */\n      swap1\n      pop\n        /* \"Intermediate Level LOL/NFT Marketplace/contracts/NFTMark.sol\":3054:3063  uint256 i */\n      0x00\n        /* \"Intermediate Level LOL/NFT Marketplace/contracts/NFTMark.sol\":3049:3387  for (uint256 i = 0; i < itemCount; i++) {... */\n    tag_38:\n        /* \"Intermediate Level LOL/NFT Marketplace/contracts/NFTMark.sol\":3073:3082  itemCount */\n      dup5\n        /* \"Intermediate Level LOL/NFT Marketplace/contracts/NFTMark.sol\":3069:3070  i */\n      dup2\n        /* \"Intermediate Level LOL/NFT Marketplace/contracts/NFTMark.sol\":3069:3082  i < itemCount */\n      lt\n        /* \"Intermediate Level LOL/NFT Marketplace/contracts/NFTMark.sol\":3049:3387  for (uint256 i = 0; i < itemCount; i++) {... */\n      iszero\n      tag_39\n      jumpi\n        /* \"Intermediate Level LOL/NFT Marketplace/contracts/NFTMark.sol\":3147:3148  0 */\n      0x00\n        /* \"Intermediate Level LOL/NFT Marketplace/contracts/NFTMark.sol\":3108:3149  idToMarketItem[i + 1].owner == address(0) */\n      0xffffffffffffffffffffffffffffffffffffffff\n      and\n        /* \"Intermediate Level LOL/NFT Marketplace/contracts/NFTMark.sol\":3108:3122  idToMarketItem */\n      0x05\n        /* \"Intermediate Level LOL/NFT Marketplace/contracts/NFTMark.sol\":3108:3129  idToMarketItem[i + 1] */\n      0x00\n        /* \"Intermediate Level LOL/NFT Marketplace/contracts/NFTMark.sol\":3127:3128  1 */\n      0x01\n        /* \"Intermediate Level LOL/NFT Marketplace/contracts/NFTMark.sol\":3123:3124  i */\n      dup5\n        /* \"Intermediate Level LOL/NFT Marketplace/contracts/NFTMark.sol\":3123:3128  i + 1 */\n      tag_41\n      swap2\n      swap1\n      tag_42\n      jump\t// in\n    tag_41:\n        /* \"Intermediate Level LOL/NFT Marketplace/contracts/NFTMark.sol\":3108:3129  idToMarketItem[i + 1] */\n      dup2\n      mstore\n      0x20\n      add\n      swap1\n      dup2\n      mstore\n      0x20\n      add\n      0x00\n      keccak256\n        /* \"Intermediate Level LOL/NFT Marketplace/contracts/NFTMark.sol\":3108:3135  idToMarketItem[i + 1].owner */\n      0x04\n      add\n      0x00\n      swap1\n      sload\n      swap1\n      0x0100\n      exp\n      swap1\n      div\n      0xffffffffffffffffffffffffffffffffffffffff\n      and\n        /* \"Intermediate Level LOL/NFT Marketplace/contracts/NFTMark.sol\":3108:3149  idToMarketItem[i + 1].owner == address(0) */\n      0xffffffffffffffffffffffffffffffffffffffff\n      and\n      sub\n        /* \"Intermediate Level LOL/NFT Marketplace/contracts/NFTMark.sol\":3104:3376  if (idToMarketItem[i + 1].owner == address(0)) {... */\n      tag_43\n      jumpi\n        /* \"Intermediate Level LOL/NFT Marketplace/contracts/NFTMark.sol\":3170:3187  uint256 currentId */\n      0x00\n        /* \"Intermediate Level LOL/NFT Marketplace/contracts/NFTMark.sol\":3194:3195  1 */\n      0x01\n        /* \"Intermediate Level LOL/NFT Marketplace/contracts/NFTMark.sol\":3190:3191  i */\n      dup3\n        /* \"Intermediate Level LOL/NFT Marketplace/contracts/NFTMark.sol\":3190:3195  i + 1 */\n      tag_44\n      swap2\n      swap1\n      tag_42\n      jump\t// in\n    tag_44:\n        /* \"Intermediate Level LOL/NFT Marketplace/contracts/NFTMark.sol\":3170:3195  uint256 currentId = i + 1 */\n      swap1\n      pop\n        /* \"Intermediate Level LOL/NFT Marketplace/contracts/NFTMark.sol\":3214:3244  MarketItem storage currentItem */\n      0x00\n        /* \"Intermediate Level LOL/NFT Marketplace/contracts/NFTMark.sol\":3247:3261  idToMarketItem */\n      0x05\n        /* \"Intermediate Level LOL/NFT Marketplace/contracts/NFTMark.sol\":3247:3272  idToMarketItem[currentId] */\n      0x00\n        /* \"Intermediate Level LOL/NFT Marketplace/contracts/NFTMark.sol\":3262:3271  currentId */\n      dup4\n        /* \"Intermediate Level LOL/NFT Marketplace/contracts/NFTMark.sol\":3247:3272  idToMarketItem[currentId] */\n      dup2\n      mstore\n      0x20\n      add\n      swap1\n      dup2\n      mstore\n      0x20\n      add\n      0x00\n      keccak256\n        /* \"Intermediate Level LOL/NFT Marketplace/contracts/NFTMark.sol\":3214:3272  MarketItem storage currentItem = idToMarketItem[currentId] */\n      swap1\n      pop\n        /* \"Intermediate Level LOL/NFT Marketplace/contracts/NFTMark.sol\":3313:3324  currentItem */\n      dup1\n        /* \"Intermediate Level LOL/NFT Marketplace/contracts/NFTMark.sol\":3291:3324  items[currentIndex] = currentItem */\n      mload(0x40)\n      dup1\n      0xe0\n      add\n      0x40\n      mstore\n      swap1\n      dup2\n      0x00\n      dup3\n      add\n      sload\n      dup2\n      mstore\n      0x20\n      add\n      0x01\n      dup3\n      add\n      0x00\n      swap1\n      sload\n      swap1\n      0x0100\n      exp\n      swap1\n      div\n      0xffffffffffffffffffffffffffffffffffffffff\n      and\n      0xffffffffffffffffffffffffffffffffffffffff\n      and\n      0xffffffffffffffffffffffffffffffffffffffff\n      and\n      dup2\n      mstore\n      0x20\n      add\n      0x02\n      dup3\n      add\n      sload\n      dup2\n      mstore\n      0x20\n      add\n      0x03\n      dup3\n      add\n      0x00\n      swap1\n      sload\n      swap1\n      0x0100\n      exp\n      swap1\n      div\n      0xffffffffffffffffffffffffffffffffffffffff\n      and\n      0xffffffffffffffffffffffffffffffffffffffff\n      and\n      0xffffffffffffffffffffffffffffffffffffffff\n      and\n      dup2\n      mstore\n      0x20\n      add\n      0x04\n      dup3\n      add\n      0x00\n      swap1\n      sload\n      swap1\n      0x0100\n      exp\n      swap1\n      div\n      0xffffffffffffffffffffffffffffffffffffffff\n      and\n      0xffffffffffffffffffffffffffffffffffffffff\n      and\n      0xffffffffffffffffffffffffffffffffffffffff\n      and\n      dup2\n      mstore\n      0x20\n      add\n      0x05\n      dup3\n      add\n      sload\n      dup2\n      mstore\n      0x20\n      add\n      0x06\n      dup3\n      add\n      0x00\n      swap1\n      sload\n      swap1\n      0x0100\n      exp\n      swap1\n      div\n      0xff\n      and\n      iszero\n      iszero\n      iszero\n      iszero\n      dup2\n      mstore\n      pop\n      pop\n        /* \"Intermediate Level LOL/NFT Marketplace/contracts/NFTMark.sol\":3291:3296  items */\n      dup5\n        /* \"Intermediate Level LOL/NFT Marketplace/contracts/NFTMark.sol\":3297:3309  currentIndex */\n      dup7\n        /* \"Intermediate Level LOL/NFT Marketplace/contracts/NFTMark.sol\":3291:3310  items[currentIndex] */\n      dup2\n      mload\n      dup2\n      lt\n      tag_45\n      jumpi\n      tag_46\n      tag_47\n      jump\t// in\n    tag_46:\n    tag_45:\n      0x20\n      mul\n      0x20\n      add\n      add\n        /* \"Intermediate Level LOL/NFT Marketplace/contracts/NFTMark.sol\":3291:3324  items[currentIndex] = currentItem */\n      dup2\n      swap1\n      mstore\n      pop\n        /* \"Intermediate Level LOL/NFT Marketplace/contracts/NFTMark.sol\":3359:3360  1 */\n      0x01\n        /* \"Intermediate Level LOL/NFT Marketplace/contracts/NFTMark.sol\":3343:3360  currentIndex += 1 */\n      dup6\n      tag_48\n      swap2\n      swap1\n      tag_42\n      jump\t// in\n    tag_48:\n      swap5\n      pop\n        /* \"Intermediate Level LOL/NFT Marketplace/contracts/NFTMark.sol\":3151:3376  {... */\n      pop\n      pop\n        /* \"Intermediate Level LOL/NFT Marketplace/contracts/NFTMark.sol\":3104:3376  if (idToMarketItem[i + 1].owner == address(0)) {... */\n    tag_43:\n        /* \"Intermediate Level LOL/NFT Marketplace/contracts/NFTMark.sol\":3084:3087  i++ */\n      dup1\n      dup1\n      0x01\n      add\n      swap2\n      pop\n      pop\n        /* \"Intermediate Level LOL/NFT Marketplace/contracts/NFTMark.sol\":3049:3387  for (uint256 i = 0; i < itemCount; i++) {... */\n      jump(tag_38)\n    tag_39:\n      pop\n        /* \"Intermediate Level LOL/NFT Marketplace/contracts/NFTMark.sol\":3404:3409  items */\n      dup1\n        /* \"Intermediate Level LOL/NFT Marketplace/contracts/NFTMark.sol\":3397:3409  return items */\n      swap5\n      pop\n      pop\n      pop\n      pop\n      pop\n        /* \"Intermediate Level LOL/NFT Marketplace/contracts/NFTMark.sol\":2732:3417  function fetchMarketItems() public view returns (MarketItem[] memory) {... */\n      swap1\n      jump\t// out\n        /* \"Intermediate Level LOL/NFT Marketplace/contracts/NFTMark.sol\":1077:1172  function getListingPrice() public view returns (uint256) {... */\n    tag_13:\n        /* \"Intermediate Level LOL/NFT Marketplace/contracts/NFTMark.sol\":1125:1132  uint256 */\n      0x00\n        /* \"Intermediate Level LOL/NFT Marketplace/contracts/NFTMark.sol\":1152:1164  listingPrice */\n      sload(0x04)\n        /* \"Intermediate Level LOL/NFT Marketplace/contracts/NFTMark.sol\":1145:1164  return listingPrice */\n      swap1\n      pop\n        /* \"Intermediate Level LOL/NFT Marketplace/contracts/NFTMark.sol\":1077:1172  function getListingPrice() public view returns (uint256) {... */\n      swap1\n      jump\t// out\n        /* \"Intermediate Level LOL/NFT Marketplace/contracts/NFTMark.sol\":1180:2077  function createMarketItem(... */\n    tag_19:\n        /* \"@openzeppelin/contracts/security/ReentrancyGuard.sol\":2261:2282  _nonReentrantBefore() */\n      tag_51\n        /* \"@openzeppelin/contracts/security/ReentrancyGuard.sol\":2261:2280  _nonReentrantBefore */\n      tag_52\n        /* \"@openzeppelin/contracts/security/ReentrancyGuard.sol\":2261:2282  _nonReentrantBefore() */\n      jump\t// in\n    tag_51:\n        /* \"Intermediate Level LOL/NFT Marketplace/contracts/NFTMark.sol\":1348:1349  0 */\n      0x00\n        /* \"Intermediate Level LOL/NFT Marketplace/contracts/NFTMark.sol\":1340:1345  price */\n      dup2\n        /* \"Intermediate Level LOL/NFT Marketplace/contracts/NFTMark.sol\":1340:1349  price > 0 */\n      gt\n        /* \"Intermediate Level LOL/NFT Marketplace/contracts/NFTMark.sol\":1332:1382  require(price > 0, \"Price must be greater than 0\") */\n      tag_54\n      jumpi\n      mload(0x40)\n      0x08c379a000000000000000000000000000000000000000000000000000000000\n      dup2\n      mstore\n      0x04\n      add\n      tag_55\n      swap1\n      tag_56\n      jump\t// in\n    tag_55:\n      mload(0x40)\n      dup1\n      swap2\n      sub\n      swap1\n      revert\n    tag_54:\n        /* \"Intermediate Level LOL/NFT Marketplace/contracts/NFTMark.sol\":1414:1426  listingPrice */\n      sload(0x04)\n        /* \"Intermediate Level LOL/NFT Marketplace/contracts/NFTMark.sol\":1401:1410  msg.value */\n      callvalue\n        /* \"Intermediate Level LOL/NFT Marketplace/contracts/NFTMark.sol\":1401:1426  msg.value == listingPrice */\n      eq\n        /* \"Intermediate Level LOL/NFT Marketplace/contracts/NFTMark.sol\":1393:1467  require(msg.value == listingPrice, \"Price must be equal to listing price\") */\n      tag_57\n      jumpi\n      mload(0x40)\n      0x08c379a000000000000000000000000000000000000000000000000000000000\n      dup2\n      mstore\n      0x04\n      add\n      tag_58\n      swap1\n      tag_59\n      jump\t// in\n    tag_58:\n      mload(0x40)\n      dup1\n      swap2\n      sub\n      swap1\n      revert\n    tag_57:\n        /* \"Intermediate Level LOL/NFT Marketplace/contracts/NFTMark.sol\":1480:1500  _itemIds.increment() */\n      tag_60\n        /* \"Intermediate Level LOL/NFT Marketplace/contracts/NFTMark.sol\":1480:1488  _itemIds */\n      0x01\n        /* \"Intermediate Level LOL/NFT Marketplace/contracts/NFTMark.sol\":1480:1498  _itemIds.increment */\n      tag_61\n        /* \"Intermediate Level LOL/NFT Marketplace/contracts/NFTMark.sol\":1480:1500  _itemIds.increment() */\n      jump\t// in\n    tag_60:\n        /* \"Intermediate Level LOL/NFT Marketplace/contracts/NFTMark.sol\":1511:1525  uint256 itemId */\n      0x00\n        /* \"Intermediate Level LOL/NFT Marketplace/contracts/NFTMark.sol\":1528:1546  _itemIds.current() */\n      tag_62\n        /* \"Intermediate Level LOL/NFT Marketplace/contracts/NFTMark.sol\":1528:1536  _itemIds */\n      0x01\n        /* \"Intermediate Level LOL/NFT Marketplace/contracts/NFTMark.sol\":1528:1544  _itemIds.current */\n      tag_26\n        /* \"Intermediate Level LOL/NFT Marketplace/contracts/NFTMark.sol\":1528:1546  _itemIds.current() */\n      jump\t// in\n    tag_62:\n        /* \"Intermediate Level LOL/NFT Marketplace/contracts/NFTMark.sol\":1511:1546  uint256 itemId = _itemIds.current() */\n      swap1\n      pop\n        /* \"Intermediate Level LOL/NFT Marketplace/contracts/NFTMark.sol\":1584:1782  MarketItem(... */\n      mload(0x40)\n      dup1\n      0xe0\n      add\n      0x40\n      mstore\n      dup1\n        /* \"Intermediate Level LOL/NFT Marketplace/contracts/NFTMark.sol\":1609:1615  itemId */\n      dup3\n        /* \"Intermediate Level LOL/NFT Marketplace/contracts/NFTMark.sol\":1584:1782  MarketItem(... */\n      dup2\n      mstore\n      0x20\n      add\n        /* \"Intermediate Level LOL/NFT Marketplace/contracts/NFTMark.sol\":1630:1641  nftContract */\n      dup6\n        /* \"Intermediate Level LOL/NFT Marketplace/contracts/NFTMark.sol\":1584:1782  MarketItem(... */\n      0xffffffffffffffffffffffffffffffffffffffff\n      and\n      dup2\n      mstore\n      0x20\n      add\n        /* \"Intermediate Level LOL/NFT Marketplace/contracts/NFTMark.sol\":1656:1663  tokenId */\n      dup5\n        /* \"Intermediate Level LOL/NFT Marketplace/contracts/NFTMark.sol\":1584:1782  MarketItem(... */\n      dup2\n      mstore\n      0x20\n      add\n        /* \"Intermediate Level LOL/NFT Marketplace/contracts/NFTMark.sol\":1686:1696  msg.sender */\n      caller\n        /* \"Intermediate Level LOL/NFT Marketplace/contracts/NFTMark.sol\":1584:1782  MarketItem(... */\n      0xffffffffffffffffffffffffffffffffffffffff\n      and\n      dup2\n      mstore\n      0x20\n      add\n        /* \"Intermediate Level LOL/NFT Marketplace/contracts/NFTMark.sol\":1728:1729  0 */\n      0x00\n        /* \"Intermediate Level LOL/NFT Marketplace/contracts/NFTMark.sol\":1584:1782  MarketItem(... */\n      0xffffffffffffffffffffffffffffffffffffffff\n      and\n      dup2\n      mstore\n      0x20\n      add\n        /* \"Intermediate Level LOL/NFT Marketplace/contracts/NFTMark.sol\":1746:1751  price */\n      dup4\n        /* \"Intermediate Level LOL/NFT Marketplace/contracts/NFTMark.sol\":1584:1782  MarketItem(... */\n      dup2\n      mstore\n      0x20\n      add\n        /* \"Intermediate Level LOL/NFT Marketplace/contracts/NFTMark.sol\":1766:1771  false */\n      0x00\n        /* \"Intermediate Level LOL/NFT Marketplace/contracts/NFTMark.sol\":1584:1782  MarketItem(... */\n      iszero\n      iszero\n      dup2\n      mstore\n      pop\n        /* \"Intermediate Level LOL/NFT Marketplace/contracts/NFTMark.sol\":1559:1573  idToMarketItem */\n      0x05\n        /* \"Intermediate Level LOL/NFT Marketplace/contracts/NFTMark.sol\":1559:1581  idToMarketItem[itemId] */\n      0x00\n        /* \"Intermediate Level LOL/NFT Marketplace/contracts/NFTMark.sol\":1574:1580  itemId */\n      dup4\n        /* \"Intermediate Level LOL/NFT Marketplace/contracts/NFTMark.sol\":1559:1581  idToMarketItem[itemId] */\n      dup2\n      mstore\n      0x20\n      add\n      swap1\n      dup2\n      mstore\n      0x20\n      add\n      0x00\n      keccak256\n        /* \"Intermediate Level LOL/NFT Marketplace/contracts/NFTMark.sol\":1559:1782  idToMarketItem[itemId] = MarketItem(... */\n      0x00\n      dup3\n      add\n      mload\n      dup2\n      0x00\n      add\n      sstore\n      0x20\n      dup3\n      add\n      mload\n      dup2\n      0x01\n      add\n      exp(0x0100, 0x00)\n      dup2\n      sload\n      dup2\n      0xffffffffffffffffffffffffffffffffffffffff\n      mul\n      not\n      and\n      swap1\n      dup4\n      0xffffffffffffffffffffffffffffffffffffffff\n      and\n      mul\n      or\n      swap1\n      sstore\n      pop\n      0x40\n      dup3\n      add\n      mload\n      dup2\n      0x02\n      add\n      sstore\n      0x60\n      dup3\n      add\n      mload\n      dup2\n      0x03\n      add\n      exp(0x0100, 0x00)\n      dup2\n      sload\n      dup2\n      0xffffffffffffffffffffffffffffffffffffffff\n      mul\n      not\n      and\n      swap1\n      dup4\n      0xffffffffffffffffffffffffffffffffffffffff\n      and\n      mul\n      or\n      swap1\n      sstore\n      pop\n      0x80\n      dup3\n      add\n      mload\n      dup2\n      0x04\n      add\n      exp(0x0100, 0x00)\n      dup2\n      sload\n      dup2\n      0xffffffffffffffffffffffffffffffffffffffff\n      mul\n      not\n      and\n      swap1\n      dup4\n      0xffffffffffffffffffffffffffffffffffffffff\n      and\n      mul\n      or\n      swap1\n      sstore\n      pop\n      0xa0\n      dup3\n      add\n      mload\n      dup2\n      0x05\n      add\n      sstore\n      0xc0\n      dup3\n      add\n      mload\n      dup2\n      0x06\n      add\n      exp(0x0100, 0x00)\n      dup2\n      sload\n      dup2\n      0xff\n      mul\n      not\n      and\n      swap1\n      dup4\n      iszero\n      iszero\n      mul\n      or\n      swap1\n      sstore\n      pop\n      swap1\n      pop\n      pop\n        /* \"Intermediate Level LOL/NFT Marketplace/contracts/NFTMark.sol\":1803:1814  nftContract */\n      dup4\n        /* \"Intermediate Level LOL/NFT Marketplace/contracts/NFTMark.sol\":1795:1828  IERC721(nftContract).transferFrom */\n      0xffffffffffffffffffffffffffffffffffffffff\n      and\n      0x23b872dd\n        /* \"Intermediate Level LOL/NFT Marketplace/contracts/NFTMark.sol\":1829:1839  msg.sender */\n      caller\n        /* \"Intermediate Level LOL/NFT Marketplace/contracts/NFTMark.sol\":1849:1853  this */\n      address\n        /* \"Intermediate Level LOL/NFT Marketplace/contracts/NFTMark.sol\":1856:1863  tokenId */\n      dup7\n        /* \"Intermediate Level LOL/NFT Marketplace/contracts/NFTMark.sol\":1795:1864  IERC721(nftContract).transferFrom(msg.sender, address(this), tokenId) */\n      mload(0x40)\n      dup5\n      0xffffffff\n      and\n      0xe0\n      shl\n      dup2\n      mstore\n      0x04\n      add\n      tag_63\n      swap4\n      swap3\n      swap2\n      swap1\n      tag_64\n      jump\t// in\n    tag_63:\n      0x00\n      mload(0x40)\n      dup1\n      dup4\n      sub\n      dup2\n      0x00\n      dup8\n      dup1\n      extcodesize\n      iszero\n      dup1\n      iszero\n      tag_65\n      jumpi\n      0x00\n      dup1\n      revert\n    tag_65:\n      pop\n      gas\n      call\n      iszero\n      dup1\n      iszero\n      tag_67\n      jumpi\n      returndatasize\n      0x00\n      dup1\n      returndatacopy\n      revert(0x00, returndatasize)\n    tag_67:\n      pop\n      pop\n      pop\n      pop\n        /* \"Intermediate Level LOL/NFT Marketplace/contracts/NFTMark.sol\":1961:1968  tokenId */\n      dup3\n        /* \"Intermediate Level LOL/NFT Marketplace/contracts/NFTMark.sol\":1935:1946  nftContract */\n      dup5\n        /* \"Intermediate Level LOL/NFT Marketplace/contracts/NFTMark.sol\":1882:2069  MarketItemCreated(... */\n      0xffffffffffffffffffffffffffffffffffffffff\n      and\n        /* \"Intermediate Level LOL/NFT Marketplace/contracts/NFTMark.sol\":1914:1920  itemId */\n      dup3\n        /* \"Intermediate Level LOL/NFT Marketplace/contracts/NFTMark.sol\":1882:2069  MarketItemCreated(... */\n      0x045dfa01dcba2b36aba1d3dc4a874f4b0c5d2fbeb8d2c4b34a7d88c8d8f929d1\n        /* \"Intermediate Level LOL/NFT Marketplace/contracts/NFTMark.sol\":1983:1993  msg.sender */\n      caller\n        /* \"Intermediate Level LOL/NFT Marketplace/contracts/NFTMark.sol\":2016:2017  0 */\n      0x00\n        /* \"Intermediate Level LOL/NFT Marketplace/contracts/NFTMark.sol\":2033:2038  price */\n      dup8\n        /* \"Intermediate Level LOL/NFT Marketplace/contracts/NFTMark.sol\":2053:2058  false */\n      0x00\n        /* \"Intermediate Level LOL/NFT Marketplace/contracts/NFTMark.sol\":1882:2069  MarketItemCreated(... */\n      mload(0x40)\n      tag_68\n      swap5\n      swap4\n      swap3\n      swap2\n      swap1\n      tag_69\n      jump\t// in\n    tag_68:\n      mload(0x40)\n      dup1\n      swap2\n      sub\n      swap1\n      log4\n        /* \"Intermediate Level LOL/NFT Marketplace/contracts/NFTMark.sol\":1321:2077  {... */\n      pop\n        /* \"@openzeppelin/contracts/security/ReentrancyGuard.sol\":2303:2323  _nonReentrantAfter() */\n      tag_70\n        /* \"@openzeppelin/contracts/security/ReentrancyGuard.sol\":2303:2321  _nonReentrantAfter */\n      tag_71\n        /* \"@openzeppelin/contracts/security/ReentrancyGuard.sol\":2303:2323  _nonReentrantAfter() */\n      jump\t// in\n    tag_70:\n        /* \"Intermediate Level LOL/NFT Marketplace/contracts/NFTMark.sol\":1180:2077  function createMarketItem(... */\n      pop\n      pop\n      pop\n      jump\t// out\n        /* \"Intermediate Level LOL/NFT Marketplace/contracts/NFTMark.sol\":2085:2724  function createMarketSale(... */\n    tag_23:\n        /* \"@openzeppelin/contracts/security/ReentrancyGuard.sol\":2261:2282  _nonReentrantBefore() */\n      tag_73\n        /* \"@openzeppelin/contracts/security/ReentrancyGuard.sol\":2261:2280  _nonReentrantBefore */\n      tag_52\n        /* \"@openzeppelin/contracts/security/ReentrancyGuard.sol\":2261:2282  _nonReentrantBefore() */\n      jump\t// in\n    tag_73:\n        /* \"Intermediate Level LOL/NFT Marketplace/contracts/NFTMark.sol\":2212:2225  uint256 price */\n      0x00\n        /* \"Intermediate Level LOL/NFT Marketplace/contracts/NFTMark.sol\":2228:2242  idToMarketItem */\n      0x05\n        /* \"Intermediate Level LOL/NFT Marketplace/contracts/NFTMark.sol\":2228:2250  idToMarketItem[itemId] */\n      0x00\n        /* \"Intermediate Level LOL/NFT Marketplace/contracts/NFTMark.sol\":2243:2249  itemId */\n      dup4\n        /* \"Intermediate Level LOL/NFT Marketplace/contracts/NFTMark.sol\":2228:2250  idToMarketItem[itemId] */\n      dup2\n      mstore\n      0x20\n      add\n      swap1\n      dup2\n      mstore\n      0x20\n      add\n      0x00\n      keccak256\n        /* \"Intermediate Level LOL/NFT Marketplace/contracts/NFTMark.sol\":2228:2256  idToMarketItem[itemId].price */\n      0x05\n      add\n      sload\n        /* \"Intermediate Level LOL/NFT Marketplace/contracts/NFTMark.sol\":2212:2256  uint256 price = idToMarketItem[itemId].price */\n      swap1\n      pop\n        /* \"Intermediate Level LOL/NFT Marketplace/contracts/NFTMark.sol\":2267:2282  uint256 tokenId */\n      0x00\n        /* \"Intermediate Level LOL/NFT Marketplace/contracts/NFTMark.sol\":2285:2299  idToMarketItem */\n      0x05\n        /* \"Intermediate Level LOL/NFT Marketplace/contracts/NFTMark.sol\":2285:2307  idToMarketItem[itemId] */\n      0x00\n        /* \"Intermediate Level LOL/NFT Marketplace/contracts/NFTMark.sol\":2300:2306  itemId */\n      dup5\n        /* \"Intermediate Level LOL/NFT Marketplace/contracts/NFTMark.sol\":2285:2307  idToMarketItem[itemId] */\n      dup2\n      mstore\n      0x20\n      add\n      swap1\n      dup2\n      mstore\n      0x20\n      add\n      0x00\n      keccak256\n        /* \"Intermediate Level LOL/NFT Marketplace/contracts/NFTMark.sol\":2285:2315  idToMarketItem[itemId].tokenId */\n      0x02\n      add\n      sload\n        /* \"Intermediate Level LOL/NFT Marketplace/contracts/NFTMark.sol\":2267:2315  uint256 tokenId = idToMarketItem[itemId].tokenId */\n      swap1\n      pop\n        /* \"Intermediate Level LOL/NFT Marketplace/contracts/NFTMark.sol\":2347:2352  price */\n      dup2\n        /* \"Intermediate Level LOL/NFT Marketplace/contracts/NFTMark.sol\":2334:2343  msg.value */\n      callvalue\n        /* \"Intermediate Level LOL/NFT Marketplace/contracts/NFTMark.sol\":2334:2352  msg.value == price */\n      eq\n        /* \"Intermediate Level LOL/NFT Marketplace/contracts/NFTMark.sol\":2326:2387  require(msg.value == price, \"Please submit the asking price\") */\n      tag_75\n      jumpi\n      mload(0x40)\n      0x08c379a000000000000000000000000000000000000000000000000000000000\n      dup2\n      mstore\n      0x04\n      add\n      tag_76\n      swap1\n      tag_77\n      jump\t// in\n    tag_76:\n      mload(0x40)\n      dup1\n      swap2\n      sub\n      swap1\n      revert\n    tag_75:\n        /* \"Intermediate Level LOL/NFT Marketplace/contracts/NFTMark.sol\":2400:2414  idToMarketItem */\n      0x05\n        /* \"Intermediate Level LOL/NFT Marketplace/contracts/NFTMark.sol\":2400:2422  idToMarketItem[itemId] */\n      0x00\n        /* \"Intermediate Level LOL/NFT Marketplace/contracts/NFTMark.sol\":2415:2421  itemId */\n      dup5\n        /* \"Intermediate Level LOL/NFT Marketplace/contracts/NFTMark.sol\":2400:2422  idToMarketItem[itemId] */\n      dup2\n      mstore\n      0x20\n      add\n      swap1\n      dup2\n      mstore\n      0x20\n      add\n      0x00\n      keccak256\n        /* \"Intermediate Level LOL/NFT Marketplace/contracts/NFTMark.sol\":2400:2429  idToMarketItem[itemId].seller */\n      0x03\n      add\n      0x00\n      swap1\n      sload\n      swap1\n      0x0100\n      exp\n      swap1\n      div\n      0xffffffffffffffffffffffffffffffffffffffff\n      and\n        /* \"Intermediate Level LOL/NFT Marketplace/contracts/NFTMark.sol\":2400:2438  idToMarketItem[itemId].seller.transfer */\n      0xffffffffffffffffffffffffffffffffffffffff\n      and\n        /* \"Intermediate Level LOL/NFT Marketplace/contracts/NFTMark.sol\":2400:2449  idToMarketItem[itemId].seller.transfer(msg.value) */\n      0x08fc\n        /* \"Intermediate Level LOL/NFT Marketplace/contracts/NFTMark.sol\":2439:2448  msg.value */\n      callvalue\n        /* \"Intermediate Level LOL/NFT Marketplace/contracts/NFTMark.sol\":2400:2449  idToMarketItem[itemId].seller.transfer(msg.value) */\n      swap1\n      dup2\n      iszero\n      mul\n      swap1\n      mload(0x40)\n      0x00\n      mload(0x40)\n      dup1\n      dup4\n      sub\n      dup2\n      dup6\n      dup9\n      dup9\n      call\n      swap4\n      pop\n      pop\n      pop\n      pop\n      iszero\n      dup1\n      iszero\n      tag_79\n      jumpi\n      returndatasize\n      0x00\n      dup1\n      returndatacopy\n      revert(0x00, returndatasize)\n    tag_79:\n      pop\n        /* \"Intermediate Level LOL/NFT Marketplace/contracts/NFTMark.sol\":2468:2479  nftContract */\n      dup4\n        /* \"Intermediate Level LOL/NFT Marketplace/contracts/NFTMark.sol\":2460:2493  IERC721(nftContract).transferFrom */\n      0xffffffffffffffffffffffffffffffffffffffff\n      and\n      0x23b872dd\n        /* \"Intermediate Level LOL/NFT Marketplace/contracts/NFTMark.sol\":2502:2506  this */\n      address\n        /* \"Intermediate Level LOL/NFT Marketplace/contracts/NFTMark.sol\":2509:2519  msg.sender */\n      caller\n        /* \"Intermediate Level LOL/NFT Marketplace/contracts/NFTMark.sol\":2521:2528  tokenId */\n      dup5\n        /* \"Intermediate Level LOL/NFT Marketplace/contracts/NFTMark.sol\":2460:2529  IERC721(nftContract).transferFrom(address(this), msg.sender, tokenId) */\n      mload(0x40)\n      dup5\n      0xffffffff\n      and\n      0xe0\n      shl\n      dup2\n      mstore\n      0x04\n      add\n      tag_80\n      swap4\n      swap3\n      swap2\n      swap1\n      tag_64\n      jump\t// in\n    tag_80:\n      0x00\n      mload(0x40)\n      dup1\n      dup4\n      sub\n      dup2\n      0x00\n      dup8\n      dup1\n      extcodesize\n      iszero\n      dup1\n      iszero\n      tag_81\n      jumpi\n      0x00\n      dup1\n      revert\n    tag_81:\n      pop\n      gas\n      call\n      iszero\n      dup1\n      iszero\n      tag_83\n      jumpi\n      returndatasize\n      0x00\n      dup1\n      returndatacopy\n      revert(0x00, returndatasize)\n    tag_83:\n      pop\n      pop\n      pop\n      pop\n        /* \"Intermediate Level LOL/NFT Marketplace/contracts/NFTMark.sol\":2579:2589  msg.sender */\n      caller\n        /* \"Intermediate Level LOL/NFT Marketplace/contracts/NFTMark.sol\":2540:2554  idToMarketItem */\n      0x05\n        /* \"Intermediate Level LOL/NFT Marketplace/contracts/NFTMark.sol\":2540:2562  idToMarketItem[itemId] */\n      0x00\n        /* \"Intermediate Level LOL/NFT Marketplace/contracts/NFTMark.sol\":2555:2561  itemId */\n      dup6\n        /* \"Intermediate Level LOL/NFT Marketplace/contracts/NFTMark.sol\":2540:2562  idToMarketItem[itemId] */\n      dup2\n      mstore\n      0x20\n      add\n      swap1\n      dup2\n      mstore\n      0x20\n      add\n      0x00\n      keccak256\n        /* \"Intermediate Level LOL/NFT Marketplace/contracts/NFTMark.sol\":2540:2568  idToMarketItem[itemId].owner */\n      0x04\n      add\n      0x00\n        /* \"Intermediate Level LOL/NFT Marketplace/contracts/NFTMark.sol\":2540:2590  idToMarketItem[itemId].owner = payable(msg.sender) */\n      0x0100\n      exp\n      dup2\n      sload\n      dup2\n      0xffffffffffffffffffffffffffffffffffffffff\n      mul\n      not\n      and\n      swap1\n      dup4\n      0xffffffffffffffffffffffffffffffffffffffff\n      and\n      mul\n      or\n      swap1\n      sstore\n      pop\n        /* \"Intermediate Level LOL/NFT Marketplace/contracts/NFTMark.sol\":2631:2635  true */\n      0x01\n        /* \"Intermediate Level LOL/NFT Marketplace/contracts/NFTMark.sol\":2601:2615  idToMarketItem */\n      0x05\n        /* \"Intermediate Level LOL/NFT Marketplace/contracts/NFTMark.sol\":2601:2623  idToMarketItem[itemId] */\n      0x00\n        /* \"Intermediate Level LOL/NFT Marketplace/contracts/NFTMark.sol\":2616:2622  itemId */\n      dup6\n        /* \"Intermediate Level LOL/NFT Marketplace/contracts/NFTMark.sol\":2601:2623  idToMarketItem[itemId] */\n      dup2\n      mstore\n      0x20\n      add\n      swap1\n      dup2\n      mstore\n      0x20\n      add\n      0x00\n      keccak256\n        /* \"Intermediate Level LOL/NFT Marketplace/contracts/NFTMark.sol\":2601:2628  idToMarketItem[itemId].sold */\n      0x06\n      add\n      0x00\n        /* \"Intermediate Level LOL/NFT Marketplace/contracts/NFTMark.sol\":2601:2635  idToMarketItem[itemId].sold = true */\n      0x0100\n      exp\n      dup2\n      sload\n      dup2\n      0xff\n      mul\n      not\n      and\n      swap1\n      dup4\n      iszero\n      iszero\n      mul\n      or\n      swap1\n      sstore\n      pop\n        /* \"Intermediate Level LOL/NFT Marketplace/contracts/NFTMark.sol\":2646:2668  _itemsSold.increment() */\n      tag_84\n        /* \"Intermediate Level LOL/NFT Marketplace/contracts/NFTMark.sol\":2646:2656  _itemsSold */\n      0x02\n        /* \"Intermediate Level LOL/NFT Marketplace/contracts/NFTMark.sol\":2646:2666  _itemsSold.increment */\n      tag_61\n        /* \"Intermediate Level LOL/NFT Marketplace/contracts/NFTMark.sol\":2646:2668  _itemsSold.increment() */\n      jump\t// in\n    tag_84:\n        /* \"Intermediate Level LOL/NFT Marketplace/contracts/NFTMark.sol\":2687:2692  owner */\n      0x03\n      0x00\n      swap1\n      sload\n      swap1\n      0x0100\n      exp\n      swap1\n      div\n      0xffffffffffffffffffffffffffffffffffffffff\n      and\n        /* \"Intermediate Level LOL/NFT Marketplace/contracts/NFTMark.sol\":2679:2702  payable(owner).transfer */\n      0xffffffffffffffffffffffffffffffffffffffff\n      and\n        /* \"Intermediate Level LOL/NFT Marketplace/contracts/NFTMark.sol\":2679:2716  payable(owner).transfer(listingPrice) */\n      0x08fc\n        /* \"Intermediate Level LOL/NFT Marketplace/contracts/NFTMark.sol\":2703:2715  listingPrice */\n      sload(0x04)\n        /* \"Intermediate Level LOL/NFT Marketplace/contracts/NFTMark.sol\":2679:2716  payable(owner).transfer(listingPrice) */\n      swap1\n      dup2\n      iszero\n      mul\n      swap1\n      mload(0x40)\n      0x00\n      mload(0x40)\n      dup1\n      dup4\n      sub\n      dup2\n      dup6\n      dup9\n      dup9\n      call\n      swap4\n      pop\n      pop\n      pop\n      pop\n      iszero\n      dup1\n      iszero\n      tag_86\n      jumpi\n      returndatasize\n      0x00\n      dup1\n      returndatacopy\n      revert(0x00, returndatasize)\n    tag_86:\n      pop\n        /* \"Intermediate Level LOL/NFT Marketplace/contracts/NFTMark.sol\":2201:2724  {... */\n      pop\n      pop\n        /* \"@openzeppelin/contracts/security/ReentrancyGuard.sol\":2303:2323  _nonReentrantAfter() */\n      tag_87\n        /* \"@openzeppelin/contracts/security/ReentrancyGuard.sol\":2303:2321  _nonReentrantAfter */\n      tag_71\n        /* \"@openzeppelin/contracts/security/ReentrancyGuard.sol\":2303:2323  _nonReentrantAfter() */\n      jump\t// in\n    tag_87:\n        /* \"Intermediate Level LOL/NFT Marketplace/contracts/NFTMark.sol\":2085:2724  function createMarketSale(... */\n      pop\n      pop\n      jump\t// out\n        /* \"@openzeppelin/contracts/utils/Counters.sol\":827:939  function current(Counter storage counter) internal view returns (uint256) {... */\n    tag_26:\n        /* \"@openzeppelin/contracts/utils/Counters.sol\":892:899  uint256 */\n      0x00\n        /* \"@openzeppelin/contracts/utils/Counters.sol\":918:925  counter */\n      dup2\n        /* \"@openzeppelin/contracts/utils/Counters.sol\":918:932  counter._value */\n      0x00\n      add\n      sload\n        /* \"@openzeppelin/contracts/utils/Counters.sol\":911:932  return counter._value */\n      swap1\n      pop\n        /* \"@openzeppelin/contracts/utils/Counters.sol\":827:939  function current(Counter storage counter) internal view returns (uint256) {... */\n      swap2\n      swap1\n      pop\n      jump\t// out\n        /* \"@openzeppelin/contracts/security/ReentrancyGuard.sol\":2336:2623  function _nonReentrantBefore() private {... */\n    tag_52:\n        /* \"@openzeppelin/contracts/security/ReentrancyGuard.sol\":1759:1760  2 */\n      0x02\n        /* \"@openzeppelin/contracts/security/ReentrancyGuard.sol\":2468:2475  _status */\n      sload(0x00)\n        /* \"@openzeppelin/contracts/security/ReentrancyGuard.sol\":2468:2487  _status != _ENTERED */\n      sub\n        /* \"@openzeppelin/contracts/security/ReentrancyGuard.sol\":2460:2523  require(_status != _ENTERED, \"ReentrancyGuard: reentrant call\") */\n      tag_90\n      jumpi\n      mload(0x40)\n      0x08c379a000000000000000000000000000000000000000000000000000000000\n      dup2\n      mstore\n      0x04\n      add\n      tag_91\n      swap1\n      tag_92\n      jump\t// in\n    tag_91:\n      mload(0x40)\n      dup1\n      swap2\n      sub\n      swap1\n      revert\n    tag_90:\n        /* \"@openzeppelin/contracts/security/ReentrancyGuard.sol\":1759:1760  2 */\n      0x02\n        /* \"@openzeppelin/contracts/security/ReentrancyGuard.sol\":2598:2605  _status */\n      0x00\n        /* \"@openzeppelin/contracts/security/ReentrancyGuard.sol\":2598:2616  _status = _ENTERED */\n      dup2\n      swap1\n      sstore\n      pop\n        /* \"@openzeppelin/contracts/security/ReentrancyGuard.sol\":2336:2623  function _nonReentrantBefore() private {... */\n      jump\t// out\n        /* \"@openzeppelin/contracts/utils/Counters.sol\":945:1068  function increment(Counter storage counter) internal {... */\n    tag_61:\n        /* \"@openzeppelin/contracts/utils/Counters.sol\":1050:1051  1 */\n      0x01\n        /* \"@openzeppelin/contracts/utils/Counters.sol\":1032:1039  counter */\n      dup2\n        /* \"@openzeppelin/contracts/utils/Counters.sol\":1032:1046  counter._value */\n      0x00\n      add\n      0x00\n        /* \"@openzeppelin/contracts/utils/Counters.sol\":1032:1051  counter._value += 1 */\n      dup3\n      dup3\n      sload\n      add\n      swap3\n      pop\n      pop\n      dup2\n      swap1\n      sstore\n      pop\n        /* \"@openzeppelin/contracts/utils/Counters.sol\":945:1068  function increment(Counter storage counter) internal {... */\n      pop\n      jump\t// out\n        /* \"@openzeppelin/contracts/security/ReentrancyGuard.sol\":2629:2838  function _nonReentrantAfter() private {... */\n    tag_71:\n        /* \"@openzeppelin/contracts/security/ReentrancyGuard.sol\":1716:1717  1 */\n      0x01\n        /* \"@openzeppelin/contracts/security/ReentrancyGuard.sol\":2809:2816  _status */\n      0x00\n        /* \"@openzeppelin/contracts/security/ReentrancyGuard.sol\":2809:2831  _status = _NOT_ENTERED */\n      dup2\n      swap1\n      sstore\n      pop\n        /* \"@openzeppelin/contracts/security/ReentrancyGuard.sol\":2629:2838  function _nonReentrantAfter() private {... */\n      jump\t// out\n    tag_37:\n      mload(0x40)\n      dup1\n      0xe0\n      add\n      0x40\n      mstore\n      dup1\n      0x00\n      dup2\n      mstore\n      0x20\n      add\n      and(0xffffffffffffffffffffffffffffffffffffffff, 0x00)\n      dup2\n      mstore\n      0x20\n      add\n      0x00\n      dup2\n      mstore\n      0x20\n      add\n      and(0xffffffffffffffffffffffffffffffffffffffff, 0x00)\n      dup2\n      mstore\n      0x20\n      add\n      and(0xffffffffffffffffffffffffffffffffffffffff, 0x00)\n      dup2\n      mstore\n      0x20\n      add\n      0x00\n      dup2\n      mstore\n      0x20\n      add\n      iszero(iszero(0x00))\n      dup2\n      mstore\n      pop\n      swap1\n      jump\t// out\n        /* \"#utility.yul\":7:149   */\n    tag_95:\n        /* \"#utility.yul\":102:108   */\n      0x00\n        /* \"#utility.yul\":136:141   */\n      dup2\n        /* \"#utility.yul\":130:142   */\n      mload\n        /* \"#utility.yul\":120:142   */\n      swap1\n      pop\n        /* \"#utility.yul\":7:149   */\n      swap2\n      swap1\n      pop\n      jump\t// out\n        /* \"#utility.yul\":155:367   */\n    tag_96:\n        /* \"#utility.yul\":282:293   */\n      0x00\n        /* \"#utility.yul\":316:322   */\n      dup3\n        /* \"#utility.yul\":311:314   */\n      dup3\n        /* \"#utility.yul\":304:323   */\n      mstore\n        /* \"#utility.yul\":356:360   */\n      0x20\n        /* \"#utility.yul\":351:354   */\n      dup3\n        /* \"#utility.yul\":347:361   */\n      add\n        /* \"#utility.yul\":332:361   */\n      swap1\n      pop\n        /* \"#utility.yul\":155:367   */\n      swap3\n      swap2\n      pop\n      pop\n      jump\t// out\n        /* \"#utility.yul\":373:533   */\n    tag_97:\n        /* \"#utility.yul\":468:472   */\n      0x00\n        /* \"#utility.yul\":491:494   */\n      dup2\n        /* \"#utility.yul\":483:494   */\n      swap1\n      pop\n        /* \"#utility.yul\":521:525   */\n      0x20\n        /* \"#utility.yul\":516:519   */\n      dup3\n        /* \"#utility.yul\":512:526   */\n      add\n        /* \"#utility.yul\":504:526   */\n      swap1\n      pop\n        /* \"#utility.yul\":373:533   */\n      swap2\n      swap1\n      pop\n      jump\t// out\n        /* \"#utility.yul\":539:616   */\n    tag_98:\n        /* \"#utility.yul\":576:583   */\n      0x00\n        /* \"#utility.yul\":605:610   */\n      dup2\n        /* \"#utility.yul\":594:610   */\n      swap1\n      pop\n        /* \"#utility.yul\":539:616   */\n      swap2\n      swap1\n      pop\n      jump\t// out\n        /* \"#utility.yul\":622:730   */\n    tag_99:\n        /* \"#utility.yul\":699:723   */\n      tag_137\n        /* \"#utility.yul\":717:722   */\n      dup2\n        /* \"#utility.yul\":699:723   */\n      tag_98\n      jump\t// in\n    tag_137:\n        /* \"#utility.yul\":694:697   */\n      dup3\n        /* \"#utility.yul\":687:724   */\n      mstore\n        /* \"#utility.yul\":622:730   */\n      pop\n      pop\n      jump\t// out\n        /* \"#utility.yul\":736:862   */\n    tag_100:\n        /* \"#utility.yul\":773:780   */\n      0x00\n        /* \"#utility.yul\":813:855   */\n      0xffffffffffffffffffffffffffffffffffffffff\n        /* \"#utility.yul\":806:811   */\n      dup3\n        /* \"#utility.yul\":802:856   */\n      and\n        /* \"#utility.yul\":791:856   */\n      swap1\n      pop\n        /* \"#utility.yul\":736:862   */\n      swap2\n      swap1\n      pop\n      jump\t// out\n        /* \"#utility.yul\":868:964   */\n    tag_101:\n        /* \"#utility.yul\":905:912   */\n      0x00\n        /* \"#utility.yul\":934:958   */\n      tag_140\n        /* \"#utility.yul\":952:957   */\n      dup3\n        /* \"#utility.yul\":934:958   */\n      tag_100\n      jump\t// in\n    tag_140:\n        /* \"#utility.yul\":923:958   */\n      swap1\n      pop\n        /* \"#utility.yul\":868:964   */\n      swap2\n      swap1\n      pop\n      jump\t// out\n        /* \"#utility.yul\":970:1078   */\n    tag_102:\n        /* \"#utility.yul\":1047:1071   */\n      tag_142\n        /* \"#utility.yul\":1065:1070   */\n      dup2\n        /* \"#utility.yul\":1047:1071   */\n      tag_101\n      jump\t// in\n    tag_142:\n        /* \"#utility.yul\":1042:1045   */\n      dup3\n        /* \"#utility.yul\":1035:1072   */\n      mstore\n        /* \"#utility.yul\":970:1078   */\n      pop\n      pop\n      jump\t// out\n        /* \"#utility.yul\":1084:1188   */\n    tag_103:\n        /* \"#utility.yul\":1129:1136   */\n      0x00\n        /* \"#utility.yul\":1158:1182   */\n      tag_144\n        /* \"#utility.yul\":1176:1181   */\n      dup3\n        /* \"#utility.yul\":1158:1182   */\n      tag_100\n      jump\t// in\n    tag_144:\n        /* \"#utility.yul\":1147:1182   */\n      swap1\n      pop\n        /* \"#utility.yul\":1084:1188   */\n      swap2\n      swap1\n      pop\n      jump\t// out\n        /* \"#utility.yul\":1194:1326   */\n    tag_104:\n        /* \"#utility.yul\":1287:1319   */\n      tag_146\n        /* \"#utility.yul\":1313:1318   */\n      dup2\n        /* \"#utility.yul\":1287:1319   */\n      tag_103\n      jump\t// in\n    tag_146:\n        /* \"#utility.yul\":1282:1285   */\n      dup3\n        /* \"#utility.yul\":1275:1320   */\n      mstore\n        /* \"#utility.yul\":1194:1326   */\n      pop\n      pop\n      jump\t// out\n        /* \"#utility.yul\":1332:1422   */\n    tag_105:\n        /* \"#utility.yul\":1366:1373   */\n      0x00\n        /* \"#utility.yul\":1409:1414   */\n      dup2\n        /* \"#utility.yul\":1402:1415   */\n      iszero\n        /* \"#utility.yul\":1395:1416   */\n      iszero\n        /* \"#utility.yul\":1384:1416   */\n      swap1\n      pop\n        /* \"#utility.yul\":1332:1422   */\n      swap2\n      swap1\n      pop\n      jump\t// out\n        /* \"#utility.yul\":1428:1527   */\n    tag_106:\n        /* \"#utility.yul\":1499:1520   */\n      tag_149\n        /* \"#utility.yul\":1514:1519   */\n      dup2\n        /* \"#utility.yul\":1499:1520   */\n      tag_105\n      jump\t// in\n    tag_149:\n        /* \"#utility.yul\":1494:1497   */\n      dup3\n        /* \"#utility.yul\":1487:1521   */\n      mstore\n        /* \"#utility.yul\":1428:1527   */\n      pop\n      pop\n      jump\t// out\n        /* \"#utility.yul\":1609:3024   */\n    tag_107:\n        /* \"#utility.yul\":1752:1756   */\n      0xe0\n        /* \"#utility.yul\":1747:1750   */\n      dup3\n        /* \"#utility.yul\":1743:1757   */\n      add\n        /* \"#utility.yul\":1841:1845   */\n      0x00\n        /* \"#utility.yul\":1834:1839   */\n      dup3\n        /* \"#utility.yul\":1830:1846   */\n      add\n        /* \"#utility.yul\":1824:1847   */\n      mload\n        /* \"#utility.yul\":1860:1923   */\n      tag_151\n        /* \"#utility.yul\":1917:1921   */\n      0x00\n        /* \"#utility.yul\":1912:1915   */\n      dup6\n        /* \"#utility.yul\":1908:1922   */\n      add\n        /* \"#utility.yul\":1894:1906   */\n      dup3\n        /* \"#utility.yul\":1860:1923   */\n      tag_99\n      jump\t// in\n    tag_151:\n        /* \"#utility.yul\":1767:1933   */\n      pop\n        /* \"#utility.yul\":2022:2026   */\n      0x20\n        /* \"#utility.yul\":2015:2020   */\n      dup3\n        /* \"#utility.yul\":2011:2027   */\n      add\n        /* \"#utility.yul\":2005:2028   */\n      mload\n        /* \"#utility.yul\":2041:2104   */\n      tag_152\n        /* \"#utility.yul\":2098:2102   */\n      0x20\n        /* \"#utility.yul\":2093:2096   */\n      dup6\n        /* \"#utility.yul\":2089:2103   */\n      add\n        /* \"#utility.yul\":2075:2087   */\n      dup3\n        /* \"#utility.yul\":2041:2104   */\n      tag_102\n      jump\t// in\n    tag_152:\n        /* \"#utility.yul\":1943:2114   */\n      pop\n        /* \"#utility.yul\":2199:2203   */\n      0x40\n        /* \"#utility.yul\":2192:2197   */\n      dup3\n        /* \"#utility.yul\":2188:2204   */\n      add\n        /* \"#utility.yul\":2182:2205   */\n      mload\n        /* \"#utility.yul\":2218:2281   */\n      tag_153\n        /* \"#utility.yul\":2275:2279   */\n      0x40\n        /* \"#utility.yul\":2270:2273   */\n      dup6\n        /* \"#utility.yul\":2266:2280   */\n      add\n        /* \"#utility.yul\":2252:2264   */\n      dup3\n        /* \"#utility.yul\":2218:2281   */\n      tag_99\n      jump\t// in\n    tag_153:\n        /* \"#utility.yul\":2124:2291   */\n      pop\n        /* \"#utility.yul\":2375:2379   */\n      0x60\n        /* \"#utility.yul\":2368:2373   */\n      dup3\n        /* \"#utility.yul\":2364:2380   */\n      add\n        /* \"#utility.yul\":2358:2381   */\n      mload\n        /* \"#utility.yul\":2394:2473   */\n      tag_154\n        /* \"#utility.yul\":2467:2471   */\n      0x60\n        /* \"#utility.yul\":2462:2465   */\n      dup6\n        /* \"#utility.yul\":2458:2472   */\n      add\n        /* \"#utility.yul\":2444:2456   */\n      dup3\n        /* \"#utility.yul\":2394:2473   */\n      tag_104\n      jump\t// in\n    tag_154:\n        /* \"#utility.yul\":2301:2483   */\n      pop\n        /* \"#utility.yul\":2566:2570   */\n      0x80\n        /* \"#utility.yul\":2559:2564   */\n      dup3\n        /* \"#utility.yul\":2555:2571   */\n      add\n        /* \"#utility.yul\":2549:2572   */\n      mload\n        /* \"#utility.yul\":2585:2664   */\n      tag_155\n        /* \"#utility.yul\":2658:2662   */\n      0x80\n        /* \"#utility.yul\":2653:2656   */\n      dup6\n        /* \"#utility.yul\":2649:2663   */\n      add\n        /* \"#utility.yul\":2635:2647   */\n      dup3\n        /* \"#utility.yul\":2585:2664   */\n      tag_104\n      jump\t// in\n    tag_155:\n        /* \"#utility.yul\":2493:2674   */\n      pop\n        /* \"#utility.yul\":2757:2761   */\n      0xa0\n        /* \"#utility.yul\":2750:2755   */\n      dup3\n        /* \"#utility.yul\":2746:2762   */\n      add\n        /* \"#utility.yul\":2740:2763   */\n      mload\n        /* \"#utility.yul\":2776:2839   */\n      tag_156\n        /* \"#utility.yul\":2833:2837   */\n      0xa0\n        /* \"#utility.yul\":2828:2831   */\n      dup6\n        /* \"#utility.yul\":2824:2838   */\n      add\n        /* \"#utility.yul\":2810:2822   */\n      dup3\n        /* \"#utility.yul\":2776:2839   */\n      tag_99\n      jump\t// in\n    tag_156:\n        /* \"#utility.yul\":2684:2849   */\n      pop\n        /* \"#utility.yul\":2931:2935   */\n      0xc0\n        /* \"#utility.yul\":2924:2929   */\n      dup3\n        /* \"#utility.yul\":2920:2936   */\n      add\n        /* \"#utility.yul\":2914:2937   */\n      mload\n        /* \"#utility.yul\":2950:3007   */\n      tag_157\n        /* \"#utility.yul\":3001:3005   */\n      0xc0\n        /* \"#utility.yul\":2996:2999   */\n      dup6\n        /* \"#utility.yul\":2992:3006   */\n      add\n        /* \"#utility.yul\":2978:2990   */\n      dup3\n        /* \"#utility.yul\":2950:3007   */\n      tag_106\n      jump\t// in\n    tag_157:\n        /* \"#utility.yul\":2859:3017   */\n      pop\n        /* \"#utility.yul\":1721:3024   */\n      pop\n        /* \"#utility.yul\":1609:3024   */\n      pop\n      pop\n      jump\t// out\n        /* \"#utility.yul\":3030:3321   */\n    tag_108:\n        /* \"#utility.yul\":3155:3165   */\n      0x00\n        /* \"#utility.yul\":3176:3278   */\n      tag_159\n        /* \"#utility.yul\":3274:3277   */\n      dup4\n        /* \"#utility.yul\":3266:3272   */\n      dup4\n        /* \"#utility.yul\":3176:3278   */\n      tag_107\n      jump\t// in\n    tag_159:\n        /* \"#utility.yul\":3310:3314   */\n      0xe0\n        /* \"#utility.yul\":3305:3308   */\n      dup4\n        /* \"#utility.yul\":3301:3315   */\n      add\n        /* \"#utility.yul\":3287:3315   */\n      swap1\n      pop\n        /* \"#utility.yul\":3030:3321   */\n      swap3\n      swap2\n      pop\n      pop\n      jump\t// out\n        /* \"#utility.yul\":3327:3468   */\n    tag_109:\n        /* \"#utility.yul\":3425:3429   */\n      0x00\n        /* \"#utility.yul\":3457:3461   */\n      0x20\n        /* \"#utility.yul\":3452:3455   */\n      dup3\n        /* \"#utility.yul\":3448:3462   */\n      add\n        /* \"#utility.yul\":3440:3462   */\n      swap1\n      pop\n        /* \"#utility.yul\":3327:3468   */\n      swap2\n      swap1\n      pop\n      jump\t// out\n        /* \"#utility.yul\":3554:4510   */\n    tag_110:\n        /* \"#utility.yul\":3729:3732   */\n      0x00\n        /* \"#utility.yul\":3758:3840   */\n      tag_162\n        /* \"#utility.yul\":3834:3839   */\n      dup3\n        /* \"#utility.yul\":3758:3840   */\n      tag_95\n      jump\t// in\n    tag_162:\n        /* \"#utility.yul\":3856:3970   */\n      tag_163\n        /* \"#utility.yul\":3963:3969   */\n      dup2\n        /* \"#utility.yul\":3958:3961   */\n      dup6\n        /* \"#utility.yul\":3856:3970   */\n      tag_96\n      jump\t// in\n    tag_163:\n        /* \"#utility.yul\":3849:3970   */\n      swap4\n      pop\n        /* \"#utility.yul\":3994:4078   */\n      tag_164\n        /* \"#utility.yul\":4072:4077   */\n      dup4\n        /* \"#utility.yul\":3994:4078   */\n      tag_97\n      jump\t// in\n    tag_164:\n        /* \"#utility.yul\":4101:4108   */\n      dup1\n        /* \"#utility.yul\":4132:4133   */\n      0x00\n        /* \"#utility.yul\":4117:4485   */\n    tag_165:\n        /* \"#utility.yul\":4142:4148   */\n      dup4\n        /* \"#utility.yul\":4139:4140   */\n      dup2\n        /* \"#utility.yul\":4136:4149   */\n      lt\n        /* \"#utility.yul\":4117:4485   */\n      iszero\n      tag_167\n      jumpi\n        /* \"#utility.yul\":4218:4224   */\n      dup2\n        /* \"#utility.yul\":4212:4225   */\n      mload\n        /* \"#utility.yul\":4245:4364   */\n      tag_168\n        /* \"#utility.yul\":4360:4363   */\n      dup9\n        /* \"#utility.yul\":4345:4358   */\n      dup3\n        /* \"#utility.yul\":4245:4364   */\n      tag_108\n      jump\t// in\n    tag_168:\n        /* \"#utility.yul\":4238:4364   */\n      swap8\n      pop\n        /* \"#utility.yul\":4387:4475   */\n      tag_169\n        /* \"#utility.yul\":4468:4474   */\n      dup4\n        /* \"#utility.yul\":4387:4475   */\n      tag_109\n      jump\t// in\n    tag_169:\n        /* \"#utility.yul\":4377:4475   */\n      swap3\n      pop\n        /* \"#utility.yul\":4177:4485   */\n      pop\n        /* \"#utility.yul\":4164:4165   */\n      0x01\n        /* \"#utility.yul\":4161:4162   */\n      dup2\n        /* \"#utility.yul\":4157:4166   */\n      add\n        /* \"#utility.yul\":4152:4166   */\n      swap1\n      pop\n        /* \"#utility.yul\":4117:4485   */\n      jump(tag_165)\n    tag_167:\n        /* \"#utility.yul\":4121:4135   */\n      pop\n        /* \"#utility.yul\":4501:4504   */\n      dup6\n        /* \"#utility.yul\":4494:4504   */\n      swap4\n      pop\n        /* \"#utility.yul\":3734:4510   */\n      pop\n      pop\n      pop\n        /* \"#utility.yul\":3554:4510   */\n      swap3\n      swap2\n      pop\n      pop\n      jump\t// out\n        /* \"#utility.yul\":4516:5001   */\n    tag_10:\n        /* \"#utility.yul\":4715:4719   */\n      0x00\n        /* \"#utility.yul\":4753:4755   */\n      0x20\n        /* \"#utility.yul\":4742:4751   */\n      dup3\n        /* \"#utility.yul\":4738:4756   */\n      add\n        /* \"#utility.yul\":4730:4756   */\n      swap1\n      pop\n        /* \"#utility.yul\":4802:4811   */\n      dup2\n        /* \"#utility.yul\":4796:4800   */\n      dup2\n        /* \"#utility.yul\":4792:4812   */\n      sub\n        /* \"#utility.yul\":4788:4789   */\n      0x00\n        /* \"#utility.yul\":4777:4786   */\n      dup4\n        /* \"#utility.yul\":4773:4790   */\n      add\n        /* \"#utility.yul\":4766:4813   */\n      mstore\n        /* \"#utility.yul\":4830:4994   */\n      tag_171\n        /* \"#utility.yul\":4989:4993   */\n      dup2\n        /* \"#utility.yul\":4980:4986   */\n      dup5\n        /* \"#utility.yul\":4830:4994   */\n      tag_110\n      jump\t// in\n    tag_171:\n        /* \"#utility.yul\":4822:4994   */\n      swap1\n      pop\n        /* \"#utility.yul\":4516:5001   */\n      swap3\n      swap2\n      pop\n      pop\n      jump\t// out\n        /* \"#utility.yul\":5007:5125   */\n    tag_111:\n        /* \"#utility.yul\":5094:5118   */\n      tag_173\n        /* \"#utility.yul\":5112:5117   */\n      dup2\n        /* \"#utility.yul\":5094:5118   */\n      tag_98\n      jump\t// in\n    tag_173:\n        /* \"#utility.yul\":5089:5092   */\n      dup3\n        /* \"#utility.yul\":5082:5119   */\n      mstore\n        /* \"#utility.yul\":5007:5125   */\n      pop\n      pop\n      jump\t// out\n        /* \"#utility.yul\":5131:5353   */\n    tag_15:\n        /* \"#utility.yul\":5224:5228   */\n      0x00\n        /* \"#utility.yul\":5262:5264   */\n      0x20\n        /* \"#utility.yul\":5251:5260   */\n      dup3\n        /* \"#utility.yul\":5247:5265   */\n      add\n        /* \"#utility.yul\":5239:5265   */\n      swap1\n      pop\n        /* \"#utility.yul\":5275:5346   */\n      tag_175\n        /* \"#utility.yul\":5343:5344   */\n      0x00\n        /* \"#utility.yul\":5332:5341   */\n      dup4\n        /* \"#utility.yul\":5328:5345   */\n      add\n        /* \"#utility.yul\":5319:5325   */\n      dup5\n        /* \"#utility.yul\":5275:5346   */\n      tag_111\n      jump\t// in\n    tag_175:\n        /* \"#utility.yul\":5131:5353   */\n      swap3\n      swap2\n      pop\n      pop\n      jump\t// out\n        /* \"#utility.yul\":5440:5557   */\n    tag_113:\n        /* \"#utility.yul\":5549:5550   */\n      0x00\n        /* \"#utility.yul\":5546:5547   */\n      dup1\n        /* \"#utility.yul\":5539:5551   */\n      revert\n        /* \"#utility.yul\":5686:5808   */\n    tag_115:\n        /* \"#utility.yul\":5759:5783   */\n      tag_180\n        /* \"#utility.yul\":5777:5782   */\n      dup2\n        /* \"#utility.yul\":5759:5783   */\n      tag_101\n      jump\t// in\n    tag_180:\n        /* \"#utility.yul\":5752:5757   */\n      dup2\n        /* \"#utility.yul\":5749:5784   */\n      eq\n        /* \"#utility.yul\":5739:5802   */\n      tag_181\n      jumpi\n        /* \"#utility.yul\":5798:5799   */\n      0x00\n        /* \"#utility.yul\":5795:5796   */\n      dup1\n        /* \"#utility.yul\":5788:5800   */\n      revert\n        /* \"#utility.yul\":5739:5802   */\n    tag_181:\n        /* \"#utility.yul\":5686:5808   */\n      pop\n      jump\t// out\n        /* \"#utility.yul\":5814:5953   */\n    tag_116:\n        /* \"#utility.yul\":5860:5865   */\n      0x00\n        /* \"#utility.yul\":5898:5904   */\n      dup2\n        /* \"#utility.yul\":5885:5905   */\n      calldataload\n        /* \"#utility.yul\":5876:5905   */\n      swap1\n      pop\n        /* \"#utility.yul\":5914:5947   */\n      tag_183\n        /* \"#utility.yul\":5941:5946   */\n      dup2\n        /* \"#utility.yul\":5914:5947   */\n      tag_115\n      jump\t// in\n    tag_183:\n        /* \"#utility.yul\":5814:5953   */\n      swap3\n      swap2\n      pop\n      pop\n      jump\t// out\n        /* \"#utility.yul\":5959:6081   */\n    tag_117:\n        /* \"#utility.yul\":6032:6056   */\n      tag_185\n        /* \"#utility.yul\":6050:6055   */\n      dup2\n        /* \"#utility.yul\":6032:6056   */\n      tag_98\n      jump\t// in\n    tag_185:\n        /* \"#utility.yul\":6025:6030   */\n      dup2\n        /* \"#utility.yul\":6022:6057   */\n      eq\n        /* \"#utility.yul\":6012:6075   */\n      tag_186\n      jumpi\n        /* \"#utility.yul\":6071:6072   */\n      0x00\n        /* \"#utility.yul\":6068:6069   */\n      dup1\n        /* \"#utility.yul\":6061:6073   */\n      revert\n        /* \"#utility.yul\":6012:6075   */\n    tag_186:\n        /* \"#utility.yul\":5959:6081   */\n      pop\n      jump\t// out\n        /* \"#utility.yul\":6087:6226   */\n    tag_118:\n        /* \"#utility.yul\":6133:6138   */\n      0x00\n        /* \"#utility.yul\":6171:6177   */\n      dup2\n        /* \"#utility.yul\":6158:6178   */\n      calldataload\n        /* \"#utility.yul\":6149:6178   */\n      swap1\n      pop\n        /* \"#utility.yul\":6187:6220   */\n      tag_188\n        /* \"#utility.yul\":6214:6219   */\n      dup2\n        /* \"#utility.yul\":6187:6220   */\n      tag_117\n      jump\t// in\n    tag_188:\n        /* \"#utility.yul\":6087:6226   */\n      swap3\n      swap2\n      pop\n      pop\n      jump\t// out\n        /* \"#utility.yul\":6232:6851   */\n    tag_18:\n        /* \"#utility.yul\":6309:6315   */\n      0x00\n        /* \"#utility.yul\":6317:6323   */\n      dup1\n        /* \"#utility.yul\":6325:6331   */\n      0x00\n        /* \"#utility.yul\":6374:6376   */\n      0x60\n        /* \"#utility.yul\":6362:6371   */\n      dup5\n        /* \"#utility.yul\":6353:6360   */\n      dup7\n        /* \"#utility.yul\":6349:6372   */\n      sub\n        /* \"#utility.yul\":6345:6377   */\n      slt\n        /* \"#utility.yul\":6342:6461   */\n      iszero\n      tag_190\n      jumpi\n        /* \"#utility.yul\":6380:6459   */\n      tag_191\n      tag_113\n      jump\t// in\n    tag_191:\n        /* \"#utility.yul\":6342:6461   */\n    tag_190:\n        /* \"#utility.yul\":6500:6501   */\n      0x00\n        /* \"#utility.yul\":6525:6578   */\n      tag_192\n        /* \"#utility.yul\":6570:6577   */\n      dup7\n        /* \"#utility.yul\":6561:6567   */\n      dup3\n        /* \"#utility.yul\":6550:6559   */\n      dup8\n        /* \"#utility.yul\":6546:6568   */\n      add\n        /* \"#utility.yul\":6525:6578   */\n      tag_116\n      jump\t// in\n    tag_192:\n        /* \"#utility.yul\":6515:6578   */\n      swap4\n      pop\n        /* \"#utility.yul\":6471:6588   */\n      pop\n        /* \"#utility.yul\":6627:6629   */\n      0x20\n        /* \"#utility.yul\":6653:6706   */\n      tag_193\n        /* \"#utility.yul\":6698:6705   */\n      dup7\n        /* \"#utility.yul\":6689:6695   */\n      dup3\n        /* \"#utility.yul\":6678:6687   */\n      dup8\n        /* \"#utility.yul\":6674:6696   */\n      add\n        /* \"#utility.yul\":6653:6706   */\n      tag_118\n      jump\t// in\n    tag_193:\n        /* \"#utility.yul\":6643:6706   */\n      swap3\n      pop\n        /* \"#utility.yul\":6598:6716   */\n      pop\n        /* \"#utility.yul\":6755:6757   */\n      0x40\n        /* \"#utility.yul\":6781:6834   */\n      tag_194\n        /* \"#utility.yul\":6826:6833   */\n      dup7\n        /* \"#utility.yul\":6817:6823   */\n      dup3\n        /* \"#utility.yul\":6806:6815   */\n      dup8\n        /* \"#utility.yul\":6802:6824   */\n      add\n        /* \"#utility.yul\":6781:6834   */\n      tag_118\n      jump\t// in\n    tag_194:\n        /* \"#utility.yul\":6771:6834   */\n      swap2\n      pop\n        /* \"#utility.yul\":6726:6844   */\n      pop\n        /* \"#utility.yul\":6232:6851   */\n      swap3\n      pop\n      swap3\n      pop\n      swap3\n      jump\t// out\n        /* \"#utility.yul\":6857:7331   */\n    tag_22:\n        /* \"#utility.yul\":6925:6931   */\n      0x00\n        /* \"#utility.yul\":6933:6939   */\n      dup1\n        /* \"#utility.yul\":6982:6984   */\n      0x40\n        /* \"#utility.yul\":6970:6979   */\n      dup4\n        /* \"#utility.yul\":6961:6968   */\n      dup6\n        /* \"#utility.yul\":6957:6980   */\n      sub\n        /* \"#utility.yul\":6953:6985   */\n      slt\n        /* \"#utility.yul\":6950:7069   */\n      iszero\n      tag_196\n      jumpi\n        /* \"#utility.yul\":6988:7067   */\n      tag_197\n      tag_113\n      jump\t// in\n    tag_197:\n        /* \"#utility.yul\":6950:7069   */\n    tag_196:\n        /* \"#utility.yul\":7108:7109   */\n      0x00\n        /* \"#utility.yul\":7133:7186   */\n      tag_198\n        /* \"#utility.yul\":7178:7185   */\n      dup6\n        /* \"#utility.yul\":7169:7175   */\n      dup3\n        /* \"#utility.yul\":7158:7167   */\n      dup7\n        /* \"#utility.yul\":7154:7176   */\n      add\n        /* \"#utility.yul\":7133:7186   */\n      tag_116\n      jump\t// in\n    tag_198:\n        /* \"#utility.yul\":7123:7186   */\n      swap3\n      pop\n        /* \"#utility.yul\":7079:7196   */\n      pop\n        /* \"#utility.yul\":7235:7237   */\n      0x20\n        /* \"#utility.yul\":7261:7314   */\n      tag_199\n        /* \"#utility.yul\":7306:7313   */\n      dup6\n        /* \"#utility.yul\":7297:7303   */\n      dup3\n        /* \"#utility.yul\":7286:7295   */\n      dup7\n        /* \"#utility.yul\":7282:7304   */\n      add\n        /* \"#utility.yul\":7261:7314   */\n      tag_118\n      jump\t// in\n    tag_199:\n        /* \"#utility.yul\":7251:7314   */\n      swap2\n      pop\n        /* \"#utility.yul\":7206:7324   */\n      pop\n        /* \"#utility.yul\":6857:7331   */\n      swap3\n      pop\n      swap3\n      swap1\n      pop\n      jump\t// out\n        /* \"#utility.yul\":7337:7517   */\n    tag_119:\n        /* \"#utility.yul\":7385:7462   */\n      0x4e487b7100000000000000000000000000000000000000000000000000000000\n        /* \"#utility.yul\":7382:7383   */\n      0x00\n        /* \"#utility.yul\":7375:7463   */\n      mstore\n        /* \"#utility.yul\":7482:7486   */\n      0x11\n        /* \"#utility.yul\":7479:7480   */\n      0x04\n        /* \"#utility.yul\":7472:7487   */\n      mstore\n        /* \"#utility.yul\":7506:7510   */\n      0x24\n        /* \"#utility.yul\":7503:7504   */\n      0x00\n        /* \"#utility.yul\":7496:7511   */\n      revert\n        /* \"#utility.yul\":7523:7717   */\n    tag_30:\n        /* \"#utility.yul\":7563:7567   */\n      0x00\n        /* \"#utility.yul\":7583:7603   */\n      tag_202\n        /* \"#utility.yul\":7601:7602   */\n      dup3\n        /* \"#utility.yul\":7583:7603   */\n      tag_98\n      jump\t// in\n    tag_202:\n        /* \"#utility.yul\":7578:7603   */\n      swap2\n      pop\n        /* \"#utility.yul\":7617:7637   */\n      tag_203\n        /* \"#utility.yul\":7635:7636   */\n      dup4\n        /* \"#utility.yul\":7617:7637   */\n      tag_98\n      jump\t// in\n    tag_203:\n        /* \"#utility.yul\":7612:7637   */\n      swap3\n      pop\n        /* \"#utility.yul\":7661:7662   */\n      dup3\n        /* \"#utility.yul\":7658:7659   */\n      dup3\n        /* \"#utility.yul\":7654:7663   */\n      sub\n        /* \"#utility.yul\":7646:7663   */\n      swap1\n      pop\n        /* \"#utility.yul\":7685:7686   */\n      dup2\n        /* \"#utility.yul\":7679:7683   */\n      dup2\n        /* \"#utility.yul\":7676:7687   */\n      gt\n        /* \"#utility.yul\":7673:7710   */\n      iszero\n      tag_204\n      jumpi\n        /* \"#utility.yul\":7690:7708   */\n      tag_205\n      tag_119\n      jump\t// in\n    tag_205:\n        /* \"#utility.yul\":7673:7710   */\n    tag_204:\n        /* \"#utility.yul\":7523:7717   */\n      swap3\n      swap2\n      pop\n      pop\n      jump\t// out\n        /* \"#utility.yul\":7723:7903   */\n    tag_33:\n        /* \"#utility.yul\":7771:7848   */\n      0x4e487b7100000000000000000000000000000000000000000000000000000000\n        /* \"#utility.yul\":7768:7769   */\n      0x00\n        /* \"#utility.yul\":7761:7849   */\n      mstore\n        /* \"#utility.yul\":7868:7872   */\n      0x41\n        /* \"#utility.yul\":7865:7866   */\n      0x04\n        /* \"#utility.yul\":7858:7873   */\n      mstore\n        /* \"#utility.yul\":7892:7896   */\n      0x24\n        /* \"#utility.yul\":7889:7890   */\n      0x00\n        /* \"#utility.yul\":7882:7897   */\n      revert\n        /* \"#utility.yul\":7909:8100   */\n    tag_42:\n        /* \"#utility.yul\":7949:7952   */\n      0x00\n        /* \"#utility.yul\":7968:7988   */\n      tag_208\n        /* \"#utility.yul\":7986:7987   */\n      dup3\n        /* \"#utility.yul\":7968:7988   */\n      tag_98\n      jump\t// in\n    tag_208:\n        /* \"#utility.yul\":7963:7988   */\n      swap2\n      pop\n        /* \"#utility.yul\":8002:8022   */\n      tag_209\n        /* \"#utility.yul\":8020:8021   */\n      dup4\n        /* \"#utility.yul\":8002:8022   */\n      tag_98\n      jump\t// in\n    tag_209:\n        /* \"#utility.yul\":7997:8022   */\n      swap3\n      pop\n        /* \"#utility.yul\":8045:8046   */\n      dup3\n        /* \"#utility.yul\":8042:8043   */\n      dup3\n        /* \"#utility.yul\":8038:8047   */\n      add\n        /* \"#utility.yul\":8031:8047   */\n      swap1\n      pop\n        /* \"#utility.yul\":8066:8069   */\n      dup1\n        /* \"#utility.yul\":8063:8064   */\n      dup3\n        /* \"#utility.yul\":8060:8070   */\n      gt\n        /* \"#utility.yul\":8057:8093   */\n      iszero\n      tag_210\n      jumpi\n        /* \"#utility.yul\":8073:8091   */\n      tag_211\n      tag_119\n      jump\t// in\n    tag_211:\n        /* \"#utility.yul\":8057:8093   */\n    tag_210:\n        /* \"#utility.yul\":7909:8100   */\n      swap3\n      swap2\n      pop\n      pop\n      jump\t// out\n        /* \"#utility.yul\":8106:8286   */\n    tag_47:\n        /* \"#utility.yul\":8154:8231   */\n      0x4e487b7100000000000000000000000000000000000000000000000000000000\n        /* \"#utility.yul\":8151:8152   */\n      0x00\n        /* \"#utility.yul\":8144:8232   */\n      mstore\n        /* \"#utility.yul\":8251:8255   */\n      0x32\n        /* \"#utility.yul\":8248:8249   */\n      0x04\n        /* \"#utility.yul\":8241:8256   */\n      mstore\n        /* \"#utility.yul\":8275:8279   */\n      0x24\n        /* \"#utility.yul\":8272:8273   */\n      0x00\n        /* \"#utility.yul\":8265:8280   */\n      revert\n        /* \"#utility.yul\":8292:8461   */\n    tag_120:\n        /* \"#utility.yul\":8376:8387   */\n      0x00\n        /* \"#utility.yul\":8410:8416   */\n      dup3\n        /* \"#utility.yul\":8405:8408   */\n      dup3\n        /* \"#utility.yul\":8398:8417   */\n      mstore\n        /* \"#utility.yul\":8450:8454   */\n      0x20\n        /* \"#utility.yul\":8445:8448   */\n      dup3\n        /* \"#utility.yul\":8441:8455   */\n      add\n        /* \"#utility.yul\":8426:8455   */\n      swap1\n      pop\n        /* \"#utility.yul\":8292:8461   */\n      swap3\n      swap2\n      pop\n      pop\n      jump\t// out\n        /* \"#utility.yul\":8467:8645   */\n    tag_121:\n        /* \"#utility.yul\":8607:8637   */\n      0x5072696365206d7573742062652067726561746572207468616e203000000000\n        /* \"#utility.yul\":8603:8604   */\n      0x00\n        /* \"#utility.yul\":8595:8601   */\n      dup3\n        /* \"#utility.yul\":8591:8605   */\n      add\n        /* \"#utility.yul\":8584:8638   */\n      mstore\n        /* \"#utility.yul\":8467:8645   */\n      pop\n      jump\t// out\n        /* \"#utility.yul\":8651:9017   */\n    tag_122:\n        /* \"#utility.yul\":8793:8796   */\n      0x00\n        /* \"#utility.yul\":8814:8881   */\n      tag_216\n        /* \"#utility.yul\":8878:8880   */\n      0x1c\n        /* \"#utility.yul\":8873:8876   */\n      dup4\n        /* \"#utility.yul\":8814:8881   */\n      tag_120\n      jump\t// in\n    tag_216:\n        /* \"#utility.yul\":8807:8881   */\n      swap2\n      pop\n        /* \"#utility.yul\":8890:8983   */\n      tag_217\n        /* \"#utility.yul\":8979:8982   */\n      dup3\n        /* \"#utility.yul\":8890:8983   */\n      tag_121\n      jump\t// in\n    tag_217:\n        /* \"#utility.yul\":9008:9010   */\n      0x20\n        /* \"#utility.yul\":9003:9006   */\n      dup3\n        /* \"#utility.yul\":8999:9011   */\n      add\n        /* \"#utility.yul\":8992:9011   */\n      swap1\n      pop\n        /* \"#utility.yul\":8651:9017   */\n      swap2\n      swap1\n      pop\n      jump\t// out\n        /* \"#utility.yul\":9023:9442   */\n    tag_56:\n        /* \"#utility.yul\":9189:9193   */\n      0x00\n        /* \"#utility.yul\":9227:9229   */\n      0x20\n        /* \"#utility.yul\":9216:9225   */\n      dup3\n        /* \"#utility.yul\":9212:9230   */\n      add\n        /* \"#utility.yul\":9204:9230   */\n      swap1\n      pop\n        /* \"#utility.yul\":9276:9285   */\n      dup2\n        /* \"#utility.yul\":9270:9274   */\n      dup2\n        /* \"#utility.yul\":9266:9286   */\n      sub\n        /* \"#utility.yul\":9262:9263   */\n      0x00\n        /* \"#utility.yul\":9251:9260   */\n      dup4\n        /* \"#utility.yul\":9247:9264   */\n      add\n        /* \"#utility.yul\":9240:9287   */\n      mstore\n        /* \"#utility.yul\":9304:9435   */\n      tag_219\n        /* \"#utility.yul\":9430:9434   */\n      dup2\n        /* \"#utility.yul\":9304:9435   */\n      tag_122\n      jump\t// in\n    tag_219:\n        /* \"#utility.yul\":9296:9435   */\n      swap1\n      pop\n        /* \"#utility.yul\":9023:9442   */\n      swap2\n      swap1\n      pop\n      jump\t// out\n        /* \"#utility.yul\":9448:9671   */\n    tag_123:\n        /* \"#utility.yul\":9588:9622   */\n      0x5072696365206d75737420626520657175616c20746f206c697374696e672070\n        /* \"#utility.yul\":9584:9585   */\n      0x00\n        /* \"#utility.yul\":9576:9582   */\n      dup3\n        /* \"#utility.yul\":9572:9586   */\n      add\n        /* \"#utility.yul\":9565:9623   */\n      mstore\n        /* \"#utility.yul\":9657:9663   */\n      0x7269636500000000000000000000000000000000000000000000000000000000\n        /* \"#utility.yul\":9652:9654   */\n      0x20\n        /* \"#utility.yul\":9644:9650   */\n      dup3\n        /* \"#utility.yul\":9640:9655   */\n      add\n        /* \"#utility.yul\":9633:9664   */\n      mstore\n        /* \"#utility.yul\":9448:9671   */\n      pop\n      jump\t// out\n        /* \"#utility.yul\":9677:10043   */\n    tag_124:\n        /* \"#utility.yul\":9819:9822   */\n      0x00\n        /* \"#utility.yul\":9840:9907   */\n      tag_222\n        /* \"#utility.yul\":9904:9906   */\n      0x24\n        /* \"#utility.yul\":9899:9902   */\n      dup4\n        /* \"#utility.yul\":9840:9907   */\n      tag_120\n      jump\t// in\n    tag_222:\n        /* \"#utility.yul\":9833:9907   */\n      swap2\n      pop\n        /* \"#utility.yul\":9916:10009   */\n      tag_223\n        /* \"#utility.yul\":10005:10008   */\n      dup3\n        /* \"#utility.yul\":9916:10009   */\n      tag_123\n      jump\t// in\n    tag_223:\n        /* \"#utility.yul\":10034:10036   */\n      0x40\n        /* \"#utility.yul\":10029:10032   */\n      dup3\n        /* \"#utility.yul\":10025:10037   */\n      add\n        /* \"#utility.yul\":10018:10037   */\n      swap1\n      pop\n        /* \"#utility.yul\":9677:10043   */\n      swap2\n      swap1\n      pop\n      jump\t// out\n        /* \"#utility.yul\":10049:10468   */\n    tag_59:\n        /* \"#utility.yul\":10215:10219   */\n      0x00\n        /* \"#utility.yul\":10253:10255   */\n      0x20\n        /* \"#utility.yul\":10242:10251   */\n      dup3\n        /* \"#utility.yul\":10238:10256   */\n      add\n        /* \"#utility.yul\":10230:10256   */\n      swap1\n      pop\n        /* \"#utility.yul\":10302:10311   */\n      dup2\n        /* \"#utility.yul\":10296:10300   */\n      dup2\n        /* \"#utility.yul\":10292:10312   */\n      sub\n        /* \"#utility.yul\":10288:10289   */\n      0x00\n        /* \"#utility.yul\":10277:10286   */\n      dup4\n        /* \"#utility.yul\":10273:10290   */\n      add\n        /* \"#utility.yul\":10266:10313   */\n      mstore\n        /* \"#utility.yul\":10330:10461   */\n      tag_225\n        /* \"#utility.yul\":10456:10460   */\n      dup2\n        /* \"#utility.yul\":10330:10461   */\n      tag_124\n      jump\t// in\n    tag_225:\n        /* \"#utility.yul\":10322:10461   */\n      swap1\n      pop\n        /* \"#utility.yul\":10049:10468   */\n      swap2\n      swap1\n      pop\n      jump\t// out\n        /* \"#utility.yul\":10474:10592   */\n    tag_125:\n        /* \"#utility.yul\":10561:10585   */\n      tag_227\n        /* \"#utility.yul\":10579:10584   */\n      dup2\n        /* \"#utility.yul\":10561:10585   */\n      tag_101\n      jump\t// in\n    tag_227:\n        /* \"#utility.yul\":10556:10559   */\n      dup3\n        /* \"#utility.yul\":10549:10586   */\n      mstore\n        /* \"#utility.yul\":10474:10592   */\n      pop\n      pop\n      jump\t// out\n        /* \"#utility.yul\":10598:11040   */\n    tag_64:\n        /* \"#utility.yul\":10747:10751   */\n      0x00\n        /* \"#utility.yul\":10785:10787   */\n      0x60\n        /* \"#utility.yul\":10774:10783   */\n      dup3\n        /* \"#utility.yul\":10770:10788   */\n      add\n        /* \"#utility.yul\":10762:10788   */\n      swap1\n      pop\n        /* \"#utility.yul\":10798:10869   */\n      tag_229\n        /* \"#utility.yul\":10866:10867   */\n      0x00\n        /* \"#utility.yul\":10855:10864   */\n      dup4\n        /* \"#utility.yul\":10851:10868   */\n      add\n        /* \"#utility.yul\":10842:10848   */\n      dup7\n        /* \"#utility.yul\":10798:10869   */\n      tag_125\n      jump\t// in\n    tag_229:\n        /* \"#utility.yul\":10879:10951   */\n      tag_230\n        /* \"#utility.yul\":10947:10949   */\n      0x20\n        /* \"#utility.yul\":10936:10945   */\n      dup4\n        /* \"#utility.yul\":10932:10950   */\n      add\n        /* \"#utility.yul\":10923:10929   */\n      dup6\n        /* \"#utility.yul\":10879:10951   */\n      tag_125\n      jump\t// in\n    tag_230:\n        /* \"#utility.yul\":10961:11033   */\n      tag_231\n        /* \"#utility.yul\":11029:11031   */\n      0x40\n        /* \"#utility.yul\":11018:11027   */\n      dup4\n        /* \"#utility.yul\":11014:11032   */\n      add\n        /* \"#utility.yul\":11005:11011   */\n      dup5\n        /* \"#utility.yul\":10961:11033   */\n      tag_111\n      jump\t// in\n    tag_231:\n        /* \"#utility.yul\":10598:11040   */\n      swap5\n      swap4\n      pop\n      pop\n      pop\n      pop\n      jump\t// out\n        /* \"#utility.yul\":11046:11155   */\n    tag_126:\n        /* \"#utility.yul\":11127:11148   */\n      tag_233\n        /* \"#utility.yul\":11142:11147   */\n      dup2\n        /* \"#utility.yul\":11127:11148   */\n      tag_105\n      jump\t// in\n    tag_233:\n        /* \"#utility.yul\":11122:11125   */\n      dup3\n        /* \"#utility.yul\":11115:11149   */\n      mstore\n        /* \"#utility.yul\":11046:11155   */\n      pop\n      pop\n      jump\t// out\n        /* \"#utility.yul\":11161:11702   */\n    tag_69:\n        /* \"#utility.yul\":11332:11336   */\n      0x00\n        /* \"#utility.yul\":11370:11373   */\n      0x80\n        /* \"#utility.yul\":11359:11368   */\n      dup3\n        /* \"#utility.yul\":11355:11374   */\n      add\n        /* \"#utility.yul\":11347:11374   */\n      swap1\n      pop\n        /* \"#utility.yul\":11384:11455   */\n      tag_235\n        /* \"#utility.yul\":11452:11453   */\n      0x00\n        /* \"#utility.yul\":11441:11450   */\n      dup4\n        /* \"#utility.yul\":11437:11454   */\n      add\n        /* \"#utility.yul\":11428:11434   */\n      dup8\n        /* \"#utility.yul\":11384:11455   */\n      tag_125\n      jump\t// in\n    tag_235:\n        /* \"#utility.yul\":11465:11537   */\n      tag_236\n        /* \"#utility.yul\":11533:11535   */\n      0x20\n        /* \"#utility.yul\":11522:11531   */\n      dup4\n        /* \"#utility.yul\":11518:11536   */\n      add\n        /* \"#utility.yul\":11509:11515   */\n      dup7\n        /* \"#utility.yul\":11465:11537   */\n      tag_125\n      jump\t// in\n    tag_236:\n        /* \"#utility.yul\":11547:11619   */\n      tag_237\n        /* \"#utility.yul\":11615:11617   */\n      0x40\n        /* \"#utility.yul\":11604:11613   */\n      dup4\n        /* \"#utility.yul\":11600:11618   */\n      add\n        /* \"#utility.yul\":11591:11597   */\n      dup6\n        /* \"#utility.yul\":11547:11619   */\n      tag_111\n      jump\t// in\n    tag_237:\n        /* \"#utility.yul\":11629:11695   */\n      tag_238\n        /* \"#utility.yul\":11691:11693   */\n      0x60\n        /* \"#utility.yul\":11680:11689   */\n      dup4\n        /* \"#utility.yul\":11676:11694   */\n      add\n        /* \"#utility.yul\":11667:11673   */\n      dup5\n        /* \"#utility.yul\":11629:11695   */\n      tag_126\n      jump\t// in\n    tag_238:\n        /* \"#utility.yul\":11161:11702   */\n      swap6\n      swap5\n      pop\n      pop\n      pop\n      pop\n      pop\n      jump\t// out\n        /* \"#utility.yul\":11708:11888   */\n    tag_127:\n        /* \"#utility.yul\":11848:11880   */\n      0x506c65617365207375626d6974207468652061736b696e672070726963650000\n        /* \"#utility.yul\":11844:11845   */\n      0x00\n        /* \"#utility.yul\":11836:11842   */\n      dup3\n        /* \"#utility.yul\":11832:11846   */\n      add\n        /* \"#utility.yul\":11825:11881   */\n      mstore\n        /* \"#utility.yul\":11708:11888   */\n      pop\n      jump\t// out\n        /* \"#utility.yul\":11894:12260   */\n    tag_128:\n        /* \"#utility.yul\":12036:12039   */\n      0x00\n        /* \"#utility.yul\":12057:12124   */\n      tag_241\n        /* \"#utility.yul\":12121:12123   */\n      0x1e\n        /* \"#utility.yul\":12116:12119   */\n      dup4\n        /* \"#utility.yul\":12057:12124   */\n      tag_120\n      jump\t// in\n    tag_241:\n        /* \"#utility.yul\":12050:12124   */\n      swap2\n      pop\n        /* \"#utility.yul\":12133:12226   */\n      tag_242\n        /* \"#utility.yul\":12222:12225   */\n      dup3\n        /* \"#utility.yul\":12133:12226   */\n      tag_127\n      jump\t// in\n    tag_242:\n        /* \"#utility.yul\":12251:12253   */\n      0x20\n        /* \"#utility.yul\":12246:12249   */\n      dup3\n        /* \"#utility.yul\":12242:12254   */\n      add\n        /* \"#utility.yul\":12235:12254   */\n      swap1\n      pop\n        /* \"#utility.yul\":11894:12260   */\n      swap2\n      swap1\n      pop\n      jump\t// out\n        /* \"#utility.yul\":12266:12685   */\n    tag_77:\n        /* \"#utility.yul\":12432:12436   */\n      0x00\n        /* \"#utility.yul\":12470:12472   */\n      0x20\n        /* \"#utility.yul\":12459:12468   */\n      dup3\n        /* \"#utility.yul\":12455:12473   */\n      add\n        /* \"#utility.yul\":12447:12473   */\n      swap1\n      pop\n        /* \"#utility.yul\":12519:12528   */\n      dup2\n        /* \"#utility.yul\":12513:12517   */\n      dup2\n        /* \"#utility.yul\":12509:12529   */\n      sub\n        /* \"#utility.yul\":12505:12506   */\n      0x00\n        /* \"#utility.yul\":12494:12503   */\n      dup4\n        /* \"#utility.yul\":12490:12507   */\n      add\n        /* \"#utility.yul\":12483:12530   */\n      mstore\n        /* \"#utility.yul\":12547:12678   */\n      tag_244\n        /* \"#utility.yul\":12673:12677   */\n      dup2\n        /* \"#utility.yul\":12547:12678   */\n      tag_128\n      jump\t// in\n    tag_244:\n        /* \"#utility.yul\":12539:12678   */\n      swap1\n      pop\n        /* \"#utility.yul\":12266:12685   */\n      swap2\n      swap1\n      pop\n      jump\t// out\n        /* \"#utility.yul\":12691:12872   */\n    tag_129:\n        /* \"#utility.yul\":12831:12864   */\n      0x5265656e7472616e637947756172643a207265656e7472616e742063616c6c00\n        /* \"#utility.yul\":12827:12828   */\n      0x00\n        /* \"#utility.yul\":12819:12825   */\n      dup3\n        /* \"#utility.yul\":12815:12829   */\n      add\n        /* \"#utility.yul\":12808:12865   */\n      mstore\n        /* \"#utility.yul\":12691:12872   */\n      pop\n      jump\t// out\n        /* \"#utility.yul\":12878:13244   */\n    tag_130:\n        /* \"#utility.yul\":13020:13023   */\n      0x00\n        /* \"#utility.yul\":13041:13108   */\n      tag_247\n        /* \"#utility.yul\":13105:13107   */\n      0x1f\n        /* \"#utility.yul\":13100:13103   */\n      dup4\n        /* \"#utility.yul\":13041:13108   */\n      tag_120\n      jump\t// in\n    tag_247:\n        /* \"#utility.yul\":13034:13108   */\n      swap2\n      pop\n        /* \"#utility.yul\":13117:13210   */\n      tag_248\n        /* \"#utility.yul\":13206:13209   */\n      dup3\n        /* \"#utility.yul\":13117:13210   */\n      tag_129\n      jump\t// in\n    tag_248:\n        /* \"#utility.yul\":13235:13237   */\n      0x20\n        /* \"#utility.yul\":13230:13233   */\n      dup3\n        /* \"#utility.yul\":13226:13238   */\n      add\n        /* \"#utility.yul\":13219:13238   */\n      swap1\n      pop\n        /* \"#utility.yul\":12878:13244   */\n      swap2\n      swap1\n      pop\n      jump\t// out\n        /* \"#utility.yul\":13250:13669   */\n    tag_92:\n        /* \"#utility.yul\":13416:13420   */\n      0x00\n        /* \"#utility.yul\":13454:13456   */\n      0x20\n        /* \"#utility.yul\":13443:13452   */\n      dup3\n        /* \"#utility.yul\":13439:13457   */\n      add\n        /* \"#utility.yul\":13431:13457   */\n      swap1\n      pop\n        /* \"#utility.yul\":13503:13512   */\n      dup2\n        /* \"#utility.yul\":13497:13501   */\n      dup2\n        /* \"#utility.yul\":13493:13513   */\n      sub\n        /* \"#utility.yul\":13489:13490   */\n      0x00\n        /* \"#utility.yul\":13478:13487   */\n      dup4\n        /* \"#utility.yul\":13474:13491   */\n      add\n        /* \"#utility.yul\":13467:13514   */\n      mstore\n        /* \"#utility.yul\":13531:13662   */\n      tag_250\n        /* \"#utility.yul\":13657:13661   */\n      dup2\n        /* \"#utility.yul\":13531:13662   */\n      tag_130\n      jump\t// in\n    tag_250:\n        /* \"#utility.yul\":13523:13662   */\n      swap1\n      pop\n        /* \"#utility.yul\":13250:13669   */\n      swap2\n      swap1\n      pop\n      jump\t// out\n\n    auxdata: 0xa2646970667358221220e75981229bedb69bc107bf0b2d859733e32a803ff4aebc5d00d2bb244d7f463d64736f6c634300081a0033\n}\n",
				"bytecode": {
					"linkReferences": {},
					"object": "60806040526658d15e176280006004553480156019575f80fd5b5060015f819055503360035f6101000a81548173ffffffffffffffffffffffffffffffffffffffff021916908373ffffffffffffffffffffffffffffffffffffffff16021790555061105e8061006e5f395ff3fe60806040526004361061003e575f3560e01c80630f08efe01461004257806312e855851461006c57806358eb2df514610096578063c23b139e146100b2575b5f80fd5b34801561004d575f80fd5b506100566100ce565b6040516100639190610ba1565b60405180910390f35b348015610077575f80fd5b50610080610380565b60405161008d9190610bd0565b60405180910390f35b6100b060048036038101906100ab9190610c41565b610389565b005b6100cc60048036038101906100c79190610c91565b610694565b005b60605f6100db60016108ec565b90505f6100e860026108ec565b6100f260016108ec565b6100fc9190610cfc565b90505f808267ffffffffffffffff81111561011a57610119610d2f565b5b60405190808252806020026020018201604052801561015357816020015b610140610962565b8152602001906001900390816101385790505b5090505f5b84811015610375575f73ffffffffffffffffffffffffffffffffffffffff1660055f6001846101879190610d5c565b81526020019081526020015f206004015f9054906101000a900473ffffffffffffffffffffffffffffffffffffffff1673ffffffffffffffffffffffffffffffffffffffff1603610368575f6001826101e09190610d5c565b90505f60055f8381526020019081526020015f209050806040518060e00160405290815f8201548152602001600182015f9054906101000a900473ffffffffffffffffffffffffffffffffffffffff1673ffffffffffffffffffffffffffffffffffffffff1673ffffffffffffffffffffffffffffffffffffffff16815260200160028201548152602001600382015f9054906101000a900473ffffffffffffffffffffffffffffffffffffffff1673ffffffffffffffffffffffffffffffffffffffff1673ffffffffffffffffffffffffffffffffffffffff168152602001600482015f9054906101000a900473ffffffffffffffffffffffffffffffffffffffff1673ffffffffffffffffffffffffffffffffffffffff1673ffffffffffffffffffffffffffffffffffffffff16815260200160058201548152602001600682015f9054906101000a900460ff16151515158152505084868151811061034b5761034a610d8f565b5b60200260200101819052506001856103639190610d5c565b945050505b8080600101915050610158565b508094505050505090565b5f600454905090565b6103916108f8565b5f81116103d3576040517f08c379a00000000000000000000000000000000000000000000000000000000081526004016103ca90610e16565b60405180910390fd5b6004543414610417576040517f08c379a000000000000000000000000000000000000000000000000000000000815260040161040e90610ea4565b60405180910390fd5b6104216001610945565b5f61042c60016108ec565b90506040518060e001604052808281526020018573ffffffffffffffffffffffffffffffffffffffff1681526020018481526020013373ffffffffffffffffffffffffffffffffffffffff1681526020015f73ffffffffffffffffffffffffffffffffffffffff1681526020018381526020015f151581525060055f8381526020019081526020015f205f820151815f01556020820151816001015f6101000a81548173ffffffffffffffffffffffffffffffffffffffff021916908373ffffffffffffffffffffffffffffffffffffffff160217905550604082015181600201556060820151816003015f6101000a81548173ffffffffffffffffffffffffffffffffffffffff021916908373ffffffffffffffffffffffffffffffffffffffff1602179055506080820151816004015f6101000a81548173ffffffffffffffffffffffffffffffffffffffff021916908373ffffffffffffffffffffffffffffffffffffffff16021790555060a0820151816005015560c0820151816006015f6101000a81548160ff0219169083151502179055509050508373ffffffffffffffffffffffffffffffffffffffff166323b872dd3330866040518463ffffffff1660e01b815260040161060393929190610ed1565b5f604051808303815f87803b15801561061a575f80fd5b505af115801561062c573d5f803e3d5ffd5b50505050828473ffffffffffffffffffffffffffffffffffffffff16827f045dfa01dcba2b36aba1d3dc4a874f4b0c5d2fbeb8d2c4b34a7d88c8d8f929d1335f875f60405161067e9493929190610f15565b60405180910390a45061068f610959565b505050565b61069c6108f8565b5f60055f8381526020019081526020015f206005015490505f60055f8481526020019081526020015f2060020154905081341461070e576040517f08c379a000000000000000000000000000000000000000000000000000000000815260040161070590610fa2565b60405180910390fd5b60055f8481526020019081526020015f206003015f9054906101000a900473ffffffffffffffffffffffffffffffffffffffff1673ffffffffffffffffffffffffffffffffffffffff166108fc3490811502906040515f60405180830381858888f19350505050158015610784573d5f803e3d5ffd5b508373ffffffffffffffffffffffffffffffffffffffff166323b872dd3033846040518463ffffffff1660e01b81526004016107c293929190610ed1565b5f604051808303815f87803b1580156107d9575f80fd5b505af11580156107eb573d5f803e3d5ffd5b505050503360055f8581526020019081526020015f206004015f6101000a81548173ffffffffffffffffffffffffffffffffffffffff021916908373ffffffffffffffffffffffffffffffffffffffff160217905550600160055f8581526020019081526020015f206006015f6101000a81548160ff0219169083151502179055506108776002610945565b60035f9054906101000a900473ffffffffffffffffffffffffffffffffffffffff1673ffffffffffffffffffffffffffffffffffffffff166108fc60045490811502906040515f60405180830381858888f193505050501580156108dd573d5f803e3d5ffd5b5050506108e8610959565b5050565b5f815f01549050919050565b60025f540361093c576040517f08c379a00000000000000000000000000000000000000000000000000000000081526004016109339061100a565b60405180910390fd5b60025f81905550565b6001815f015f828254019250508190555050565b60015f81905550565b6040518060e001604052805f81526020015f73ffffffffffffffffffffffffffffffffffffffff1681526020015f81526020015f73ffffffffffffffffffffffffffffffffffffffff1681526020015f73ffffffffffffffffffffffffffffffffffffffff1681526020015f81526020015f151581525090565b5f81519050919050565b5f82825260208201905092915050565b5f819050602082019050919050565b5f819050919050565b610a1781610a05565b82525050565b5f73ffffffffffffffffffffffffffffffffffffffff82169050919050565b5f610a4682610a1d565b9050919050565b610a5681610a3c565b82525050565b5f610a6682610a1d565b9050919050565b610a7681610a5c565b82525050565b5f8115159050919050565b610a9081610a7c565b82525050565b60e082015f820151610aaa5f850182610a0e565b506020820151610abd6020850182610a4d565b506040820151610ad06040850182610a0e565b506060820151610ae36060850182610a6d565b506080820151610af66080850182610a6d565b5060a0820151610b0960a0850182610a0e565b5060c0820151610b1c60c0850182610a87565b50505050565b5f610b2d8383610a96565b60e08301905092915050565b5f602082019050919050565b5f610b4f826109dc565b610b5981856109e6565b9350610b64836109f6565b805f5b83811015610b94578151610b7b8882610b22565b9750610b8683610b39565b925050600181019050610b67565b5085935050505092915050565b5f6020820190508181035f830152610bb98184610b45565b905092915050565b610bca81610a05565b82525050565b5f602082019050610be35f830184610bc1565b92915050565b5f80fd5b610bf681610a3c565b8114610c00575f80fd5b50565b5f81359050610c1181610bed565b92915050565b610c2081610a05565b8114610c2a575f80fd5b50565b5f81359050610c3b81610c17565b92915050565b5f805f60608486031215610c5857610c57610be9565b5b5f610c6586828701610c03565b9350506020610c7686828701610c2d565b9250506040610c8786828701610c2d565b9150509250925092565b5f8060408385031215610ca757610ca6610be9565b5b5f610cb485828601610c03565b9250506020610cc585828601610c2d565b9150509250929050565b7f4e487b71000000000000000000000000000000000000000000000000000000005f52601160045260245ffd5b5f610d0682610a05565b9150610d1183610a05565b9250828203905081811115610d2957610d28610ccf565b5b92915050565b7f4e487b71000000000000000000000000000000000000000000000000000000005f52604160045260245ffd5b5f610d6682610a05565b9150610d7183610a05565b9250828201905080821115610d8957610d88610ccf565b5b92915050565b7f4e487b71000000000000000000000000000000000000000000000000000000005f52603260045260245ffd5b5f82825260208201905092915050565b7f5072696365206d7573742062652067726561746572207468616e2030000000005f82015250565b5f610e00601c83610dbc565b9150610e0b82610dcc565b602082019050919050565b5f6020820190508181035f830152610e2d81610df4565b9050919050565b7f5072696365206d75737420626520657175616c20746f206c697374696e6720705f8201527f7269636500000000000000000000000000000000000000000000000000000000602082015250565b5f610e8e602483610dbc565b9150610e9982610e34565b604082019050919050565b5f6020820190508181035f830152610ebb81610e82565b9050919050565b610ecb81610a3c565b82525050565b5f606082019050610ee45f830186610ec2565b610ef16020830185610ec2565b610efe6040830184610bc1565b949350505050565b610f0f81610a7c565b82525050565b5f608082019050610f285f830187610ec2565b610f356020830186610ec2565b610f426040830185610bc1565b610f4f6060830184610f06565b95945050505050565b7f506c65617365207375626d6974207468652061736b696e6720707269636500005f82015250565b5f610f8c601e83610dbc565b9150610f9782610f58565b602082019050919050565b5f6020820190508181035f830152610fb981610f80565b9050919050565b7f5265656e7472616e637947756172643a207265656e7472616e742063616c6c005f82015250565b5f610ff4601f83610dbc565b9150610fff82610fc0565b602082019050919050565b5f6020820190508181035f83015261102181610fe8565b905091905056fea2646970667358221220e75981229bedb69bc107bf0b2d859733e32a803ff4aebc5d00d2bb244d7f463d64736f6c634300081a0033",
					"opcodes": "PUSH1 0x80 PUSH1 0x40 MSTORE PUSH7 0x58D15E17628000 PUSH1 0x4 SSTORE CALLVALUE DUP1 ISZERO PUSH1 0x19 JUMPI PUSH0 DUP1 REVERT JUMPDEST POP PUSH1 0x1 PUSH0 DUP2 SWAP1 SSTORE POP CALLER PUSH1 0x3 PUSH0 PUSH2 0x100 EXP DUP2 SLOAD DUP2 PUSH20 0xFFFFFFFFFFFFFFFFFFFFFFFFFFFFFFFFFFFFFFFF MUL NOT AND SWAP1 DUP4 PUSH20 0xFFFFFFFFFFFFFFFFFFFFFFFFFFFFFFFFFFFFFFFF AND MUL OR SWAP1 SSTORE POP PUSH2 0x105E DUP1 PUSH2 0x6E PUSH0 CODECOPY PUSH0 RETURN INVALID PUSH1 0x80 PUSH1 0x40 MSTORE PUSH1 0x4 CALLDATASIZE LT PUSH2 0x3E JUMPI PUSH0 CALLDATALOAD PUSH1 0xE0 SHR DUP1 PUSH4 0xF08EFE0 EQ PUSH2 0x42 JUMPI DUP1 PUSH4 0x12E85585 EQ PUSH2 0x6C JUMPI DUP1 PUSH4 0x58EB2DF5 EQ PUSH2 0x96 JUMPI DUP1 PUSH4 0xC23B139E EQ PUSH2 0xB2 JUMPI JUMPDEST PUSH0 DUP1 REVERT JUMPDEST CALLVALUE DUP1 ISZERO PUSH2 0x4D JUMPI PUSH0 DUP1 REVERT JUMPDEST POP PUSH2 0x56 PUSH2 0xCE JUMP JUMPDEST PUSH1 0x40 MLOAD PUSH2 0x63 SWAP2 SWAP1 PUSH2 0xBA1 JUMP JUMPDEST PUSH1 0x40 MLOAD DUP1 SWAP2 SUB SWAP1 RETURN JUMPDEST CALLVALUE DUP1 ISZERO PUSH2 0x77 JUMPI PUSH0 DUP1 REVERT JUMPDEST POP PUSH2 0x80 PUSH2 0x380 JUMP JUMPDEST PUSH1 0x40 MLOAD PUSH2 0x8D SWAP2 SWAP1 PUSH2 0xBD0 JUMP JUMPDEST PUSH1 0x40 MLOAD DUP1 SWAP2 SUB SWAP1 RETURN JUMPDEST PUSH2 0xB0 PUSH1 0x4 DUP1 CALLDATASIZE SUB DUP2 ADD SWAP1 PUSH2 0xAB SWAP2 SWAP1 PUSH2 0xC41 JUMP JUMPDEST PUSH2 0x389 JUMP JUMPDEST STOP JUMPDEST PUSH2 0xCC PUSH1 0x4 DUP1 CALLDATASIZE SUB DUP2 ADD SWAP1 PUSH2 0xC7 SWAP2 SWAP1 PUSH2 0xC91 JUMP JUMPDEST PUSH2 0x694 JUMP JUMPDEST STOP JUMPDEST PUSH1 0x60 PUSH0 PUSH2 0xDB PUSH1 0x1 PUSH2 0x8EC JUMP JUMPDEST SWAP1 POP PUSH0 PUSH2 0xE8 PUSH1 0x2 PUSH2 0x8EC JUMP JUMPDEST PUSH2 0xF2 PUSH1 0x1 PUSH2 0x8EC JUMP JUMPDEST PUSH2 0xFC SWAP2 SWAP1 PUSH2 0xCFC JUMP JUMPDEST SWAP1 POP PUSH0 DUP1 DUP3 PUSH8 0xFFFFFFFFFFFFFFFF DUP2 GT ISZERO PUSH2 0x11A JUMPI PUSH2 0x119 PUSH2 0xD2F JUMP JUMPDEST JUMPDEST PUSH1 0x40 MLOAD SWAP1 DUP1 DUP3 MSTORE DUP1 PUSH1 0x20 MUL PUSH1 0x20 ADD DUP3 ADD PUSH1 0x40 MSTORE DUP1 ISZERO PUSH2 0x153 JUMPI DUP2 PUSH1 0x20 ADD JUMPDEST PUSH2 0x140 PUSH2 0x962 JUMP JUMPDEST DUP2 MSTORE PUSH1 0x20 ADD SWAP1 PUSH1 0x1 SWAP1 SUB SWAP1 DUP2 PUSH2 0x138 JUMPI SWAP1 POP JUMPDEST POP SWAP1 POP PUSH0 JUMPDEST DUP5 DUP2 LT ISZERO PUSH2 0x375 JUMPI PUSH0 PUSH20 0xFFFFFFFFFFFFFFFFFFFFFFFFFFFFFFFFFFFFFFFF AND PUSH1 0x5 PUSH0 PUSH1 0x1 DUP5 PUSH2 0x187 SWAP2 SWAP1 PUSH2 0xD5C JUMP JUMPDEST DUP2 MSTORE PUSH1 0x20 ADD SWAP1 DUP2 MSTORE PUSH1 0x20 ADD PUSH0 KECCAK256 PUSH1 0x4 ADD PUSH0 SWAP1 SLOAD SWAP1 PUSH2 0x100 EXP SWAP1 DIV PUSH20 0xFFFFFFFFFFFFFFFFFFFFFFFFFFFFFFFFFFFFFFFF AND PUSH20 0xFFFFFFFFFFFFFFFFFFFFFFFFFFFFFFFFFFFFFFFF AND SUB PUSH2 0x368 JUMPI PUSH0 PUSH1 0x1 DUP3 PUSH2 0x1E0 SWAP2 SWAP1 PUSH2 0xD5C JUMP JUMPDEST SWAP1 POP PUSH0 PUSH1 0x5 PUSH0 DUP4 DUP2 MSTORE PUSH1 0x20 ADD SWAP1 DUP2 MSTORE PUSH1 0x20 ADD PUSH0 KECCAK256 SWAP1 POP DUP1 PUSH1 0x40 MLOAD DUP1 PUSH1 0xE0 ADD PUSH1 0x40 MSTORE SWAP1 DUP2 PUSH0 DUP3 ADD SLOAD DUP2 MSTORE PUSH1 0x20 ADD PUSH1 0x1 DUP3 ADD PUSH0 SWAP1 SLOAD SWAP1 PUSH2 0x100 EXP SWAP1 DIV PUSH20 0xFFFFFFFFFFFFFFFFFFFFFFFFFFFFFFFFFFFFFFFF AND PUSH20 0xFFFFFFFFFFFFFFFFFFFFFFFFFFFFFFFFFFFFFFFF AND PUSH20 0xFFFFFFFFFFFFFFFFFFFFFFFFFFFFFFFFFFFFFFFF AND DUP2 MSTORE PUSH1 0x20 ADD PUSH1 0x2 DUP3 ADD SLOAD DUP2 MSTORE PUSH1 0x20 ADD PUSH1 0x3 DUP3 ADD PUSH0 SWAP1 SLOAD SWAP1 PUSH2 0x100 EXP SWAP1 DIV PUSH20 0xFFFFFFFFFFFFFFFFFFFFFFFFFFFFFFFFFFFFFFFF AND PUSH20 0xFFFFFFFFFFFFFFFFFFFFFFFFFFFFFFFFFFFFFFFF AND PUSH20 0xFFFFFFFFFFFFFFFFFFFFFFFFFFFFFFFFFFFFFFFF AND DUP2 MSTORE PUSH1 0x20 ADD PUSH1 0x4 DUP3 ADD PUSH0 SWAP1 SLOAD SWAP1 PUSH2 0x100 EXP SWAP1 DIV PUSH20 0xFFFFFFFFFFFFFFFFFFFFFFFFFFFFFFFFFFFFFFFF AND PUSH20 0xFFFFFFFFFFFFFFFFFFFFFFFFFFFFFFFFFFFFFFFF AND PUSH20 0xFFFFFFFFFFFFFFFFFFFFFFFFFFFFFFFFFFFFFFFF AND DUP2 MSTORE PUSH1 0x20 ADD PUSH1 0x5 DUP3 ADD SLOAD DUP2 MSTORE PUSH1 0x20 ADD PUSH1 0x6 DUP3 ADD PUSH0 SWAP1 SLOAD SWAP1 PUSH2 0x100 EXP SWAP1 DIV PUSH1 0xFF AND ISZERO ISZERO ISZERO ISZERO DUP2 MSTORE POP POP DUP5 DUP7 DUP2 MLOAD DUP2 LT PUSH2 0x34B JUMPI PUSH2 0x34A PUSH2 0xD8F JUMP JUMPDEST JUMPDEST PUSH1 0x20 MUL PUSH1 0x20 ADD ADD DUP2 SWAP1 MSTORE POP PUSH1 0x1 DUP6 PUSH2 0x363 SWAP2 SWAP1 PUSH2 0xD5C JUMP JUMPDEST SWAP5 POP POP POP JUMPDEST DUP1 DUP1 PUSH1 0x1 ADD SWAP2 POP POP PUSH2 0x158 JUMP JUMPDEST POP DUP1 SWAP5 POP POP POP POP POP SWAP1 JUMP JUMPDEST PUSH0 PUSH1 0x4 SLOAD SWAP1 POP SWAP1 JUMP JUMPDEST PUSH2 0x391 PUSH2 0x8F8 JUMP JUMPDEST PUSH0 DUP2 GT PUSH2 0x3D3 JUMPI PUSH1 0x40 MLOAD PUSH32 0x8C379A000000000000000000000000000000000000000000000000000000000 DUP2 MSTORE PUSH1 0x4 ADD PUSH2 0x3CA SWAP1 PUSH2 0xE16 JUMP JUMPDEST PUSH1 0x40 MLOAD DUP1 SWAP2 SUB SWAP1 REVERT JUMPDEST PUSH1 0x4 SLOAD CALLVALUE EQ PUSH2 0x417 JUMPI PUSH1 0x40 MLOAD PUSH32 0x8C379A000000000000000000000000000000000000000000000000000000000 DUP2 MSTORE PUSH1 0x4 ADD PUSH2 0x40E SWAP1 PUSH2 0xEA4 JUMP JUMPDEST PUSH1 0x40 MLOAD DUP1 SWAP2 SUB SWAP1 REVERT JUMPDEST PUSH2 0x421 PUSH1 0x1 PUSH2 0x945 JUMP JUMPDEST PUSH0 PUSH2 0x42C PUSH1 0x1 PUSH2 0x8EC JUMP JUMPDEST SWAP1 POP PUSH1 0x40 MLOAD DUP1 PUSH1 0xE0 ADD PUSH1 0x40 MSTORE DUP1 DUP3 DUP2 MSTORE PUSH1 0x20 ADD DUP6 PUSH20 0xFFFFFFFFFFFFFFFFFFFFFFFFFFFFFFFFFFFFFFFF AND DUP2 MSTORE PUSH1 0x20 ADD DUP5 DUP2 MSTORE PUSH1 0x20 ADD CALLER PUSH20 0xFFFFFFFFFFFFFFFFFFFFFFFFFFFFFFFFFFFFFFFF AND DUP2 MSTORE PUSH1 0x20 ADD PUSH0 PUSH20 0xFFFFFFFFFFFFFFFFFFFFFFFFFFFFFFFFFFFFFFFF AND DUP2 MSTORE PUSH1 0x20 ADD DUP4 DUP2 MSTORE PUSH1 0x20 ADD PUSH0 ISZERO ISZERO DUP2 MSTORE POP PUSH1 0x5 PUSH0 DUP4 DUP2 MSTORE PUSH1 0x20 ADD SWAP1 DUP2 MSTORE PUSH1 0x20 ADD PUSH0 KECCAK256 PUSH0 DUP3 ADD MLOAD DUP2 PUSH0 ADD SSTORE PUSH1 0x20 DUP3 ADD MLOAD DUP2 PUSH1 0x1 ADD PUSH0 PUSH2 0x100 EXP DUP2 SLOAD DUP2 PUSH20 0xFFFFFFFFFFFFFFFFFFFFFFFFFFFFFFFFFFFFFFFF MUL NOT AND SWAP1 DUP4 PUSH20 0xFFFFFFFFFFFFFFFFFFFFFFFFFFFFFFFFFFFFFFFF AND MUL OR SWAP1 SSTORE POP PUSH1 0x40 DUP3 ADD MLOAD DUP2 PUSH1 0x2 ADD SSTORE PUSH1 0x60 DUP3 ADD MLOAD DUP2 PUSH1 0x3 ADD PUSH0 PUSH2 0x100 EXP DUP2 SLOAD DUP2 PUSH20 0xFFFFFFFFFFFFFFFFFFFFFFFFFFFFFFFFFFFFFFFF MUL NOT AND SWAP1 DUP4 PUSH20 0xFFFFFFFFFFFFFFFFFFFFFFFFFFFFFFFFFFFFFFFF AND MUL OR SWAP1 SSTORE POP PUSH1 0x80 DUP3 ADD MLOAD DUP2 PUSH1 0x4 ADD PUSH0 PUSH2 0x100 EXP DUP2 SLOAD DUP2 PUSH20 0xFFFFFFFFFFFFFFFFFFFFFFFFFFFFFFFFFFFFFFFF MUL NOT AND SWAP1 DUP4 PUSH20 0xFFFFFFFFFFFFFFFFFFFFFFFFFFFFFFFFFFFFFFFF AND MUL OR SWAP1 SSTORE POP PUSH1 0xA0 DUP3 ADD MLOAD DUP2 PUSH1 0x5 ADD SSTORE PUSH1 0xC0 DUP3 ADD MLOAD DUP2 PUSH1 0x6 ADD PUSH0 PUSH2 0x100 EXP DUP2 SLOAD DUP2 PUSH1 0xFF MUL NOT AND SWAP1 DUP4 ISZERO ISZERO MUL OR SWAP1 SSTORE POP SWAP1 POP POP DUP4 PUSH20 0xFFFFFFFFFFFFFFFFFFFFFFFFFFFFFFFFFFFFFFFF AND PUSH4 0x23B872DD CALLER ADDRESS DUP7 PUSH1 0x40 MLOAD DUP5 PUSH4 0xFFFFFFFF AND PUSH1 0xE0 SHL DUP2 MSTORE PUSH1 0x4 ADD PUSH2 0x603 SWAP4 SWAP3 SWAP2 SWAP1 PUSH2 0xED1 JUMP JUMPDEST PUSH0 PUSH1 0x40 MLOAD DUP1 DUP4 SUB DUP2 PUSH0 DUP8 DUP1 EXTCODESIZE ISZERO DUP1 ISZERO PUSH2 0x61A JUMPI PUSH0 DUP1 REVERT JUMPDEST POP GAS CALL ISZERO DUP1 ISZERO PUSH2 0x62C JUMPI RETURNDATASIZE PUSH0 DUP1 RETURNDATACOPY RETURNDATASIZE PUSH0 REVERT JUMPDEST POP POP POP POP DUP3 DUP5 PUSH20 0xFFFFFFFFFFFFFFFFFFFFFFFFFFFFFFFFFFFFFFFF AND DUP3 PUSH32 0x45DFA01DCBA2B36ABA1D3DC4A874F4B0C5D2FBEB8D2C4B34A7D88C8D8F929D1 CALLER PUSH0 DUP8 PUSH0 PUSH1 0x40 MLOAD PUSH2 0x67E SWAP5 SWAP4 SWAP3 SWAP2 SWAP1 PUSH2 0xF15 JUMP JUMPDEST PUSH1 0x40 MLOAD DUP1 SWAP2 SUB SWAP1 LOG4 POP PUSH2 0x68F PUSH2 0x959 JUMP JUMPDEST POP POP POP JUMP JUMPDEST PUSH2 0x69C PUSH2 0x8F8 JUMP JUMPDEST PUSH0 PUSH1 0x5 PUSH0 DUP4 DUP2 MSTORE PUSH1 0x20 ADD SWAP1 DUP2 MSTORE PUSH1 0x20 ADD PUSH0 KECCAK256 PUSH1 0x5 ADD SLOAD SWAP1 POP PUSH0 PUSH1 0x5 PUSH0 DUP5 DUP2 MSTORE PUSH1 0x20 ADD SWAP1 DUP2 MSTORE PUSH1 0x20 ADD PUSH0 KECCAK256 PUSH1 0x2 ADD SLOAD SWAP1 POP DUP2 CALLVALUE EQ PUSH2 0x70E JUMPI PUSH1 0x40 MLOAD PUSH32 0x8C379A000000000000000000000000000000000000000000000000000000000 DUP2 MSTORE PUSH1 0x4 ADD PUSH2 0x705 SWAP1 PUSH2 0xFA2 JUMP JUMPDEST PUSH1 0x40 MLOAD DUP1 SWAP2 SUB SWAP1 REVERT JUMPDEST PUSH1 0x5 PUSH0 DUP5 DUP2 MSTORE PUSH1 0x20 ADD SWAP1 DUP2 MSTORE PUSH1 0x20 ADD PUSH0 KECCAK256 PUSH1 0x3 ADD PUSH0 SWAP1 SLOAD SWAP1 PUSH2 0x100 EXP SWAP1 DIV PUSH20 0xFFFFFFFFFFFFFFFFFFFFFFFFFFFFFFFFFFFFFFFF AND PUSH20 0xFFFFFFFFFFFFFFFFFFFFFFFFFFFFFFFFFFFFFFFF AND PUSH2 0x8FC CALLVALUE SWAP1 DUP2 ISZERO MUL SWAP1 PUSH1 0x40 MLOAD PUSH0 PUSH1 0x40 MLOAD DUP1 DUP4 SUB DUP2 DUP6 DUP9 DUP9 CALL SWAP4 POP POP POP POP ISZERO DUP1 ISZERO PUSH2 0x784 JUMPI RETURNDATASIZE PUSH0 DUP1 RETURNDATACOPY RETURNDATASIZE PUSH0 REVERT JUMPDEST POP DUP4 PUSH20 0xFFFFFFFFFFFFFFFFFFFFFFFFFFFFFFFFFFFFFFFF AND PUSH4 0x23B872DD ADDRESS CALLER DUP5 PUSH1 0x40 MLOAD DUP5 PUSH4 0xFFFFFFFF AND PUSH1 0xE0 SHL DUP2 MSTORE PUSH1 0x4 ADD PUSH2 0x7C2 SWAP4 SWAP3 SWAP2 SWAP1 PUSH2 0xED1 JUMP JUMPDEST PUSH0 PUSH1 0x40 MLOAD DUP1 DUP4 SUB DUP2 PUSH0 DUP8 DUP1 EXTCODESIZE ISZERO DUP1 ISZERO PUSH2 0x7D9 JUMPI PUSH0 DUP1 REVERT JUMPDEST POP GAS CALL ISZERO DUP1 ISZERO PUSH2 0x7EB JUMPI RETURNDATASIZE PUSH0 DUP1 RETURNDATACOPY RETURNDATASIZE PUSH0 REVERT JUMPDEST POP POP POP POP CALLER PUSH1 0x5 PUSH0 DUP6 DUP2 MSTORE PUSH1 0x20 ADD SWAP1 DUP2 MSTORE PUSH1 0x20 ADD PUSH0 KECCAK256 PUSH1 0x4 ADD PUSH0 PUSH2 0x100 EXP DUP2 SLOAD DUP2 PUSH20 0xFFFFFFFFFFFFFFFFFFFFFFFFFFFFFFFFFFFFFFFF MUL NOT AND SWAP1 DUP4 PUSH20 0xFFFFFFFFFFFFFFFFFFFFFFFFFFFFFFFFFFFFFFFF AND MUL OR SWAP1 SSTORE POP PUSH1 0x1 PUSH1 0x5 PUSH0 DUP6 DUP2 MSTORE PUSH1 0x20 ADD SWAP1 DUP2 MSTORE PUSH1 0x20 ADD PUSH0 KECCAK256 PUSH1 0x6 ADD PUSH0 PUSH2 0x100 EXP DUP2 SLOAD DUP2 PUSH1 0xFF MUL NOT AND SWAP1 DUP4 ISZERO ISZERO MUL OR SWAP1 SSTORE POP PUSH2 0x877 PUSH1 0x2 PUSH2 0x945 JUMP JUMPDEST PUSH1 0x3 PUSH0 SWAP1 SLOAD SWAP1 PUSH2 0x100 EXP SWAP1 DIV PUSH20 0xFFFFFFFFFFFFFFFFFFFFFFFFFFFFFFFFFFFFFFFF AND PUSH20 0xFFFFFFFFFFFFFFFFFFFFFFFFFFFFFFFFFFFFFFFF AND PUSH2 0x8FC PUSH1 0x4 SLOAD SWAP1 DUP2 ISZERO MUL SWAP1 PUSH1 0x40 MLOAD PUSH0 PUSH1 0x40 MLOAD DUP1 DUP4 SUB DUP2 DUP6 DUP9 DUP9 CALL SWAP4 POP POP POP POP ISZERO DUP1 ISZERO PUSH2 0x8DD JUMPI RETURNDATASIZE PUSH0 DUP1 RETURNDATACOPY RETURNDATASIZE PUSH0 REVERT JUMPDEST POP POP POP PUSH2 0x8E8 PUSH2 0x959 JUMP JUMPDEST POP POP JUMP JUMPDEST PUSH0 DUP2 PUSH0 ADD SLOAD SWAP1 POP SWAP2 SWAP1 POP JUMP JUMPDEST PUSH1 0x2 PUSH0 SLOAD SUB PUSH2 0x93C JUMPI PUSH1 0x40 MLOAD PUSH32 0x8C379A000000000000000000000000000000000000000000000000000000000 DUP2 MSTORE PUSH1 0x4 ADD PUSH2 0x933 SWAP1 PUSH2 0x100A JUMP JUMPDEST PUSH1 0x40 MLOAD DUP1 SWAP2 SUB SWAP1 REVERT JUMPDEST PUSH1 0x2 PUSH0 DUP2 SWAP1 SSTORE POP JUMP JUMPDEST PUSH1 0x1 DUP2 PUSH0 ADD PUSH0 DUP3 DUP3 SLOAD ADD SWAP3 POP POP DUP2 SWAP1 SSTORE POP POP JUMP JUMPDEST PUSH1 0x1 PUSH0 DUP2 SWAP1 SSTORE POP JUMP JUMPDEST PUSH1 0x40 MLOAD DUP1 PUSH1 0xE0 ADD PUSH1 0x40 MSTORE DUP1 PUSH0 DUP2 MSTORE PUSH1 0x20 ADD PUSH0 PUSH20 0xFFFFFFFFFFFFFFFFFFFFFFFFFFFFFFFFFFFFFFFF AND DUP2 MSTORE PUSH1 0x20 ADD PUSH0 DUP2 MSTORE PUSH1 0x20 ADD PUSH0 PUSH20 0xFFFFFFFFFFFFFFFFFFFFFFFFFFFFFFFFFFFFFFFF AND DUP2 MSTORE PUSH1 0x20 ADD PUSH0 PUSH20 0xFFFFFFFFFFFFFFFFFFFFFFFFFFFFFFFFFFFFFFFF AND DUP2 MSTORE PUSH1 0x20 ADD PUSH0 DUP2 MSTORE PUSH1 0x20 ADD PUSH0 ISZERO ISZERO DUP2 MSTORE POP SWAP1 JUMP JUMPDEST PUSH0 DUP2 MLOAD SWAP1 POP SWAP2 SWAP1 POP JUMP JUMPDEST PUSH0 DUP3 DUP3 MSTORE PUSH1 0x20 DUP3 ADD SWAP1 POP SWAP3 SWAP2 POP POP JUMP JUMPDEST PUSH0 DUP2 SWAP1 POP PUSH1 0x20 DUP3 ADD SWAP1 POP SWAP2 SWAP1 POP JUMP JUMPDEST PUSH0 DUP2 SWAP1 POP SWAP2 SWAP1 POP JUMP JUMPDEST PUSH2 0xA17 DUP2 PUSH2 0xA05 JUMP JUMPDEST DUP3 MSTORE POP POP JUMP JUMPDEST PUSH0 PUSH20 0xFFFFFFFFFFFFFFFFFFFFFFFFFFFFFFFFFFFFFFFF DUP3 AND SWAP1 POP SWAP2 SWAP1 POP JUMP JUMPDEST PUSH0 PUSH2 0xA46 DUP3 PUSH2 0xA1D JUMP JUMPDEST SWAP1 POP SWAP2 SWAP1 POP JUMP JUMPDEST PUSH2 0xA56 DUP2 PUSH2 0xA3C JUMP JUMPDEST DUP3 MSTORE POP POP JUMP JUMPDEST PUSH0 PUSH2 0xA66 DUP3 PUSH2 0xA1D JUMP JUMPDEST SWAP1 POP SWAP2 SWAP1 POP JUMP JUMPDEST PUSH2 0xA76 DUP2 PUSH2 0xA5C JUMP JUMPDEST DUP3 MSTORE POP POP JUMP JUMPDEST PUSH0 DUP2 ISZERO ISZERO SWAP1 POP SWAP2 SWAP1 POP JUMP JUMPDEST PUSH2 0xA90 DUP2 PUSH2 0xA7C JUMP JUMPDEST DUP3 MSTORE POP POP JUMP JUMPDEST PUSH1 0xE0 DUP3 ADD PUSH0 DUP3 ADD MLOAD PUSH2 0xAAA PUSH0 DUP6 ADD DUP3 PUSH2 0xA0E JUMP JUMPDEST POP PUSH1 0x20 DUP3 ADD MLOAD PUSH2 0xABD PUSH1 0x20 DUP6 ADD DUP3 PUSH2 0xA4D JUMP JUMPDEST POP PUSH1 0x40 DUP3 ADD MLOAD PUSH2 0xAD0 PUSH1 0x40 DUP6 ADD DUP3 PUSH2 0xA0E JUMP JUMPDEST POP PUSH1 0x60 DUP3 ADD MLOAD PUSH2 0xAE3 PUSH1 0x60 DUP6 ADD DUP3 PUSH2 0xA6D JUMP JUMPDEST POP PUSH1 0x80 DUP3 ADD MLOAD PUSH2 0xAF6 PUSH1 0x80 DUP6 ADD DUP3 PUSH2 0xA6D JUMP JUMPDEST POP PUSH1 0xA0 DUP3 ADD MLOAD PUSH2 0xB09 PUSH1 0xA0 DUP6 ADD DUP3 PUSH2 0xA0E JUMP JUMPDEST POP PUSH1 0xC0 DUP3 ADD MLOAD PUSH2 0xB1C PUSH1 0xC0 DUP6 ADD DUP3 PUSH2 0xA87 JUMP JUMPDEST POP POP POP POP JUMP JUMPDEST PUSH0 PUSH2 0xB2D DUP4 DUP4 PUSH2 0xA96 JUMP JUMPDEST PUSH1 0xE0 DUP4 ADD SWAP1 POP SWAP3 SWAP2 POP POP JUMP JUMPDEST PUSH0 PUSH1 0x20 DUP3 ADD SWAP1 POP SWAP2 SWAP1 POP JUMP JUMPDEST PUSH0 PUSH2 0xB4F DUP3 PUSH2 0x9DC JUMP JUMPDEST PUSH2 0xB59 DUP2 DUP6 PUSH2 0x9E6 JUMP JUMPDEST SWAP4 POP PUSH2 0xB64 DUP4 PUSH2 0x9F6 JUMP JUMPDEST DUP1 PUSH0 JUMPDEST DUP4 DUP2 LT ISZERO PUSH2 0xB94 JUMPI DUP2 MLOAD PUSH2 0xB7B DUP9 DUP3 PUSH2 0xB22 JUMP JUMPDEST SWAP8 POP PUSH2 0xB86 DUP4 PUSH2 0xB39 JUMP JUMPDEST SWAP3 POP POP PUSH1 0x1 DUP2 ADD SWAP1 POP PUSH2 0xB67 JUMP JUMPDEST POP DUP6 SWAP4 POP POP POP POP SWAP3 SWAP2 POP POP JUMP JUMPDEST PUSH0 PUSH1 0x20 DUP3 ADD SWAP1 POP DUP2 DUP2 SUB PUSH0 DUP4 ADD MSTORE PUSH2 0xBB9 DUP2 DUP5 PUSH2 0xB45 JUMP JUMPDEST SWAP1 POP SWAP3 SWAP2 POP POP JUMP JUMPDEST PUSH2 0xBCA DUP2 PUSH2 0xA05 JUMP JUMPDEST DUP3 MSTORE POP POP JUMP JUMPDEST PUSH0 PUSH1 0x20 DUP3 ADD SWAP1 POP PUSH2 0xBE3 PUSH0 DUP4 ADD DUP5 PUSH2 0xBC1 JUMP JUMPDEST SWAP3 SWAP2 POP POP JUMP JUMPDEST PUSH0 DUP1 REVERT JUMPDEST PUSH2 0xBF6 DUP2 PUSH2 0xA3C JUMP JUMPDEST DUP2 EQ PUSH2 0xC00 JUMPI PUSH0 DUP1 REVERT JUMPDEST POP JUMP JUMPDEST PUSH0 DUP2 CALLDATALOAD SWAP1 POP PUSH2 0xC11 DUP2 PUSH2 0xBED JUMP JUMPDEST SWAP3 SWAP2 POP POP JUMP JUMPDEST PUSH2 0xC20 DUP2 PUSH2 0xA05 JUMP JUMPDEST DUP2 EQ PUSH2 0xC2A JUMPI PUSH0 DUP1 REVERT JUMPDEST POP JUMP JUMPDEST PUSH0 DUP2 CALLDATALOAD SWAP1 POP PUSH2 0xC3B DUP2 PUSH2 0xC17 JUMP JUMPDEST SWAP3 SWAP2 POP POP JUMP JUMPDEST PUSH0 DUP1 PUSH0 PUSH1 0x60 DUP5 DUP7 SUB SLT ISZERO PUSH2 0xC58 JUMPI PUSH2 0xC57 PUSH2 0xBE9 JUMP JUMPDEST JUMPDEST PUSH0 PUSH2 0xC65 DUP7 DUP3 DUP8 ADD PUSH2 0xC03 JUMP JUMPDEST SWAP4 POP POP PUSH1 0x20 PUSH2 0xC76 DUP7 DUP3 DUP8 ADD PUSH2 0xC2D JUMP JUMPDEST SWAP3 POP POP PUSH1 0x40 PUSH2 0xC87 DUP7 DUP3 DUP8 ADD PUSH2 0xC2D JUMP JUMPDEST SWAP2 POP POP SWAP3 POP SWAP3 POP SWAP3 JUMP JUMPDEST PUSH0 DUP1 PUSH1 0x40 DUP4 DUP6 SUB SLT ISZERO PUSH2 0xCA7 JUMPI PUSH2 0xCA6 PUSH2 0xBE9 JUMP JUMPDEST JUMPDEST PUSH0 PUSH2 0xCB4 DUP6 DUP3 DUP7 ADD PUSH2 0xC03 JUMP JUMPDEST SWAP3 POP POP PUSH1 0x20 PUSH2 0xCC5 DUP6 DUP3 DUP7 ADD PUSH2 0xC2D JUMP JUMPDEST SWAP2 POP POP SWAP3 POP SWAP3 SWAP1 POP JUMP JUMPDEST PUSH32 0x4E487B7100000000000000000000000000000000000000000000000000000000 PUSH0 MSTORE PUSH1 0x11 PUSH1 0x4 MSTORE PUSH1 0x24 PUSH0 REVERT JUMPDEST PUSH0 PUSH2 0xD06 DUP3 PUSH2 0xA05 JUMP JUMPDEST SWAP2 POP PUSH2 0xD11 DUP4 PUSH2 0xA05 JUMP JUMPDEST SWAP3 POP DUP3 DUP3 SUB SWAP1 POP DUP2 DUP2 GT ISZERO PUSH2 0xD29 JUMPI PUSH2 0xD28 PUSH2 0xCCF JUMP JUMPDEST JUMPDEST SWAP3 SWAP2 POP POP JUMP JUMPDEST PUSH32 0x4E487B7100000000000000000000000000000000000000000000000000000000 PUSH0 MSTORE PUSH1 0x41 PUSH1 0x4 MSTORE PUSH1 0x24 PUSH0 REVERT JUMPDEST PUSH0 PUSH2 0xD66 DUP3 PUSH2 0xA05 JUMP JUMPDEST SWAP2 POP PUSH2 0xD71 DUP4 PUSH2 0xA05 JUMP JUMPDEST SWAP3 POP DUP3 DUP3 ADD SWAP1 POP DUP1 DUP3 GT ISZERO PUSH2 0xD89 JUMPI PUSH2 0xD88 PUSH2 0xCCF JUMP JUMPDEST JUMPDEST SWAP3 SWAP2 POP POP JUMP JUMPDEST PUSH32 0x4E487B7100000000000000000000000000000000000000000000000000000000 PUSH0 MSTORE PUSH1 0x32 PUSH1 0x4 MSTORE PUSH1 0x24 PUSH0 REVERT JUMPDEST PUSH0 DUP3 DUP3 MSTORE PUSH1 0x20 DUP3 ADD SWAP1 POP SWAP3 SWAP2 POP POP JUMP JUMPDEST PUSH32 0x5072696365206D7573742062652067726561746572207468616E203000000000 PUSH0 DUP3 ADD MSTORE POP JUMP JUMPDEST PUSH0 PUSH2 0xE00 PUSH1 0x1C DUP4 PUSH2 0xDBC JUMP JUMPDEST SWAP2 POP PUSH2 0xE0B DUP3 PUSH2 0xDCC JUMP JUMPDEST PUSH1 0x20 DUP3 ADD SWAP1 POP SWAP2 SWAP1 POP JUMP JUMPDEST PUSH0 PUSH1 0x20 DUP3 ADD SWAP1 POP DUP2 DUP2 SUB PUSH0 DUP4 ADD MSTORE PUSH2 0xE2D DUP2 PUSH2 0xDF4 JUMP JUMPDEST SWAP1 POP SWAP2 SWAP1 POP JUMP JUMPDEST PUSH32 0x5072696365206D75737420626520657175616C20746F206C697374696E672070 PUSH0 DUP3 ADD MSTORE PUSH32 0x7269636500000000000000000000000000000000000000000000000000000000 PUSH1 0x20 DUP3 ADD MSTORE POP JUMP JUMPDEST PUSH0 PUSH2 0xE8E PUSH1 0x24 DUP4 PUSH2 0xDBC JUMP JUMPDEST SWAP2 POP PUSH2 0xE99 DUP3 PUSH2 0xE34 JUMP JUMPDEST PUSH1 0x40 DUP3 ADD SWAP1 POP SWAP2 SWAP1 POP JUMP JUMPDEST PUSH0 PUSH1 0x20 DUP3 ADD SWAP1 POP DUP2 DUP2 SUB PUSH0 DUP4 ADD MSTORE PUSH2 0xEBB DUP2 PUSH2 0xE82 JUMP JUMPDEST SWAP1 POP SWAP2 SWAP1 POP JUMP JUMPDEST PUSH2 0xECB DUP2 PUSH2 0xA3C JUMP JUMPDEST DUP3 MSTORE POP POP JUMP JUMPDEST PUSH0 PUSH1 0x60 DUP3 ADD SWAP1 POP PUSH2 0xEE4 PUSH0 DUP4 ADD DUP7 PUSH2 0xEC2 JUMP JUMPDEST PUSH2 0xEF1 PUSH1 0x20 DUP4 ADD DUP6 PUSH2 0xEC2 JUMP JUMPDEST PUSH2 0xEFE PUSH1 0x40 DUP4 ADD DUP5 PUSH2 0xBC1 JUMP JUMPDEST SWAP5 SWAP4 POP POP POP POP JUMP JUMPDEST PUSH2 0xF0F DUP2 PUSH2 0xA7C JUMP JUMPDEST DUP3 MSTORE POP POP JUMP JUMPDEST PUSH0 PUSH1 0x80 DUP3 ADD SWAP1 POP PUSH2 0xF28 PUSH0 DUP4 ADD DUP8 PUSH2 0xEC2 JUMP JUMPDEST PUSH2 0xF35 PUSH1 0x20 DUP4 ADD DUP7 PUSH2 0xEC2 JUMP JUMPDEST PUSH2 0xF42 PUSH1 0x40 DUP4 ADD DUP6 PUSH2 0xBC1 JUMP JUMPDEST PUSH2 0xF4F PUSH1 0x60 DUP4 ADD DUP5 PUSH2 0xF06 JUMP JUMPDEST SWAP6 SWAP5 POP POP POP POP POP JUMP JUMPDEST PUSH32 0x506C65617365207375626D6974207468652061736B696E672070726963650000 PUSH0 DUP3 ADD MSTORE POP JUMP JUMPDEST PUSH0 PUSH2 0xF8C PUSH1 0x1E DUP4 PUSH2 0xDBC JUMP JUMPDEST SWAP2 POP PUSH2 0xF97 DUP3 PUSH2 0xF58 JUMP JUMPDEST PUSH1 0x20 DUP3 ADD SWAP1 POP SWAP2 SWAP1 POP JUMP JUMPDEST PUSH0 PUSH1 0x20 DUP3 ADD SWAP1 POP DUP2 DUP2 SUB PUSH0 DUP4 ADD MSTORE PUSH2 0xFB9 DUP2 PUSH2 0xF80 JUMP JUMPDEST SWAP1 POP SWAP2 SWAP1 POP JUMP JUMPDEST PUSH32 0x5265656E7472616E637947756172643A207265656E7472616E742063616C6C00 PUSH0 DUP3 ADD MSTORE POP JUMP JUMPDEST PUSH0 PUSH2 0xFF4 PUSH1 0x1F DUP4 PUSH2 0xDBC JUMP JUMPDEST SWAP2 POP PUSH2 0xFFF DUP3 PUSH2 0xFC0 JUMP JUMPDEST PUSH1 0x20 DUP3 ADD SWAP1 POP SWAP2 SWAP1 POP JUMP JUMPDEST PUSH0 PUSH1 0x20 DUP3 ADD SWAP1 POP DUP2 DUP2 SUB PUSH0 DUP4 ADD MSTORE PUSH2 0x1021 DUP2 PUSH2 0xFE8 JUMP JUMPDEST SWAP1 POP SWAP2 SWAP1 POP JUMP INVALID LOG2 PUSH5 0x6970667358 0x22 SLT KECCAK256 0xE7 MSIZE DUP2 0x22 SWAP12 0xED 0xB6 SWAP12 0xC1 SMOD 0xBF SIGNEXTEND 0x2D DUP6 SWAP8 CALLER 0xE3 0x2A DUP1 EXTCODEHASH DELEGATECALL 0xAE 0xBC TSTORE STOP 0xD2 0xBB 0x24 0x4D PUSH32 0x463D64736F6C634300081A003300000000000000000000000000000000000000 "
				},
				"gasEstimates": {
					"creation": {
						"codeDepositCost": "838000",
						"executionCost": "69352",
						"totalCost": "907352"
					},
					"external": {
						"createMarketItem(address,uint256,uint256)": "infinite",
						"createMarketSale(address,uint256)": "infinite",
						"fetchMarketItems()": "infinite",
						"getListingPrice()": "2432"
					}
				},
				"methodIdentifiers": {
					"createMarketItem(address,uint256,uint256)": "58eb2df5",
					"createMarketSale(address,uint256)": "c23b139e",
					"fetchMarketItems()": "0f08efe0",
					"getListingPrice()": "12e85585"
				}
			},
			"storageLayout": {
				"storage": [
					{
						"astId": 147,
						"contract": "Intermediate Level LOL/NFT Marketplace/contracts/NFTMark.sol:NFTMarketplace",
						"label": "_status",
						"offset": 0,
						"slot": "0",
						"type": "t_uint256"
					},
					{
						"astId": 6319,
						"contract": "Intermediate Level LOL/NFT Marketplace/contracts/NFTMark.sol:NFTMarketplace",
						"label": "_itemIds",
						"offset": 0,
						"slot": "1",
						"type": "t_struct(Counter)1434_storage"
					},
					{
						"astId": 6322,
						"contract": "Intermediate Level LOL/NFT Marketplace/contracts/NFTMark.sol:NFTMarketplace",
						"label": "_itemsSold",
						"offset": 0,
						"slot": "2",
						"type": "t_struct(Counter)1434_storage"
					},
					{
						"astId": 6324,
						"contract": "Intermediate Level LOL/NFT Marketplace/contracts/NFTMark.sol:NFTMarketplace",
						"label": "owner",
						"offset": 0,
						"slot": "3",
						"type": "t_address_payable"
					},
					{
						"astId": 6327,
						"contract": "Intermediate Level LOL/NFT Marketplace/contracts/NFTMark.sol:NFTMarketplace",
						"label": "listingPrice",
						"offset": 0,
						"slot": "4",
						"type": "t_uint256"
					},
					{
						"astId": 6347,
						"contract": "Intermediate Level LOL/NFT Marketplace/contracts/NFTMark.sol:NFTMarketplace",
						"label": "idToMarketItem",
						"offset": 0,
						"slot": "5",
						"type": "t_mapping(t_uint256,t_struct(MarketItem)6342_storage)"
					}
				],
				"types": {
					"t_address": {
						"encoding": "inplace",
						"label": "address",
						"numberOfBytes": "20"
					},
					"t_address_payable": {
						"encoding": "inplace",
						"label": "address payable",
						"numberOfBytes": "20"
					},
					"t_bool": {
						"encoding": "inplace",
						"label": "bool",
						"numberOfBytes": "1"
					},
					"t_mapping(t_uint256,t_struct(MarketItem)6342_storage)": {
						"encoding": "mapping",
						"key": "t_uint256",
						"label": "mapping(uint256 => struct NFTMarketplace.MarketItem)",
						"numberOfBytes": "32",
						"value": "t_struct(MarketItem)6342_storage"
					},
					"t_struct(Counter)1434_storage": {
						"encoding": "inplace",
						"label": "struct Counters.Counter",
						"members": [
							{
								"astId": 1433,
								"contract": "Intermediate Level LOL/NFT Marketplace/contracts/NFTMark.sol:NFTMarketplace",
								"label": "_value",
								"offset": 0,
								"slot": "0",
								"type": "t_uint256"
							}
						],
						"numberOfBytes": "32"
					},
					"t_struct(MarketItem)6342_storage": {
						"encoding": "inplace",
						"label": "struct NFTMarketplace.MarketItem",
						"members": [
							{
								"astId": 6329,
								"contract": "Intermediate Level LOL/NFT Marketplace/contracts/NFTMark.sol:NFTMarketplace",
								"label": "itemId",
								"offset": 0,
								"slot": "0",
								"type": "t_uint256"
							},
							{
								"astId": 6331,
								"contract": "Intermediate Level LOL/NFT Marketplace/contracts/NFTMark.sol:NFTMarketplace",
								"label": "nftContract",
								"offset": 0,
								"slot": "1",
								"type": "t_address"
							},
							{
								"astId": 6333,
								"contract": "Intermediate Level LOL/NFT Marketplace/contracts/NFTMark.sol:NFTMarketplace",
								"label": "tokenId",
								"offset": 0,
								"slot": "2",
								"type": "t_uint256"
							},
							{
								"astId": 6335,
								"contract": "Intermediate Level LOL/NFT Marketplace/contracts/NFTMark.sol:NFTMarketplace",
								"label": "seller",
								"offset": 0,
								"slot": "3",
								"type": "t_address_payable"
							},
							{
								"astId": 6337,
								"contract": "Intermediate Level LOL/NFT Marketplace/contracts/NFTMark.sol:NFTMarketplace",
								"label": "owner",
								"offset": 0,
								"slot": "4",
								"type": "t_address_payable"
							},
							{
								"astId": 6339,
								"contract": "Intermediate Level LOL/NFT Marketplace/contracts/NFTMark.sol:NFTMarketplace",
								"label": "price",
								"offset": 0,
								"slot": "5",
								"type": "t_uint256"
							},
							{
								"astId": 6341,
								"contract": "Intermediate Level LOL/NFT Marketplace/contracts/NFTMark.sol:NFTMarketplace",
								"label": "sold",
								"offset": 0,
								"slot": "6",
								"type": "t_bool"
							}
						],
						"numberOfBytes": "224"
					},
					"t_uint256": {
						"encoding": "inplace",
						"label": "uint256",
						"numberOfBytes": "32"
					}
				}
			},
			"userdoc": {
				"kind": "user",
				"methods": {},
				"version": 1
			}
		}
	}
}