{
	"Intermediate Level LOL/Multi-Signature Wallet/contracts/MultiSig.sol": {
		"MultiSigWallet": {
			"abi": [
				{
					"inputs": [
						{
							"internalType": "address[]",
							"name": "_owners",
							"type": "address[]"
						},
						{
							"internalType": "uint256",
							"name": "_requiredApprovals",
							"type": "uint256"
						}
					],
					"stateMutability": "nonpayable",
					"type": "constructor"
				},
				{
					"anonymous": false,
					"inputs": [
						{
							"indexed": false,
							"internalType": "address",
							"name": "owner",
							"type": "address"
						}
					],
					"name": "OwnerAdded",
					"type": "event"
				},
				{
					"anonymous": false,
					"inputs": [
						{
							"indexed": true,
							"internalType": "uint256",
							"name": "txIndex",
							"type": "uint256"
						},
						{
							"indexed": true,
							"internalType": "address",
							"name": "owner",
							"type": "address"
						}
					],
					"name": "TransactionApproved",
					"type": "event"
				},
				{
					"anonymous": false,
					"inputs": [
						{
							"indexed": true,
							"internalType": "uint256",
							"name": "txIndex",
							"type": "uint256"
						}
					],
					"name": "TransactionExecuted",
					"type": "event"
				},
				{
					"anonymous": false,
					"inputs": [
						{
							"indexed": true,
							"internalType": "uint256",
							"name": "txIndex",
							"type": "uint256"
						},
						{
							"indexed": true,
							"internalType": "address",
							"name": "to",
							"type": "address"
						},
						{
							"indexed": false,
							"internalType": "uint256",
							"name": "value",
							"type": "uint256"
						}
					],
					"name": "TransactionSubmitted",
					"type": "event"
				},
				{
					"inputs": [
						{
							"internalType": "uint256",
							"name": "",
							"type": "uint256"
						},
						{
							"internalType": "address",
							"name": "",
							"type": "address"
						}
					],
					"name": "approvals",
					"outputs": [
						{
							"internalType": "bool",
							"name": "",
							"type": "bool"
						}
					],
					"stateMutability": "view",
					"type": "function"
				},
				{
					"inputs": [
						{
							"internalType": "uint256",
							"name": "_txIndex",
							"type": "uint256"
						}
					],
					"name": "approveTransaction",
					"outputs": [],
					"stateMutability": "nonpayable",
					"type": "function"
				},
				{
					"inputs": [
						{
							"internalType": "uint256",
							"name": "_txIndex",
							"type": "uint256"
						}
					],
					"name": "executeTransaction",
					"outputs": [],
					"stateMutability": "nonpayable",
					"type": "function"
				},
				{
					"inputs": [],
					"name": "getTransactionCount",
					"outputs": [
						{
							"internalType": "uint256",
							"name": "",
							"type": "uint256"
						}
					],
					"stateMutability": "view",
					"type": "function"
				},
				{
					"inputs": [
						{
							"internalType": "address",
							"name": "",
							"type": "address"
						}
					],
					"name": "isOwner",
					"outputs": [
						{
							"internalType": "bool",
							"name": "",
							"type": "bool"
						}
					],
					"stateMutability": "view",
					"type": "function"
				},
				{
					"inputs": [
						{
							"internalType": "uint256",
							"name": "",
							"type": "uint256"
						}
					],
					"name": "owners",
					"outputs": [
						{
							"internalType": "address",
							"name": "",
							"type": "address"
						}
					],
					"stateMutability": "view",
					"type": "function"
				},
				{
					"inputs": [],
					"name": "requiredApprovals",
					"outputs": [
						{
							"internalType": "uint256",
							"name": "",
							"type": "uint256"
						}
					],
					"stateMutability": "view",
					"type": "function"
				},
				{
					"inputs": [
						{
							"internalType": "address",
							"name": "_to",
							"type": "address"
						},
						{
							"internalType": "uint256",
							"name": "_value",
							"type": "uint256"
						},
						{
							"internalType": "bytes",
							"name": "_data",
							"type": "bytes"
						}
					],
					"name": "submitTransaction",
					"outputs": [
						{
							"internalType": "uint256",
							"name": "",
							"type": "uint256"
						}
					],
					"stateMutability": "nonpayable",
					"type": "function"
				},
				{
					"inputs": [
						{
							"internalType": "uint256",
							"name": "",
							"type": "uint256"
						}
					],
					"name": "transactions",
					"outputs": [
						{
							"internalType": "address",
							"name": "to",
							"type": "address"
						},
						{
							"internalType": "uint256",
							"name": "value",
							"type": "uint256"
						},
						{
							"internalType": "bytes",
							"name": "data",
							"type": "bytes"
						},
						{
							"internalType": "bool",
							"name": "executed",
							"type": "bool"
						},
						{
							"internalType": "uint256",
							"name": "approvalCount",
							"type": "uint256"
						}
					],
					"stateMutability": "view",
					"type": "function"
				},
				{
					"stateMutability": "payable",
					"type": "receive"
				}
			],
			"devdoc": {
				"kind": "dev",
				"methods": {},
				"version": 1
			},
			"evm": {
				"assembly": "    /* \"Intermediate Level LOL/Multi-Signature Wallet/contracts/MultiSig.sol\":60:3672  contract MultiSigWallet {... */\n  mstore(0x40, 0x80)\n    /* \"Intermediate Level LOL/Multi-Signature Wallet/contracts/MultiSig.sol\":1321:1971  constructor(address[] memory _owners, uint256 _requiredApprovals) {... */\n  callvalue\n  dup1\n  iszero\n  tag_1\n  jumpi\n  0x00\n  dup1\n  revert\ntag_1:\n  pop\n  mload(0x40)\n  sub(codesize, bytecodeSize)\n  dup1\n  bytecodeSize\n  dup4\n  codecopy\n  dup2\n  dup2\n  add\n  0x40\n  mstore\n  dup2\n  add\n  swap1\n  tag_2\n  swap2\n  swap1\n  tag_3\n  jump\t// in\ntag_2:\n    /* \"Intermediate Level LOL/Multi-Signature Wallet/contracts/MultiSig.sol\":1423:1424  0 */\n  0x00\n    /* \"Intermediate Level LOL/Multi-Signature Wallet/contracts/MultiSig.sol\":1406:1413  _owners */\n  dup3\n    /* \"Intermediate Level LOL/Multi-Signature Wallet/contracts/MultiSig.sol\":1406:1420  _owners.length */\n  mload\n    /* \"Intermediate Level LOL/Multi-Signature Wallet/contracts/MultiSig.sol\":1406:1424  _owners.length > 0 */\n  gt\n    /* \"Intermediate Level LOL/Multi-Signature Wallet/contracts/MultiSig.sol\":1398:1444  require(_owners.length > 0, \"Owners required\") */\n  tag_6\n  jumpi\n  mload(0x40)\n  0x08c379a000000000000000000000000000000000000000000000000000000000\n  dup2\n  mstore\n  0x04\n  add\n  tag_7\n  swap1\n  tag_8\n  jump\t// in\ntag_7:\n  mload(0x40)\n  dup1\n  swap2\n  sub\n  swap1\n  revert\ntag_6:\n    /* \"Intermediate Level LOL/Multi-Signature Wallet/contracts/MultiSig.sol\":1484:1485  0 */\n  0x00\n    /* \"Intermediate Level LOL/Multi-Signature Wallet/contracts/MultiSig.sol\":1463:1481  _requiredApprovals */\n  dup2\n    /* \"Intermediate Level LOL/Multi-Signature Wallet/contracts/MultiSig.sol\":1463:1485  _requiredApprovals > 0 */\n  gt\n    /* \"Intermediate Level LOL/Multi-Signature Wallet/contracts/MultiSig.sol\":1463:1525  _requiredApprovals > 0 && _requiredApprovals <= _owners.length */\n  dup1\n  iszero\n  tag_9\n  jumpi\n  pop\n    /* \"Intermediate Level LOL/Multi-Signature Wallet/contracts/MultiSig.sol\":1511:1518  _owners */\n  dup2\n    /* \"Intermediate Level LOL/Multi-Signature Wallet/contracts/MultiSig.sol\":1511:1525  _owners.length */\n  mload\n    /* \"Intermediate Level LOL/Multi-Signature Wallet/contracts/MultiSig.sol\":1489:1507  _requiredApprovals */\n  dup2\n    /* \"Intermediate Level LOL/Multi-Signature Wallet/contracts/MultiSig.sol\":1489:1525  _requiredApprovals <= _owners.length */\n  gt\n  iszero\n    /* \"Intermediate Level LOL/Multi-Signature Wallet/contracts/MultiSig.sol\":1463:1525  _requiredApprovals > 0 && _requiredApprovals <= _owners.length */\ntag_9:\n    /* \"Intermediate Level LOL/Multi-Signature Wallet/contracts/MultiSig.sol\":1455:1584  require(_requiredApprovals > 0 && _requiredApprovals <= _owners.length, ... */\n  tag_10\n  jumpi\n  mload(0x40)\n  0x08c379a000000000000000000000000000000000000000000000000000000000\n  dup2\n  mstore\n  0x04\n  add\n  tag_11\n  swap1\n  tag_12\n  jump\t// in\ntag_11:\n  mload(0x40)\n  dup1\n  swap2\n  sub\n  swap1\n  revert\ntag_10:\n    /* \"Intermediate Level LOL/Multi-Signature Wallet/contracts/MultiSig.sol\":1610:1619  uint256 i */\n  0x00\n    /* \"Intermediate Level LOL/Multi-Signature Wallet/contracts/MultiSig.sol\":1605:1905  for (uint256 i = 0; i < _owners.length; i++) {... */\ntag_13:\n    /* \"Intermediate Level LOL/Multi-Signature Wallet/contracts/MultiSig.sol\":1629:1636  _owners */\n  dup3\n    /* \"Intermediate Level LOL/Multi-Signature Wallet/contracts/MultiSig.sol\":1629:1643  _owners.length */\n  mload\n    /* \"Intermediate Level LOL/Multi-Signature Wallet/contracts/MultiSig.sol\":1625:1626  i */\n  dup2\n    /* \"Intermediate Level LOL/Multi-Signature Wallet/contracts/MultiSig.sol\":1625:1643  i < _owners.length */\n  lt\n    /* \"Intermediate Level LOL/Multi-Signature Wallet/contracts/MultiSig.sol\":1605:1905  for (uint256 i = 0; i < _owners.length; i++) {... */\n  iszero\n  tag_14\n  jumpi\n    /* \"Intermediate Level LOL/Multi-Signature Wallet/contracts/MultiSig.sol\":1665:1678  address owner */\n  0x00\n    /* \"Intermediate Level LOL/Multi-Signature Wallet/contracts/MultiSig.sol\":1681:1688  _owners */\n  dup4\n    /* \"Intermediate Level LOL/Multi-Signature Wallet/contracts/MultiSig.sol\":1689:1690  i */\n  dup3\n    /* \"Intermediate Level LOL/Multi-Signature Wallet/contracts/MultiSig.sol\":1681:1691  _owners[i] */\n  dup2\n  mload\n  dup2\n  lt\n  tag_16\n  jumpi\n  tag_17\n  tag_18\n  jump\t// in\ntag_17:\ntag_16:\n  0x20\n  mul\n  0x20\n  add\n  add\n  mload\n    /* \"Intermediate Level LOL/Multi-Signature Wallet/contracts/MultiSig.sol\":1665:1691  address owner = _owners[i] */\n  swap1\n  pop\n    /* \"Intermediate Level LOL/Multi-Signature Wallet/contracts/MultiSig.sol\":1731:1732  0 */\n  0x00\n    /* \"Intermediate Level LOL/Multi-Signature Wallet/contracts/MultiSig.sol\":1714:1733  owner != address(0) */\n  0xffffffffffffffffffffffffffffffffffffffff\n  and\n    /* \"Intermediate Level LOL/Multi-Signature Wallet/contracts/MultiSig.sol\":1714:1719  owner */\n  dup2\n    /* \"Intermediate Level LOL/Multi-Signature Wallet/contracts/MultiSig.sol\":1714:1733  owner != address(0) */\n  0xffffffffffffffffffffffffffffffffffffffff\n  and\n  sub\n    /* \"Intermediate Level LOL/Multi-Signature Wallet/contracts/MultiSig.sol\":1706:1751  require(owner != address(0), \"Invalid owner\") */\n  tag_19\n  jumpi\n  mload(0x40)\n  0x08c379a000000000000000000000000000000000000000000000000000000000\n  dup2\n  mstore\n  0x04\n  add\n  tag_20\n  swap1\n  tag_21\n  jump\t// in\ntag_20:\n  mload(0x40)\n  dup1\n  swap2\n  sub\n  swap1\n  revert\ntag_19:\n    /* \"Intermediate Level LOL/Multi-Signature Wallet/contracts/MultiSig.sol\":1775:1782  isOwner */\n  0x01\n    /* \"Intermediate Level LOL/Multi-Signature Wallet/contracts/MultiSig.sol\":1775:1789  isOwner[owner] */\n  0x00\n    /* \"Intermediate Level LOL/Multi-Signature Wallet/contracts/MultiSig.sol\":1783:1788  owner */\n  dup3\n    /* \"Intermediate Level LOL/Multi-Signature Wallet/contracts/MultiSig.sol\":1775:1789  isOwner[owner] */\n  0xffffffffffffffffffffffffffffffffffffffff\n  and\n  0xffffffffffffffffffffffffffffffffffffffff\n  and\n  dup2\n  mstore\n  0x20\n  add\n  swap1\n  dup2\n  mstore\n  0x20\n  add\n  0x00\n  keccak256\n  0x00\n  swap1\n  sload\n  swap1\n  0x0100\n  exp\n  swap1\n  div\n  0xff\n  and\n    /* \"Intermediate Level LOL/Multi-Signature Wallet/contracts/MultiSig.sol\":1774:1789  !isOwner[owner] */\n  iszero\n    /* \"Intermediate Level LOL/Multi-Signature Wallet/contracts/MultiSig.sol\":1766:1810  require(!isOwner[owner], \"Owner not unique\") */\n  tag_22\n  jumpi\n  mload(0x40)\n  0x08c379a000000000000000000000000000000000000000000000000000000000\n  dup2\n  mstore\n  0x04\n  add\n  tag_23\n  swap1\n  tag_24\n  jump\t// in\ntag_23:\n  mload(0x40)\n  dup1\n  swap2\n  sub\n  swap1\n  revert\ntag_22:\n    /* \"Intermediate Level LOL/Multi-Signature Wallet/contracts/MultiSig.sol\":1856:1860  true */\n  0x01\n    /* \"Intermediate Level LOL/Multi-Signature Wallet/contracts/MultiSig.sol\":1839:1846  isOwner */\n  dup1\n    /* \"Intermediate Level LOL/Multi-Signature Wallet/contracts/MultiSig.sol\":1839:1853  isOwner[owner] */\n  0x00\n    /* \"Intermediate Level LOL/Multi-Signature Wallet/contracts/MultiSig.sol\":1847:1852  owner */\n  dup4\n    /* \"Intermediate Level LOL/Multi-Signature Wallet/contracts/MultiSig.sol\":1839:1853  isOwner[owner] */\n  0xffffffffffffffffffffffffffffffffffffffff\n  and\n  0xffffffffffffffffffffffffffffffffffffffff\n  and\n  dup2\n  mstore\n  0x20\n  add\n  swap1\n  dup2\n  mstore\n  0x20\n  add\n  0x00\n  keccak256\n  0x00\n    /* \"Intermediate Level LOL/Multi-Signature Wallet/contracts/MultiSig.sol\":1839:1860  isOwner[owner] = true */\n  0x0100\n  exp\n  dup2\n  sload\n  dup2\n  0xff\n  mul\n  not\n  and\n  swap1\n  dup4\n  iszero\n  iszero\n  mul\n  or\n  swap1\n  sstore\n  pop\n    /* \"Intermediate Level LOL/Multi-Signature Wallet/contracts/MultiSig.sol\":1875:1881  owners */\n  0x00\n    /* \"Intermediate Level LOL/Multi-Signature Wallet/contracts/MultiSig.sol\":1887:1892  owner */\n  dup2\n    /* \"Intermediate Level LOL/Multi-Signature Wallet/contracts/MultiSig.sol\":1875:1893  owners.push(owner) */\n  swap1\n  dup1\n  0x01\n  dup2\n  sload\n  add\n  dup1\n  dup3\n  sstore\n  dup1\n  swap2\n  pop\n  pop\n  0x01\n  swap1\n  sub\n  swap1\n  0x00\n  mstore\n  keccak256(0x00, 0x20)\n  add\n  0x00\n  swap1\n  swap2\n  swap1\n  swap2\n  swap1\n  swap2\n  0x0100\n  exp\n  dup2\n  sload\n  dup2\n  0xffffffffffffffffffffffffffffffffffffffff\n  mul\n  not\n  and\n  swap1\n  dup4\n  0xffffffffffffffffffffffffffffffffffffffff\n  and\n  mul\n  or\n  swap1\n  sstore\n  pop\n    /* \"Intermediate Level LOL/Multi-Signature Wallet/contracts/MultiSig.sol\":1650:1905  {... */\n  pop\n    /* \"Intermediate Level LOL/Multi-Signature Wallet/contracts/MultiSig.sol\":1645:1648  i++ */\n  dup1\n  dup1\n  0x01\n  add\n  swap2\n  pop\n  pop\n    /* \"Intermediate Level LOL/Multi-Signature Wallet/contracts/MultiSig.sol\":1605:1905  for (uint256 i = 0; i < _owners.length; i++) {... */\n  jump(tag_13)\ntag_14:\n  pop\n    /* \"Intermediate Level LOL/Multi-Signature Wallet/contracts/MultiSig.sol\":1945:1963  _requiredApprovals */\n  dup1\n    /* \"Intermediate Level LOL/Multi-Signature Wallet/contracts/MultiSig.sol\":1925:1942  requiredApprovals */\n  0x02\n    /* \"Intermediate Level LOL/Multi-Signature Wallet/contracts/MultiSig.sol\":1925:1963  requiredApprovals = _requiredApprovals */\n  dup2\n  swap1\n  sstore\n  pop\n    /* \"Intermediate Level LOL/Multi-Signature Wallet/contracts/MultiSig.sol\":1321:1971  constructor(address[] memory _owners, uint256 _requiredApprovals) {... */\n  pop\n  pop\n    /* \"Intermediate Level LOL/Multi-Signature Wallet/contracts/MultiSig.sol\":60:3672  contract MultiSigWallet {... */\n  jump(tag_26)\n    /* \"#utility.yul\":7:82   */\ntag_27:\n    /* \"#utility.yul\":40:46   */\n  0x00\n    /* \"#utility.yul\":73:75   */\n  0x40\n    /* \"#utility.yul\":67:76   */\n  mload\n    /* \"#utility.yul\":57:76   */\n  swap1\n  pop\n    /* \"#utility.yul\":7:82   */\n  swap1\n  jump\t// out\n    /* \"#utility.yul\":88:205   */\ntag_28:\n    /* \"#utility.yul\":197:198   */\n  0x00\n    /* \"#utility.yul\":194:195   */\n  dup1\n    /* \"#utility.yul\":187:199   */\n  revert\n    /* \"#utility.yul\":211:328   */\ntag_29:\n    /* \"#utility.yul\":320:321   */\n  0x00\n    /* \"#utility.yul\":317:318   */\n  dup1\n    /* \"#utility.yul\":310:322   */\n  revert\n    /* \"#utility.yul\":334:451   */\ntag_30:\n    /* \"#utility.yul\":443:444   */\n  0x00\n    /* \"#utility.yul\":440:441   */\n  dup1\n    /* \"#utility.yul\":433:445   */\n  revert\n    /* \"#utility.yul\":457:559   */\ntag_31:\n    /* \"#utility.yul\":498:504   */\n  0x00\n    /* \"#utility.yul\":549:551   */\n  0x1f\n    /* \"#utility.yul\":545:552   */\n  not\n    /* \"#utility.yul\":540:542   */\n  0x1f\n    /* \"#utility.yul\":533:538   */\n  dup4\n    /* \"#utility.yul\":529:543   */\n  add\n    /* \"#utility.yul\":525:553   */\n  and\n    /* \"#utility.yul\":515:553   */\n  swap1\n  pop\n    /* \"#utility.yul\":457:559   */\n  swap2\n  swap1\n  pop\n  jump\t// out\n    /* \"#utility.yul\":565:745   */\ntag_32:\n    /* \"#utility.yul\":613:690   */\n  0x4e487b7100000000000000000000000000000000000000000000000000000000\n    /* \"#utility.yul\":610:611   */\n  0x00\n    /* \"#utility.yul\":603:691   */\n  mstore\n    /* \"#utility.yul\":710:714   */\n  0x41\n    /* \"#utility.yul\":707:708   */\n  0x04\n    /* \"#utility.yul\":700:715   */\n  mstore\n    /* \"#utility.yul\":734:738   */\n  0x24\n    /* \"#utility.yul\":731:732   */\n  0x00\n    /* \"#utility.yul\":724:739   */\n  revert\n    /* \"#utility.yul\":751:1032   */\ntag_33:\n    /* \"#utility.yul\":834:861   */\n  tag_63\n    /* \"#utility.yul\":856:860   */\n  dup3\n    /* \"#utility.yul\":834:861   */\n  tag_31\n  jump\t// in\ntag_63:\n    /* \"#utility.yul\":826:832   */\n  dup2\n    /* \"#utility.yul\":822:862   */\n  add\n    /* \"#utility.yul\":964:970   */\n  dup2\n    /* \"#utility.yul\":952:962   */\n  dup2\n    /* \"#utility.yul\":949:971   */\n  lt\n    /* \"#utility.yul\":928:946   */\n  0xffffffffffffffff\n    /* \"#utility.yul\":916:926   */\n  dup3\n    /* \"#utility.yul\":913:947   */\n  gt\n    /* \"#utility.yul\":910:972   */\n  or\n    /* \"#utility.yul\":907:995   */\n  iszero\n  tag_64\n  jumpi\n    /* \"#utility.yul\":975:993   */\n  tag_65\n  tag_32\n  jump\t// in\ntag_65:\n    /* \"#utility.yul\":907:995   */\ntag_64:\n    /* \"#utility.yul\":1015:1025   */\n  dup1\n    /* \"#utility.yul\":1011:1013   */\n  0x40\n    /* \"#utility.yul\":1004:1026   */\n  mstore\n    /* \"#utility.yul\":794:1032   */\n  pop\n    /* \"#utility.yul\":751:1032   */\n  pop\n  pop\n  jump\t// out\n    /* \"#utility.yul\":1038:1167   */\ntag_34:\n    /* \"#utility.yul\":1072:1078   */\n  0x00\n    /* \"#utility.yul\":1099:1119   */\n  tag_67\n  tag_27\n  jump\t// in\ntag_67:\n    /* \"#utility.yul\":1089:1119   */\n  swap1\n  pop\n    /* \"#utility.yul\":1128:1161   */\n  tag_68\n    /* \"#utility.yul\":1156:1160   */\n  dup3\n    /* \"#utility.yul\":1148:1154   */\n  dup3\n    /* \"#utility.yul\":1128:1161   */\n  tag_33\n  jump\t// in\ntag_68:\n    /* \"#utility.yul\":1038:1167   */\n  swap2\n  swap1\n  pop\n  jump\t// out\n    /* \"#utility.yul\":1173:1484   */\ntag_35:\n    /* \"#utility.yul\":1250:1254   */\n  0x00\n    /* \"#utility.yul\":1340:1358   */\n  0xffffffffffffffff\n    /* \"#utility.yul\":1332:1338   */\n  dup3\n    /* \"#utility.yul\":1329:1359   */\n  gt\n    /* \"#utility.yul\":1326:1382   */\n  iszero\n  tag_70\n  jumpi\n    /* \"#utility.yul\":1362:1380   */\n  tag_71\n  tag_32\n  jump\t// in\ntag_71:\n    /* \"#utility.yul\":1326:1382   */\ntag_70:\n    /* \"#utility.yul\":1412:1416   */\n  0x20\n    /* \"#utility.yul\":1404:1410   */\n  dup3\n    /* \"#utility.yul\":1400:1417   */\n  mul\n    /* \"#utility.yul\":1392:1417   */\n  swap1\n  pop\n    /* \"#utility.yul\":1472:1476   */\n  0x20\n    /* \"#utility.yul\":1466:1470   */\n  dup2\n    /* \"#utility.yul\":1462:1477   */\n  add\n    /* \"#utility.yul\":1454:1477   */\n  swap1\n  pop\n    /* \"#utility.yul\":1173:1484   */\n  swap2\n  swap1\n  pop\n  jump\t// out\n    /* \"#utility.yul\":1490:1607   */\ntag_36:\n    /* \"#utility.yul\":1599:1600   */\n  0x00\n    /* \"#utility.yul\":1596:1597   */\n  dup1\n    /* \"#utility.yul\":1589:1601   */\n  revert\n    /* \"#utility.yul\":1613:1739   */\ntag_37:\n    /* \"#utility.yul\":1650:1657   */\n  0x00\n    /* \"#utility.yul\":1690:1732   */\n  0xffffffffffffffffffffffffffffffffffffffff\n    /* \"#utility.yul\":1683:1688   */\n  dup3\n    /* \"#utility.yul\":1679:1733   */\n  and\n    /* \"#utility.yul\":1668:1733   */\n  swap1\n  pop\n    /* \"#utility.yul\":1613:1739   */\n  swap2\n  swap1\n  pop\n  jump\t// out\n    /* \"#utility.yul\":1745:1841   */\ntag_38:\n    /* \"#utility.yul\":1782:1789   */\n  0x00\n    /* \"#utility.yul\":1811:1835   */\n  tag_75\n    /* \"#utility.yul\":1829:1834   */\n  dup3\n    /* \"#utility.yul\":1811:1835   */\n  tag_37\n  jump\t// in\ntag_75:\n    /* \"#utility.yul\":1800:1835   */\n  swap1\n  pop\n    /* \"#utility.yul\":1745:1841   */\n  swap2\n  swap1\n  pop\n  jump\t// out\n    /* \"#utility.yul\":1847:1969   */\ntag_39:\n    /* \"#utility.yul\":1920:1944   */\n  tag_77\n    /* \"#utility.yul\":1938:1943   */\n  dup2\n    /* \"#utility.yul\":1920:1944   */\n  tag_38\n  jump\t// in\ntag_77:\n    /* \"#utility.yul\":1913:1918   */\n  dup2\n    /* \"#utility.yul\":1910:1945   */\n  eq\n    /* \"#utility.yul\":1900:1963   */\n  tag_78\n  jumpi\n    /* \"#utility.yul\":1959:1960   */\n  0x00\n    /* \"#utility.yul\":1956:1957   */\n  dup1\n    /* \"#utility.yul\":1949:1961   */\n  revert\n    /* \"#utility.yul\":1900:1963   */\ntag_78:\n    /* \"#utility.yul\":1847:1969   */\n  pop\n  jump\t// out\n    /* \"#utility.yul\":1975:2118   */\ntag_40:\n    /* \"#utility.yul\":2032:2037   */\n  0x00\n    /* \"#utility.yul\":2063:2069   */\n  dup2\n    /* \"#utility.yul\":2057:2070   */\n  mload\n    /* \"#utility.yul\":2048:2070   */\n  swap1\n  pop\n    /* \"#utility.yul\":2079:2112   */\n  tag_80\n    /* \"#utility.yul\":2106:2111   */\n  dup2\n    /* \"#utility.yul\":2079:2112   */\n  tag_39\n  jump\t// in\ntag_80:\n    /* \"#utility.yul\":1975:2118   */\n  swap3\n  swap2\n  pop\n  pop\n  jump\t// out\n    /* \"#utility.yul\":2141:2873   */\ntag_41:\n    /* \"#utility.yul\":2248:2253   */\n  0x00\n    /* \"#utility.yul\":2273:2354   */\n  tag_82\n    /* \"#utility.yul\":2289:2353   */\n  tag_83\n    /* \"#utility.yul\":2346:2352   */\n  dup5\n    /* \"#utility.yul\":2289:2353   */\n  tag_35\n  jump\t// in\ntag_83:\n    /* \"#utility.yul\":2273:2354   */\n  tag_34\n  jump\t// in\ntag_82:\n    /* \"#utility.yul\":2264:2354   */\n  swap1\n  pop\n    /* \"#utility.yul\":2374:2379   */\n  dup1\n    /* \"#utility.yul\":2403:2409   */\n  dup4\n    /* \"#utility.yul\":2396:2401   */\n  dup3\n    /* \"#utility.yul\":2389:2410   */\n  mstore\n    /* \"#utility.yul\":2437:2441   */\n  0x20\n    /* \"#utility.yul\":2430:2435   */\n  dup3\n    /* \"#utility.yul\":2426:2442   */\n  add\n    /* \"#utility.yul\":2419:2442   */\n  swap1\n  pop\n    /* \"#utility.yul\":2490:2494   */\n  0x20\n    /* \"#utility.yul\":2482:2488   */\n  dup5\n    /* \"#utility.yul\":2478:2495   */\n  mul\n    /* \"#utility.yul\":2470:2476   */\n  dup4\n    /* \"#utility.yul\":2466:2496   */\n  add\n    /* \"#utility.yul\":2519:2522   */\n  dup6\n    /* \"#utility.yul\":2511:2517   */\n  dup2\n    /* \"#utility.yul\":2508:2523   */\n  gt\n    /* \"#utility.yul\":2505:2627   */\n  iszero\n  tag_84\n  jumpi\n    /* \"#utility.yul\":2538:2617   */\n  tag_85\n  tag_36\n  jump\t// in\ntag_85:\n    /* \"#utility.yul\":2505:2627   */\ntag_84:\n    /* \"#utility.yul\":2653:2659   */\n  dup4\n    /* \"#utility.yul\":2636:2867   */\ntag_86:\n    /* \"#utility.yul\":2670:2676   */\n  dup2\n    /* \"#utility.yul\":2665:2668   */\n  dup2\n    /* \"#utility.yul\":2662:2677   */\n  lt\n    /* \"#utility.yul\":2636:2867   */\n  iszero\n  tag_88\n  jumpi\n    /* \"#utility.yul\":2745:2748   */\n  dup1\n    /* \"#utility.yul\":2774:2822   */\n  tag_89\n    /* \"#utility.yul\":2818:2821   */\n  dup9\n    /* \"#utility.yul\":2806:2816   */\n  dup3\n    /* \"#utility.yul\":2774:2822   */\n  tag_40\n  jump\t// in\ntag_89:\n    /* \"#utility.yul\":2769:2772   */\n  dup5\n    /* \"#utility.yul\":2762:2823   */\n  mstore\n    /* \"#utility.yul\":2852:2856   */\n  0x20\n    /* \"#utility.yul\":2847:2850   */\n  dup5\n    /* \"#utility.yul\":2843:2857   */\n  add\n    /* \"#utility.yul\":2836:2857   */\n  swap4\n  pop\n    /* \"#utility.yul\":2712:2867   */\n  pop\n    /* \"#utility.yul\":2696:2700   */\n  0x20\n    /* \"#utility.yul\":2691:2694   */\n  dup2\n    /* \"#utility.yul\":2687:2701   */\n  add\n    /* \"#utility.yul\":2680:2701   */\n  swap1\n  pop\n    /* \"#utility.yul\":2636:2867   */\n  jump(tag_86)\ntag_88:\n    /* \"#utility.yul\":2640:2661   */\n  pop\n    /* \"#utility.yul\":2254:2873   */\n  pop\n  pop\n    /* \"#utility.yul\":2141:2873   */\n  swap4\n  swap3\n  pop\n  pop\n  pop\n  jump\t// out\n    /* \"#utility.yul\":2896:3281   */\ntag_42:\n    /* \"#utility.yul\":2978:2983   */\n  0x00\n    /* \"#utility.yul\":3027:3030   */\n  dup3\n    /* \"#utility.yul\":3020:3024   */\n  0x1f\n    /* \"#utility.yul\":3012:3018   */\n  dup4\n    /* \"#utility.yul\":3008:3025   */\n  add\n    /* \"#utility.yul\":3004:3031   */\n  slt\n    /* \"#utility.yul\":2994:3116   */\n  tag_91\n  jumpi\n    /* \"#utility.yul\":3035:3114   */\n  tag_92\n  tag_30\n  jump\t// in\ntag_92:\n    /* \"#utility.yul\":2994:3116   */\ntag_91:\n    /* \"#utility.yul\":3145:3151   */\n  dup2\n    /* \"#utility.yul\":3139:3152   */\n  mload\n    /* \"#utility.yul\":3170:3275   */\n  tag_93\n    /* \"#utility.yul\":3271:3274   */\n  dup5\n    /* \"#utility.yul\":3263:3269   */\n  dup3\n    /* \"#utility.yul\":3256:3260   */\n  0x20\n    /* \"#utility.yul\":3248:3254   */\n  dup7\n    /* \"#utility.yul\":3244:3261   */\n  add\n    /* \"#utility.yul\":3170:3275   */\n  tag_41\n  jump\t// in\ntag_93:\n    /* \"#utility.yul\":3161:3275   */\n  swap2\n  pop\n    /* \"#utility.yul\":2984:3281   */\n  pop\n    /* \"#utility.yul\":2896:3281   */\n  swap3\n  swap2\n  pop\n  pop\n  jump\t// out\n    /* \"#utility.yul\":3287:3364   */\ntag_43:\n    /* \"#utility.yul\":3324:3331   */\n  0x00\n    /* \"#utility.yul\":3353:3358   */\n  dup2\n    /* \"#utility.yul\":3342:3358   */\n  swap1\n  pop\n    /* \"#utility.yul\":3287:3364   */\n  swap2\n  swap1\n  pop\n  jump\t// out\n    /* \"#utility.yul\":3370:3492   */\ntag_44:\n    /* \"#utility.yul\":3443:3467   */\n  tag_96\n    /* \"#utility.yul\":3461:3466   */\n  dup2\n    /* \"#utility.yul\":3443:3467   */\n  tag_43\n  jump\t// in\ntag_96:\n    /* \"#utility.yul\":3436:3441   */\n  dup2\n    /* \"#utility.yul\":3433:3468   */\n  eq\n    /* \"#utility.yul\":3423:3486   */\n  tag_97\n  jumpi\n    /* \"#utility.yul\":3482:3483   */\n  0x00\n    /* \"#utility.yul\":3479:3480   */\n  dup1\n    /* \"#utility.yul\":3472:3484   */\n  revert\n    /* \"#utility.yul\":3423:3486   */\ntag_97:\n    /* \"#utility.yul\":3370:3492   */\n  pop\n  jump\t// out\n    /* \"#utility.yul\":3498:3641   */\ntag_45:\n    /* \"#utility.yul\":3555:3560   */\n  0x00\n    /* \"#utility.yul\":3586:3592   */\n  dup2\n    /* \"#utility.yul\":3580:3593   */\n  mload\n    /* \"#utility.yul\":3571:3593   */\n  swap1\n  pop\n    /* \"#utility.yul\":3602:3635   */\n  tag_99\n    /* \"#utility.yul\":3629:3634   */\n  dup2\n    /* \"#utility.yul\":3602:3635   */\n  tag_44\n  jump\t// in\ntag_99:\n    /* \"#utility.yul\":3498:3641   */\n  swap3\n  swap2\n  pop\n  pop\n  jump\t// out\n    /* \"#utility.yul\":3647:4357   */\ntag_3:\n    /* \"#utility.yul\":3751:3757   */\n  0x00\n    /* \"#utility.yul\":3759:3765   */\n  dup1\n    /* \"#utility.yul\":3808:3810   */\n  0x40\n    /* \"#utility.yul\":3796:3805   */\n  dup4\n    /* \"#utility.yul\":3787:3794   */\n  dup6\n    /* \"#utility.yul\":3783:3806   */\n  sub\n    /* \"#utility.yul\":3779:3811   */\n  slt\n    /* \"#utility.yul\":3776:3895   */\n  iszero\n  tag_101\n  jumpi\n    /* \"#utility.yul\":3814:3893   */\n  tag_102\n  tag_28\n  jump\t// in\ntag_102:\n    /* \"#utility.yul\":3776:3895   */\ntag_101:\n    /* \"#utility.yul\":3955:3956   */\n  0x00\n    /* \"#utility.yul\":3944:3953   */\n  dup4\n    /* \"#utility.yul\":3940:3957   */\n  add\n    /* \"#utility.yul\":3934:3958   */\n  mload\n    /* \"#utility.yul\":3985:4003   */\n  0xffffffffffffffff\n    /* \"#utility.yul\":3977:3983   */\n  dup2\n    /* \"#utility.yul\":3974:4004   */\n  gt\n    /* \"#utility.yul\":3971:4088   */\n  iszero\n  tag_103\n  jumpi\n    /* \"#utility.yul\":4007:4086   */\n  tag_104\n  tag_29\n  jump\t// in\ntag_104:\n    /* \"#utility.yul\":3971:4088   */\ntag_103:\n    /* \"#utility.yul\":4112:4201   */\n  tag_105\n    /* \"#utility.yul\":4193:4200   */\n  dup6\n    /* \"#utility.yul\":4184:4190   */\n  dup3\n    /* \"#utility.yul\":4173:4182   */\n  dup7\n    /* \"#utility.yul\":4169:4191   */\n  add\n    /* \"#utility.yul\":4112:4201   */\n  tag_42\n  jump\t// in\ntag_105:\n    /* \"#utility.yul\":4102:4201   */\n  swap3\n  pop\n    /* \"#utility.yul\":3905:4211   */\n  pop\n    /* \"#utility.yul\":4250:4252   */\n  0x20\n    /* \"#utility.yul\":4276:4340   */\n  tag_106\n    /* \"#utility.yul\":4332:4339   */\n  dup6\n    /* \"#utility.yul\":4323:4329   */\n  dup3\n    /* \"#utility.yul\":4312:4321   */\n  dup7\n    /* \"#utility.yul\":4308:4330   */\n  add\n    /* \"#utility.yul\":4276:4340   */\n  tag_45\n  jump\t// in\ntag_106:\n    /* \"#utility.yul\":4266:4340   */\n  swap2\n  pop\n    /* \"#utility.yul\":4221:4350   */\n  pop\n    /* \"#utility.yul\":3647:4357   */\n  swap3\n  pop\n  swap3\n  swap1\n  pop\n  jump\t// out\n    /* \"#utility.yul\":4363:4532   */\ntag_46:\n    /* \"#utility.yul\":4447:4458   */\n  0x00\n    /* \"#utility.yul\":4481:4487   */\n  dup3\n    /* \"#utility.yul\":4476:4479   */\n  dup3\n    /* \"#utility.yul\":4469:4488   */\n  mstore\n    /* \"#utility.yul\":4521:4525   */\n  0x20\n    /* \"#utility.yul\":4516:4519   */\n  dup3\n    /* \"#utility.yul\":4512:4526   */\n  add\n    /* \"#utility.yul\":4497:4526   */\n  swap1\n  pop\n    /* \"#utility.yul\":4363:4532   */\n  swap3\n  swap2\n  pop\n  pop\n  jump\t// out\n    /* \"#utility.yul\":4538:4703   */\ntag_47:\n    /* \"#utility.yul\":4678:4695   */\n  0x4f776e6572732072657175697265640000000000000000000000000000000000\n    /* \"#utility.yul\":4674:4675   */\n  0x00\n    /* \"#utility.yul\":4666:4672   */\n  dup3\n    /* \"#utility.yul\":4662:4676   */\n  add\n    /* \"#utility.yul\":4655:4696   */\n  mstore\n    /* \"#utility.yul\":4538:4703   */\n  pop\n  jump\t// out\n    /* \"#utility.yul\":4709:5075   */\ntag_48:\n    /* \"#utility.yul\":4851:4854   */\n  0x00\n    /* \"#utility.yul\":4872:4939   */\n  tag_110\n    /* \"#utility.yul\":4936:4938   */\n  0x0f\n    /* \"#utility.yul\":4931:4934   */\n  dup4\n    /* \"#utility.yul\":4872:4939   */\n  tag_46\n  jump\t// in\ntag_110:\n    /* \"#utility.yul\":4865:4939   */\n  swap2\n  pop\n    /* \"#utility.yul\":4948:5041   */\n  tag_111\n    /* \"#utility.yul\":5037:5040   */\n  dup3\n    /* \"#utility.yul\":4948:5041   */\n  tag_47\n  jump\t// in\ntag_111:\n    /* \"#utility.yul\":5066:5068   */\n  0x20\n    /* \"#utility.yul\":5061:5064   */\n  dup3\n    /* \"#utility.yul\":5057:5069   */\n  add\n    /* \"#utility.yul\":5050:5069   */\n  swap1\n  pop\n    /* \"#utility.yul\":4709:5075   */\n  swap2\n  swap1\n  pop\n  jump\t// out\n    /* \"#utility.yul\":5081:5500   */\ntag_8:\n    /* \"#utility.yul\":5247:5251   */\n  0x00\n    /* \"#utility.yul\":5285:5287   */\n  0x20\n    /* \"#utility.yul\":5274:5283   */\n  dup3\n    /* \"#utility.yul\":5270:5288   */\n  add\n    /* \"#utility.yul\":5262:5288   */\n  swap1\n  pop\n    /* \"#utility.yul\":5334:5343   */\n  dup2\n    /* \"#utility.yul\":5328:5332   */\n  dup2\n    /* \"#utility.yul\":5324:5344   */\n  sub\n    /* \"#utility.yul\":5320:5321   */\n  0x00\n    /* \"#utility.yul\":5309:5318   */\n  dup4\n    /* \"#utility.yul\":5305:5322   */\n  add\n    /* \"#utility.yul\":5298:5345   */\n  mstore\n    /* \"#utility.yul\":5362:5493   */\n  tag_113\n    /* \"#utility.yul\":5488:5492   */\n  dup2\n    /* \"#utility.yul\":5362:5493   */\n  tag_48\n  jump\t// in\ntag_113:\n    /* \"#utility.yul\":5354:5493   */\n  swap1\n  pop\n    /* \"#utility.yul\":5081:5500   */\n  swap2\n  swap1\n  pop\n  jump\t// out\n    /* \"#utility.yul\":5506:5729   */\ntag_49:\n    /* \"#utility.yul\":5646:5680   */\n  0x496e76616c6964206e756d626572206f6620726571756972656420617070726f\n    /* \"#utility.yul\":5642:5643   */\n  0x00\n    /* \"#utility.yul\":5634:5640   */\n  dup3\n    /* \"#utility.yul\":5630:5644   */\n  add\n    /* \"#utility.yul\":5623:5681   */\n  mstore\n    /* \"#utility.yul\":5715:5721   */\n  0x76616c7300000000000000000000000000000000000000000000000000000000\n    /* \"#utility.yul\":5710:5712   */\n  0x20\n    /* \"#utility.yul\":5702:5708   */\n  dup3\n    /* \"#utility.yul\":5698:5713   */\n  add\n    /* \"#utility.yul\":5691:5722   */\n  mstore\n    /* \"#utility.yul\":5506:5729   */\n  pop\n  jump\t// out\n    /* \"#utility.yul\":5735:6101   */\ntag_50:\n    /* \"#utility.yul\":5877:5880   */\n  0x00\n    /* \"#utility.yul\":5898:5965   */\n  tag_116\n    /* \"#utility.yul\":5962:5964   */\n  0x24\n    /* \"#utility.yul\":5957:5960   */\n  dup4\n    /* \"#utility.yul\":5898:5965   */\n  tag_46\n  jump\t// in\ntag_116:\n    /* \"#utility.yul\":5891:5965   */\n  swap2\n  pop\n    /* \"#utility.yul\":5974:6067   */\n  tag_117\n    /* \"#utility.yul\":6063:6066   */\n  dup3\n    /* \"#utility.yul\":5974:6067   */\n  tag_49\n  jump\t// in\ntag_117:\n    /* \"#utility.yul\":6092:6094   */\n  0x40\n    /* \"#utility.yul\":6087:6090   */\n  dup3\n    /* \"#utility.yul\":6083:6095   */\n  add\n    /* \"#utility.yul\":6076:6095   */\n  swap1\n  pop\n    /* \"#utility.yul\":5735:6101   */\n  swap2\n  swap1\n  pop\n  jump\t// out\n    /* \"#utility.yul\":6107:6526   */\ntag_12:\n    /* \"#utility.yul\":6273:6277   */\n  0x00\n    /* \"#utility.yul\":6311:6313   */\n  0x20\n    /* \"#utility.yul\":6300:6309   */\n  dup3\n    /* \"#utility.yul\":6296:6314   */\n  add\n    /* \"#utility.yul\":6288:6314   */\n  swap1\n  pop\n    /* \"#utility.yul\":6360:6369   */\n  dup2\n    /* \"#utility.yul\":6354:6358   */\n  dup2\n    /* \"#utility.yul\":6350:6370   */\n  sub\n    /* \"#utility.yul\":6346:6347   */\n  0x00\n    /* \"#utility.yul\":6335:6344   */\n  dup4\n    /* \"#utility.yul\":6331:6348   */\n  add\n    /* \"#utility.yul\":6324:6371   */\n  mstore\n    /* \"#utility.yul\":6388:6519   */\n  tag_119\n    /* \"#utility.yul\":6514:6518   */\n  dup2\n    /* \"#utility.yul\":6388:6519   */\n  tag_50\n  jump\t// in\ntag_119:\n    /* \"#utility.yul\":6380:6519   */\n  swap1\n  pop\n    /* \"#utility.yul\":6107:6526   */\n  swap2\n  swap1\n  pop\n  jump\t// out\n    /* \"#utility.yul\":6532:6712   */\ntag_18:\n    /* \"#utility.yul\":6580:6657   */\n  0x4e487b7100000000000000000000000000000000000000000000000000000000\n    /* \"#utility.yul\":6577:6578   */\n  0x00\n    /* \"#utility.yul\":6570:6658   */\n  mstore\n    /* \"#utility.yul\":6677:6681   */\n  0x32\n    /* \"#utility.yul\":6674:6675   */\n  0x04\n    /* \"#utility.yul\":6667:6682   */\n  mstore\n    /* \"#utility.yul\":6701:6705   */\n  0x24\n    /* \"#utility.yul\":6698:6699   */\n  0x00\n    /* \"#utility.yul\":6691:6706   */\n  revert\n    /* \"#utility.yul\":6718:6881   */\ntag_51:\n    /* \"#utility.yul\":6858:6873   */\n  0x496e76616c6964206f776e657200000000000000000000000000000000000000\n    /* \"#utility.yul\":6854:6855   */\n  0x00\n    /* \"#utility.yul\":6846:6852   */\n  dup3\n    /* \"#utility.yul\":6842:6856   */\n  add\n    /* \"#utility.yul\":6835:6874   */\n  mstore\n    /* \"#utility.yul\":6718:6881   */\n  pop\n  jump\t// out\n    /* \"#utility.yul\":6887:7253   */\ntag_52:\n    /* \"#utility.yul\":7029:7032   */\n  0x00\n    /* \"#utility.yul\":7050:7117   */\n  tag_123\n    /* \"#utility.yul\":7114:7116   */\n  0x0d\n    /* \"#utility.yul\":7109:7112   */\n  dup4\n    /* \"#utility.yul\":7050:7117   */\n  tag_46\n  jump\t// in\ntag_123:\n    /* \"#utility.yul\":7043:7117   */\n  swap2\n  pop\n    /* \"#utility.yul\":7126:7219   */\n  tag_124\n    /* \"#utility.yul\":7215:7218   */\n  dup3\n    /* \"#utility.yul\":7126:7219   */\n  tag_51\n  jump\t// in\ntag_124:\n    /* \"#utility.yul\":7244:7246   */\n  0x20\n    /* \"#utility.yul\":7239:7242   */\n  dup3\n    /* \"#utility.yul\":7235:7247   */\n  add\n    /* \"#utility.yul\":7228:7247   */\n  swap1\n  pop\n    /* \"#utility.yul\":6887:7253   */\n  swap2\n  swap1\n  pop\n  jump\t// out\n    /* \"#utility.yul\":7259:7678   */\ntag_21:\n    /* \"#utility.yul\":7425:7429   */\n  0x00\n    /* \"#utility.yul\":7463:7465   */\n  0x20\n    /* \"#utility.yul\":7452:7461   */\n  dup3\n    /* \"#utility.yul\":7448:7466   */\n  add\n    /* \"#utility.yul\":7440:7466   */\n  swap1\n  pop\n    /* \"#utility.yul\":7512:7521   */\n  dup2\n    /* \"#utility.yul\":7506:7510   */\n  dup2\n    /* \"#utility.yul\":7502:7522   */\n  sub\n    /* \"#utility.yul\":7498:7499   */\n  0x00\n    /* \"#utility.yul\":7487:7496   */\n  dup4\n    /* \"#utility.yul\":7483:7500   */\n  add\n    /* \"#utility.yul\":7476:7523   */\n  mstore\n    /* \"#utility.yul\":7540:7671   */\n  tag_126\n    /* \"#utility.yul\":7666:7670   */\n  dup2\n    /* \"#utility.yul\":7540:7671   */\n  tag_52\n  jump\t// in\ntag_126:\n    /* \"#utility.yul\":7532:7671   */\n  swap1\n  pop\n    /* \"#utility.yul\":7259:7678   */\n  swap2\n  swap1\n  pop\n  jump\t// out\n    /* \"#utility.yul\":7684:7850   */\ntag_53:\n    /* \"#utility.yul\":7824:7842   */\n  0x4f776e6572206e6f7420756e6971756500000000000000000000000000000000\n    /* \"#utility.yul\":7820:7821   */\n  0x00\n    /* \"#utility.yul\":7812:7818   */\n  dup3\n    /* \"#utility.yul\":7808:7822   */\n  add\n    /* \"#utility.yul\":7801:7843   */\n  mstore\n    /* \"#utility.yul\":7684:7850   */\n  pop\n  jump\t// out\n    /* \"#utility.yul\":7856:8222   */\ntag_54:\n    /* \"#utility.yul\":7998:8001   */\n  0x00\n    /* \"#utility.yul\":8019:8086   */\n  tag_129\n    /* \"#utility.yul\":8083:8085   */\n  0x10\n    /* \"#utility.yul\":8078:8081   */\n  dup4\n    /* \"#utility.yul\":8019:8086   */\n  tag_46\n  jump\t// in\ntag_129:\n    /* \"#utility.yul\":8012:8086   */\n  swap2\n  pop\n    /* \"#utility.yul\":8095:8188   */\n  tag_130\n    /* \"#utility.yul\":8184:8187   */\n  dup3\n    /* \"#utility.yul\":8095:8188   */\n  tag_53\n  jump\t// in\ntag_130:\n    /* \"#utility.yul\":8213:8215   */\n  0x20\n    /* \"#utility.yul\":8208:8211   */\n  dup3\n    /* \"#utility.yul\":8204:8216   */\n  add\n    /* \"#utility.yul\":8197:8216   */\n  swap1\n  pop\n    /* \"#utility.yul\":7856:8222   */\n  swap2\n  swap1\n  pop\n  jump\t// out\n    /* \"#utility.yul\":8228:8647   */\ntag_24:\n    /* \"#utility.yul\":8394:8398   */\n  0x00\n    /* \"#utility.yul\":8432:8434   */\n  0x20\n    /* \"#utility.yul\":8421:8430   */\n  dup3\n    /* \"#utility.yul\":8417:8435   */\n  add\n    /* \"#utility.yul\":8409:8435   */\n  swap1\n  pop\n    /* \"#utility.yul\":8481:8490   */\n  dup2\n    /* \"#utility.yul\":8475:8479   */\n  dup2\n    /* \"#utility.yul\":8471:8491   */\n  sub\n    /* \"#utility.yul\":8467:8468   */\n  0x00\n    /* \"#utility.yul\":8456:8465   */\n  dup4\n    /* \"#utility.yul\":8452:8469   */\n  add\n    /* \"#utility.yul\":8445:8492   */\n  mstore\n    /* \"#utility.yul\":8509:8640   */\n  tag_132\n    /* \"#utility.yul\":8635:8639   */\n  dup2\n    /* \"#utility.yul\":8509:8640   */\n  tag_54\n  jump\t// in\ntag_132:\n    /* \"#utility.yul\":8501:8640   */\n  swap1\n  pop\n    /* \"#utility.yul\":8228:8647   */\n  swap2\n  swap1\n  pop\n  jump\t// out\n    /* \"Intermediate Level LOL/Multi-Signature Wallet/contracts/MultiSig.sol\":60:3672  contract MultiSigWallet {... */\ntag_26:\n  dataSize(sub_0)\n  dup1\n  dataOffset(sub_0)\n  0x00\n  codecopy\n  0x00\n  return\nstop\n\nsub_0: assembly {\n        /* \"Intermediate Level LOL/Multi-Signature Wallet/contracts/MultiSig.sol\":60:3672  contract MultiSigWallet {... */\n      mstore(0x40, 0x80)\n      jumpi(tag_1, lt(calldatasize, 0x04))\n      shr(0xe0, calldataload(0x00))\n      dup1\n      0x99c1aadc\n      gt\n      tag_12\n      jumpi\n      dup1\n      0x99c1aadc\n      eq\n      tag_7\n      jumpi\n      dup1\n      0x9ace38c2\n      eq\n      tag_8\n      jumpi\n      dup1\n      0xab2850da\n      eq\n      tag_9\n      jumpi\n      dup1\n      0xc6427474\n      eq\n      tag_10\n      jumpi\n      dup1\n      0xee22610b\n      eq\n      tag_11\n      jumpi\n      jump(tag_2)\n    tag_12:\n      dup1\n      0x025e7c27\n      eq\n      tag_3\n      jumpi\n      dup1\n      0x242232d1\n      eq\n      tag_4\n      jumpi\n      dup1\n      0x2e7700f0\n      eq\n      tag_5\n      jumpi\n      dup1\n      0x2f54bf6e\n      eq\n      tag_6\n      jumpi\n      jump(tag_2)\n    tag_1:\n      jumpi(tag_2, calldatasize)\n      stop\n    tag_2:\n      0x00\n      dup1\n      revert\n        /* \"Intermediate Level LOL/Multi-Signature Wallet/contracts/MultiSig.sol\":252:275  address[] public owners */\n    tag_3:\n      callvalue\n      dup1\n      iszero\n      tag_15\n      jumpi\n      0x00\n      dup1\n      revert\n    tag_15:\n      pop\n      tag_16\n      0x04\n      dup1\n      calldatasize\n      sub\n      dup2\n      add\n      swap1\n      tag_17\n      swap2\n      swap1\n      tag_18\n      jump\t// in\n    tag_17:\n      tag_19\n      jump\t// in\n    tag_16:\n      mload(0x40)\n      tag_20\n      swap2\n      swap1\n      tag_21\n      jump\t// in\n    tag_20:\n      mload(0x40)\n      dup1\n      swap2\n      sub\n      swap1\n      return\n        /* \"Intermediate Level LOL/Multi-Signature Wallet/contracts/MultiSig.sol\":2513:2922  function approveTransaction(uint256 _txIndex) ... */\n    tag_4:\n      callvalue\n      dup1\n      iszero\n      tag_22\n      jumpi\n      0x00\n      dup1\n      revert\n    tag_22:\n      pop\n      tag_23\n      0x04\n      dup1\n      calldatasize\n      sub\n      dup2\n      add\n      swap1\n      tag_24\n      swap2\n      swap1\n      tag_18\n      jump\t// in\n    tag_24:\n      tag_25\n      jump\t// in\n    tag_23:\n      stop\n        /* \"Intermediate Level LOL/Multi-Signature Wallet/contracts/MultiSig.sol\":3563:3669  function getTransactionCount() public view returns (uint256) {... */\n    tag_5:\n      callvalue\n      dup1\n      iszero\n      tag_26\n      jumpi\n      0x00\n      dup1\n      revert\n    tag_26:\n      pop\n      tag_27\n      tag_28\n      jump\t// in\n    tag_27:\n      mload(0x40)\n      tag_29\n      swap2\n      swap1\n      tag_30\n      jump\t// in\n    tag_29:\n      mload(0x40)\n      dup1\n      swap2\n      sub\n      swap1\n      return\n        /* \"Intermediate Level LOL/Multi-Signature Wallet/contracts/MultiSig.sol\":282:321  mapping(address => bool) public isOwner */\n    tag_6:\n      callvalue\n      dup1\n      iszero\n      tag_31\n      jumpi\n      0x00\n      dup1\n      revert\n    tag_31:\n      pop\n      tag_32\n      0x04\n      dup1\n      calldatasize\n      sub\n      dup2\n      add\n      swap1\n      tag_33\n      swap2\n      swap1\n      tag_34\n      jump\t// in\n    tag_33:\n      tag_35\n      jump\t// in\n    tag_32:\n      mload(0x40)\n      tag_36\n      swap2\n      swap1\n      tag_37\n      jump\t// in\n    tag_36:\n      mload(0x40)\n      dup1\n      swap2\n      sub\n      swap1\n      return\n        /* \"Intermediate Level LOL/Multi-Signature Wallet/contracts/MultiSig.sol\":328:360  uint256 public requiredApprovals */\n    tag_7:\n      callvalue\n      dup1\n      iszero\n      tag_38\n      jumpi\n      0x00\n      dup1\n      revert\n    tag_38:\n      pop\n      tag_39\n      tag_40\n      jump\t// in\n    tag_39:\n      mload(0x40)\n      tag_41\n      swap2\n      swap1\n      tag_30\n      jump\t// in\n    tag_41:\n      mload(0x40)\n      dup1\n      swap2\n      sub\n      swap1\n      return\n        /* \"Intermediate Level LOL/Multi-Signature Wallet/contracts/MultiSig.sol\":367:400  Transaction[] public transactions */\n    tag_8:\n      callvalue\n      dup1\n      iszero\n      tag_42\n      jumpi\n      0x00\n      dup1\n      revert\n    tag_42:\n      pop\n      tag_43\n      0x04\n      dup1\n      calldatasize\n      sub\n      dup2\n      add\n      swap1\n      tag_44\n      swap2\n      swap1\n      tag_18\n      jump\t// in\n    tag_44:\n      tag_45\n      jump\t// in\n    tag_43:\n      mload(0x40)\n      tag_46\n      swap6\n      swap5\n      swap4\n      swap3\n      swap2\n      swap1\n      tag_47\n      jump\t// in\n    tag_46:\n      mload(0x40)\n      dup1\n      swap2\n      sub\n      swap1\n      return\n        /* \"Intermediate Level LOL/Multi-Signature Wallet/contracts/MultiSig.sol\":407:468  mapping(uint256 => mapping(address => bool)) public approvals */\n    tag_9:\n      callvalue\n      dup1\n      iszero\n      tag_48\n      jumpi\n      0x00\n      dup1\n      revert\n    tag_48:\n      pop\n      tag_49\n      0x04\n      dup1\n      calldatasize\n      sub\n      dup2\n      add\n      swap1\n      tag_50\n      swap2\n      swap1\n      tag_51\n      jump\t// in\n    tag_50:\n      tag_52\n      jump\t// in\n    tag_49:\n      mload(0x40)\n      tag_53\n      swap2\n      swap1\n      tag_37\n      jump\t// in\n    tag_53:\n      mload(0x40)\n      dup1\n      swap2\n      sub\n      swap1\n      return\n        /* \"Intermediate Level LOL/Multi-Signature Wallet/contracts/MultiSig.sol\":2024:2501  function submitTransaction(address _to, uint256 _value, bytes memory _data) ... */\n    tag_10:\n      callvalue\n      dup1\n      iszero\n      tag_54\n      jumpi\n      0x00\n      dup1\n      revert\n    tag_54:\n      pop\n      tag_55\n      0x04\n      dup1\n      calldatasize\n      sub\n      dup2\n      add\n      swap1\n      tag_56\n      swap2\n      swap1\n      tag_57\n      jump\t// in\n    tag_56:\n      tag_58\n      jump\t// in\n    tag_55:\n      mload(0x40)\n      tag_59\n      swap2\n      swap1\n      tag_30\n      jump\t// in\n    tag_59:\n      mload(0x40)\n      dup1\n      swap2\n      sub\n      swap1\n      return\n        /* \"Intermediate Level LOL/Multi-Signature Wallet/contracts/MultiSig.sol\":2934:3551  function executeTransaction(uint256 _txIndex)... */\n    tag_11:\n      callvalue\n      dup1\n      iszero\n      tag_60\n      jumpi\n      0x00\n      dup1\n      revert\n    tag_60:\n      pop\n      tag_61\n      0x04\n      dup1\n      calldatasize\n      sub\n      dup2\n      add\n      swap1\n      tag_62\n      swap2\n      swap1\n      tag_18\n      jump\t// in\n    tag_62:\n      tag_63\n      jump\t// in\n    tag_61:\n      stop\n        /* \"Intermediate Level LOL/Multi-Signature Wallet/contracts/MultiSig.sol\":252:275  address[] public owners */\n    tag_19:\n      0x00\n      dup2\n      dup2\n      sload\n      dup2\n      lt\n      tag_64\n      jumpi\n      0x00\n      dup1\n      revert\n    tag_64:\n      swap1\n      0x00\n      mstore\n      keccak256(0x00, 0x20)\n      add\n      0x00\n      swap2\n      pop\n      sload\n      swap1\n      0x0100\n      exp\n      swap1\n      div\n      0xffffffffffffffffffffffffffffffffffffffff\n      and\n      dup2\n      jump\t// out\n        /* \"Intermediate Level LOL/Multi-Signature Wallet/contracts/MultiSig.sol\":2513:2922  function approveTransaction(uint256 _txIndex) ... */\n    tag_25:\n        /* \"Intermediate Level LOL/Multi-Signature Wallet/contracts/MultiSig.sol\":795:802  isOwner */\n      0x01\n        /* \"Intermediate Level LOL/Multi-Signature Wallet/contracts/MultiSig.sol\":795:814  isOwner[msg.sender] */\n      0x00\n        /* \"Intermediate Level LOL/Multi-Signature Wallet/contracts/MultiSig.sol\":803:813  msg.sender */\n      caller\n        /* \"Intermediate Level LOL/Multi-Signature Wallet/contracts/MultiSig.sol\":795:814  isOwner[msg.sender] */\n      0xffffffffffffffffffffffffffffffffffffffff\n      and\n      0xffffffffffffffffffffffffffffffffffffffff\n      and\n      dup2\n      mstore\n      0x20\n      add\n      swap1\n      dup2\n      mstore\n      0x20\n      add\n      0x00\n      keccak256\n      0x00\n      swap1\n      sload\n      swap1\n      0x0100\n      exp\n      swap1\n      div\n      0xff\n      and\n        /* \"Intermediate Level LOL/Multi-Signature Wallet/contracts/MultiSig.sol\":787:831  require(isOwner[msg.sender], \"Not an owner\") */\n      tag_67\n      jumpi\n      mload(0x40)\n      0x08c379a000000000000000000000000000000000000000000000000000000000\n      dup2\n      mstore\n      0x04\n      add\n      tag_68\n      swap1\n      tag_69\n      jump\t// in\n    tag_68:\n      mload(0x40)\n      dup1\n      swap2\n      sub\n      swap1\n      revert\n    tag_67:\n        /* \"Intermediate Level LOL/Multi-Signature Wallet/contracts/MultiSig.sol\":2613:2621  _txIndex */\n      dup1\n        /* \"Intermediate Level LOL/Multi-Signature Wallet/contracts/MultiSig.sol\":929:941  transactions */\n      0x03\n        /* \"Intermediate Level LOL/Multi-Signature Wallet/contracts/MultiSig.sol\":929:948  transactions.length */\n      dup1\n      sload\n      swap1\n      pop\n        /* \"Intermediate Level LOL/Multi-Signature Wallet/contracts/MultiSig.sol\":918:926  _txIndex */\n      dup2\n        /* \"Intermediate Level LOL/Multi-Signature Wallet/contracts/MultiSig.sol\":918:948  _txIndex < transactions.length */\n      lt\n        /* \"Intermediate Level LOL/Multi-Signature Wallet/contracts/MultiSig.sol\":910:979  require(_txIndex < transactions.length, \"Transaction does not exist\") */\n      tag_71\n      jumpi\n      mload(0x40)\n      0x08c379a000000000000000000000000000000000000000000000000000000000\n      dup2\n      mstore\n      0x04\n      add\n      tag_72\n      swap1\n      tag_73\n      jump\t// in\n    tag_72:\n      mload(0x40)\n      dup1\n      swap2\n      sub\n      swap1\n      revert\n    tag_71:\n        /* \"Intermediate Level LOL/Multi-Signature Wallet/contracts/MultiSig.sol\":2644:2652  _txIndex */\n      dup2\n        /* \"Intermediate Level LOL/Multi-Signature Wallet/contracts/MultiSig.sol\":1070:1082  transactions */\n      0x03\n        /* \"Intermediate Level LOL/Multi-Signature Wallet/contracts/MultiSig.sol\":1083:1091  _txIndex */\n      dup2\n        /* \"Intermediate Level LOL/Multi-Signature Wallet/contracts/MultiSig.sol\":1070:1092  transactions[_txIndex] */\n      dup2\n      sload\n      dup2\n      lt\n      tag_75\n      jumpi\n      tag_76\n      tag_77\n      jump\t// in\n    tag_76:\n    tag_75:\n      swap1\n      0x00\n      mstore\n      keccak256(0x00, 0x20)\n      swap1\n      0x05\n      mul\n      add\n        /* \"Intermediate Level LOL/Multi-Signature Wallet/contracts/MultiSig.sol\":1070:1101  transactions[_txIndex].executed */\n      0x03\n      add\n      0x00\n      swap1\n      sload\n      swap1\n      0x0100\n      exp\n      swap1\n      div\n      0xff\n      and\n        /* \"Intermediate Level LOL/Multi-Signature Wallet/contracts/MultiSig.sol\":1069:1101  !transactions[_txIndex].executed */\n      iszero\n        /* \"Intermediate Level LOL/Multi-Signature Wallet/contracts/MultiSig.sol\":1061:1134  require(!transactions[_txIndex].executed, \"Transaction already executed\") */\n      tag_79\n      jumpi\n      mload(0x40)\n      0x08c379a000000000000000000000000000000000000000000000000000000000\n      dup2\n      mstore\n      0x04\n      add\n      tag_80\n      swap1\n      tag_81\n      jump\t// in\n    tag_80:\n      mload(0x40)\n      dup1\n      swap2\n      sub\n      swap1\n      revert\n    tag_79:\n        /* \"Intermediate Level LOL/Multi-Signature Wallet/contracts/MultiSig.sol\":2675:2683  _txIndex */\n      dup3\n        /* \"Intermediate Level LOL/Multi-Signature Wallet/contracts/MultiSig.sol\":1225:1234  approvals */\n      0x04\n        /* \"Intermediate Level LOL/Multi-Signature Wallet/contracts/MultiSig.sol\":1225:1244  approvals[_txIndex] */\n      0x00\n        /* \"Intermediate Level LOL/Multi-Signature Wallet/contracts/MultiSig.sol\":1235:1243  _txIndex */\n      dup3\n        /* \"Intermediate Level LOL/Multi-Signature Wallet/contracts/MultiSig.sol\":1225:1244  approvals[_txIndex] */\n      dup2\n      mstore\n      0x20\n      add\n      swap1\n      dup2\n      mstore\n      0x20\n      add\n      0x00\n      keccak256\n        /* \"Intermediate Level LOL/Multi-Signature Wallet/contracts/MultiSig.sol\":1225:1256  approvals[_txIndex][msg.sender] */\n      0x00\n        /* \"Intermediate Level LOL/Multi-Signature Wallet/contracts/MultiSig.sol\":1245:1255  msg.sender */\n      caller\n        /* \"Intermediate Level LOL/Multi-Signature Wallet/contracts/MultiSig.sol\":1225:1256  approvals[_txIndex][msg.sender] */\n      0xffffffffffffffffffffffffffffffffffffffff\n      and\n      0xffffffffffffffffffffffffffffffffffffffff\n      and\n      dup2\n      mstore\n      0x20\n      add\n      swap1\n      dup2\n      mstore\n      0x20\n      add\n      0x00\n      keccak256\n      0x00\n      swap1\n      sload\n      swap1\n      0x0100\n      exp\n      swap1\n      div\n      0xff\n      and\n        /* \"Intermediate Level LOL/Multi-Signature Wallet/contracts/MultiSig.sol\":1224:1256  !approvals[_txIndex][msg.sender] */\n      iszero\n        /* \"Intermediate Level LOL/Multi-Signature Wallet/contracts/MultiSig.sol\":1216:1289  require(!approvals[_txIndex][msg.sender], \"Transaction already approved\") */\n      tag_83\n      jumpi\n      mload(0x40)\n      0x08c379a000000000000000000000000000000000000000000000000000000000\n      dup2\n      mstore\n      0x04\n      add\n      tag_84\n      swap1\n      tag_85\n      jump\t// in\n    tag_84:\n      mload(0x40)\n      dup1\n      swap2\n      sub\n      swap1\n      revert\n    tag_83:\n        /* \"Intermediate Level LOL/Multi-Signature Wallet/contracts/MultiSig.sol\":2701:2732  Transaction storage transaction */\n      0x00\n        /* \"Intermediate Level LOL/Multi-Signature Wallet/contracts/MultiSig.sol\":2735:2747  transactions */\n      0x03\n        /* \"Intermediate Level LOL/Multi-Signature Wallet/contracts/MultiSig.sol\":2748:2756  _txIndex */\n      dup6\n        /* \"Intermediate Level LOL/Multi-Signature Wallet/contracts/MultiSig.sol\":2735:2757  transactions[_txIndex] */\n      dup2\n      sload\n      dup2\n      lt\n      tag_87\n      jumpi\n      tag_88\n      tag_77\n      jump\t// in\n    tag_88:\n    tag_87:\n      swap1\n      0x00\n      mstore\n      keccak256(0x00, 0x20)\n      swap1\n      0x05\n      mul\n      add\n        /* \"Intermediate Level LOL/Multi-Signature Wallet/contracts/MultiSig.sol\":2701:2757  Transaction storage transaction = transactions[_txIndex] */\n      swap1\n      pop\n        /* \"Intermediate Level LOL/Multi-Signature Wallet/contracts/MultiSig.sol\":2797:2798  1 */\n      0x01\n        /* \"Intermediate Level LOL/Multi-Signature Wallet/contracts/MultiSig.sol\":2768:2779  transaction */\n      dup2\n        /* \"Intermediate Level LOL/Multi-Signature Wallet/contracts/MultiSig.sol\":2768:2793  transaction.approvalCount */\n      0x04\n      add\n      0x00\n        /* \"Intermediate Level LOL/Multi-Signature Wallet/contracts/MultiSig.sol\":2768:2798  transaction.approvalCount += 1 */\n      dup3\n      dup3\n      sload\n      tag_90\n      swap2\n      swap1\n      tag_91\n      jump\t// in\n    tag_90:\n      swap3\n      pop\n      pop\n      dup2\n      swap1\n      sstore\n      pop\n        /* \"Intermediate Level LOL/Multi-Signature Wallet/contracts/MultiSig.sol\":2843:2847  true */\n      0x01\n        /* \"Intermediate Level LOL/Multi-Signature Wallet/contracts/MultiSig.sol\":2809:2818  approvals */\n      0x04\n        /* \"Intermediate Level LOL/Multi-Signature Wallet/contracts/MultiSig.sol\":2809:2828  approvals[_txIndex] */\n      0x00\n        /* \"Intermediate Level LOL/Multi-Signature Wallet/contracts/MultiSig.sol\":2819:2827  _txIndex */\n      dup8\n        /* \"Intermediate Level LOL/Multi-Signature Wallet/contracts/MultiSig.sol\":2809:2828  approvals[_txIndex] */\n      dup2\n      mstore\n      0x20\n      add\n      swap1\n      dup2\n      mstore\n      0x20\n      add\n      0x00\n      keccak256\n        /* \"Intermediate Level LOL/Multi-Signature Wallet/contracts/MultiSig.sol\":2809:2840  approvals[_txIndex][msg.sender] */\n      0x00\n        /* \"Intermediate Level LOL/Multi-Signature Wallet/contracts/MultiSig.sol\":2829:2839  msg.sender */\n      caller\n        /* \"Intermediate Level LOL/Multi-Signature Wallet/contracts/MultiSig.sol\":2809:2840  approvals[_txIndex][msg.sender] */\n      0xffffffffffffffffffffffffffffffffffffffff\n      and\n      0xffffffffffffffffffffffffffffffffffffffff\n      and\n      dup2\n      mstore\n      0x20\n      add\n      swap1\n      dup2\n      mstore\n      0x20\n      add\n      0x00\n      keccak256\n      0x00\n        /* \"Intermediate Level LOL/Multi-Signature Wallet/contracts/MultiSig.sol\":2809:2847  approvals[_txIndex][msg.sender] = true */\n      0x0100\n      exp\n      dup2\n      sload\n      dup2\n      0xff\n      mul\n      not\n      and\n      swap1\n      dup4\n      iszero\n      iszero\n      mul\n      or\n      swap1\n      sstore\n      pop\n        /* \"Intermediate Level LOL/Multi-Signature Wallet/contracts/MultiSig.sol\":2903:2913  msg.sender */\n      caller\n        /* \"Intermediate Level LOL/Multi-Signature Wallet/contracts/MultiSig.sol\":2873:2914  TransactionApproved(_txIndex, msg.sender) */\n      0xffffffffffffffffffffffffffffffffffffffff\n      and\n        /* \"Intermediate Level LOL/Multi-Signature Wallet/contracts/MultiSig.sol\":2893:2901  _txIndex */\n      dup6\n        /* \"Intermediate Level LOL/Multi-Signature Wallet/contracts/MultiSig.sol\":2873:2914  TransactionApproved(_txIndex, msg.sender) */\n      0x924813d717e221b5f46dcd8a56da1679e4612584ab3237d55e5faabf6f6a3079\n      mload(0x40)\n      mload(0x40)\n      dup1\n      swap2\n      sub\n      swap1\n      log3\n        /* \"Intermediate Level LOL/Multi-Signature Wallet/contracts/MultiSig.sol\":2690:2922  {... */\n      pop\n        /* \"Intermediate Level LOL/Multi-Signature Wallet/contracts/MultiSig.sol\":1145:1146  _ */\n      pop\n        /* \"Intermediate Level LOL/Multi-Signature Wallet/contracts/MultiSig.sol\":990:991  _ */\n      pop\n        /* \"Intermediate Level LOL/Multi-Signature Wallet/contracts/MultiSig.sol\":842:843  _ */\n      pop\n        /* \"Intermediate Level LOL/Multi-Signature Wallet/contracts/MultiSig.sol\":2513:2922  function approveTransaction(uint256 _txIndex) ... */\n      pop\n      jump\t// out\n        /* \"Intermediate Level LOL/Multi-Signature Wallet/contracts/MultiSig.sol\":3563:3669  function getTransactionCount() public view returns (uint256) {... */\n    tag_28:\n        /* \"Intermediate Level LOL/Multi-Signature Wallet/contracts/MultiSig.sol\":3615:3622  uint256 */\n      0x00\n        /* \"Intermediate Level LOL/Multi-Signature Wallet/contracts/MultiSig.sol\":3642:3654  transactions */\n      0x03\n        /* \"Intermediate Level LOL/Multi-Signature Wallet/contracts/MultiSig.sol\":3642:3661  transactions.length */\n      dup1\n      sload\n      swap1\n      pop\n        /* \"Intermediate Level LOL/Multi-Signature Wallet/contracts/MultiSig.sol\":3635:3661  return transactions.length */\n      swap1\n      pop\n        /* \"Intermediate Level LOL/Multi-Signature Wallet/contracts/MultiSig.sol\":3563:3669  function getTransactionCount() public view returns (uint256) {... */\n      swap1\n      jump\t// out\n        /* \"Intermediate Level LOL/Multi-Signature Wallet/contracts/MultiSig.sol\":282:321  mapping(address => bool) public isOwner */\n    tag_35:\n      mstore(0x20, 0x01)\n      dup1\n      0x00\n      mstore\n      keccak256(0x00, 0x40)\n      0x00\n      swap2\n      pop\n      sload\n      swap1\n      0x0100\n      exp\n      swap1\n      div\n      0xff\n      and\n      dup2\n      jump\t// out\n        /* \"Intermediate Level LOL/Multi-Signature Wallet/contracts/MultiSig.sol\":328:360  uint256 public requiredApprovals */\n    tag_40:\n      sload(0x02)\n      dup2\n      jump\t// out\n        /* \"Intermediate Level LOL/Multi-Signature Wallet/contracts/MultiSig.sol\":367:400  Transaction[] public transactions */\n    tag_45:\n      0x03\n      dup2\n      dup2\n      sload\n      dup2\n      lt\n      tag_93\n      jumpi\n      0x00\n      dup1\n      revert\n    tag_93:\n      swap1\n      0x00\n      mstore\n      keccak256(0x00, 0x20)\n      swap1\n      0x05\n      mul\n      add\n      0x00\n      swap2\n      pop\n      swap1\n      pop\n      dup1\n      0x00\n      add\n      0x00\n      swap1\n      sload\n      swap1\n      0x0100\n      exp\n      swap1\n      div\n      0xffffffffffffffffffffffffffffffffffffffff\n      and\n      swap1\n      dup1\n      0x01\n      add\n      sload\n      swap1\n      dup1\n      0x02\n      add\n      dup1\n      sload\n      tag_95\n      swap1\n      tag_96\n      jump\t// in\n    tag_95:\n      dup1\n      0x1f\n      add\n      0x20\n      dup1\n      swap2\n      div\n      mul\n      0x20\n      add\n      mload(0x40)\n      swap1\n      dup2\n      add\n      0x40\n      mstore\n      dup1\n      swap3\n      swap2\n      swap1\n      dup2\n      dup2\n      mstore\n      0x20\n      add\n      dup3\n      dup1\n      sload\n      tag_97\n      swap1\n      tag_96\n      jump\t// in\n    tag_97:\n      dup1\n      iszero\n      tag_98\n      jumpi\n      dup1\n      0x1f\n      lt\n      tag_99\n      jumpi\n      0x0100\n      dup1\n      dup4\n      sload\n      div\n      mul\n      dup4\n      mstore\n      swap2\n      0x20\n      add\n      swap2\n      jump(tag_98)\n    tag_99:\n      dup3\n      add\n      swap2\n      swap1\n      0x00\n      mstore\n      keccak256(0x00, 0x20)\n      swap1\n    tag_100:\n      dup2\n      sload\n      dup2\n      mstore\n      swap1\n      0x01\n      add\n      swap1\n      0x20\n      add\n      dup1\n      dup4\n      gt\n      tag_100\n      jumpi\n      dup3\n      swap1\n      sub\n      0x1f\n      and\n      dup3\n      add\n      swap2\n    tag_98:\n      pop\n      pop\n      pop\n      pop\n      pop\n      swap1\n      dup1\n      0x03\n      add\n      0x00\n      swap1\n      sload\n      swap1\n      0x0100\n      exp\n      swap1\n      div\n      0xff\n      and\n      swap1\n      dup1\n      0x04\n      add\n      sload\n      swap1\n      pop\n      dup6\n      jump\t// out\n        /* \"Intermediate Level LOL/Multi-Signature Wallet/contracts/MultiSig.sol\":407:468  mapping(uint256 => mapping(address => bool)) public approvals */\n    tag_52:\n      mstore(0x20, 0x04)\n      dup2\n      0x00\n      mstore\n      mstore(0x20, keccak256(0x00, 0x40))\n      dup1\n      0x00\n      mstore\n      keccak256(0x00, 0x40)\n      0x00\n      swap2\n      pop\n      swap2\n      pop\n      swap1\n      sload\n      swap1\n      0x0100\n      exp\n      swap1\n      div\n      0xff\n      and\n      dup2\n      jump\t// out\n        /* \"Intermediate Level LOL/Multi-Signature Wallet/contracts/MultiSig.sol\":2024:2501  function submitTransaction(address _to, uint256 _value, bytes memory _data) ... */\n    tag_58:\n        /* \"Intermediate Level LOL/Multi-Signature Wallet/contracts/MultiSig.sol\":2136:2143  uint256 */\n      0x00\n        /* \"Intermediate Level LOL/Multi-Signature Wallet/contracts/MultiSig.sol\":795:802  isOwner */\n      0x01\n        /* \"Intermediate Level LOL/Multi-Signature Wallet/contracts/MultiSig.sol\":795:814  isOwner[msg.sender] */\n      0x00\n        /* \"Intermediate Level LOL/Multi-Signature Wallet/contracts/MultiSig.sol\":803:813  msg.sender */\n      caller\n        /* \"Intermediate Level LOL/Multi-Signature Wallet/contracts/MultiSig.sol\":795:814  isOwner[msg.sender] */\n      0xffffffffffffffffffffffffffffffffffffffff\n      and\n      0xffffffffffffffffffffffffffffffffffffffff\n      and\n      dup2\n      mstore\n      0x20\n      add\n      swap1\n      dup2\n      mstore\n      0x20\n      add\n      0x00\n      keccak256\n      0x00\n      swap1\n      sload\n      swap1\n      0x0100\n      exp\n      swap1\n      div\n      0xff\n      and\n        /* \"Intermediate Level LOL/Multi-Signature Wallet/contracts/MultiSig.sol\":787:831  require(isOwner[msg.sender], \"Not an owner\") */\n      tag_102\n      jumpi\n      mload(0x40)\n      0x08c379a000000000000000000000000000000000000000000000000000000000\n      dup2\n      mstore\n      0x04\n      add\n      tag_103\n      swap1\n      tag_69\n      jump\t// in\n    tag_103:\n      mload(0x40)\n      dup1\n      swap2\n      sub\n      swap1\n      revert\n    tag_102:\n        /* \"Intermediate Level LOL/Multi-Signature Wallet/contracts/MultiSig.sol\":2162:2177  uint256 txIndex */\n      0x00\n        /* \"Intermediate Level LOL/Multi-Signature Wallet/contracts/MultiSig.sol\":2180:2192  transactions */\n      0x03\n        /* \"Intermediate Level LOL/Multi-Signature Wallet/contracts/MultiSig.sol\":2180:2199  transactions.length */\n      dup1\n      sload\n      swap1\n      pop\n        /* \"Intermediate Level LOL/Multi-Signature Wallet/contracts/MultiSig.sol\":2162:2199  uint256 txIndex = transactions.length */\n      swap1\n      pop\n        /* \"Intermediate Level LOL/Multi-Signature Wallet/contracts/MultiSig.sol\":2220:2232  transactions */\n      0x03\n        /* \"Intermediate Level LOL/Multi-Signature Wallet/contracts/MultiSig.sol\":2238:2399  Transaction({... */\n      mload(0x40)\n      dup1\n      0xa0\n      add\n      0x40\n      mstore\n      dup1\n        /* \"Intermediate Level LOL/Multi-Signature Wallet/contracts/MultiSig.sol\":2269:2272  _to */\n      dup8\n        /* \"Intermediate Level LOL/Multi-Signature Wallet/contracts/MultiSig.sol\":2238:2399  Transaction({... */\n      0xffffffffffffffffffffffffffffffffffffffff\n      and\n      dup2\n      mstore\n      0x20\n      add\n        /* \"Intermediate Level LOL/Multi-Signature Wallet/contracts/MultiSig.sol\":2294:2300  _value */\n      dup7\n        /* \"Intermediate Level LOL/Multi-Signature Wallet/contracts/MultiSig.sol\":2238:2399  Transaction({... */\n      dup2\n      mstore\n      0x20\n      add\n        /* \"Intermediate Level LOL/Multi-Signature Wallet/contracts/MultiSig.sol\":2321:2326  _data */\n      dup6\n        /* \"Intermediate Level LOL/Multi-Signature Wallet/contracts/MultiSig.sol\":2238:2399  Transaction({... */\n      dup2\n      mstore\n      0x20\n      add\n        /* \"Intermediate Level LOL/Multi-Signature Wallet/contracts/MultiSig.sol\":2351:2356  false */\n      0x00\n        /* \"Intermediate Level LOL/Multi-Signature Wallet/contracts/MultiSig.sol\":2238:2399  Transaction({... */\n      iszero\n      iszero\n      dup2\n      mstore\n      0x20\n      add\n        /* \"Intermediate Level LOL/Multi-Signature Wallet/contracts/MultiSig.sol\":2386:2387  0 */\n      0x00\n        /* \"Intermediate Level LOL/Multi-Signature Wallet/contracts/MultiSig.sol\":2238:2399  Transaction({... */\n      dup2\n      mstore\n      pop\n        /* \"Intermediate Level LOL/Multi-Signature Wallet/contracts/MultiSig.sol\":2220:2400  transactions.push(Transaction({... */\n      swap1\n      dup1\n      0x01\n      dup2\n      sload\n      add\n      dup1\n      dup3\n      sstore\n      dup1\n      swap2\n      pop\n      pop\n      0x01\n      swap1\n      sub\n      swap1\n      0x00\n      mstore\n      keccak256(0x00, 0x20)\n      swap1\n      0x05\n      mul\n      add\n      0x00\n      swap1\n      swap2\n      swap1\n      swap2\n      swap1\n      swap2\n      pop\n      0x00\n      dup3\n      add\n      mload\n      dup2\n      0x00\n      add\n      exp(0x0100, 0x00)\n      dup2\n      sload\n      dup2\n      0xffffffffffffffffffffffffffffffffffffffff\n      mul\n      not\n      and\n      swap1\n      dup4\n      0xffffffffffffffffffffffffffffffffffffffff\n      and\n      mul\n      or\n      swap1\n      sstore\n      pop\n      0x20\n      dup3\n      add\n      mload\n      dup2\n      0x01\n      add\n      sstore\n      0x40\n      dup3\n      add\n      mload\n      dup2\n      0x02\n      add\n      swap1\n      dup2\n      tag_106\n      swap2\n      swap1\n      tag_107\n      jump\t// in\n    tag_106:\n      pop\n      0x60\n      dup3\n      add\n      mload\n      dup2\n      0x03\n      add\n      exp(0x0100, 0x00)\n      dup2\n      sload\n      dup2\n      0xff\n      mul\n      not\n      and\n      swap1\n      dup4\n      iszero\n      iszero\n      mul\n      or\n      swap1\n      sstore\n      pop\n      0x80\n      dup3\n      add\n      mload\n      dup2\n      0x04\n      add\n      sstore\n      pop\n      pop\n        /* \"Intermediate Level LOL/Multi-Signature Wallet/contracts/MultiSig.sol\":2456:2459  _to */\n      dup5\n        /* \"Intermediate Level LOL/Multi-Signature Wallet/contracts/MultiSig.sol\":2426:2468  TransactionSubmitted(txIndex, _to, _value) */\n      0xffffffffffffffffffffffffffffffffffffffff\n      and\n        /* \"Intermediate Level LOL/Multi-Signature Wallet/contracts/MultiSig.sol\":2447:2454  txIndex */\n      dup2\n        /* \"Intermediate Level LOL/Multi-Signature Wallet/contracts/MultiSig.sol\":2426:2468  TransactionSubmitted(txIndex, _to, _value) */\n      0x6974e8be5912ae917b788db2884a51e71cbe0f0979af347e6a32d07d52ef82a3\n        /* \"Intermediate Level LOL/Multi-Signature Wallet/contracts/MultiSig.sol\":2461:2467  _value */\n      dup7\n        /* \"Intermediate Level LOL/Multi-Signature Wallet/contracts/MultiSig.sol\":2426:2468  TransactionSubmitted(txIndex, _to, _value) */\n      mload(0x40)\n      tag_108\n      swap2\n      swap1\n      tag_30\n      jump\t// in\n    tag_108:\n      mload(0x40)\n      dup1\n      swap2\n      sub\n      swap1\n      log3\n        /* \"Intermediate Level LOL/Multi-Signature Wallet/contracts/MultiSig.sol\":2486:2493  txIndex */\n      dup1\n        /* \"Intermediate Level LOL/Multi-Signature Wallet/contracts/MultiSig.sol\":2479:2493  return txIndex */\n      swap2\n      pop\n      pop\n        /* \"Intermediate Level LOL/Multi-Signature Wallet/contracts/MultiSig.sol\":2024:2501  function submitTransaction(address _to, uint256 _value, bytes memory _data) ... */\n      swap4\n      swap3\n      pop\n      pop\n      pop\n      jump\t// out\n        /* \"Intermediate Level LOL/Multi-Signature Wallet/contracts/MultiSig.sol\":2934:3551  function executeTransaction(uint256 _txIndex)... */\n    tag_63:\n        /* \"Intermediate Level LOL/Multi-Signature Wallet/contracts/MultiSig.sol\":795:802  isOwner */\n      0x01\n        /* \"Intermediate Level LOL/Multi-Signature Wallet/contracts/MultiSig.sol\":795:814  isOwner[msg.sender] */\n      0x00\n        /* \"Intermediate Level LOL/Multi-Signature Wallet/contracts/MultiSig.sol\":803:813  msg.sender */\n      caller\n        /* \"Intermediate Level LOL/Multi-Signature Wallet/contracts/MultiSig.sol\":795:814  isOwner[msg.sender] */\n      0xffffffffffffffffffffffffffffffffffffffff\n      and\n      0xffffffffffffffffffffffffffffffffffffffff\n      and\n      dup2\n      mstore\n      0x20\n      add\n      swap1\n      dup2\n      mstore\n      0x20\n      add\n      0x00\n      keccak256\n      0x00\n      swap1\n      sload\n      swap1\n      0x0100\n      exp\n      swap1\n      div\n      0xff\n      and\n        /* \"Intermediate Level LOL/Multi-Signature Wallet/contracts/MultiSig.sol\":787:831  require(isOwner[msg.sender], \"Not an owner\") */\n      tag_110\n      jumpi\n      mload(0x40)\n      0x08c379a000000000000000000000000000000000000000000000000000000000\n      dup2\n      mstore\n      0x04\n      add\n      tag_111\n      swap1\n      tag_69\n      jump\t// in\n    tag_111:\n      mload(0x40)\n      dup1\n      swap2\n      sub\n      swap1\n      revert\n    tag_110:\n        /* \"Intermediate Level LOL/Multi-Signature Wallet/contracts/MultiSig.sol\":3033:3041  _txIndex */\n      dup1\n        /* \"Intermediate Level LOL/Multi-Signature Wallet/contracts/MultiSig.sol\":929:941  transactions */\n      0x03\n        /* \"Intermediate Level LOL/Multi-Signature Wallet/contracts/MultiSig.sol\":929:948  transactions.length */\n      dup1\n      sload\n      swap1\n      pop\n        /* \"Intermediate Level LOL/Multi-Signature Wallet/contracts/MultiSig.sol\":918:926  _txIndex */\n      dup2\n        /* \"Intermediate Level LOL/Multi-Signature Wallet/contracts/MultiSig.sol\":918:948  _txIndex < transactions.length */\n      lt\n        /* \"Intermediate Level LOL/Multi-Signature Wallet/contracts/MultiSig.sol\":910:979  require(_txIndex < transactions.length, \"Transaction does not exist\") */\n      tag_113\n      jumpi\n      mload(0x40)\n      0x08c379a000000000000000000000000000000000000000000000000000000000\n      dup2\n      mstore\n      0x04\n      add\n      tag_114\n      swap1\n      tag_73\n      jump\t// in\n    tag_114:\n      mload(0x40)\n      dup1\n      swap2\n      sub\n      swap1\n      revert\n    tag_113:\n        /* \"Intermediate Level LOL/Multi-Signature Wallet/contracts/MultiSig.sol\":3064:3072  _txIndex */\n      dup2\n        /* \"Intermediate Level LOL/Multi-Signature Wallet/contracts/MultiSig.sol\":1070:1082  transactions */\n      0x03\n        /* \"Intermediate Level LOL/Multi-Signature Wallet/contracts/MultiSig.sol\":1083:1091  _txIndex */\n      dup2\n        /* \"Intermediate Level LOL/Multi-Signature Wallet/contracts/MultiSig.sol\":1070:1092  transactions[_txIndex] */\n      dup2\n      sload\n      dup2\n      lt\n      tag_116\n      jumpi\n      tag_117\n      tag_77\n      jump\t// in\n    tag_117:\n    tag_116:\n      swap1\n      0x00\n      mstore\n      keccak256(0x00, 0x20)\n      swap1\n      0x05\n      mul\n      add\n        /* \"Intermediate Level LOL/Multi-Signature Wallet/contracts/MultiSig.sol\":1070:1101  transactions[_txIndex].executed */\n      0x03\n      add\n      0x00\n      swap1\n      sload\n      swap1\n      0x0100\n      exp\n      swap1\n      div\n      0xff\n      and\n        /* \"Intermediate Level LOL/Multi-Signature Wallet/contracts/MultiSig.sol\":1069:1101  !transactions[_txIndex].executed */\n      iszero\n        /* \"Intermediate Level LOL/Multi-Signature Wallet/contracts/MultiSig.sol\":1061:1134  require(!transactions[_txIndex].executed, \"Transaction already executed\") */\n      tag_119\n      jumpi\n      mload(0x40)\n      0x08c379a000000000000000000000000000000000000000000000000000000000\n      dup2\n      mstore\n      0x04\n      add\n      tag_120\n      swap1\n      tag_81\n      jump\t// in\n    tag_120:\n      mload(0x40)\n      dup1\n      swap2\n      sub\n      swap1\n      revert\n    tag_119:\n        /* \"Intermediate Level LOL/Multi-Signature Wallet/contracts/MultiSig.sol\":3090:3121  Transaction storage transaction */\n      0x00\n        /* \"Intermediate Level LOL/Multi-Signature Wallet/contracts/MultiSig.sol\":3124:3136  transactions */\n      0x03\n        /* \"Intermediate Level LOL/Multi-Signature Wallet/contracts/MultiSig.sol\":3137:3145  _txIndex */\n      dup5\n        /* \"Intermediate Level LOL/Multi-Signature Wallet/contracts/MultiSig.sol\":3124:3146  transactions[_txIndex] */\n      dup2\n      sload\n      dup2\n      lt\n      tag_122\n      jumpi\n      tag_123\n      tag_77\n      jump\t// in\n    tag_123:\n    tag_122:\n      swap1\n      0x00\n      mstore\n      keccak256(0x00, 0x20)\n      swap1\n      0x05\n      mul\n      add\n        /* \"Intermediate Level LOL/Multi-Signature Wallet/contracts/MultiSig.sol\":3090:3146  Transaction storage transaction = transactions[_txIndex] */\n      swap1\n      pop\n        /* \"Intermediate Level LOL/Multi-Signature Wallet/contracts/MultiSig.sol\":3204:3221  requiredApprovals */\n      sload(0x02)\n        /* \"Intermediate Level LOL/Multi-Signature Wallet/contracts/MultiSig.sol\":3175:3186  transaction */\n      dup2\n        /* \"Intermediate Level LOL/Multi-Signature Wallet/contracts/MultiSig.sol\":3175:3200  transaction.approvalCount */\n      0x04\n      add\n      sload\n        /* \"Intermediate Level LOL/Multi-Signature Wallet/contracts/MultiSig.sol\":3175:3221  transaction.approvalCount >= requiredApprovals */\n      lt\n      iszero\n        /* \"Intermediate Level LOL/Multi-Signature Wallet/contracts/MultiSig.sol\":3167:3264  require(transaction.approvalCount >= requiredApprovals, ... */\n      tag_125\n      jumpi\n      mload(0x40)\n      0x08c379a000000000000000000000000000000000000000000000000000000000\n      dup2\n      mstore\n      0x04\n      add\n      tag_126\n      swap1\n      tag_127\n      jump\t// in\n    tag_126:\n      mload(0x40)\n      dup1\n      swap2\n      sub\n      swap1\n      revert\n    tag_125:\n        /* \"Intermediate Level LOL/Multi-Signature Wallet/contracts/MultiSig.sol\":3308:3312  true */\n      0x01\n        /* \"Intermediate Level LOL/Multi-Signature Wallet/contracts/MultiSig.sol\":3285:3296  transaction */\n      dup2\n        /* \"Intermediate Level LOL/Multi-Signature Wallet/contracts/MultiSig.sol\":3285:3305  transaction.executed */\n      0x03\n      add\n      0x00\n        /* \"Intermediate Level LOL/Multi-Signature Wallet/contracts/MultiSig.sol\":3285:3312  transaction.executed = true */\n      0x0100\n      exp\n      dup2\n      sload\n      dup2\n      0xff\n      mul\n      not\n      and\n      swap1\n      dup4\n      iszero\n      iszero\n      mul\n      or\n      swap1\n      sstore\n      pop\n        /* \"Intermediate Level LOL/Multi-Signature Wallet/contracts/MultiSig.sol\":3334:3346  bool success */\n      0x00\n        /* \"Intermediate Level LOL/Multi-Signature Wallet/contracts/MultiSig.sol\":3352:3363  transaction */\n      dup2\n        /* \"Intermediate Level LOL/Multi-Signature Wallet/contracts/MultiSig.sol\":3352:3366  transaction.to */\n      0x00\n      add\n      0x00\n      swap1\n      sload\n      swap1\n      0x0100\n      exp\n      swap1\n      div\n      0xffffffffffffffffffffffffffffffffffffffff\n      and\n        /* \"Intermediate Level LOL/Multi-Signature Wallet/contracts/MultiSig.sol\":3352:3371  transaction.to.call */\n      0xffffffffffffffffffffffffffffffffffffffff\n      and\n        /* \"Intermediate Level LOL/Multi-Signature Wallet/contracts/MultiSig.sol\":3379:3390  transaction */\n      dup3\n        /* \"Intermediate Level LOL/Multi-Signature Wallet/contracts/MultiSig.sol\":3379:3396  transaction.value */\n      0x01\n      add\n      sload\n        /* \"Intermediate Level LOL/Multi-Signature Wallet/contracts/MultiSig.sol\":3412:3423  transaction */\n      dup4\n        /* \"Intermediate Level LOL/Multi-Signature Wallet/contracts/MultiSig.sol\":3412:3428  transaction.data */\n      0x02\n      add\n        /* \"Intermediate Level LOL/Multi-Signature Wallet/contracts/MultiSig.sol\":3352:3439  transaction.to.call{value: transaction.value}(... */\n      mload(0x40)\n      tag_128\n      swap2\n      swap1\n      tag_129\n      jump\t// in\n    tag_128:\n      0x00\n      mload(0x40)\n      dup1\n      dup4\n      sub\n      dup2\n      dup6\n      dup8\n      gas\n      call\n      swap3\n      pop\n      pop\n      pop\n      returndatasize\n      dup1\n      0x00\n      dup2\n      eq\n      tag_132\n      jumpi\n      mload(0x40)\n      swap2\n      pop\n      and(add(returndatasize, 0x3f), not(0x1f))\n      dup3\n      add\n      0x40\n      mstore\n      returndatasize\n      dup3\n      mstore\n      returndatasize\n      0x00\n      0x20\n      dup5\n      add\n      returndatacopy\n      jump(tag_131)\n    tag_132:\n      0x60\n      swap2\n      pop\n    tag_131:\n      pop\n        /* \"Intermediate Level LOL/Multi-Signature Wallet/contracts/MultiSig.sol\":3333:3439  (bool success, ) = transaction.to.call{value: transaction.value}(... */\n      pop\n      swap1\n      pop\n        /* \"Intermediate Level LOL/Multi-Signature Wallet/contracts/MultiSig.sol\":3458:3465  success */\n      dup1\n        /* \"Intermediate Level LOL/Multi-Signature Wallet/contracts/MultiSig.sol\":3450:3488  require(success, \"Transaction failed\") */\n      tag_133\n      jumpi\n      mload(0x40)\n      0x08c379a000000000000000000000000000000000000000000000000000000000\n      dup2\n      mstore\n      0x04\n      add\n      tag_134\n      swap1\n      tag_135\n      jump\t// in\n    tag_134:\n      mload(0x40)\n      dup1\n      swap2\n      sub\n      swap1\n      revert\n    tag_133:\n        /* \"Intermediate Level LOL/Multi-Signature Wallet/contracts/MultiSig.sol\":3534:3542  _txIndex */\n      dup5\n        /* \"Intermediate Level LOL/Multi-Signature Wallet/contracts/MultiSig.sol\":3514:3543  TransactionExecuted(_txIndex) */\n      0x15ed165a284872ea7017f03df402a0cadfbfab588320ffaf83f160c2f82781c7\n      mload(0x40)\n      mload(0x40)\n      dup1\n      swap2\n      sub\n      swap1\n      log2\n        /* \"Intermediate Level LOL/Multi-Signature Wallet/contracts/MultiSig.sol\":3079:3551  {... */\n      pop\n      pop\n        /* \"Intermediate Level LOL/Multi-Signature Wallet/contracts/MultiSig.sol\":990:991  _ */\n      pop\n        /* \"Intermediate Level LOL/Multi-Signature Wallet/contracts/MultiSig.sol\":842:843  _ */\n      pop\n        /* \"Intermediate Level LOL/Multi-Signature Wallet/contracts/MultiSig.sol\":2934:3551  function executeTransaction(uint256 _txIndex)... */\n      pop\n      jump\t// out\n        /* \"#utility.yul\":7:82   */\n    tag_136:\n        /* \"#utility.yul\":40:46   */\n      0x00\n        /* \"#utility.yul\":73:75   */\n      0x40\n        /* \"#utility.yul\":67:76   */\n      mload\n        /* \"#utility.yul\":57:76   */\n      swap1\n      pop\n        /* \"#utility.yul\":7:82   */\n      swap1\n      jump\t// out\n        /* \"#utility.yul\":88:205   */\n    tag_137:\n        /* \"#utility.yul\":197:198   */\n      0x00\n        /* \"#utility.yul\":194:195   */\n      dup1\n        /* \"#utility.yul\":187:199   */\n      revert\n        /* \"#utility.yul\":211:328   */\n    tag_138:\n        /* \"#utility.yul\":320:321   */\n      0x00\n        /* \"#utility.yul\":317:318   */\n      dup1\n        /* \"#utility.yul\":310:322   */\n      revert\n        /* \"#utility.yul\":334:411   */\n    tag_139:\n        /* \"#utility.yul\":371:378   */\n      0x00\n        /* \"#utility.yul\":400:405   */\n      dup2\n        /* \"#utility.yul\":389:405   */\n      swap1\n      pop\n        /* \"#utility.yul\":334:411   */\n      swap2\n      swap1\n      pop\n      jump\t// out\n        /* \"#utility.yul\":417:539   */\n    tag_140:\n        /* \"#utility.yul\":490:514   */\n      tag_202\n        /* \"#utility.yul\":508:513   */\n      dup2\n        /* \"#utility.yul\":490:514   */\n      tag_139\n      jump\t// in\n    tag_202:\n        /* \"#utility.yul\":483:488   */\n      dup2\n        /* \"#utility.yul\":480:515   */\n      eq\n        /* \"#utility.yul\":470:533   */\n      tag_203\n      jumpi\n        /* \"#utility.yul\":529:530   */\n      0x00\n        /* \"#utility.yul\":526:527   */\n      dup1\n        /* \"#utility.yul\":519:531   */\n      revert\n        /* \"#utility.yul\":470:533   */\n    tag_203:\n        /* \"#utility.yul\":417:539   */\n      pop\n      jump\t// out\n        /* \"#utility.yul\":545:684   */\n    tag_141:\n        /* \"#utility.yul\":591:596   */\n      0x00\n        /* \"#utility.yul\":629:635   */\n      dup2\n        /* \"#utility.yul\":616:636   */\n      calldataload\n        /* \"#utility.yul\":607:636   */\n      swap1\n      pop\n        /* \"#utility.yul\":645:678   */\n      tag_205\n        /* \"#utility.yul\":672:677   */\n      dup2\n        /* \"#utility.yul\":645:678   */\n      tag_140\n      jump\t// in\n    tag_205:\n        /* \"#utility.yul\":545:684   */\n      swap3\n      swap2\n      pop\n      pop\n      jump\t// out\n        /* \"#utility.yul\":690:1019   */\n    tag_18:\n        /* \"#utility.yul\":749:755   */\n      0x00\n        /* \"#utility.yul\":798:800   */\n      0x20\n        /* \"#utility.yul\":786:795   */\n      dup3\n        /* \"#utility.yul\":777:784   */\n      dup5\n        /* \"#utility.yul\":773:796   */\n      sub\n        /* \"#utility.yul\":769:801   */\n      slt\n        /* \"#utility.yul\":766:885   */\n      iszero\n      tag_207\n      jumpi\n        /* \"#utility.yul\":804:883   */\n      tag_208\n      tag_137\n      jump\t// in\n    tag_208:\n        /* \"#utility.yul\":766:885   */\n    tag_207:\n        /* \"#utility.yul\":924:925   */\n      0x00\n        /* \"#utility.yul\":949:1002   */\n      tag_209\n        /* \"#utility.yul\":994:1001   */\n      dup5\n        /* \"#utility.yul\":985:991   */\n      dup3\n        /* \"#utility.yul\":974:983   */\n      dup6\n        /* \"#utility.yul\":970:992   */\n      add\n        /* \"#utility.yul\":949:1002   */\n      tag_141\n      jump\t// in\n    tag_209:\n        /* \"#utility.yul\":939:1002   */\n      swap2\n      pop\n        /* \"#utility.yul\":895:1012   */\n      pop\n        /* \"#utility.yul\":690:1019   */\n      swap3\n      swap2\n      pop\n      pop\n      jump\t// out\n        /* \"#utility.yul\":1025:1151   */\n    tag_142:\n        /* \"#utility.yul\":1062:1069   */\n      0x00\n        /* \"#utility.yul\":1102:1144   */\n      0xffffffffffffffffffffffffffffffffffffffff\n        /* \"#utility.yul\":1095:1100   */\n      dup3\n        /* \"#utility.yul\":1091:1145   */\n      and\n        /* \"#utility.yul\":1080:1145   */\n      swap1\n      pop\n        /* \"#utility.yul\":1025:1151   */\n      swap2\n      swap1\n      pop\n      jump\t// out\n        /* \"#utility.yul\":1157:1253   */\n    tag_143:\n        /* \"#utility.yul\":1194:1201   */\n      0x00\n        /* \"#utility.yul\":1223:1247   */\n      tag_212\n        /* \"#utility.yul\":1241:1246   */\n      dup3\n        /* \"#utility.yul\":1223:1247   */\n      tag_142\n      jump\t// in\n    tag_212:\n        /* \"#utility.yul\":1212:1247   */\n      swap1\n      pop\n        /* \"#utility.yul\":1157:1253   */\n      swap2\n      swap1\n      pop\n      jump\t// out\n        /* \"#utility.yul\":1259:1377   */\n    tag_144:\n        /* \"#utility.yul\":1346:1370   */\n      tag_214\n        /* \"#utility.yul\":1364:1369   */\n      dup2\n        /* \"#utility.yul\":1346:1370   */\n      tag_143\n      jump\t// in\n    tag_214:\n        /* \"#utility.yul\":1341:1344   */\n      dup3\n        /* \"#utility.yul\":1334:1371   */\n      mstore\n        /* \"#utility.yul\":1259:1377   */\n      pop\n      pop\n      jump\t// out\n        /* \"#utility.yul\":1383:1605   */\n    tag_21:\n        /* \"#utility.yul\":1476:1480   */\n      0x00\n        /* \"#utility.yul\":1514:1516   */\n      0x20\n        /* \"#utility.yul\":1503:1512   */\n      dup3\n        /* \"#utility.yul\":1499:1517   */\n      add\n        /* \"#utility.yul\":1491:1517   */\n      swap1\n      pop\n        /* \"#utility.yul\":1527:1598   */\n      tag_216\n        /* \"#utility.yul\":1595:1596   */\n      0x00\n        /* \"#utility.yul\":1584:1593   */\n      dup4\n        /* \"#utility.yul\":1580:1597   */\n      add\n        /* \"#utility.yul\":1571:1577   */\n      dup5\n        /* \"#utility.yul\":1527:1598   */\n      tag_144\n      jump\t// in\n    tag_216:\n        /* \"#utility.yul\":1383:1605   */\n      swap3\n      swap2\n      pop\n      pop\n      jump\t// out\n        /* \"#utility.yul\":1611:1729   */\n    tag_145:\n        /* \"#utility.yul\":1698:1722   */\n      tag_218\n        /* \"#utility.yul\":1716:1721   */\n      dup2\n        /* \"#utility.yul\":1698:1722   */\n      tag_139\n      jump\t// in\n    tag_218:\n        /* \"#utility.yul\":1693:1696   */\n      dup3\n        /* \"#utility.yul\":1686:1723   */\n      mstore\n        /* \"#utility.yul\":1611:1729   */\n      pop\n      pop\n      jump\t// out\n        /* \"#utility.yul\":1735:1957   */\n    tag_30:\n        /* \"#utility.yul\":1828:1832   */\n      0x00\n        /* \"#utility.yul\":1866:1868   */\n      0x20\n        /* \"#utility.yul\":1855:1864   */\n      dup3\n        /* \"#utility.yul\":1851:1869   */\n      add\n        /* \"#utility.yul\":1843:1869   */\n      swap1\n      pop\n        /* \"#utility.yul\":1879:1950   */\n      tag_220\n        /* \"#utility.yul\":1947:1948   */\n      0x00\n        /* \"#utility.yul\":1936:1945   */\n      dup4\n        /* \"#utility.yul\":1932:1949   */\n      add\n        /* \"#utility.yul\":1923:1929   */\n      dup5\n        /* \"#utility.yul\":1879:1950   */\n      tag_145\n      jump\t// in\n    tag_220:\n        /* \"#utility.yul\":1735:1957   */\n      swap3\n      swap2\n      pop\n      pop\n      jump\t// out\n        /* \"#utility.yul\":1963:2085   */\n    tag_146:\n        /* \"#utility.yul\":2036:2060   */\n      tag_222\n        /* \"#utility.yul\":2054:2059   */\n      dup2\n        /* \"#utility.yul\":2036:2060   */\n      tag_143\n      jump\t// in\n    tag_222:\n        /* \"#utility.yul\":2029:2034   */\n      dup2\n        /* \"#utility.yul\":2026:2061   */\n      eq\n        /* \"#utility.yul\":2016:2079   */\n      tag_223\n      jumpi\n        /* \"#utility.yul\":2075:2076   */\n      0x00\n        /* \"#utility.yul\":2072:2073   */\n      dup1\n        /* \"#utility.yul\":2065:2077   */\n      revert\n        /* \"#utility.yul\":2016:2079   */\n    tag_223:\n        /* \"#utility.yul\":1963:2085   */\n      pop\n      jump\t// out\n        /* \"#utility.yul\":2091:2230   */\n    tag_147:\n        /* \"#utility.yul\":2137:2142   */\n      0x00\n        /* \"#utility.yul\":2175:2181   */\n      dup2\n        /* \"#utility.yul\":2162:2182   */\n      calldataload\n        /* \"#utility.yul\":2153:2182   */\n      swap1\n      pop\n        /* \"#utility.yul\":2191:2224   */\n      tag_225\n        /* \"#utility.yul\":2218:2223   */\n      dup2\n        /* \"#utility.yul\":2191:2224   */\n      tag_146\n      jump\t// in\n    tag_225:\n        /* \"#utility.yul\":2091:2230   */\n      swap3\n      swap2\n      pop\n      pop\n      jump\t// out\n        /* \"#utility.yul\":2236:2565   */\n    tag_34:\n        /* \"#utility.yul\":2295:2301   */\n      0x00\n        /* \"#utility.yul\":2344:2346   */\n      0x20\n        /* \"#utility.yul\":2332:2341   */\n      dup3\n        /* \"#utility.yul\":2323:2330   */\n      dup5\n        /* \"#utility.yul\":2319:2342   */\n      sub\n        /* \"#utility.yul\":2315:2347   */\n      slt\n        /* \"#utility.yul\":2312:2431   */\n      iszero\n      tag_227\n      jumpi\n        /* \"#utility.yul\":2350:2429   */\n      tag_228\n      tag_137\n      jump\t// in\n    tag_228:\n        /* \"#utility.yul\":2312:2431   */\n    tag_227:\n        /* \"#utility.yul\":2470:2471   */\n      0x00\n        /* \"#utility.yul\":2495:2548   */\n      tag_229\n        /* \"#utility.yul\":2540:2547   */\n      dup5\n        /* \"#utility.yul\":2531:2537   */\n      dup3\n        /* \"#utility.yul\":2520:2529   */\n      dup6\n        /* \"#utility.yul\":2516:2538   */\n      add\n        /* \"#utility.yul\":2495:2548   */\n      tag_147\n      jump\t// in\n    tag_229:\n        /* \"#utility.yul\":2485:2548   */\n      swap2\n      pop\n        /* \"#utility.yul\":2441:2558   */\n      pop\n        /* \"#utility.yul\":2236:2565   */\n      swap3\n      swap2\n      pop\n      pop\n      jump\t// out\n        /* \"#utility.yul\":2571:2661   */\n    tag_148:\n        /* \"#utility.yul\":2605:2612   */\n      0x00\n        /* \"#utility.yul\":2648:2653   */\n      dup2\n        /* \"#utility.yul\":2641:2654   */\n      iszero\n        /* \"#utility.yul\":2634:2655   */\n      iszero\n        /* \"#utility.yul\":2623:2655   */\n      swap1\n      pop\n        /* \"#utility.yul\":2571:2661   */\n      swap2\n      swap1\n      pop\n      jump\t// out\n        /* \"#utility.yul\":2667:2776   */\n    tag_149:\n        /* \"#utility.yul\":2748:2769   */\n      tag_232\n        /* \"#utility.yul\":2763:2768   */\n      dup2\n        /* \"#utility.yul\":2748:2769   */\n      tag_148\n      jump\t// in\n    tag_232:\n        /* \"#utility.yul\":2743:2746   */\n      dup3\n        /* \"#utility.yul\":2736:2770   */\n      mstore\n        /* \"#utility.yul\":2667:2776   */\n      pop\n      pop\n      jump\t// out\n        /* \"#utility.yul\":2782:2992   */\n    tag_37:\n        /* \"#utility.yul\":2869:2873   */\n      0x00\n        /* \"#utility.yul\":2907:2909   */\n      0x20\n        /* \"#utility.yul\":2896:2905   */\n      dup3\n        /* \"#utility.yul\":2892:2910   */\n      add\n        /* \"#utility.yul\":2884:2910   */\n      swap1\n      pop\n        /* \"#utility.yul\":2920:2985   */\n      tag_234\n        /* \"#utility.yul\":2982:2983   */\n      0x00\n        /* \"#utility.yul\":2971:2980   */\n      dup4\n        /* \"#utility.yul\":2967:2984   */\n      add\n        /* \"#utility.yul\":2958:2964   */\n      dup5\n        /* \"#utility.yul\":2920:2985   */\n      tag_149\n      jump\t// in\n    tag_234:\n        /* \"#utility.yul\":2782:2992   */\n      swap3\n      swap2\n      pop\n      pop\n      jump\t// out\n        /* \"#utility.yul\":2998:3096   */\n    tag_150:\n        /* \"#utility.yul\":3049:3055   */\n      0x00\n        /* \"#utility.yul\":3083:3088   */\n      dup2\n        /* \"#utility.yul\":3077:3089   */\n      mload\n        /* \"#utility.yul\":3067:3089   */\n      swap1\n      pop\n        /* \"#utility.yul\":2998:3096   */\n      swap2\n      swap1\n      pop\n      jump\t// out\n        /* \"#utility.yul\":3102:3270   */\n    tag_151:\n        /* \"#utility.yul\":3185:3196   */\n      0x00\n        /* \"#utility.yul\":3219:3225   */\n      dup3\n        /* \"#utility.yul\":3214:3217   */\n      dup3\n        /* \"#utility.yul\":3207:3226   */\n      mstore\n        /* \"#utility.yul\":3259:3263   */\n      0x20\n        /* \"#utility.yul\":3254:3257   */\n      dup3\n        /* \"#utility.yul\":3250:3264   */\n      add\n        /* \"#utility.yul\":3235:3264   */\n      swap1\n      pop\n        /* \"#utility.yul\":3102:3270   */\n      swap3\n      swap2\n      pop\n      pop\n      jump\t// out\n        /* \"#utility.yul\":3276:3415   */\n    tag_152:\n        /* \"#utility.yul\":3365:3371   */\n      dup3\n        /* \"#utility.yul\":3360:3363   */\n      dup2\n        /* \"#utility.yul\":3355:3358   */\n      dup4\n        /* \"#utility.yul\":3349:3372   */\n      mcopy\n        /* \"#utility.yul\":3406:3407   */\n      0x00\n        /* \"#utility.yul\":3397:3403   */\n      dup4\n        /* \"#utility.yul\":3392:3395   */\n      dup4\n        /* \"#utility.yul\":3388:3404   */\n      add\n        /* \"#utility.yul\":3381:3408   */\n      mstore\n        /* \"#utility.yul\":3276:3415   */\n      pop\n      pop\n      pop\n      jump\t// out\n        /* \"#utility.yul\":3421:3523   */\n    tag_153:\n        /* \"#utility.yul\":3462:3468   */\n      0x00\n        /* \"#utility.yul\":3513:3515   */\n      0x1f\n        /* \"#utility.yul\":3509:3516   */\n      not\n        /* \"#utility.yul\":3504:3506   */\n      0x1f\n        /* \"#utility.yul\":3497:3502   */\n      dup4\n        /* \"#utility.yul\":3493:3507   */\n      add\n        /* \"#utility.yul\":3489:3517   */\n      and\n        /* \"#utility.yul\":3479:3517   */\n      swap1\n      pop\n        /* \"#utility.yul\":3421:3523   */\n      swap2\n      swap1\n      pop\n      jump\t// out\n        /* \"#utility.yul\":3529:3902   */\n    tag_154:\n        /* \"#utility.yul\":3615:3618   */\n      0x00\n        /* \"#utility.yul\":3643:3681   */\n      tag_240\n        /* \"#utility.yul\":3675:3680   */\n      dup3\n        /* \"#utility.yul\":3643:3681   */\n      tag_150\n      jump\t// in\n    tag_240:\n        /* \"#utility.yul\":3697:3767   */\n      tag_241\n        /* \"#utility.yul\":3760:3766   */\n      dup2\n        /* \"#utility.yul\":3755:3758   */\n      dup6\n        /* \"#utility.yul\":3697:3767   */\n      tag_151\n      jump\t// in\n    tag_241:\n        /* \"#utility.yul\":3690:3767   */\n      swap4\n      pop\n        /* \"#utility.yul\":3776:3841   */\n      tag_242\n        /* \"#utility.yul\":3834:3840   */\n      dup2\n        /* \"#utility.yul\":3829:3832   */\n      dup6\n        /* \"#utility.yul\":3822:3826   */\n      0x20\n        /* \"#utility.yul\":3815:3820   */\n      dup7\n        /* \"#utility.yul\":3811:3827   */\n      add\n        /* \"#utility.yul\":3776:3841   */\n      tag_152\n      jump\t// in\n    tag_242:\n        /* \"#utility.yul\":3866:3895   */\n      tag_243\n        /* \"#utility.yul\":3888:3894   */\n      dup2\n        /* \"#utility.yul\":3866:3895   */\n      tag_153\n      jump\t// in\n    tag_243:\n        /* \"#utility.yul\":3861:3864   */\n      dup5\n        /* \"#utility.yul\":3857:3896   */\n      add\n        /* \"#utility.yul\":3850:3896   */\n      swap2\n      pop\n        /* \"#utility.yul\":3619:3902   */\n      pop\n        /* \"#utility.yul\":3529:3902   */\n      swap3\n      swap2\n      pop\n      pop\n      jump\t// out\n        /* \"#utility.yul\":3908:4647   */\n    tag_47:\n        /* \"#utility.yul\":4125:4129   */\n      0x00\n        /* \"#utility.yul\":4163:4166   */\n      0xa0\n        /* \"#utility.yul\":4152:4161   */\n      dup3\n        /* \"#utility.yul\":4148:4167   */\n      add\n        /* \"#utility.yul\":4140:4167   */\n      swap1\n      pop\n        /* \"#utility.yul\":4177:4248   */\n      tag_245\n        /* \"#utility.yul\":4245:4246   */\n      0x00\n        /* \"#utility.yul\":4234:4243   */\n      dup4\n        /* \"#utility.yul\":4230:4247   */\n      add\n        /* \"#utility.yul\":4221:4227   */\n      dup9\n        /* \"#utility.yul\":4177:4248   */\n      tag_144\n      jump\t// in\n    tag_245:\n        /* \"#utility.yul\":4258:4330   */\n      tag_246\n        /* \"#utility.yul\":4326:4328   */\n      0x20\n        /* \"#utility.yul\":4315:4324   */\n      dup4\n        /* \"#utility.yul\":4311:4329   */\n      add\n        /* \"#utility.yul\":4302:4308   */\n      dup8\n        /* \"#utility.yul\":4258:4330   */\n      tag_145\n      jump\t// in\n    tag_246:\n        /* \"#utility.yul\":4377:4386   */\n      dup2\n        /* \"#utility.yul\":4371:4375   */\n      dup2\n        /* \"#utility.yul\":4367:4387   */\n      sub\n        /* \"#utility.yul\":4362:4364   */\n      0x40\n        /* \"#utility.yul\":4351:4360   */\n      dup4\n        /* \"#utility.yul\":4347:4365   */\n      add\n        /* \"#utility.yul\":4340:4388   */\n      mstore\n        /* \"#utility.yul\":4405:4481   */\n      tag_247\n        /* \"#utility.yul\":4476:4480   */\n      dup2\n        /* \"#utility.yul\":4467:4473   */\n      dup7\n        /* \"#utility.yul\":4405:4481   */\n      tag_154\n      jump\t// in\n    tag_247:\n        /* \"#utility.yul\":4397:4481   */\n      swap1\n      pop\n        /* \"#utility.yul\":4491:4557   */\n      tag_248\n        /* \"#utility.yul\":4553:4555   */\n      0x60\n        /* \"#utility.yul\":4542:4551   */\n      dup4\n        /* \"#utility.yul\":4538:4556   */\n      add\n        /* \"#utility.yul\":4529:4535   */\n      dup6\n        /* \"#utility.yul\":4491:4557   */\n      tag_149\n      jump\t// in\n    tag_248:\n        /* \"#utility.yul\":4567:4640   */\n      tag_249\n        /* \"#utility.yul\":4635:4638   */\n      0x80\n        /* \"#utility.yul\":4624:4633   */\n      dup4\n        /* \"#utility.yul\":4620:4639   */\n      add\n        /* \"#utility.yul\":4611:4617   */\n      dup5\n        /* \"#utility.yul\":4567:4640   */\n      tag_145\n      jump\t// in\n    tag_249:\n        /* \"#utility.yul\":3908:4647   */\n      swap7\n      swap6\n      pop\n      pop\n      pop\n      pop\n      pop\n      pop\n      jump\t// out\n        /* \"#utility.yul\":4653:5127   */\n    tag_51:\n        /* \"#utility.yul\":4721:4727   */\n      0x00\n        /* \"#utility.yul\":4729:4735   */\n      dup1\n        /* \"#utility.yul\":4778:4780   */\n      0x40\n        /* \"#utility.yul\":4766:4775   */\n      dup4\n        /* \"#utility.yul\":4757:4764   */\n      dup6\n        /* \"#utility.yul\":4753:4776   */\n      sub\n        /* \"#utility.yul\":4749:4781   */\n      slt\n        /* \"#utility.yul\":4746:4865   */\n      iszero\n      tag_251\n      jumpi\n        /* \"#utility.yul\":4784:4863   */\n      tag_252\n      tag_137\n      jump\t// in\n    tag_252:\n        /* \"#utility.yul\":4746:4865   */\n    tag_251:\n        /* \"#utility.yul\":4904:4905   */\n      0x00\n        /* \"#utility.yul\":4929:4982   */\n      tag_253\n        /* \"#utility.yul\":4974:4981   */\n      dup6\n        /* \"#utility.yul\":4965:4971   */\n      dup3\n        /* \"#utility.yul\":4954:4963   */\n      dup7\n        /* \"#utility.yul\":4950:4972   */\n      add\n        /* \"#utility.yul\":4929:4982   */\n      tag_141\n      jump\t// in\n    tag_253:\n        /* \"#utility.yul\":4919:4982   */\n      swap3\n      pop\n        /* \"#utility.yul\":4875:4992   */\n      pop\n        /* \"#utility.yul\":5031:5033   */\n      0x20\n        /* \"#utility.yul\":5057:5110   */\n      tag_254\n        /* \"#utility.yul\":5102:5109   */\n      dup6\n        /* \"#utility.yul\":5093:5099   */\n      dup3\n        /* \"#utility.yul\":5082:5091   */\n      dup7\n        /* \"#utility.yul\":5078:5100   */\n      add\n        /* \"#utility.yul\":5057:5110   */\n      tag_147\n      jump\t// in\n    tag_254:\n        /* \"#utility.yul\":5047:5110   */\n      swap2\n      pop\n        /* \"#utility.yul\":5002:5120   */\n      pop\n        /* \"#utility.yul\":4653:5127   */\n      swap3\n      pop\n      swap3\n      swap1\n      pop\n      jump\t// out\n        /* \"#utility.yul\":5133:5250   */\n    tag_155:\n        /* \"#utility.yul\":5242:5243   */\n      0x00\n        /* \"#utility.yul\":5239:5240   */\n      dup1\n        /* \"#utility.yul\":5232:5244   */\n      revert\n        /* \"#utility.yul\":5256:5373   */\n    tag_156:\n        /* \"#utility.yul\":5365:5366   */\n      0x00\n        /* \"#utility.yul\":5362:5363   */\n      dup1\n        /* \"#utility.yul\":5355:5367   */\n      revert\n        /* \"#utility.yul\":5379:5559   */\n    tag_157:\n        /* \"#utility.yul\":5427:5504   */\n      0x4e487b7100000000000000000000000000000000000000000000000000000000\n        /* \"#utility.yul\":5424:5425   */\n      0x00\n        /* \"#utility.yul\":5417:5505   */\n      mstore\n        /* \"#utility.yul\":5524:5528   */\n      0x41\n        /* \"#utility.yul\":5521:5522   */\n      0x04\n        /* \"#utility.yul\":5514:5529   */\n      mstore\n        /* \"#utility.yul\":5548:5552   */\n      0x24\n        /* \"#utility.yul\":5545:5546   */\n      0x00\n        /* \"#utility.yul\":5538:5553   */\n      revert\n        /* \"#utility.yul\":5565:5846   */\n    tag_158:\n        /* \"#utility.yul\":5648:5675   */\n      tag_259\n        /* \"#utility.yul\":5670:5674   */\n      dup3\n        /* \"#utility.yul\":5648:5675   */\n      tag_153\n      jump\t// in\n    tag_259:\n        /* \"#utility.yul\":5640:5646   */\n      dup2\n        /* \"#utility.yul\":5636:5676   */\n      add\n        /* \"#utility.yul\":5778:5784   */\n      dup2\n        /* \"#utility.yul\":5766:5776   */\n      dup2\n        /* \"#utility.yul\":5763:5785   */\n      lt\n        /* \"#utility.yul\":5742:5760   */\n      0xffffffffffffffff\n        /* \"#utility.yul\":5730:5740   */\n      dup3\n        /* \"#utility.yul\":5727:5761   */\n      gt\n        /* \"#utility.yul\":5724:5786   */\n      or\n        /* \"#utility.yul\":5721:5809   */\n      iszero\n      tag_260\n      jumpi\n        /* \"#utility.yul\":5789:5807   */\n      tag_261\n      tag_157\n      jump\t// in\n    tag_261:\n        /* \"#utility.yul\":5721:5809   */\n    tag_260:\n        /* \"#utility.yul\":5829:5839   */\n      dup1\n        /* \"#utility.yul\":5825:5827   */\n      0x40\n        /* \"#utility.yul\":5818:5840   */\n      mstore\n        /* \"#utility.yul\":5608:5846   */\n      pop\n        /* \"#utility.yul\":5565:5846   */\n      pop\n      pop\n      jump\t// out\n        /* \"#utility.yul\":5852:5981   */\n    tag_159:\n        /* \"#utility.yul\":5886:5892   */\n      0x00\n        /* \"#utility.yul\":5913:5933   */\n      tag_263\n      tag_136\n      jump\t// in\n    tag_263:\n        /* \"#utility.yul\":5903:5933   */\n      swap1\n      pop\n        /* \"#utility.yul\":5942:5975   */\n      tag_264\n        /* \"#utility.yul\":5970:5974   */\n      dup3\n        /* \"#utility.yul\":5962:5968   */\n      dup3\n        /* \"#utility.yul\":5942:5975   */\n      tag_158\n      jump\t// in\n    tag_264:\n        /* \"#utility.yul\":5852:5981   */\n      swap2\n      swap1\n      pop\n      jump\t// out\n        /* \"#utility.yul\":5987:6294   */\n    tag_160:\n        /* \"#utility.yul\":6048:6052   */\n      0x00\n        /* \"#utility.yul\":6138:6156   */\n      0xffffffffffffffff\n        /* \"#utility.yul\":6130:6136   */\n      dup3\n        /* \"#utility.yul\":6127:6157   */\n      gt\n        /* \"#utility.yul\":6124:6180   */\n      iszero\n      tag_266\n      jumpi\n        /* \"#utility.yul\":6160:6178   */\n      tag_267\n      tag_157\n      jump\t// in\n    tag_267:\n        /* \"#utility.yul\":6124:6180   */\n    tag_266:\n        /* \"#utility.yul\":6198:6227   */\n      tag_268\n        /* \"#utility.yul\":6220:6226   */\n      dup3\n        /* \"#utility.yul\":6198:6227   */\n      tag_153\n      jump\t// in\n    tag_268:\n        /* \"#utility.yul\":6190:6227   */\n      swap1\n      pop\n        /* \"#utility.yul\":6282:6286   */\n      0x20\n        /* \"#utility.yul\":6276:6280   */\n      dup2\n        /* \"#utility.yul\":6272:6287   */\n      add\n        /* \"#utility.yul\":6264:6287   */\n      swap1\n      pop\n        /* \"#utility.yul\":5987:6294   */\n      swap2\n      swap1\n      pop\n      jump\t// out\n        /* \"#utility.yul\":6300:6448   */\n    tag_161:\n        /* \"#utility.yul\":6398:6404   */\n      dup3\n        /* \"#utility.yul\":6393:6396   */\n      dup2\n        /* \"#utility.yul\":6388:6391   */\n      dup4\n        /* \"#utility.yul\":6375:6405   */\n      calldatacopy\n        /* \"#utility.yul\":6439:6440   */\n      0x00\n        /* \"#utility.yul\":6430:6436   */\n      dup4\n        /* \"#utility.yul\":6425:6428   */\n      dup4\n        /* \"#utility.yul\":6421:6437   */\n      add\n        /* \"#utility.yul\":6414:6441   */\n      mstore\n        /* \"#utility.yul\":6300:6448   */\n      pop\n      pop\n      pop\n      jump\t// out\n        /* \"#utility.yul\":6454:6877   */\n    tag_162:\n        /* \"#utility.yul\":6531:6536   */\n      0x00\n        /* \"#utility.yul\":6556:6621   */\n      tag_271\n        /* \"#utility.yul\":6572:6620   */\n      tag_272\n        /* \"#utility.yul\":6613:6619   */\n      dup5\n        /* \"#utility.yul\":6572:6620   */\n      tag_160\n      jump\t// in\n    tag_272:\n        /* \"#utility.yul\":6556:6621   */\n      tag_159\n      jump\t// in\n    tag_271:\n        /* \"#utility.yul\":6547:6621   */\n      swap1\n      pop\n        /* \"#utility.yul\":6644:6650   */\n      dup3\n        /* \"#utility.yul\":6637:6642   */\n      dup2\n        /* \"#utility.yul\":6630:6651   */\n      mstore\n        /* \"#utility.yul\":6682:6686   */\n      0x20\n        /* \"#utility.yul\":6675:6680   */\n      dup2\n        /* \"#utility.yul\":6671:6687   */\n      add\n        /* \"#utility.yul\":6720:6723   */\n      dup5\n        /* \"#utility.yul\":6711:6717   */\n      dup5\n        /* \"#utility.yul\":6706:6709   */\n      dup5\n        /* \"#utility.yul\":6702:6718   */\n      add\n        /* \"#utility.yul\":6699:6724   */\n      gt\n        /* \"#utility.yul\":6696:6808   */\n      iszero\n      tag_273\n      jumpi\n        /* \"#utility.yul\":6727:6806   */\n      tag_274\n      tag_156\n      jump\t// in\n    tag_274:\n        /* \"#utility.yul\":6696:6808   */\n    tag_273:\n        /* \"#utility.yul\":6817:6871   */\n      tag_275\n        /* \"#utility.yul\":6864:6870   */\n      dup5\n        /* \"#utility.yul\":6859:6862   */\n      dup3\n        /* \"#utility.yul\":6854:6857   */\n      dup6\n        /* \"#utility.yul\":6817:6871   */\n      tag_161\n      jump\t// in\n    tag_275:\n        /* \"#utility.yul\":6537:6877   */\n      pop\n        /* \"#utility.yul\":6454:6877   */\n      swap4\n      swap3\n      pop\n      pop\n      pop\n      jump\t// out\n        /* \"#utility.yul\":6896:7234   */\n    tag_163:\n        /* \"#utility.yul\":6951:6956   */\n      0x00\n        /* \"#utility.yul\":7000:7003   */\n      dup3\n        /* \"#utility.yul\":6993:6997   */\n      0x1f\n        /* \"#utility.yul\":6985:6991   */\n      dup4\n        /* \"#utility.yul\":6981:6998   */\n      add\n        /* \"#utility.yul\":6977:7004   */\n      slt\n        /* \"#utility.yul\":6967:7089   */\n      tag_277\n      jumpi\n        /* \"#utility.yul\":7008:7087   */\n      tag_278\n      tag_155\n      jump\t// in\n    tag_278:\n        /* \"#utility.yul\":6967:7089   */\n    tag_277:\n        /* \"#utility.yul\":7125:7131   */\n      dup2\n        /* \"#utility.yul\":7112:7132   */\n      calldataload\n        /* \"#utility.yul\":7150:7228   */\n      tag_279\n        /* \"#utility.yul\":7224:7227   */\n      dup5\n        /* \"#utility.yul\":7216:7222   */\n      dup3\n        /* \"#utility.yul\":7209:7213   */\n      0x20\n        /* \"#utility.yul\":7201:7207   */\n      dup7\n        /* \"#utility.yul\":7197:7214   */\n      add\n        /* \"#utility.yul\":7150:7228   */\n      tag_162\n      jump\t// in\n    tag_279:\n        /* \"#utility.yul\":7141:7228   */\n      swap2\n      pop\n        /* \"#utility.yul\":6957:7234   */\n      pop\n        /* \"#utility.yul\":6896:7234   */\n      swap3\n      swap2\n      pop\n      pop\n      jump\t// out\n        /* \"#utility.yul\":7240:8037   */\n    tag_57:\n        /* \"#utility.yul\":7326:7332   */\n      0x00\n        /* \"#utility.yul\":7334:7340   */\n      dup1\n        /* \"#utility.yul\":7342:7348   */\n      0x00\n        /* \"#utility.yul\":7391:7393   */\n      0x60\n        /* \"#utility.yul\":7379:7388   */\n      dup5\n        /* \"#utility.yul\":7370:7377   */\n      dup7\n        /* \"#utility.yul\":7366:7389   */\n      sub\n        /* \"#utility.yul\":7362:7394   */\n      slt\n        /* \"#utility.yul\":7359:7478   */\n      iszero\n      tag_281\n      jumpi\n        /* \"#utility.yul\":7397:7476   */\n      tag_282\n      tag_137\n      jump\t// in\n    tag_282:\n        /* \"#utility.yul\":7359:7478   */\n    tag_281:\n        /* \"#utility.yul\":7517:7518   */\n      0x00\n        /* \"#utility.yul\":7542:7595   */\n      tag_283\n        /* \"#utility.yul\":7587:7594   */\n      dup7\n        /* \"#utility.yul\":7578:7584   */\n      dup3\n        /* \"#utility.yul\":7567:7576   */\n      dup8\n        /* \"#utility.yul\":7563:7585   */\n      add\n        /* \"#utility.yul\":7542:7595   */\n      tag_147\n      jump\t// in\n    tag_283:\n        /* \"#utility.yul\":7532:7595   */\n      swap4\n      pop\n        /* \"#utility.yul\":7488:7605   */\n      pop\n        /* \"#utility.yul\":7644:7646   */\n      0x20\n        /* \"#utility.yul\":7670:7723   */\n      tag_284\n        /* \"#utility.yul\":7715:7722   */\n      dup7\n        /* \"#utility.yul\":7706:7712   */\n      dup3\n        /* \"#utility.yul\":7695:7704   */\n      dup8\n        /* \"#utility.yul\":7691:7713   */\n      add\n        /* \"#utility.yul\":7670:7723   */\n      tag_141\n      jump\t// in\n    tag_284:\n        /* \"#utility.yul\":7660:7723   */\n      swap3\n      pop\n        /* \"#utility.yul\":7615:7733   */\n      pop\n        /* \"#utility.yul\":7800:7802   */\n      0x40\n        /* \"#utility.yul\":7789:7798   */\n      dup5\n        /* \"#utility.yul\":7785:7803   */\n      add\n        /* \"#utility.yul\":7772:7804   */\n      calldataload\n        /* \"#utility.yul\":7831:7849   */\n      0xffffffffffffffff\n        /* \"#utility.yul\":7823:7829   */\n      dup2\n        /* \"#utility.yul\":7820:7850   */\n      gt\n        /* \"#utility.yul\":7817:7934   */\n      iszero\n      tag_285\n      jumpi\n        /* \"#utility.yul\":7853:7932   */\n      tag_286\n      tag_138\n      jump\t// in\n    tag_286:\n        /* \"#utility.yul\":7817:7934   */\n    tag_285:\n        /* \"#utility.yul\":7958:8020   */\n      tag_287\n        /* \"#utility.yul\":8012:8019   */\n      dup7\n        /* \"#utility.yul\":8003:8009   */\n      dup3\n        /* \"#utility.yul\":7992:8001   */\n      dup8\n        /* \"#utility.yul\":7988:8010   */\n      add\n        /* \"#utility.yul\":7958:8020   */\n      tag_163\n      jump\t// in\n    tag_287:\n        /* \"#utility.yul\":7948:8020   */\n      swap2\n      pop\n        /* \"#utility.yul\":7743:8030   */\n      pop\n        /* \"#utility.yul\":7240:8037   */\n      swap3\n      pop\n      swap3\n      pop\n      swap3\n      jump\t// out\n        /* \"#utility.yul\":8043:8212   */\n    tag_164:\n        /* \"#utility.yul\":8127:8138   */\n      0x00\n        /* \"#utility.yul\":8161:8167   */\n      dup3\n        /* \"#utility.yul\":8156:8159   */\n      dup3\n        /* \"#utility.yul\":8149:8168   */\n      mstore\n        /* \"#utility.yul\":8201:8205   */\n      0x20\n        /* \"#utility.yul\":8196:8199   */\n      dup3\n        /* \"#utility.yul\":8192:8206   */\n      add\n        /* \"#utility.yul\":8177:8206   */\n      swap1\n      pop\n        /* \"#utility.yul\":8043:8212   */\n      swap3\n      swap2\n      pop\n      pop\n      jump\t// out\n        /* \"#utility.yul\":8218:8380   */\n    tag_165:\n        /* \"#utility.yul\":8358:8372   */\n      0x4e6f7420616e206f776e65720000000000000000000000000000000000000000\n        /* \"#utility.yul\":8354:8355   */\n      0x00\n        /* \"#utility.yul\":8346:8352   */\n      dup3\n        /* \"#utility.yul\":8342:8356   */\n      add\n        /* \"#utility.yul\":8335:8373   */\n      mstore\n        /* \"#utility.yul\":8218:8380   */\n      pop\n      jump\t// out\n        /* \"#utility.yul\":8386:8752   */\n    tag_166:\n        /* \"#utility.yul\":8528:8531   */\n      0x00\n        /* \"#utility.yul\":8549:8616   */\n      tag_291\n        /* \"#utility.yul\":8613:8615   */\n      0x0c\n        /* \"#utility.yul\":8608:8611   */\n      dup4\n        /* \"#utility.yul\":8549:8616   */\n      tag_164\n      jump\t// in\n    tag_291:\n        /* \"#utility.yul\":8542:8616   */\n      swap2\n      pop\n        /* \"#utility.yul\":8625:8718   */\n      tag_292\n        /* \"#utility.yul\":8714:8717   */\n      dup3\n        /* \"#utility.yul\":8625:8718   */\n      tag_165\n      jump\t// in\n    tag_292:\n        /* \"#utility.yul\":8743:8745   */\n      0x20\n        /* \"#utility.yul\":8738:8741   */\n      dup3\n        /* \"#utility.yul\":8734:8746   */\n      add\n        /* \"#utility.yul\":8727:8746   */\n      swap1\n      pop\n        /* \"#utility.yul\":8386:8752   */\n      swap2\n      swap1\n      pop\n      jump\t// out\n        /* \"#utility.yul\":8758:9177   */\n    tag_69:\n        /* \"#utility.yul\":8924:8928   */\n      0x00\n        /* \"#utility.yul\":8962:8964   */\n      0x20\n        /* \"#utility.yul\":8951:8960   */\n      dup3\n        /* \"#utility.yul\":8947:8965   */\n      add\n        /* \"#utility.yul\":8939:8965   */\n      swap1\n      pop\n        /* \"#utility.yul\":9011:9020   */\n      dup2\n        /* \"#utility.yul\":9005:9009   */\n      dup2\n        /* \"#utility.yul\":9001:9021   */\n      sub\n        /* \"#utility.yul\":8997:8998   */\n      0x00\n        /* \"#utility.yul\":8986:8995   */\n      dup4\n        /* \"#utility.yul\":8982:8999   */\n      add\n        /* \"#utility.yul\":8975:9022   */\n      mstore\n        /* \"#utility.yul\":9039:9170   */\n      tag_294\n        /* \"#utility.yul\":9165:9169   */\n      dup2\n        /* \"#utility.yul\":9039:9170   */\n      tag_166\n      jump\t// in\n    tag_294:\n        /* \"#utility.yul\":9031:9170   */\n      swap1\n      pop\n        /* \"#utility.yul\":8758:9177   */\n      swap2\n      swap1\n      pop\n      jump\t// out\n        /* \"#utility.yul\":9183:9359   */\n    tag_167:\n        /* \"#utility.yul\":9323:9351   */\n      0x5472616e73616374696f6e20646f6573206e6f74206578697374000000000000\n        /* \"#utility.yul\":9319:9320   */\n      0x00\n        /* \"#utility.yul\":9311:9317   */\n      dup3\n        /* \"#utility.yul\":9307:9321   */\n      add\n        /* \"#utility.yul\":9300:9352   */\n      mstore\n        /* \"#utility.yul\":9183:9359   */\n      pop\n      jump\t// out\n        /* \"#utility.yul\":9365:9731   */\n    tag_168:\n        /* \"#utility.yul\":9507:9510   */\n      0x00\n        /* \"#utility.yul\":9528:9595   */\n      tag_297\n        /* \"#utility.yul\":9592:9594   */\n      0x1a\n        /* \"#utility.yul\":9587:9590   */\n      dup4\n        /* \"#utility.yul\":9528:9595   */\n      tag_164\n      jump\t// in\n    tag_297:\n        /* \"#utility.yul\":9521:9595   */\n      swap2\n      pop\n        /* \"#utility.yul\":9604:9697   */\n      tag_298\n        /* \"#utility.yul\":9693:9696   */\n      dup3\n        /* \"#utility.yul\":9604:9697   */\n      tag_167\n      jump\t// in\n    tag_298:\n        /* \"#utility.yul\":9722:9724   */\n      0x20\n        /* \"#utility.yul\":9717:9720   */\n      dup3\n        /* \"#utility.yul\":9713:9725   */\n      add\n        /* \"#utility.yul\":9706:9725   */\n      swap1\n      pop\n        /* \"#utility.yul\":9365:9731   */\n      swap2\n      swap1\n      pop\n      jump\t// out\n        /* \"#utility.yul\":9737:10156   */\n    tag_73:\n        /* \"#utility.yul\":9903:9907   */\n      0x00\n        /* \"#utility.yul\":9941:9943   */\n      0x20\n        /* \"#utility.yul\":9930:9939   */\n      dup3\n        /* \"#utility.yul\":9926:9944   */\n      add\n        /* \"#utility.yul\":9918:9944   */\n      swap1\n      pop\n        /* \"#utility.yul\":9990:9999   */\n      dup2\n        /* \"#utility.yul\":9984:9988   */\n      dup2\n        /* \"#utility.yul\":9980:10000   */\n      sub\n        /* \"#utility.yul\":9976:9977   */\n      0x00\n        /* \"#utility.yul\":9965:9974   */\n      dup4\n        /* \"#utility.yul\":9961:9978   */\n      add\n        /* \"#utility.yul\":9954:10001   */\n      mstore\n        /* \"#utility.yul\":10018:10149   */\n      tag_300\n        /* \"#utility.yul\":10144:10148   */\n      dup2\n        /* \"#utility.yul\":10018:10149   */\n      tag_168\n      jump\t// in\n    tag_300:\n        /* \"#utility.yul\":10010:10149   */\n      swap1\n      pop\n        /* \"#utility.yul\":9737:10156   */\n      swap2\n      swap1\n      pop\n      jump\t// out\n        /* \"#utility.yul\":10162:10342   */\n    tag_77:\n        /* \"#utility.yul\":10210:10287   */\n      0x4e487b7100000000000000000000000000000000000000000000000000000000\n        /* \"#utility.yul\":10207:10208   */\n      0x00\n        /* \"#utility.yul\":10200:10288   */\n      mstore\n        /* \"#utility.yul\":10307:10311   */\n      0x32\n        /* \"#utility.yul\":10304:10305   */\n      0x04\n        /* \"#utility.yul\":10297:10312   */\n      mstore\n        /* \"#utility.yul\":10331:10335   */\n      0x24\n        /* \"#utility.yul\":10328:10329   */\n      0x00\n        /* \"#utility.yul\":10321:10336   */\n      revert\n        /* \"#utility.yul\":10348:10526   */\n    tag_169:\n        /* \"#utility.yul\":10488:10518   */\n      0x5472616e73616374696f6e20616c726561647920657865637574656400000000\n        /* \"#utility.yul\":10484:10485   */\n      0x00\n        /* \"#utility.yul\":10476:10482   */\n      dup3\n        /* \"#utility.yul\":10472:10486   */\n      add\n        /* \"#utility.yul\":10465:10519   */\n      mstore\n        /* \"#utility.yul\":10348:10526   */\n      pop\n      jump\t// out\n        /* \"#utility.yul\":10532:10898   */\n    tag_170:\n        /* \"#utility.yul\":10674:10677   */\n      0x00\n        /* \"#utility.yul\":10695:10762   */\n      tag_304\n        /* \"#utility.yul\":10759:10761   */\n      0x1c\n        /* \"#utility.yul\":10754:10757   */\n      dup4\n        /* \"#utility.yul\":10695:10762   */\n      tag_164\n      jump\t// in\n    tag_304:\n        /* \"#utility.yul\":10688:10762   */\n      swap2\n      pop\n        /* \"#utility.yul\":10771:10864   */\n      tag_305\n        /* \"#utility.yul\":10860:10863   */\n      dup3\n        /* \"#utility.yul\":10771:10864   */\n      tag_169\n      jump\t// in\n    tag_305:\n        /* \"#utility.yul\":10889:10891   */\n      0x20\n        /* \"#utility.yul\":10884:10887   */\n      dup3\n        /* \"#utility.yul\":10880:10892   */\n      add\n        /* \"#utility.yul\":10873:10892   */\n      swap1\n      pop\n        /* \"#utility.yul\":10532:10898   */\n      swap2\n      swap1\n      pop\n      jump\t// out\n        /* \"#utility.yul\":10904:11323   */\n    tag_81:\n        /* \"#utility.yul\":11070:11074   */\n      0x00\n        /* \"#utility.yul\":11108:11110   */\n      0x20\n        /* \"#utility.yul\":11097:11106   */\n      dup3\n        /* \"#utility.yul\":11093:11111   */\n      add\n        /* \"#utility.yul\":11085:11111   */\n      swap1\n      pop\n        /* \"#utility.yul\":11157:11166   */\n      dup2\n        /* \"#utility.yul\":11151:11155   */\n      dup2\n        /* \"#utility.yul\":11147:11167   */\n      sub\n        /* \"#utility.yul\":11143:11144   */\n      0x00\n        /* \"#utility.yul\":11132:11141   */\n      dup4\n        /* \"#utility.yul\":11128:11145   */\n      add\n        /* \"#utility.yul\":11121:11168   */\n      mstore\n        /* \"#utility.yul\":11185:11316   */\n      tag_307\n        /* \"#utility.yul\":11311:11315   */\n      dup2\n        /* \"#utility.yul\":11185:11316   */\n      tag_170\n      jump\t// in\n    tag_307:\n        /* \"#utility.yul\":11177:11316   */\n      swap1\n      pop\n        /* \"#utility.yul\":10904:11323   */\n      swap2\n      swap1\n      pop\n      jump\t// out\n        /* \"#utility.yul\":11329:11507   */\n    tag_171:\n        /* \"#utility.yul\":11469:11499   */\n      0x5472616e73616374696f6e20616c726561647920617070726f76656400000000\n        /* \"#utility.yul\":11465:11466   */\n      0x00\n        /* \"#utility.yul\":11457:11463   */\n      dup3\n        /* \"#utility.yul\":11453:11467   */\n      add\n        /* \"#utility.yul\":11446:11500   */\n      mstore\n        /* \"#utility.yul\":11329:11507   */\n      pop\n      jump\t// out\n        /* \"#utility.yul\":11513:11879   */\n    tag_172:\n        /* \"#utility.yul\":11655:11658   */\n      0x00\n        /* \"#utility.yul\":11676:11743   */\n      tag_310\n        /* \"#utility.yul\":11740:11742   */\n      0x1c\n        /* \"#utility.yul\":11735:11738   */\n      dup4\n        /* \"#utility.yul\":11676:11743   */\n      tag_164\n      jump\t// in\n    tag_310:\n        /* \"#utility.yul\":11669:11743   */\n      swap2\n      pop\n        /* \"#utility.yul\":11752:11845   */\n      tag_311\n        /* \"#utility.yul\":11841:11844   */\n      dup3\n        /* \"#utility.yul\":11752:11845   */\n      tag_171\n      jump\t// in\n    tag_311:\n        /* \"#utility.yul\":11870:11872   */\n      0x20\n        /* \"#utility.yul\":11865:11868   */\n      dup3\n        /* \"#utility.yul\":11861:11873   */\n      add\n        /* \"#utility.yul\":11854:11873   */\n      swap1\n      pop\n        /* \"#utility.yul\":11513:11879   */\n      swap2\n      swap1\n      pop\n      jump\t// out\n        /* \"#utility.yul\":11885:12304   */\n    tag_85:\n        /* \"#utility.yul\":12051:12055   */\n      0x00\n        /* \"#utility.yul\":12089:12091   */\n      0x20\n        /* \"#utility.yul\":12078:12087   */\n      dup3\n        /* \"#utility.yul\":12074:12092   */\n      add\n        /* \"#utility.yul\":12066:12092   */\n      swap1\n      pop\n        /* \"#utility.yul\":12138:12147   */\n      dup2\n        /* \"#utility.yul\":12132:12136   */\n      dup2\n        /* \"#utility.yul\":12128:12148   */\n      sub\n        /* \"#utility.yul\":12124:12125   */\n      0x00\n        /* \"#utility.yul\":12113:12122   */\n      dup4\n        /* \"#utility.yul\":12109:12126   */\n      add\n        /* \"#utility.yul\":12102:12149   */\n      mstore\n        /* \"#utility.yul\":12166:12297   */\n      tag_313\n        /* \"#utility.yul\":12292:12296   */\n      dup2\n        /* \"#utility.yul\":12166:12297   */\n      tag_172\n      jump\t// in\n    tag_313:\n        /* \"#utility.yul\":12158:12297   */\n      swap1\n      pop\n        /* \"#utility.yul\":11885:12304   */\n      swap2\n      swap1\n      pop\n      jump\t// out\n        /* \"#utility.yul\":12310:12490   */\n    tag_173:\n        /* \"#utility.yul\":12358:12435   */\n      0x4e487b7100000000000000000000000000000000000000000000000000000000\n        /* \"#utility.yul\":12355:12356   */\n      0x00\n        /* \"#utility.yul\":12348:12436   */\n      mstore\n        /* \"#utility.yul\":12455:12459   */\n      0x11\n        /* \"#utility.yul\":12452:12453   */\n      0x04\n        /* \"#utility.yul\":12445:12460   */\n      mstore\n        /* \"#utility.yul\":12479:12483   */\n      0x24\n        /* \"#utility.yul\":12476:12477   */\n      0x00\n        /* \"#utility.yul\":12469:12484   */\n      revert\n        /* \"#utility.yul\":12496:12687   */\n    tag_91:\n        /* \"#utility.yul\":12536:12539   */\n      0x00\n        /* \"#utility.yul\":12555:12575   */\n      tag_316\n        /* \"#utility.yul\":12573:12574   */\n      dup3\n        /* \"#utility.yul\":12555:12575   */\n      tag_139\n      jump\t// in\n    tag_316:\n        /* \"#utility.yul\":12550:12575   */\n      swap2\n      pop\n        /* \"#utility.yul\":12589:12609   */\n      tag_317\n        /* \"#utility.yul\":12607:12608   */\n      dup4\n        /* \"#utility.yul\":12589:12609   */\n      tag_139\n      jump\t// in\n    tag_317:\n        /* \"#utility.yul\":12584:12609   */\n      swap3\n      pop\n        /* \"#utility.yul\":12632:12633   */\n      dup3\n        /* \"#utility.yul\":12629:12630   */\n      dup3\n        /* \"#utility.yul\":12625:12634   */\n      add\n        /* \"#utility.yul\":12618:12634   */\n      swap1\n      pop\n        /* \"#utility.yul\":12653:12656   */\n      dup1\n        /* \"#utility.yul\":12650:12651   */\n      dup3\n        /* \"#utility.yul\":12647:12657   */\n      gt\n        /* \"#utility.yul\":12644:12680   */\n      iszero\n      tag_318\n      jumpi\n        /* \"#utility.yul\":12660:12678   */\n      tag_319\n      tag_173\n      jump\t// in\n    tag_319:\n        /* \"#utility.yul\":12644:12680   */\n    tag_318:\n        /* \"#utility.yul\":12496:12687   */\n      swap3\n      swap2\n      pop\n      pop\n      jump\t// out\n        /* \"#utility.yul\":12693:12873   */\n    tag_174:\n        /* \"#utility.yul\":12741:12818   */\n      0x4e487b7100000000000000000000000000000000000000000000000000000000\n        /* \"#utility.yul\":12738:12739   */\n      0x00\n        /* \"#utility.yul\":12731:12819   */\n      mstore\n        /* \"#utility.yul\":12838:12842   */\n      0x22\n        /* \"#utility.yul\":12835:12836   */\n      0x04\n        /* \"#utility.yul\":12828:12843   */\n      mstore\n        /* \"#utility.yul\":12862:12866   */\n      0x24\n        /* \"#utility.yul\":12859:12860   */\n      0x00\n        /* \"#utility.yul\":12852:12867   */\n      revert\n        /* \"#utility.yul\":12879:13199   */\n    tag_96:\n        /* \"#utility.yul\":12923:12929   */\n      0x00\n        /* \"#utility.yul\":12960:12961   */\n      0x02\n        /* \"#utility.yul\":12954:12958   */\n      dup3\n        /* \"#utility.yul\":12950:12962   */\n      div\n        /* \"#utility.yul\":12940:12962   */\n      swap1\n      pop\n        /* \"#utility.yul\":13007:13008   */\n      0x01\n        /* \"#utility.yul\":13001:13005   */\n      dup3\n        /* \"#utility.yul\":12997:13009   */\n      and\n        /* \"#utility.yul\":13028:13046   */\n      dup1\n        /* \"#utility.yul\":13018:13099   */\n      tag_322\n      jumpi\n        /* \"#utility.yul\":13084:13088   */\n      0x7f\n        /* \"#utility.yul\":13076:13082   */\n      dup3\n        /* \"#utility.yul\":13072:13089   */\n      and\n        /* \"#utility.yul\":13062:13089   */\n      swap2\n      pop\n        /* \"#utility.yul\":13018:13099   */\n    tag_322:\n        /* \"#utility.yul\":13146:13148   */\n      0x20\n        /* \"#utility.yul\":13138:13144   */\n      dup3\n        /* \"#utility.yul\":13135:13149   */\n      lt\n        /* \"#utility.yul\":13115:13133   */\n      dup2\n        /* \"#utility.yul\":13112:13150   */\n      sub\n        /* \"#utility.yul\":13109:13193   */\n      tag_323\n      jumpi\n        /* \"#utility.yul\":13165:13183   */\n      tag_324\n      tag_174\n      jump\t// in\n    tag_324:\n        /* \"#utility.yul\":13109:13193   */\n    tag_323:\n        /* \"#utility.yul\":12930:13199   */\n      pop\n        /* \"#utility.yul\":12879:13199   */\n      swap2\n      swap1\n      pop\n      jump\t// out\n        /* \"#utility.yul\":13205:13345   */\n    tag_175:\n        /* \"#utility.yul\":13253:13257   */\n      0x00\n        /* \"#utility.yul\":13276:13279   */\n      dup2\n        /* \"#utility.yul\":13268:13279   */\n      swap1\n      pop\n        /* \"#utility.yul\":13299:13302   */\n      dup2\n        /* \"#utility.yul\":13296:13297   */\n      0x00\n        /* \"#utility.yul\":13289:13303   */\n      mstore\n        /* \"#utility.yul\":13333:13337   */\n      0x20\n        /* \"#utility.yul\":13330:13331   */\n      0x00\n        /* \"#utility.yul\":13320:13338   */\n      keccak256\n        /* \"#utility.yul\":13312:13338   */\n      swap1\n      pop\n        /* \"#utility.yul\":13205:13345   */\n      swap2\n      swap1\n      pop\n      jump\t// out\n        /* \"#utility.yul\":13351:13444   */\n    tag_176:\n        /* \"#utility.yul\":13388:13394   */\n      0x00\n        /* \"#utility.yul\":13435:13437   */\n      0x20\n        /* \"#utility.yul\":13430:13432   */\n      0x1f\n        /* \"#utility.yul\":13423:13428   */\n      dup4\n        /* \"#utility.yul\":13419:13433   */\n      add\n        /* \"#utility.yul\":13415:13438   */\n      div\n        /* \"#utility.yul\":13405:13438   */\n      swap1\n      pop\n        /* \"#utility.yul\":13351:13444   */\n      swap2\n      swap1\n      pop\n      jump\t// out\n        /* \"#utility.yul\":13450:13557   */\n    tag_177:\n        /* \"#utility.yul\":13494:13502   */\n      0x00\n        /* \"#utility.yul\":13544:13549   */\n      dup3\n        /* \"#utility.yul\":13538:13542   */\n      dup3\n        /* \"#utility.yul\":13534:13550   */\n      shl\n        /* \"#utility.yul\":13513:13550   */\n      swap1\n      pop\n        /* \"#utility.yul\":13450:13557   */\n      swap3\n      swap2\n      pop\n      pop\n      jump\t// out\n        /* \"#utility.yul\":13563:13956   */\n    tag_178:\n        /* \"#utility.yul\":13632:13638   */\n      0x00\n        /* \"#utility.yul\":13682:13683   */\n      0x08\n        /* \"#utility.yul\":13670:13680   */\n      dup4\n        /* \"#utility.yul\":13666:13684   */\n      mul\n        /* \"#utility.yul\":13705:13802   */\n      tag_329\n        /* \"#utility.yul\":13735:13801   */\n      0xffffffffffffffffffffffffffffffffffffffffffffffffffffffffffffffff\n        /* \"#utility.yul\":13724:13733   */\n      dup3\n        /* \"#utility.yul\":13705:13802   */\n      tag_177\n      jump\t// in\n    tag_329:\n        /* \"#utility.yul\":13823:13862   */\n      tag_330\n        /* \"#utility.yul\":13853:13861   */\n      dup7\n        /* \"#utility.yul\":13842:13851   */\n      dup4\n        /* \"#utility.yul\":13823:13862   */\n      tag_177\n      jump\t// in\n    tag_330:\n        /* \"#utility.yul\":13811:13862   */\n      swap6\n      pop\n        /* \"#utility.yul\":13895:13899   */\n      dup1\n        /* \"#utility.yul\":13891:13900   */\n      not\n        /* \"#utility.yul\":13884:13889   */\n      dup5\n        /* \"#utility.yul\":13880:13901   */\n      and\n        /* \"#utility.yul\":13871:13901   */\n      swap4\n      pop\n        /* \"#utility.yul\":13944:13948   */\n      dup1\n        /* \"#utility.yul\":13934:13942   */\n      dup7\n        /* \"#utility.yul\":13930:13949   */\n      and\n        /* \"#utility.yul\":13923:13928   */\n      dup5\n        /* \"#utility.yul\":13920:13950   */\n      or\n        /* \"#utility.yul\":13910:13950   */\n      swap3\n      pop\n        /* \"#utility.yul\":13639:13956   */\n      pop\n      pop\n        /* \"#utility.yul\":13563:13956   */\n      swap4\n      swap3\n      pop\n      pop\n      pop\n      jump\t// out\n        /* \"#utility.yul\":13962:14022   */\n    tag_179:\n        /* \"#utility.yul\":13990:13993   */\n      0x00\n        /* \"#utility.yul\":14011:14016   */\n      dup2\n        /* \"#utility.yul\":14004:14016   */\n      swap1\n      pop\n        /* \"#utility.yul\":13962:14022   */\n      swap2\n      swap1\n      pop\n      jump\t// out\n        /* \"#utility.yul\":14028:14170   */\n    tag_180:\n        /* \"#utility.yul\":14078:14087   */\n      0x00\n        /* \"#utility.yul\":14111:14164   */\n      tag_333\n        /* \"#utility.yul\":14129:14163   */\n      tag_334\n        /* \"#utility.yul\":14138:14162   */\n      tag_335\n        /* \"#utility.yul\":14156:14161   */\n      dup5\n        /* \"#utility.yul\":14138:14162   */\n      tag_139\n      jump\t// in\n    tag_335:\n        /* \"#utility.yul\":14129:14163   */\n      tag_179\n      jump\t// in\n    tag_334:\n        /* \"#utility.yul\":14111:14164   */\n      tag_139\n      jump\t// in\n    tag_333:\n        /* \"#utility.yul\":14098:14164   */\n      swap1\n      pop\n        /* \"#utility.yul\":14028:14170   */\n      swap2\n      swap1\n      pop\n      jump\t// out\n        /* \"#utility.yul\":14176:14251   */\n    tag_181:\n        /* \"#utility.yul\":14219:14222   */\n      0x00\n        /* \"#utility.yul\":14240:14245   */\n      dup2\n        /* \"#utility.yul\":14233:14245   */\n      swap1\n      pop\n        /* \"#utility.yul\":14176:14251   */\n      swap2\n      swap1\n      pop\n      jump\t// out\n        /* \"#utility.yul\":14257:14526   */\n    tag_182:\n        /* \"#utility.yul\":14367:14406   */\n      tag_338\n        /* \"#utility.yul\":14398:14405   */\n      dup4\n        /* \"#utility.yul\":14367:14406   */\n      tag_180\n      jump\t// in\n    tag_338:\n        /* \"#utility.yul\":14428:14519   */\n      tag_339\n        /* \"#utility.yul\":14477:14518   */\n      tag_340\n        /* \"#utility.yul\":14501:14517   */\n      dup3\n        /* \"#utility.yul\":14477:14518   */\n      tag_181\n      jump\t// in\n    tag_340:\n        /* \"#utility.yul\":14469:14475   */\n      dup5\n        /* \"#utility.yul\":14462:14466   */\n      dup5\n        /* \"#utility.yul\":14456:14467   */\n      sload\n        /* \"#utility.yul\":14428:14519   */\n      tag_178\n      jump\t// in\n    tag_339:\n        /* \"#utility.yul\":14422:14426   */\n      dup3\n        /* \"#utility.yul\":14415:14520   */\n      sstore\n        /* \"#utility.yul\":14333:14526   */\n      pop\n        /* \"#utility.yul\":14257:14526   */\n      pop\n      pop\n      pop\n      jump\t// out\n        /* \"#utility.yul\":14532:14605   */\n    tag_183:\n        /* \"#utility.yul\":14577:14580   */\n      0x00\n        /* \"#utility.yul\":14532:14605   */\n      swap1\n      jump\t// out\n        /* \"#utility.yul\":14611:14800   */\n    tag_184:\n        /* \"#utility.yul\":14688:14720   */\n      tag_343\n      tag_183\n      jump\t// in\n    tag_343:\n        /* \"#utility.yul\":14729:14794   */\n      tag_344\n        /* \"#utility.yul\":14787:14793   */\n      dup2\n        /* \"#utility.yul\":14779:14785   */\n      dup5\n        /* \"#utility.yul\":14773:14777   */\n      dup5\n        /* \"#utility.yul\":14729:14794   */\n      tag_182\n      jump\t// in\n    tag_344:\n        /* \"#utility.yul\":14664:14800   */\n      pop\n        /* \"#utility.yul\":14611:14800   */\n      pop\n      pop\n      jump\t// out\n        /* \"#utility.yul\":14806:14992   */\n    tag_185:\n        /* \"#utility.yul\":14866:14986   */\n    tag_346:\n        /* \"#utility.yul\":14883:14886   */\n      dup2\n        /* \"#utility.yul\":14876:14881   */\n      dup2\n        /* \"#utility.yul\":14873:14887   */\n      lt\n        /* \"#utility.yul\":14866:14986   */\n      iszero\n      tag_348\n      jumpi\n        /* \"#utility.yul\":14937:14976   */\n      tag_349\n        /* \"#utility.yul\":14974:14975   */\n      0x00\n        /* \"#utility.yul\":14967:14972   */\n      dup3\n        /* \"#utility.yul\":14937:14976   */\n      tag_184\n      jump\t// in\n    tag_349:\n        /* \"#utility.yul\":14910:14911   */\n      0x01\n        /* \"#utility.yul\":14903:14908   */\n      dup2\n        /* \"#utility.yul\":14899:14912   */\n      add\n        /* \"#utility.yul\":14890:14912   */\n      swap1\n      pop\n        /* \"#utility.yul\":14866:14986   */\n      jump(tag_346)\n    tag_348:\n        /* \"#utility.yul\":14806:14992   */\n      pop\n      pop\n      jump\t// out\n        /* \"#utility.yul\":14998:15539   */\n    tag_186:\n        /* \"#utility.yul\":15098:15100   */\n      0x1f\n        /* \"#utility.yul\":15093:15096   */\n      dup3\n        /* \"#utility.yul\":15090:15101   */\n      gt\n        /* \"#utility.yul\":15087:15532   */\n      iszero\n      tag_351\n      jumpi\n        /* \"#utility.yul\":15132:15169   */\n      tag_352\n        /* \"#utility.yul\":15163:15168   */\n      dup2\n        /* \"#utility.yul\":15132:15169   */\n      tag_175\n      jump\t// in\n    tag_352:\n        /* \"#utility.yul\":15215:15244   */\n      tag_353\n        /* \"#utility.yul\":15233:15243   */\n      dup5\n        /* \"#utility.yul\":15215:15244   */\n      tag_176\n      jump\t// in\n    tag_353:\n        /* \"#utility.yul\":15205:15213   */\n      dup2\n        /* \"#utility.yul\":15201:15245   */\n      add\n        /* \"#utility.yul\":15398:15400   */\n      0x20\n        /* \"#utility.yul\":15386:15396   */\n      dup6\n        /* \"#utility.yul\":15383:15401   */\n      lt\n        /* \"#utility.yul\":15380:15429   */\n      iszero\n      tag_354\n      jumpi\n        /* \"#utility.yul\":15419:15427   */\n      dup2\n        /* \"#utility.yul\":15404:15427   */\n      swap1\n      pop\n        /* \"#utility.yul\":15380:15429   */\n    tag_354:\n        /* \"#utility.yul\":15442:15522   */\n      tag_355\n        /* \"#utility.yul\":15498:15520   */\n      tag_356\n        /* \"#utility.yul\":15516:15519   */\n      dup6\n        /* \"#utility.yul\":15498:15520   */\n      tag_176\n      jump\t// in\n    tag_356:\n        /* \"#utility.yul\":15488:15496   */\n      dup4\n        /* \"#utility.yul\":15484:15521   */\n      add\n        /* \"#utility.yul\":15471:15482   */\n      dup3\n        /* \"#utility.yul\":15442:15522   */\n      tag_185\n      jump\t// in\n    tag_355:\n        /* \"#utility.yul\":15102:15532   */\n      pop\n      pop\n        /* \"#utility.yul\":15087:15532   */\n    tag_351:\n        /* \"#utility.yul\":14998:15539   */\n      pop\n      pop\n      pop\n      jump\t// out\n        /* \"#utility.yul\":15545:15662   */\n    tag_187:\n        /* \"#utility.yul\":15599:15607   */\n      0x00\n        /* \"#utility.yul\":15649:15654   */\n      dup3\n        /* \"#utility.yul\":15643:15647   */\n      dup3\n        /* \"#utility.yul\":15639:15655   */\n      shr\n        /* \"#utility.yul\":15618:15655   */\n      swap1\n      pop\n        /* \"#utility.yul\":15545:15662   */\n      swap3\n      swap2\n      pop\n      pop\n      jump\t// out\n        /* \"#utility.yul\":15668:15837   */\n    tag_188:\n        /* \"#utility.yul\":15712:15718   */\n      0x00\n        /* \"#utility.yul\":15745:15796   */\n      tag_359\n        /* \"#utility.yul\":15793:15794   */\n      0x00\n        /* \"#utility.yul\":15789:15795   */\n      not\n        /* \"#utility.yul\":15781:15786   */\n      dup5\n        /* \"#utility.yul\":15778:15779   */\n      0x08\n        /* \"#utility.yul\":15774:15787   */\n      mul\n        /* \"#utility.yul\":15745:15796   */\n      tag_187\n      jump\t// in\n    tag_359:\n        /* \"#utility.yul\":15741:15797   */\n      not\n        /* \"#utility.yul\":15826:15830   */\n      dup1\n        /* \"#utility.yul\":15820:15824   */\n      dup4\n        /* \"#utility.yul\":15816:15831   */\n      and\n        /* \"#utility.yul\":15806:15831   */\n      swap2\n      pop\n        /* \"#utility.yul\":15719:15837   */\n      pop\n        /* \"#utility.yul\":15668:15837   */\n      swap3\n      swap2\n      pop\n      pop\n      jump\t// out\n        /* \"#utility.yul\":15842:16137   */\n    tag_189:\n        /* \"#utility.yul\":15918:15922   */\n      0x00\n        /* \"#utility.yul\":16064:16093   */\n      tag_361\n        /* \"#utility.yul\":16089:16092   */\n      dup4\n        /* \"#utility.yul\":16083:16087   */\n      dup4\n        /* \"#utility.yul\":16064:16093   */\n      tag_188\n      jump\t// in\n    tag_361:\n        /* \"#utility.yul\":16056:16093   */\n      swap2\n      pop\n        /* \"#utility.yul\":16126:16129   */\n      dup3\n        /* \"#utility.yul\":16123:16124   */\n      0x02\n        /* \"#utility.yul\":16119:16130   */\n      mul\n        /* \"#utility.yul\":16113:16117   */\n      dup3\n        /* \"#utility.yul\":16110:16131   */\n      or\n        /* \"#utility.yul\":16102:16131   */\n      swap1\n      pop\n        /* \"#utility.yul\":15842:16137   */\n      swap3\n      swap2\n      pop\n      pop\n      jump\t// out\n        /* \"#utility.yul\":16142:17532   */\n    tag_107:\n        /* \"#utility.yul\":16257:16293   */\n      tag_363\n        /* \"#utility.yul\":16289:16292   */\n      dup3\n        /* \"#utility.yul\":16257:16293   */\n      tag_150\n      jump\t// in\n    tag_363:\n        /* \"#utility.yul\":16358:16376   */\n      0xffffffffffffffff\n        /* \"#utility.yul\":16350:16356   */\n      dup2\n        /* \"#utility.yul\":16347:16377   */\n      gt\n        /* \"#utility.yul\":16344:16400   */\n      iszero\n      tag_364\n      jumpi\n        /* \"#utility.yul\":16380:16398   */\n      tag_365\n      tag_157\n      jump\t// in\n    tag_365:\n        /* \"#utility.yul\":16344:16400   */\n    tag_364:\n        /* \"#utility.yul\":16424:16462   */\n      tag_366\n        /* \"#utility.yul\":16456:16460   */\n      dup3\n        /* \"#utility.yul\":16450:16461   */\n      sload\n        /* \"#utility.yul\":16424:16462   */\n      tag_96\n      jump\t// in\n    tag_366:\n        /* \"#utility.yul\":16509:16575   */\n      tag_367\n        /* \"#utility.yul\":16568:16574   */\n      dup3\n        /* \"#utility.yul\":16560:16566   */\n      dup3\n        /* \"#utility.yul\":16554:16558   */\n      dup6\n        /* \"#utility.yul\":16509:16575   */\n      tag_186\n      jump\t// in\n    tag_367:\n        /* \"#utility.yul\":16602:16603   */\n      0x00\n        /* \"#utility.yul\":16626:16630   */\n      0x20\n        /* \"#utility.yul\":16613:16630   */\n      swap1\n      pop\n        /* \"#utility.yul\":16658:16660   */\n      0x1f\n        /* \"#utility.yul\":16650:16656   */\n      dup4\n        /* \"#utility.yul\":16647:16661   */\n      gt\n        /* \"#utility.yul\":16675:16676   */\n      0x01\n        /* \"#utility.yul\":16670:17287   */\n      dup2\n      eq\n      tag_369\n      jumpi\n        /* \"#utility.yul\":17331:17332   */\n      0x00\n        /* \"#utility.yul\":17348:17354   */\n      dup5\n        /* \"#utility.yul\":17345:17422   */\n      iszero\n      tag_370\n      jumpi\n        /* \"#utility.yul\":17397:17406   */\n      dup3\n        /* \"#utility.yul\":17392:17395   */\n      dup8\n        /* \"#utility.yul\":17388:17407   */\n      add\n        /* \"#utility.yul\":17382:17408   */\n      mload\n        /* \"#utility.yul\":17373:17408   */\n      swap1\n      pop\n        /* \"#utility.yul\":17345:17422   */\n    tag_370:\n        /* \"#utility.yul\":17448:17515   */\n      tag_371\n        /* \"#utility.yul\":17508:17514   */\n      dup6\n        /* \"#utility.yul\":17501:17506   */\n      dup3\n        /* \"#utility.yul\":17448:17515   */\n      tag_189\n      jump\t// in\n    tag_371:\n        /* \"#utility.yul\":17442:17446   */\n      dup7\n        /* \"#utility.yul\":17435:17516   */\n      sstore\n        /* \"#utility.yul\":17304:17526   */\n      pop\n        /* \"#utility.yul\":16640:17526   */\n      jump(tag_368)\n        /* \"#utility.yul\":16670:17287   */\n    tag_369:\n        /* \"#utility.yul\":16722:16726   */\n      0x1f\n        /* \"#utility.yul\":16718:16727   */\n      not\n        /* \"#utility.yul\":16710:16716   */\n      dup5\n        /* \"#utility.yul\":16706:16728   */\n      and\n        /* \"#utility.yul\":16756:16792   */\n      tag_372\n        /* \"#utility.yul\":16787:16791   */\n      dup7\n        /* \"#utility.yul\":16756:16792   */\n      tag_175\n      jump\t// in\n    tag_372:\n        /* \"#utility.yul\":16814:16815   */\n      0x00\n        /* \"#utility.yul\":16828:17036   */\n    tag_373:\n        /* \"#utility.yul\":16842:16849   */\n      dup3\n        /* \"#utility.yul\":16839:16840   */\n      dup2\n        /* \"#utility.yul\":16836:16850   */\n      lt\n        /* \"#utility.yul\":16828:17036   */\n      iszero\n      tag_375\n      jumpi\n        /* \"#utility.yul\":16921:16930   */\n      dup5\n        /* \"#utility.yul\":16916:16919   */\n      dup10\n        /* \"#utility.yul\":16912:16931   */\n      add\n        /* \"#utility.yul\":16906:16932   */\n      mload\n        /* \"#utility.yul\":16898:16904   */\n      dup3\n        /* \"#utility.yul\":16891:16933   */\n      sstore\n        /* \"#utility.yul\":16972:16973   */\n      0x01\n        /* \"#utility.yul\":16964:16970   */\n      dup3\n        /* \"#utility.yul\":16960:16974   */\n      add\n        /* \"#utility.yul\":16950:16974   */\n      swap2\n      pop\n        /* \"#utility.yul\":17019:17021   */\n      0x20\n        /* \"#utility.yul\":17008:17017   */\n      dup6\n        /* \"#utility.yul\":17004:17022   */\n      add\n        /* \"#utility.yul\":16991:17022   */\n      swap5\n      pop\n        /* \"#utility.yul\":16865:16869   */\n      0x20\n        /* \"#utility.yul\":16862:16863   */\n      dup2\n        /* \"#utility.yul\":16858:16870   */\n      add\n        /* \"#utility.yul\":16853:16870   */\n      swap1\n      pop\n        /* \"#utility.yul\":16828:17036   */\n      jump(tag_373)\n    tag_375:\n        /* \"#utility.yul\":17064:17070   */\n      dup7\n        /* \"#utility.yul\":17055:17062   */\n      dup4\n        /* \"#utility.yul\":17052:17071   */\n      lt\n        /* \"#utility.yul\":17049:17228   */\n      iszero\n      tag_376\n      jumpi\n        /* \"#utility.yul\":17122:17131   */\n      dup5\n        /* \"#utility.yul\":17117:17120   */\n      dup10\n        /* \"#utility.yul\":17113:17132   */\n      add\n        /* \"#utility.yul\":17107:17133   */\n      mload\n        /* \"#utility.yul\":17165:17213   */\n      tag_377\n        /* \"#utility.yul\":17207:17211   */\n      0x1f\n        /* \"#utility.yul\":17199:17205   */\n      dup10\n        /* \"#utility.yul\":17195:17212   */\n      and\n        /* \"#utility.yul\":17184:17193   */\n      dup3\n        /* \"#utility.yul\":17165:17213   */\n      tag_188\n      jump\t// in\n    tag_377:\n        /* \"#utility.yul\":17157:17163   */\n      dup4\n        /* \"#utility.yul\":17150:17214   */\n      sstore\n        /* \"#utility.yul\":17072:17228   */\n      pop\n        /* \"#utility.yul\":17049:17228   */\n    tag_376:\n        /* \"#utility.yul\":17274:17275   */\n      0x01\n        /* \"#utility.yul\":17270:17271   */\n      0x02\n        /* \"#utility.yul\":17262:17268   */\n      dup9\n        /* \"#utility.yul\":17258:17272   */\n      mul\n        /* \"#utility.yul\":17254:17276   */\n      add\n        /* \"#utility.yul\":17248:17252   */\n      dup9\n        /* \"#utility.yul\":17241:17277   */\n      sstore\n        /* \"#utility.yul\":16677:17287   */\n      pop\n      pop\n      pop\n        /* \"#utility.yul\":16640:17526   */\n    tag_368:\n      pop\n        /* \"#utility.yul\":16232:17532   */\n      pop\n      pop\n      pop\n        /* \"#utility.yul\":16142:17532   */\n      pop\n      pop\n      jump\t// out\n        /* \"#utility.yul\":17538:17708   */\n    tag_190:\n        /* \"#utility.yul\":17678:17700   */\n      0x4e6f7420656e6f75676820617070726f76616c73000000000000000000000000\n        /* \"#utility.yul\":17674:17675   */\n      0x00\n        /* \"#utility.yul\":17666:17672   */\n      dup3\n        /* \"#utility.yul\":17662:17676   */\n      add\n        /* \"#utility.yul\":17655:17701   */\n      mstore\n        /* \"#utility.yul\":17538:17708   */\n      pop\n      jump\t// out\n        /* \"#utility.yul\":17714:18080   */\n    tag_191:\n        /* \"#utility.yul\":17856:17859   */\n      0x00\n        /* \"#utility.yul\":17877:17944   */\n      tag_380\n        /* \"#utility.yul\":17941:17943   */\n      0x14\n        /* \"#utility.yul\":17936:17939   */\n      dup4\n        /* \"#utility.yul\":17877:17944   */\n      tag_164\n      jump\t// in\n    tag_380:\n        /* \"#utility.yul\":17870:17944   */\n      swap2\n      pop\n        /* \"#utility.yul\":17953:18046   */\n      tag_381\n        /* \"#utility.yul\":18042:18045   */\n      dup3\n        /* \"#utility.yul\":17953:18046   */\n      tag_190\n      jump\t// in\n    tag_381:\n        /* \"#utility.yul\":18071:18073   */\n      0x20\n        /* \"#utility.yul\":18066:18069   */\n      dup3\n        /* \"#utility.yul\":18062:18074   */\n      add\n        /* \"#utility.yul\":18055:18074   */\n      swap1\n      pop\n        /* \"#utility.yul\":17714:18080   */\n      swap2\n      swap1\n      pop\n      jump\t// out\n        /* \"#utility.yul\":18086:18505   */\n    tag_127:\n        /* \"#utility.yul\":18252:18256   */\n      0x00\n        /* \"#utility.yul\":18290:18292   */\n      0x20\n        /* \"#utility.yul\":18279:18288   */\n      dup3\n        /* \"#utility.yul\":18275:18293   */\n      add\n        /* \"#utility.yul\":18267:18293   */\n      swap1\n      pop\n        /* \"#utility.yul\":18339:18348   */\n      dup2\n        /* \"#utility.yul\":18333:18337   */\n      dup2\n        /* \"#utility.yul\":18329:18349   */\n      sub\n        /* \"#utility.yul\":18325:18326   */\n      0x00\n        /* \"#utility.yul\":18314:18323   */\n      dup4\n        /* \"#utility.yul\":18310:18327   */\n      add\n        /* \"#utility.yul\":18303:18350   */\n      mstore\n        /* \"#utility.yul\":18367:18498   */\n      tag_383\n        /* \"#utility.yul\":18493:18497   */\n      dup2\n        /* \"#utility.yul\":18367:18498   */\n      tag_191\n      jump\t// in\n    tag_383:\n        /* \"#utility.yul\":18359:18498   */\n      swap1\n      pop\n        /* \"#utility.yul\":18086:18505   */\n      swap2\n      swap1\n      pop\n      jump\t// out\n        /* \"#utility.yul\":18511:18658   */\n    tag_192:\n        /* \"#utility.yul\":18612:18623   */\n      0x00\n        /* \"#utility.yul\":18649:18652   */\n      dup2\n        /* \"#utility.yul\":18634:18652   */\n      swap1\n      pop\n        /* \"#utility.yul\":18511:18658   */\n      swap3\n      swap2\n      pop\n      pop\n      jump\t// out\n        /* \"#utility.yul\":18686:19556   */\n    tag_193:\n        /* \"#utility.yul\":18787:18790   */\n      0x00\n        /* \"#utility.yul\":18824:18829   */\n      dup2\n        /* \"#utility.yul\":18818:18830   */\n      sload\n        /* \"#utility.yul\":18853:18889   */\n      tag_386\n        /* \"#utility.yul\":18879:18888   */\n      dup2\n        /* \"#utility.yul\":18853:18889   */\n      tag_96\n      jump\t// in\n    tag_386:\n        /* \"#utility.yul\":18905:18993   */\n      tag_387\n        /* \"#utility.yul\":18986:18992   */\n      dup2\n        /* \"#utility.yul\":18981:18984   */\n      dup7\n        /* \"#utility.yul\":18905:18993   */\n      tag_192\n      jump\t// in\n    tag_387:\n        /* \"#utility.yul\":18898:18993   */\n      swap5\n      pop\n        /* \"#utility.yul\":19024:19025   */\n      0x01\n        /* \"#utility.yul\":19013:19022   */\n      dup3\n        /* \"#utility.yul\":19009:19026   */\n      and\n        /* \"#utility.yul\":19040:19041   */\n      0x00\n        /* \"#utility.yul\":19035:19201   */\n      dup2\n      eq\n      tag_389\n      jumpi\n        /* \"#utility.yul\":19215:19216   */\n      0x01\n        /* \"#utility.yul\":19210:19550   */\n      dup2\n      eq\n      tag_390\n      jumpi\n        /* \"#utility.yul\":19002:19550   */\n      jump(tag_388)\n        /* \"#utility.yul\":19035:19201   */\n    tag_389:\n        /* \"#utility.yul\":19119:19123   */\n      0xff\n        /* \"#utility.yul\":19115:19124   */\n      not\n        /* \"#utility.yul\":19104:19113   */\n      dup4\n        /* \"#utility.yul\":19100:19125   */\n      and\n        /* \"#utility.yul\":19095:19098   */\n      dup7\n        /* \"#utility.yul\":19088:19126   */\n      mstore\n        /* \"#utility.yul\":19181:19187   */\n      dup2\n        /* \"#utility.yul\":19174:19188   */\n      iszero\n        /* \"#utility.yul\":19167:19189   */\n      iszero\n        /* \"#utility.yul\":19159:19165   */\n      dup3\n        /* \"#utility.yul\":19155:19190   */\n      mul\n        /* \"#utility.yul\":19150:19153   */\n      dup7\n        /* \"#utility.yul\":19146:19191   */\n      add\n        /* \"#utility.yul\":19139:19191   */\n      swap4\n      pop\n        /* \"#utility.yul\":19035:19201   */\n      jump(tag_388)\n        /* \"#utility.yul\":19210:19550   */\n    tag_390:\n        /* \"#utility.yul\":19277:19314   */\n      tag_391\n        /* \"#utility.yul\":19308:19313   */\n      dup6\n        /* \"#utility.yul\":19277:19314   */\n      tag_175\n      jump\t// in\n    tag_391:\n        /* \"#utility.yul\":19336:19337   */\n      0x00\n        /* \"#utility.yul\":19350:19504   */\n    tag_392:\n        /* \"#utility.yul\":19364:19370   */\n      dup4\n        /* \"#utility.yul\":19361:19362   */\n      dup2\n        /* \"#utility.yul\":19358:19371   */\n      lt\n        /* \"#utility.yul\":19350:19504   */\n      iszero\n      tag_394\n      jumpi\n        /* \"#utility.yul\":19438:19445   */\n      dup2\n        /* \"#utility.yul\":19432:19446   */\n      sload\n        /* \"#utility.yul\":19428:19429   */\n      dup2\n        /* \"#utility.yul\":19423:19426   */\n      dup10\n        /* \"#utility.yul\":19419:19430   */\n      add\n        /* \"#utility.yul\":19412:19447   */\n      mstore\n        /* \"#utility.yul\":19488:19489   */\n      0x01\n        /* \"#utility.yul\":19479:19486   */\n      dup3\n        /* \"#utility.yul\":19475:19490   */\n      add\n        /* \"#utility.yul\":19464:19490   */\n      swap2\n      pop\n        /* \"#utility.yul\":19386:19390   */\n      0x20\n        /* \"#utility.yul\":19383:19384   */\n      dup2\n        /* \"#utility.yul\":19379:19391   */\n      add\n        /* \"#utility.yul\":19374:19391   */\n      swap1\n      pop\n        /* \"#utility.yul\":19350:19504   */\n      jump(tag_392)\n    tag_394:\n        /* \"#utility.yul\":19533:19539   */\n      dup4\n        /* \"#utility.yul\":19528:19531   */\n      dup9\n        /* \"#utility.yul\":19524:19540   */\n      add\n        /* \"#utility.yul\":19517:19540   */\n      swap6\n      pop\n        /* \"#utility.yul\":19217:19550   */\n      pop\n      pop\n        /* \"#utility.yul\":19002:19550   */\n    tag_388:\n      pop\n        /* \"#utility.yul\":18791:19556   */\n      pop\n      pop\n        /* \"#utility.yul\":18686:19556   */\n      swap3\n      swap2\n      pop\n      pop\n      jump\t// out\n        /* \"#utility.yul\":19562:19827   */\n    tag_129:\n        /* \"#utility.yul\":19689:19692   */\n      0x00\n        /* \"#utility.yul\":19711:19801   */\n      tag_396\n        /* \"#utility.yul\":19797:19800   */\n      dup3\n        /* \"#utility.yul\":19788:19794   */\n      dup5\n        /* \"#utility.yul\":19711:19801   */\n      tag_193\n      jump\t// in\n    tag_396:\n        /* \"#utility.yul\":19704:19801   */\n      swap2\n      pop\n        /* \"#utility.yul\":19818:19821   */\n      dup2\n        /* \"#utility.yul\":19811:19821   */\n      swap1\n      pop\n        /* \"#utility.yul\":19562:19827   */\n      swap3\n      swap2\n      pop\n      pop\n      jump\t// out\n        /* \"#utility.yul\":19833:20001   */\n    tag_194:\n        /* \"#utility.yul\":19973:19993   */\n      0x5472616e73616374696f6e206661696c65640000000000000000000000000000\n        /* \"#utility.yul\":19969:19970   */\n      0x00\n        /* \"#utility.yul\":19961:19967   */\n      dup3\n        /* \"#utility.yul\":19957:19971   */\n      add\n        /* \"#utility.yul\":19950:19994   */\n      mstore\n        /* \"#utility.yul\":19833:20001   */\n      pop\n      jump\t// out\n        /* \"#utility.yul\":20007:20373   */\n    tag_195:\n        /* \"#utility.yul\":20149:20152   */\n      0x00\n        /* \"#utility.yul\":20170:20237   */\n      tag_399\n        /* \"#utility.yul\":20234:20236   */\n      0x12\n        /* \"#utility.yul\":20229:20232   */\n      dup4\n        /* \"#utility.yul\":20170:20237   */\n      tag_164\n      jump\t// in\n    tag_399:\n        /* \"#utility.yul\":20163:20237   */\n      swap2\n      pop\n        /* \"#utility.yul\":20246:20339   */\n      tag_400\n        /* \"#utility.yul\":20335:20338   */\n      dup3\n        /* \"#utility.yul\":20246:20339   */\n      tag_194\n      jump\t// in\n    tag_400:\n        /* \"#utility.yul\":20364:20366   */\n      0x20\n        /* \"#utility.yul\":20359:20362   */\n      dup3\n        /* \"#utility.yul\":20355:20367   */\n      add\n        /* \"#utility.yul\":20348:20367   */\n      swap1\n      pop\n        /* \"#utility.yul\":20007:20373   */\n      swap2\n      swap1\n      pop\n      jump\t// out\n        /* \"#utility.yul\":20379:20798   */\n    tag_135:\n        /* \"#utility.yul\":20545:20549   */\n      0x00\n        /* \"#utility.yul\":20583:20585   */\n      0x20\n        /* \"#utility.yul\":20572:20581   */\n      dup3\n        /* \"#utility.yul\":20568:20586   */\n      add\n        /* \"#utility.yul\":20560:20586   */\n      swap1\n      pop\n        /* \"#utility.yul\":20632:20641   */\n      dup2\n        /* \"#utility.yul\":20626:20630   */\n      dup2\n        /* \"#utility.yul\":20622:20642   */\n      sub\n        /* \"#utility.yul\":20618:20619   */\n      0x00\n        /* \"#utility.yul\":20607:20616   */\n      dup4\n        /* \"#utility.yul\":20603:20620   */\n      add\n        /* \"#utility.yul\":20596:20643   */\n      mstore\n        /* \"#utility.yul\":20660:20791   */\n      tag_402\n        /* \"#utility.yul\":20786:20790   */\n      dup2\n        /* \"#utility.yul\":20660:20791   */\n      tag_195\n      jump\t// in\n    tag_402:\n        /* \"#utility.yul\":20652:20791   */\n      swap1\n      pop\n        /* \"#utility.yul\":20379:20798   */\n      swap2\n      swap1\n      pop\n      jump\t// out\n\n    auxdata: 0xa26469706673582212203538bb151f1ec05e1495feb4392dd5f90729f5be214cf76cfd93240f4d71707764736f6c634300081a0033\n}\n",
				"bytecode": {
					"linkReferences": {},
					"object": "608060405234801561000f575f80fd5b50604051611d37380380611d37833981810160405281019061003191906104a2565b5f825111610074576040517f08c379a000000000000000000000000000000000000000000000000000000000815260040161006b90610556565b60405180910390fd5b5f81118015610084575081518111155b6100c3576040517f08c379a00000000000000000000000000000000000000000000000000000000081526004016100ba906105e4565b60405180910390fd5b5f5b82518110156102a5575f8382815181106100e2576100e1610602565b5b602002602001015190505f73ffffffffffffffffffffffffffffffffffffffff168173ffffffffffffffffffffffffffffffffffffffff160361015a576040517f08c379a000000000000000000000000000000000000000000000000000000000815260040161015190610679565b60405180910390fd5b60015f8273ffffffffffffffffffffffffffffffffffffffff1673ffffffffffffffffffffffffffffffffffffffff1681526020019081526020015f205f9054906101000a900460ff16156101e4576040517f08c379a00000000000000000000000000000000000000000000000000000000081526004016101db906106e1565b60405180910390fd5b6001805f8373ffffffffffffffffffffffffffffffffffffffff1673ffffffffffffffffffffffffffffffffffffffff1681526020019081526020015f205f6101000a81548160ff0219169083151502179055505f81908060018154018082558091505060019003905f5260205f20015f9091909190916101000a81548173ffffffffffffffffffffffffffffffffffffffff021916908373ffffffffffffffffffffffffffffffffffffffff1602179055505080806001019150506100c5565b508060028190555050506106ff565b5f604051905090565b5f80fd5b5f80fd5b5f80fd5b5f601f19601f8301169050919050565b7f4e487b71000000000000000000000000000000000000000000000000000000005f52604160045260245ffd5b61030f826102c9565b810181811067ffffffffffffffff8211171561032e5761032d6102d9565b5b80604052505050565b5f6103406102b4565b905061034c8282610306565b919050565b5f67ffffffffffffffff82111561036b5761036a6102d9565b5b602082029050602081019050919050565b5f80fd5b5f73ffffffffffffffffffffffffffffffffffffffff82169050919050565b5f6103a982610380565b9050919050565b6103b98161039f565b81146103c3575f80fd5b50565b5f815190506103d4816103b0565b92915050565b5f6103ec6103e784610351565b610337565b9050808382526020820190506020840283018581111561040f5761040e61037c565b5b835b81811015610438578061042488826103c6565b845260208401935050602081019050610411565b5050509392505050565b5f82601f830112610456576104556102c5565b5b81516104668482602086016103da565b91505092915050565b5f819050919050565b6104818161046f565b811461048b575f80fd5b50565b5f8151905061049c81610478565b92915050565b5f80604083850312156104b8576104b76102bd565b5b5f83015167ffffffffffffffff8111156104d5576104d46102c1565b5b6104e185828601610442565b92505060206104f28582860161048e565b9150509250929050565b5f82825260208201905092915050565b7f4f776e65727320726571756972656400000000000000000000000000000000005f82015250565b5f610540600f836104fc565b915061054b8261050c565b602082019050919050565b5f6020820190508181035f83015261056d81610534565b9050919050565b7f496e76616c6964206e756d626572206f6620726571756972656420617070726f5f8201527f76616c7300000000000000000000000000000000000000000000000000000000602082015250565b5f6105ce6024836104fc565b91506105d982610574565b604082019050919050565b5f6020820190508181035f8301526105fb816105c2565b9050919050565b7f4e487b71000000000000000000000000000000000000000000000000000000005f52603260045260245ffd5b7f496e76616c6964206f776e6572000000000000000000000000000000000000005f82015250565b5f610663600d836104fc565b915061066e8261062f565b602082019050919050565b5f6020820190508181035f83015261069081610657565b9050919050565b7f4f776e6572206e6f7420756e69717565000000000000000000000000000000005f82015250565b5f6106cb6010836104fc565b91506106d682610697565b602082019050919050565b5f6020820190508181035f8301526106f8816106bf565b9050919050565b61162b8061070c5f395ff3fe608060405260043610610089575f3560e01c806399c1aadc1161005857806399c1aadc1461015e5780639ace38c214610188578063ab2850da146101c8578063c642747414610204578063ee22610b1461024057610090565b8063025e7c2714610094578063242232d1146100d05780632e7700f0146100f85780632f54bf6e1461012257610090565b3661009057005b5f80fd5b34801561009f575f80fd5b506100ba60048036038101906100b59190610bae565b610268565b6040516100c79190610c18565b60405180910390f35b3480156100db575f80fd5b506100f660048036038101906100f19190610bae565b6102a2565b005b348015610103575f80fd5b5061010c61056b565b6040516101199190610c40565b60405180910390f35b34801561012d575f80fd5b5061014860048036038101906101439190610c83565b610577565b6040516101559190610cc8565b60405180910390f35b348015610169575f80fd5b50610172610594565b60405161017f9190610c40565b60405180910390f35b348015610193575f80fd5b506101ae60048036038101906101a99190610bae565b61059a565b6040516101bf959493929190610d51565b60405180910390f35b3480156101d3575f80fd5b506101ee60048036038101906101e99190610da9565b61068c565b6040516101fb9190610cc8565b60405180910390f35b34801561020f575f80fd5b5061022a60048036038101906102259190610f13565b6106b6565b6040516102379190610c40565b60405180910390f35b34801561024b575f80fd5b5061026660048036038101906102619190610bae565b610899565b005b5f8181548110610276575f80fd5b905f5260205f20015f915054906101000a900473ffffffffffffffffffffffffffffffffffffffff1681565b60015f3373ffffffffffffffffffffffffffffffffffffffff1673ffffffffffffffffffffffffffffffffffffffff1681526020019081526020015f205f9054906101000a900460ff1661032b576040517f08c379a000000000000000000000000000000000000000000000000000000000815260040161032290610fd9565b60405180910390fd5b806003805490508110610373576040517f08c379a000000000000000000000000000000000000000000000000000000000815260040161036a90611041565b60405180910390fd5b81600381815481106103885761038761105f565b5b905f5260205f2090600502016003015f9054906101000a900460ff16156103e4576040517f08c379a00000000000000000000000000000000000000000000000000000000081526004016103db906110d6565b60405180910390fd5b8260045f8281526020019081526020015f205f3373ffffffffffffffffffffffffffffffffffffffff1673ffffffffffffffffffffffffffffffffffffffff1681526020019081526020015f205f9054906101000a900460ff161561047e576040517f08c379a00000000000000000000000000000000000000000000000000000000081526004016104759061113e565b60405180910390fd5b5f600385815481106104935761049261105f565b5b905f5260205f20906005020190506001816004015f8282546104b59190611189565b92505081905550600160045f8781526020019081526020015f205f3373ffffffffffffffffffffffffffffffffffffffff1673ffffffffffffffffffffffffffffffffffffffff1681526020019081526020015f205f6101000a81548160ff0219169083151502179055503373ffffffffffffffffffffffffffffffffffffffff16857f924813d717e221b5f46dcd8a56da1679e4612584ab3237d55e5faabf6f6a307960405160405180910390a35050505050565b5f600380549050905090565b6001602052805f5260405f205f915054906101000a900460ff1681565b60025481565b600381815481106105a9575f80fd5b905f5260205f2090600502015f91509050805f015f9054906101000a900473ffffffffffffffffffffffffffffffffffffffff16908060010154908060020180546105f3906111e9565b80601f016020809104026020016040519081016040528092919081815260200182805461061f906111e9565b801561066a5780601f106106415761010080835404028352916020019161066a565b820191905f5260205f20905b81548152906001019060200180831161064d57829003601f168201915b505050505090806003015f9054906101000a900460ff16908060040154905085565b6004602052815f5260405f20602052805f5260405f205f915091509054906101000a900460ff1681565b5f60015f3373ffffffffffffffffffffffffffffffffffffffff1673ffffffffffffffffffffffffffffffffffffffff1681526020019081526020015f205f9054906101000a900460ff16610740576040517f08c379a000000000000000000000000000000000000000000000000000000000815260040161073790610fd9565b60405180910390fd5b5f600380549050905060036040518060a001604052808773ffffffffffffffffffffffffffffffffffffffff1681526020018681526020018581526020015f151581526020015f815250908060018154018082558091505060019003905f5260205f2090600502015f909190919091505f820151815f015f6101000a81548173ffffffffffffffffffffffffffffffffffffffff021916908373ffffffffffffffffffffffffffffffffffffffff16021790555060208201518160010155604082015181600201908161081391906113b6565b506060820151816003015f6101000a81548160ff0219169083151502179055506080820151816004015550508473ffffffffffffffffffffffffffffffffffffffff16817f6974e8be5912ae917b788db2884a51e71cbe0f0979af347e6a32d07d52ef82a3866040516108869190610c40565b60405180910390a3809150509392505050565b60015f3373ffffffffffffffffffffffffffffffffffffffff1673ffffffffffffffffffffffffffffffffffffffff1681526020019081526020015f205f9054906101000a900460ff16610922576040517f08c379a000000000000000000000000000000000000000000000000000000000815260040161091990610fd9565b60405180910390fd5b80600380549050811061096a576040517f08c379a000000000000000000000000000000000000000000000000000000000815260040161096190611041565b60405180910390fd5b816003818154811061097f5761097e61105f565b5b905f5260205f2090600502016003015f9054906101000a900460ff16156109db576040517f08c379a00000000000000000000000000000000000000000000000000000000081526004016109d2906110d6565b60405180910390fd5b5f600384815481106109f0576109ef61105f565b5b905f5260205f209060050201905060025481600401541015610a47576040517f08c379a0000000000000000000000000000000000000000000000000000000008152600401610a3e906114cf565b60405180910390fd5b6001816003015f6101000a81548160ff0219169083151502179055505f815f015f9054906101000a900473ffffffffffffffffffffffffffffffffffffffff1673ffffffffffffffffffffffffffffffffffffffff16826001015483600201604051610ab39190611577565b5f6040518083038185875af1925050503d805f8114610aed576040519150601f19603f3d011682016040523d82523d5f602084013e610af2565b606091505b5050905080610b36576040517f08c379a0000000000000000000000000000000000000000000000000000000008152600401610b2d906115d7565b60405180910390fd5b847f15ed165a284872ea7017f03df402a0cadfbfab588320ffaf83f160c2f82781c760405160405180910390a25050505050565b5f604051905090565b5f80fd5b5f80fd5b5f819050919050565b610b8d81610b7b565b8114610b97575f80fd5b50565b5f81359050610ba881610b84565b92915050565b5f60208284031215610bc357610bc2610b73565b5b5f610bd084828501610b9a565b91505092915050565b5f73ffffffffffffffffffffffffffffffffffffffff82169050919050565b5f610c0282610bd9565b9050919050565b610c1281610bf8565b82525050565b5f602082019050610c2b5f830184610c09565b92915050565b610c3a81610b7b565b82525050565b5f602082019050610c535f830184610c31565b92915050565b610c6281610bf8565b8114610c6c575f80fd5b50565b5f81359050610c7d81610c59565b92915050565b5f60208284031215610c9857610c97610b73565b5b5f610ca584828501610c6f565b91505092915050565b5f8115159050919050565b610cc281610cae565b82525050565b5f602082019050610cdb5f830184610cb9565b92915050565b5f81519050919050565b5f82825260208201905092915050565b8281835e5f83830152505050565b5f601f19601f8301169050919050565b5f610d2382610ce1565b610d2d8185610ceb565b9350610d3d818560208601610cfb565b610d4681610d09565b840191505092915050565b5f60a082019050610d645f830188610c09565b610d716020830187610c31565b8181036040830152610d838186610d19565b9050610d926060830185610cb9565b610d9f6080830184610c31565b9695505050505050565b5f8060408385031215610dbf57610dbe610b73565b5b5f610dcc85828601610b9a565b9250506020610ddd85828601610c6f565b9150509250929050565b5f80fd5b5f80fd5b7f4e487b71000000000000000000000000000000000000000000000000000000005f52604160045260245ffd5b610e2582610d09565b810181811067ffffffffffffffff82111715610e4457610e43610def565b5b80604052505050565b5f610e56610b6a565b9050610e628282610e1c565b919050565b5f67ffffffffffffffff821115610e8157610e80610def565b5b610e8a82610d09565b9050602081019050919050565b828183375f83830152505050565b5f610eb7610eb284610e67565b610e4d565b905082815260208101848484011115610ed357610ed2610deb565b5b610ede848285610e97565b509392505050565b5f82601f830112610efa57610ef9610de7565b5b8135610f0a848260208601610ea5565b91505092915050565b5f805f60608486031215610f2a57610f29610b73565b5b5f610f3786828701610c6f565b9350506020610f4886828701610b9a565b925050604084013567ffffffffffffffff811115610f6957610f68610b77565b5b610f7586828701610ee6565b9150509250925092565b5f82825260208201905092915050565b7f4e6f7420616e206f776e657200000000000000000000000000000000000000005f82015250565b5f610fc3600c83610f7f565b9150610fce82610f8f565b602082019050919050565b5f6020820190508181035f830152610ff081610fb7565b9050919050565b7f5472616e73616374696f6e20646f6573206e6f742065786973740000000000005f82015250565b5f61102b601a83610f7f565b915061103682610ff7565b602082019050919050565b5f6020820190508181035f8301526110588161101f565b9050919050565b7f4e487b71000000000000000000000000000000000000000000000000000000005f52603260045260245ffd5b7f5472616e73616374696f6e20616c7265616479206578656375746564000000005f82015250565b5f6110c0601c83610f7f565b91506110cb8261108c565b602082019050919050565b5f6020820190508181035f8301526110ed816110b4565b9050919050565b7f5472616e73616374696f6e20616c726561647920617070726f766564000000005f82015250565b5f611128601c83610f7f565b9150611133826110f4565b602082019050919050565b5f6020820190508181035f8301526111558161111c565b9050919050565b7f4e487b71000000000000000000000000000000000000000000000000000000005f52601160045260245ffd5b5f61119382610b7b565b915061119e83610b7b565b92508282019050808211156111b6576111b561115c565b5b92915050565b7f4e487b71000000000000000000000000000000000000000000000000000000005f52602260045260245ffd5b5f600282049050600182168061120057607f821691505b602082108103611213576112126111bc565b5b50919050565b5f819050815f5260205f209050919050565b5f6020601f8301049050919050565b5f82821b905092915050565b5f600883026112757fffffffffffffffffffffffffffffffffffffffffffffffffffffffffffffffff8261123a565b61127f868361123a565b95508019841693508086168417925050509392505050565b5f819050919050565b5f6112ba6112b56112b084610b7b565b611297565b610b7b565b9050919050565b5f819050919050565b6112d3836112a0565b6112e76112df826112c1565b848454611246565b825550505050565b5f90565b6112fb6112ef565b6113068184846112ca565b505050565b5b818110156113295761131e5f826112f3565b60018101905061130c565b5050565b601f82111561136e5761133f81611219565b6113488461122b565b81016020851015611357578190505b61136b6113638561122b565b83018261130b565b50505b505050565b5f82821c905092915050565b5f61138e5f1984600802611373565b1980831691505092915050565b5f6113a6838361137f565b9150826002028217905092915050565b6113bf82610ce1565b67ffffffffffffffff8111156113d8576113d7610def565b5b6113e282546111e9565b6113ed82828561132d565b5f60209050601f83116001811461141e575f841561140c578287015190505b611416858261139b565b86555061147d565b601f19841661142c86611219565b5f5b828110156114535784890151825560018201915060208501945060208101905061142e565b86831015611470578489015161146c601f89168261137f565b8355505b6001600288020188555050505b505050505050565b7f4e6f7420656e6f75676820617070726f76616c730000000000000000000000005f82015250565b5f6114b9601483610f7f565b91506114c482611485565b602082019050919050565b5f6020820190508181035f8301526114e6816114ad565b9050919050565b5f81905092915050565b5f8154611503816111e9565b61150d81866114ed565b9450600182165f8114611527576001811461153c5761156e565b60ff198316865281151582028601935061156e565b61154585611219565b5f5b8381101561156657815481890152600182019150602081019050611547565b838801955050505b50505092915050565b5f61158282846114f7565b915081905092915050565b7f5472616e73616374696f6e206661696c656400000000000000000000000000005f82015250565b5f6115c1601283610f7f565b91506115cc8261158d565b602082019050919050565b5f6020820190508181035f8301526115ee816115b5565b905091905056fea26469706673582212203538bb151f1ec05e1495feb4392dd5f90729f5be214cf76cfd93240f4d71707764736f6c634300081a0033",
					"opcodes": "PUSH1 0x80 PUSH1 0x40 MSTORE CALLVALUE DUP1 ISZERO PUSH2 0xF JUMPI PUSH0 DUP1 REVERT JUMPDEST POP PUSH1 0x40 MLOAD PUSH2 0x1D37 CODESIZE SUB DUP1 PUSH2 0x1D37 DUP4 CODECOPY DUP2 DUP2 ADD PUSH1 0x40 MSTORE DUP2 ADD SWAP1 PUSH2 0x31 SWAP2 SWAP1 PUSH2 0x4A2 JUMP JUMPDEST PUSH0 DUP3 MLOAD GT PUSH2 0x74 JUMPI PUSH1 0x40 MLOAD PUSH32 0x8C379A000000000000000000000000000000000000000000000000000000000 DUP2 MSTORE PUSH1 0x4 ADD PUSH2 0x6B SWAP1 PUSH2 0x556 JUMP JUMPDEST PUSH1 0x40 MLOAD DUP1 SWAP2 SUB SWAP1 REVERT JUMPDEST PUSH0 DUP2 GT DUP1 ISZERO PUSH2 0x84 JUMPI POP DUP2 MLOAD DUP2 GT ISZERO JUMPDEST PUSH2 0xC3 JUMPI PUSH1 0x40 MLOAD PUSH32 0x8C379A000000000000000000000000000000000000000000000000000000000 DUP2 MSTORE PUSH1 0x4 ADD PUSH2 0xBA SWAP1 PUSH2 0x5E4 JUMP JUMPDEST PUSH1 0x40 MLOAD DUP1 SWAP2 SUB SWAP1 REVERT JUMPDEST PUSH0 JUMPDEST DUP3 MLOAD DUP2 LT ISZERO PUSH2 0x2A5 JUMPI PUSH0 DUP4 DUP3 DUP2 MLOAD DUP2 LT PUSH2 0xE2 JUMPI PUSH2 0xE1 PUSH2 0x602 JUMP JUMPDEST JUMPDEST PUSH1 0x20 MUL PUSH1 0x20 ADD ADD MLOAD SWAP1 POP PUSH0 PUSH20 0xFFFFFFFFFFFFFFFFFFFFFFFFFFFFFFFFFFFFFFFF AND DUP2 PUSH20 0xFFFFFFFFFFFFFFFFFFFFFFFFFFFFFFFFFFFFFFFF AND SUB PUSH2 0x15A JUMPI PUSH1 0x40 MLOAD PUSH32 0x8C379A000000000000000000000000000000000000000000000000000000000 DUP2 MSTORE PUSH1 0x4 ADD PUSH2 0x151 SWAP1 PUSH2 0x679 JUMP JUMPDEST PUSH1 0x40 MLOAD DUP1 SWAP2 SUB SWAP1 REVERT JUMPDEST PUSH1 0x1 PUSH0 DUP3 PUSH20 0xFFFFFFFFFFFFFFFFFFFFFFFFFFFFFFFFFFFFFFFF AND PUSH20 0xFFFFFFFFFFFFFFFFFFFFFFFFFFFFFFFFFFFFFFFF AND DUP2 MSTORE PUSH1 0x20 ADD SWAP1 DUP2 MSTORE PUSH1 0x20 ADD PUSH0 KECCAK256 PUSH0 SWAP1 SLOAD SWAP1 PUSH2 0x100 EXP SWAP1 DIV PUSH1 0xFF AND ISZERO PUSH2 0x1E4 JUMPI PUSH1 0x40 MLOAD PUSH32 0x8C379A000000000000000000000000000000000000000000000000000000000 DUP2 MSTORE PUSH1 0x4 ADD PUSH2 0x1DB SWAP1 PUSH2 0x6E1 JUMP JUMPDEST PUSH1 0x40 MLOAD DUP1 SWAP2 SUB SWAP1 REVERT JUMPDEST PUSH1 0x1 DUP1 PUSH0 DUP4 PUSH20 0xFFFFFFFFFFFFFFFFFFFFFFFFFFFFFFFFFFFFFFFF AND PUSH20 0xFFFFFFFFFFFFFFFFFFFFFFFFFFFFFFFFFFFFFFFF AND DUP2 MSTORE PUSH1 0x20 ADD SWAP1 DUP2 MSTORE PUSH1 0x20 ADD PUSH0 KECCAK256 PUSH0 PUSH2 0x100 EXP DUP2 SLOAD DUP2 PUSH1 0xFF MUL NOT AND SWAP1 DUP4 ISZERO ISZERO MUL OR SWAP1 SSTORE POP PUSH0 DUP2 SWAP1 DUP1 PUSH1 0x1 DUP2 SLOAD ADD DUP1 DUP3 SSTORE DUP1 SWAP2 POP POP PUSH1 0x1 SWAP1 SUB SWAP1 PUSH0 MSTORE PUSH1 0x20 PUSH0 KECCAK256 ADD PUSH0 SWAP1 SWAP2 SWAP1 SWAP2 SWAP1 SWAP2 PUSH2 0x100 EXP DUP2 SLOAD DUP2 PUSH20 0xFFFFFFFFFFFFFFFFFFFFFFFFFFFFFFFFFFFFFFFF MUL NOT AND SWAP1 DUP4 PUSH20 0xFFFFFFFFFFFFFFFFFFFFFFFFFFFFFFFFFFFFFFFF AND MUL OR SWAP1 SSTORE POP POP DUP1 DUP1 PUSH1 0x1 ADD SWAP2 POP POP PUSH2 0xC5 JUMP JUMPDEST POP DUP1 PUSH1 0x2 DUP2 SWAP1 SSTORE POP POP POP PUSH2 0x6FF JUMP JUMPDEST PUSH0 PUSH1 0x40 MLOAD SWAP1 POP SWAP1 JUMP JUMPDEST PUSH0 DUP1 REVERT JUMPDEST PUSH0 DUP1 REVERT JUMPDEST PUSH0 DUP1 REVERT JUMPDEST PUSH0 PUSH1 0x1F NOT PUSH1 0x1F DUP4 ADD AND SWAP1 POP SWAP2 SWAP1 POP JUMP JUMPDEST PUSH32 0x4E487B7100000000000000000000000000000000000000000000000000000000 PUSH0 MSTORE PUSH1 0x41 PUSH1 0x4 MSTORE PUSH1 0x24 PUSH0 REVERT JUMPDEST PUSH2 0x30F DUP3 PUSH2 0x2C9 JUMP JUMPDEST DUP2 ADD DUP2 DUP2 LT PUSH8 0xFFFFFFFFFFFFFFFF DUP3 GT OR ISZERO PUSH2 0x32E JUMPI PUSH2 0x32D PUSH2 0x2D9 JUMP JUMPDEST JUMPDEST DUP1 PUSH1 0x40 MSTORE POP POP POP JUMP JUMPDEST PUSH0 PUSH2 0x340 PUSH2 0x2B4 JUMP JUMPDEST SWAP1 POP PUSH2 0x34C DUP3 DUP3 PUSH2 0x306 JUMP JUMPDEST SWAP2 SWAP1 POP JUMP JUMPDEST PUSH0 PUSH8 0xFFFFFFFFFFFFFFFF DUP3 GT ISZERO PUSH2 0x36B JUMPI PUSH2 0x36A PUSH2 0x2D9 JUMP JUMPDEST JUMPDEST PUSH1 0x20 DUP3 MUL SWAP1 POP PUSH1 0x20 DUP2 ADD SWAP1 POP SWAP2 SWAP1 POP JUMP JUMPDEST PUSH0 DUP1 REVERT JUMPDEST PUSH0 PUSH20 0xFFFFFFFFFFFFFFFFFFFFFFFFFFFFFFFFFFFFFFFF DUP3 AND SWAP1 POP SWAP2 SWAP1 POP JUMP JUMPDEST PUSH0 PUSH2 0x3A9 DUP3 PUSH2 0x380 JUMP JUMPDEST SWAP1 POP SWAP2 SWAP1 POP JUMP JUMPDEST PUSH2 0x3B9 DUP2 PUSH2 0x39F JUMP JUMPDEST DUP2 EQ PUSH2 0x3C3 JUMPI PUSH0 DUP1 REVERT JUMPDEST POP JUMP JUMPDEST PUSH0 DUP2 MLOAD SWAP1 POP PUSH2 0x3D4 DUP2 PUSH2 0x3B0 JUMP JUMPDEST SWAP3 SWAP2 POP POP JUMP JUMPDEST PUSH0 PUSH2 0x3EC PUSH2 0x3E7 DUP5 PUSH2 0x351 JUMP JUMPDEST PUSH2 0x337 JUMP JUMPDEST SWAP1 POP DUP1 DUP4 DUP3 MSTORE PUSH1 0x20 DUP3 ADD SWAP1 POP PUSH1 0x20 DUP5 MUL DUP4 ADD DUP6 DUP2 GT ISZERO PUSH2 0x40F JUMPI PUSH2 0x40E PUSH2 0x37C JUMP JUMPDEST JUMPDEST DUP4 JUMPDEST DUP2 DUP2 LT ISZERO PUSH2 0x438 JUMPI DUP1 PUSH2 0x424 DUP9 DUP3 PUSH2 0x3C6 JUMP JUMPDEST DUP5 MSTORE PUSH1 0x20 DUP5 ADD SWAP4 POP POP PUSH1 0x20 DUP2 ADD SWAP1 POP PUSH2 0x411 JUMP JUMPDEST POP POP POP SWAP4 SWAP3 POP POP POP JUMP JUMPDEST PUSH0 DUP3 PUSH1 0x1F DUP4 ADD SLT PUSH2 0x456 JUMPI PUSH2 0x455 PUSH2 0x2C5 JUMP JUMPDEST JUMPDEST DUP2 MLOAD PUSH2 0x466 DUP5 DUP3 PUSH1 0x20 DUP7 ADD PUSH2 0x3DA JUMP JUMPDEST SWAP2 POP POP SWAP3 SWAP2 POP POP JUMP JUMPDEST PUSH0 DUP2 SWAP1 POP SWAP2 SWAP1 POP JUMP JUMPDEST PUSH2 0x481 DUP2 PUSH2 0x46F JUMP JUMPDEST DUP2 EQ PUSH2 0x48B JUMPI PUSH0 DUP1 REVERT JUMPDEST POP JUMP JUMPDEST PUSH0 DUP2 MLOAD SWAP1 POP PUSH2 0x49C DUP2 PUSH2 0x478 JUMP JUMPDEST SWAP3 SWAP2 POP POP JUMP JUMPDEST PUSH0 DUP1 PUSH1 0x40 DUP4 DUP6 SUB SLT ISZERO PUSH2 0x4B8 JUMPI PUSH2 0x4B7 PUSH2 0x2BD JUMP JUMPDEST JUMPDEST PUSH0 DUP4 ADD MLOAD PUSH8 0xFFFFFFFFFFFFFFFF DUP2 GT ISZERO PUSH2 0x4D5 JUMPI PUSH2 0x4D4 PUSH2 0x2C1 JUMP JUMPDEST JUMPDEST PUSH2 0x4E1 DUP6 DUP3 DUP7 ADD PUSH2 0x442 JUMP JUMPDEST SWAP3 POP POP PUSH1 0x20 PUSH2 0x4F2 DUP6 DUP3 DUP7 ADD PUSH2 0x48E JUMP JUMPDEST SWAP2 POP POP SWAP3 POP SWAP3 SWAP1 POP JUMP JUMPDEST PUSH0 DUP3 DUP3 MSTORE PUSH1 0x20 DUP3 ADD SWAP1 POP SWAP3 SWAP2 POP POP JUMP JUMPDEST PUSH32 0x4F776E6572732072657175697265640000000000000000000000000000000000 PUSH0 DUP3 ADD MSTORE POP JUMP JUMPDEST PUSH0 PUSH2 0x540 PUSH1 0xF DUP4 PUSH2 0x4FC JUMP JUMPDEST SWAP2 POP PUSH2 0x54B DUP3 PUSH2 0x50C JUMP JUMPDEST PUSH1 0x20 DUP3 ADD SWAP1 POP SWAP2 SWAP1 POP JUMP JUMPDEST PUSH0 PUSH1 0x20 DUP3 ADD SWAP1 POP DUP2 DUP2 SUB PUSH0 DUP4 ADD MSTORE PUSH2 0x56D DUP2 PUSH2 0x534 JUMP JUMPDEST SWAP1 POP SWAP2 SWAP1 POP JUMP JUMPDEST PUSH32 0x496E76616C6964206E756D626572206F6620726571756972656420617070726F PUSH0 DUP3 ADD MSTORE PUSH32 0x76616C7300000000000000000000000000000000000000000000000000000000 PUSH1 0x20 DUP3 ADD MSTORE POP JUMP JUMPDEST PUSH0 PUSH2 0x5CE PUSH1 0x24 DUP4 PUSH2 0x4FC JUMP JUMPDEST SWAP2 POP PUSH2 0x5D9 DUP3 PUSH2 0x574 JUMP JUMPDEST PUSH1 0x40 DUP3 ADD SWAP1 POP SWAP2 SWAP1 POP JUMP JUMPDEST PUSH0 PUSH1 0x20 DUP3 ADD SWAP1 POP DUP2 DUP2 SUB PUSH0 DUP4 ADD MSTORE PUSH2 0x5FB DUP2 PUSH2 0x5C2 JUMP JUMPDEST SWAP1 POP SWAP2 SWAP1 POP JUMP JUMPDEST PUSH32 0x4E487B7100000000000000000000000000000000000000000000000000000000 PUSH0 MSTORE PUSH1 0x32 PUSH1 0x4 MSTORE PUSH1 0x24 PUSH0 REVERT JUMPDEST PUSH32 0x496E76616C6964206F776E657200000000000000000000000000000000000000 PUSH0 DUP3 ADD MSTORE POP JUMP JUMPDEST PUSH0 PUSH2 0x663 PUSH1 0xD DUP4 PUSH2 0x4FC JUMP JUMPDEST SWAP2 POP PUSH2 0x66E DUP3 PUSH2 0x62F JUMP JUMPDEST PUSH1 0x20 DUP3 ADD SWAP1 POP SWAP2 SWAP1 POP JUMP JUMPDEST PUSH0 PUSH1 0x20 DUP3 ADD SWAP1 POP DUP2 DUP2 SUB PUSH0 DUP4 ADD MSTORE PUSH2 0x690 DUP2 PUSH2 0x657 JUMP JUMPDEST SWAP1 POP SWAP2 SWAP1 POP JUMP JUMPDEST PUSH32 0x4F776E6572206E6F7420756E6971756500000000000000000000000000000000 PUSH0 DUP3 ADD MSTORE POP JUMP JUMPDEST PUSH0 PUSH2 0x6CB PUSH1 0x10 DUP4 PUSH2 0x4FC JUMP JUMPDEST SWAP2 POP PUSH2 0x6D6 DUP3 PUSH2 0x697 JUMP JUMPDEST PUSH1 0x20 DUP3 ADD SWAP1 POP SWAP2 SWAP1 POP JUMP JUMPDEST PUSH0 PUSH1 0x20 DUP3 ADD SWAP1 POP DUP2 DUP2 SUB PUSH0 DUP4 ADD MSTORE PUSH2 0x6F8 DUP2 PUSH2 0x6BF JUMP JUMPDEST SWAP1 POP SWAP2 SWAP1 POP JUMP JUMPDEST PUSH2 0x162B DUP1 PUSH2 0x70C PUSH0 CODECOPY PUSH0 RETURN INVALID PUSH1 0x80 PUSH1 0x40 MSTORE PUSH1 0x4 CALLDATASIZE LT PUSH2 0x89 JUMPI PUSH0 CALLDATALOAD PUSH1 0xE0 SHR DUP1 PUSH4 0x99C1AADC GT PUSH2 0x58 JUMPI DUP1 PUSH4 0x99C1AADC EQ PUSH2 0x15E JUMPI DUP1 PUSH4 0x9ACE38C2 EQ PUSH2 0x188 JUMPI DUP1 PUSH4 0xAB2850DA EQ PUSH2 0x1C8 JUMPI DUP1 PUSH4 0xC6427474 EQ PUSH2 0x204 JUMPI DUP1 PUSH4 0xEE22610B EQ PUSH2 0x240 JUMPI PUSH2 0x90 JUMP JUMPDEST DUP1 PUSH4 0x25E7C27 EQ PUSH2 0x94 JUMPI DUP1 PUSH4 0x242232D1 EQ PUSH2 0xD0 JUMPI DUP1 PUSH4 0x2E7700F0 EQ PUSH2 0xF8 JUMPI DUP1 PUSH4 0x2F54BF6E EQ PUSH2 0x122 JUMPI PUSH2 0x90 JUMP JUMPDEST CALLDATASIZE PUSH2 0x90 JUMPI STOP JUMPDEST PUSH0 DUP1 REVERT JUMPDEST CALLVALUE DUP1 ISZERO PUSH2 0x9F JUMPI PUSH0 DUP1 REVERT JUMPDEST POP PUSH2 0xBA PUSH1 0x4 DUP1 CALLDATASIZE SUB DUP2 ADD SWAP1 PUSH2 0xB5 SWAP2 SWAP1 PUSH2 0xBAE JUMP JUMPDEST PUSH2 0x268 JUMP JUMPDEST PUSH1 0x40 MLOAD PUSH2 0xC7 SWAP2 SWAP1 PUSH2 0xC18 JUMP JUMPDEST PUSH1 0x40 MLOAD DUP1 SWAP2 SUB SWAP1 RETURN JUMPDEST CALLVALUE DUP1 ISZERO PUSH2 0xDB JUMPI PUSH0 DUP1 REVERT JUMPDEST POP PUSH2 0xF6 PUSH1 0x4 DUP1 CALLDATASIZE SUB DUP2 ADD SWAP1 PUSH2 0xF1 SWAP2 SWAP1 PUSH2 0xBAE JUMP JUMPDEST PUSH2 0x2A2 JUMP JUMPDEST STOP JUMPDEST CALLVALUE DUP1 ISZERO PUSH2 0x103 JUMPI PUSH0 DUP1 REVERT JUMPDEST POP PUSH2 0x10C PUSH2 0x56B JUMP JUMPDEST PUSH1 0x40 MLOAD PUSH2 0x119 SWAP2 SWAP1 PUSH2 0xC40 JUMP JUMPDEST PUSH1 0x40 MLOAD DUP1 SWAP2 SUB SWAP1 RETURN JUMPDEST CALLVALUE DUP1 ISZERO PUSH2 0x12D JUMPI PUSH0 DUP1 REVERT JUMPDEST POP PUSH2 0x148 PUSH1 0x4 DUP1 CALLDATASIZE SUB DUP2 ADD SWAP1 PUSH2 0x143 SWAP2 SWAP1 PUSH2 0xC83 JUMP JUMPDEST PUSH2 0x577 JUMP JUMPDEST PUSH1 0x40 MLOAD PUSH2 0x155 SWAP2 SWAP1 PUSH2 0xCC8 JUMP JUMPDEST PUSH1 0x40 MLOAD DUP1 SWAP2 SUB SWAP1 RETURN JUMPDEST CALLVALUE DUP1 ISZERO PUSH2 0x169 JUMPI PUSH0 DUP1 REVERT JUMPDEST POP PUSH2 0x172 PUSH2 0x594 JUMP JUMPDEST PUSH1 0x40 MLOAD PUSH2 0x17F SWAP2 SWAP1 PUSH2 0xC40 JUMP JUMPDEST PUSH1 0x40 MLOAD DUP1 SWAP2 SUB SWAP1 RETURN JUMPDEST CALLVALUE DUP1 ISZERO PUSH2 0x193 JUMPI PUSH0 DUP1 REVERT JUMPDEST POP PUSH2 0x1AE PUSH1 0x4 DUP1 CALLDATASIZE SUB DUP2 ADD SWAP1 PUSH2 0x1A9 SWAP2 SWAP1 PUSH2 0xBAE JUMP JUMPDEST PUSH2 0x59A JUMP JUMPDEST PUSH1 0x40 MLOAD PUSH2 0x1BF SWAP6 SWAP5 SWAP4 SWAP3 SWAP2 SWAP1 PUSH2 0xD51 JUMP JUMPDEST PUSH1 0x40 MLOAD DUP1 SWAP2 SUB SWAP1 RETURN JUMPDEST CALLVALUE DUP1 ISZERO PUSH2 0x1D3 JUMPI PUSH0 DUP1 REVERT JUMPDEST POP PUSH2 0x1EE PUSH1 0x4 DUP1 CALLDATASIZE SUB DUP2 ADD SWAP1 PUSH2 0x1E9 SWAP2 SWAP1 PUSH2 0xDA9 JUMP JUMPDEST PUSH2 0x68C JUMP JUMPDEST PUSH1 0x40 MLOAD PUSH2 0x1FB SWAP2 SWAP1 PUSH2 0xCC8 JUMP JUMPDEST PUSH1 0x40 MLOAD DUP1 SWAP2 SUB SWAP1 RETURN JUMPDEST CALLVALUE DUP1 ISZERO PUSH2 0x20F JUMPI PUSH0 DUP1 REVERT JUMPDEST POP PUSH2 0x22A PUSH1 0x4 DUP1 CALLDATASIZE SUB DUP2 ADD SWAP1 PUSH2 0x225 SWAP2 SWAP1 PUSH2 0xF13 JUMP JUMPDEST PUSH2 0x6B6 JUMP JUMPDEST PUSH1 0x40 MLOAD PUSH2 0x237 SWAP2 SWAP1 PUSH2 0xC40 JUMP JUMPDEST PUSH1 0x40 MLOAD DUP1 SWAP2 SUB SWAP1 RETURN JUMPDEST CALLVALUE DUP1 ISZERO PUSH2 0x24B JUMPI PUSH0 DUP1 REVERT JUMPDEST POP PUSH2 0x266 PUSH1 0x4 DUP1 CALLDATASIZE SUB DUP2 ADD SWAP1 PUSH2 0x261 SWAP2 SWAP1 PUSH2 0xBAE JUMP JUMPDEST PUSH2 0x899 JUMP JUMPDEST STOP JUMPDEST PUSH0 DUP2 DUP2 SLOAD DUP2 LT PUSH2 0x276 JUMPI PUSH0 DUP1 REVERT JUMPDEST SWAP1 PUSH0 MSTORE PUSH1 0x20 PUSH0 KECCAK256 ADD PUSH0 SWAP2 POP SLOAD SWAP1 PUSH2 0x100 EXP SWAP1 DIV PUSH20 0xFFFFFFFFFFFFFFFFFFFFFFFFFFFFFFFFFFFFFFFF AND DUP2 JUMP JUMPDEST PUSH1 0x1 PUSH0 CALLER PUSH20 0xFFFFFFFFFFFFFFFFFFFFFFFFFFFFFFFFFFFFFFFF AND PUSH20 0xFFFFFFFFFFFFFFFFFFFFFFFFFFFFFFFFFFFFFFFF AND DUP2 MSTORE PUSH1 0x20 ADD SWAP1 DUP2 MSTORE PUSH1 0x20 ADD PUSH0 KECCAK256 PUSH0 SWAP1 SLOAD SWAP1 PUSH2 0x100 EXP SWAP1 DIV PUSH1 0xFF AND PUSH2 0x32B JUMPI PUSH1 0x40 MLOAD PUSH32 0x8C379A000000000000000000000000000000000000000000000000000000000 DUP2 MSTORE PUSH1 0x4 ADD PUSH2 0x322 SWAP1 PUSH2 0xFD9 JUMP JUMPDEST PUSH1 0x40 MLOAD DUP1 SWAP2 SUB SWAP1 REVERT JUMPDEST DUP1 PUSH1 0x3 DUP1 SLOAD SWAP1 POP DUP2 LT PUSH2 0x373 JUMPI PUSH1 0x40 MLOAD PUSH32 0x8C379A000000000000000000000000000000000000000000000000000000000 DUP2 MSTORE PUSH1 0x4 ADD PUSH2 0x36A SWAP1 PUSH2 0x1041 JUMP JUMPDEST PUSH1 0x40 MLOAD DUP1 SWAP2 SUB SWAP1 REVERT JUMPDEST DUP2 PUSH1 0x3 DUP2 DUP2 SLOAD DUP2 LT PUSH2 0x388 JUMPI PUSH2 0x387 PUSH2 0x105F JUMP JUMPDEST JUMPDEST SWAP1 PUSH0 MSTORE PUSH1 0x20 PUSH0 KECCAK256 SWAP1 PUSH1 0x5 MUL ADD PUSH1 0x3 ADD PUSH0 SWAP1 SLOAD SWAP1 PUSH2 0x100 EXP SWAP1 DIV PUSH1 0xFF AND ISZERO PUSH2 0x3E4 JUMPI PUSH1 0x40 MLOAD PUSH32 0x8C379A000000000000000000000000000000000000000000000000000000000 DUP2 MSTORE PUSH1 0x4 ADD PUSH2 0x3DB SWAP1 PUSH2 0x10D6 JUMP JUMPDEST PUSH1 0x40 MLOAD DUP1 SWAP2 SUB SWAP1 REVERT JUMPDEST DUP3 PUSH1 0x4 PUSH0 DUP3 DUP2 MSTORE PUSH1 0x20 ADD SWAP1 DUP2 MSTORE PUSH1 0x20 ADD PUSH0 KECCAK256 PUSH0 CALLER PUSH20 0xFFFFFFFFFFFFFFFFFFFFFFFFFFFFFFFFFFFFFFFF AND PUSH20 0xFFFFFFFFFFFFFFFFFFFFFFFFFFFFFFFFFFFFFFFF AND DUP2 MSTORE PUSH1 0x20 ADD SWAP1 DUP2 MSTORE PUSH1 0x20 ADD PUSH0 KECCAK256 PUSH0 SWAP1 SLOAD SWAP1 PUSH2 0x100 EXP SWAP1 DIV PUSH1 0xFF AND ISZERO PUSH2 0x47E JUMPI PUSH1 0x40 MLOAD PUSH32 0x8C379A000000000000000000000000000000000000000000000000000000000 DUP2 MSTORE PUSH1 0x4 ADD PUSH2 0x475 SWAP1 PUSH2 0x113E JUMP JUMPDEST PUSH1 0x40 MLOAD DUP1 SWAP2 SUB SWAP1 REVERT JUMPDEST PUSH0 PUSH1 0x3 DUP6 DUP2 SLOAD DUP2 LT PUSH2 0x493 JUMPI PUSH2 0x492 PUSH2 0x105F JUMP JUMPDEST JUMPDEST SWAP1 PUSH0 MSTORE PUSH1 0x20 PUSH0 KECCAK256 SWAP1 PUSH1 0x5 MUL ADD SWAP1 POP PUSH1 0x1 DUP2 PUSH1 0x4 ADD PUSH0 DUP3 DUP3 SLOAD PUSH2 0x4B5 SWAP2 SWAP1 PUSH2 0x1189 JUMP JUMPDEST SWAP3 POP POP DUP2 SWAP1 SSTORE POP PUSH1 0x1 PUSH1 0x4 PUSH0 DUP8 DUP2 MSTORE PUSH1 0x20 ADD SWAP1 DUP2 MSTORE PUSH1 0x20 ADD PUSH0 KECCAK256 PUSH0 CALLER PUSH20 0xFFFFFFFFFFFFFFFFFFFFFFFFFFFFFFFFFFFFFFFF AND PUSH20 0xFFFFFFFFFFFFFFFFFFFFFFFFFFFFFFFFFFFFFFFF AND DUP2 MSTORE PUSH1 0x20 ADD SWAP1 DUP2 MSTORE PUSH1 0x20 ADD PUSH0 KECCAK256 PUSH0 PUSH2 0x100 EXP DUP2 SLOAD DUP2 PUSH1 0xFF MUL NOT AND SWAP1 DUP4 ISZERO ISZERO MUL OR SWAP1 SSTORE POP CALLER PUSH20 0xFFFFFFFFFFFFFFFFFFFFFFFFFFFFFFFFFFFFFFFF AND DUP6 PUSH32 0x924813D717E221B5F46DCD8A56DA1679E4612584AB3237D55E5FAABF6F6A3079 PUSH1 0x40 MLOAD PUSH1 0x40 MLOAD DUP1 SWAP2 SUB SWAP1 LOG3 POP POP POP POP POP JUMP JUMPDEST PUSH0 PUSH1 0x3 DUP1 SLOAD SWAP1 POP SWAP1 POP SWAP1 JUMP JUMPDEST PUSH1 0x1 PUSH1 0x20 MSTORE DUP1 PUSH0 MSTORE PUSH1 0x40 PUSH0 KECCAK256 PUSH0 SWAP2 POP SLOAD SWAP1 PUSH2 0x100 EXP SWAP1 DIV PUSH1 0xFF AND DUP2 JUMP JUMPDEST PUSH1 0x2 SLOAD DUP2 JUMP JUMPDEST PUSH1 0x3 DUP2 DUP2 SLOAD DUP2 LT PUSH2 0x5A9 JUMPI PUSH0 DUP1 REVERT JUMPDEST SWAP1 PUSH0 MSTORE PUSH1 0x20 PUSH0 KECCAK256 SWAP1 PUSH1 0x5 MUL ADD PUSH0 SWAP2 POP SWAP1 POP DUP1 PUSH0 ADD PUSH0 SWAP1 SLOAD SWAP1 PUSH2 0x100 EXP SWAP1 DIV PUSH20 0xFFFFFFFFFFFFFFFFFFFFFFFFFFFFFFFFFFFFFFFF AND SWAP1 DUP1 PUSH1 0x1 ADD SLOAD SWAP1 DUP1 PUSH1 0x2 ADD DUP1 SLOAD PUSH2 0x5F3 SWAP1 PUSH2 0x11E9 JUMP JUMPDEST DUP1 PUSH1 0x1F ADD PUSH1 0x20 DUP1 SWAP2 DIV MUL PUSH1 0x20 ADD PUSH1 0x40 MLOAD SWAP1 DUP2 ADD PUSH1 0x40 MSTORE DUP1 SWAP3 SWAP2 SWAP1 DUP2 DUP2 MSTORE PUSH1 0x20 ADD DUP3 DUP1 SLOAD PUSH2 0x61F SWAP1 PUSH2 0x11E9 JUMP JUMPDEST DUP1 ISZERO PUSH2 0x66A JUMPI DUP1 PUSH1 0x1F LT PUSH2 0x641 JUMPI PUSH2 0x100 DUP1 DUP4 SLOAD DIV MUL DUP4 MSTORE SWAP2 PUSH1 0x20 ADD SWAP2 PUSH2 0x66A JUMP JUMPDEST DUP3 ADD SWAP2 SWAP1 PUSH0 MSTORE PUSH1 0x20 PUSH0 KECCAK256 SWAP1 JUMPDEST DUP2 SLOAD DUP2 MSTORE SWAP1 PUSH1 0x1 ADD SWAP1 PUSH1 0x20 ADD DUP1 DUP4 GT PUSH2 0x64D JUMPI DUP3 SWAP1 SUB PUSH1 0x1F AND DUP3 ADD SWAP2 JUMPDEST POP POP POP POP POP SWAP1 DUP1 PUSH1 0x3 ADD PUSH0 SWAP1 SLOAD SWAP1 PUSH2 0x100 EXP SWAP1 DIV PUSH1 0xFF AND SWAP1 DUP1 PUSH1 0x4 ADD SLOAD SWAP1 POP DUP6 JUMP JUMPDEST PUSH1 0x4 PUSH1 0x20 MSTORE DUP2 PUSH0 MSTORE PUSH1 0x40 PUSH0 KECCAK256 PUSH1 0x20 MSTORE DUP1 PUSH0 MSTORE PUSH1 0x40 PUSH0 KECCAK256 PUSH0 SWAP2 POP SWAP2 POP SWAP1 SLOAD SWAP1 PUSH2 0x100 EXP SWAP1 DIV PUSH1 0xFF AND DUP2 JUMP JUMPDEST PUSH0 PUSH1 0x1 PUSH0 CALLER PUSH20 0xFFFFFFFFFFFFFFFFFFFFFFFFFFFFFFFFFFFFFFFF AND PUSH20 0xFFFFFFFFFFFFFFFFFFFFFFFFFFFFFFFFFFFFFFFF AND DUP2 MSTORE PUSH1 0x20 ADD SWAP1 DUP2 MSTORE PUSH1 0x20 ADD PUSH0 KECCAK256 PUSH0 SWAP1 SLOAD SWAP1 PUSH2 0x100 EXP SWAP1 DIV PUSH1 0xFF AND PUSH2 0x740 JUMPI PUSH1 0x40 MLOAD PUSH32 0x8C379A000000000000000000000000000000000000000000000000000000000 DUP2 MSTORE PUSH1 0x4 ADD PUSH2 0x737 SWAP1 PUSH2 0xFD9 JUMP JUMPDEST PUSH1 0x40 MLOAD DUP1 SWAP2 SUB SWAP1 REVERT JUMPDEST PUSH0 PUSH1 0x3 DUP1 SLOAD SWAP1 POP SWAP1 POP PUSH1 0x3 PUSH1 0x40 MLOAD DUP1 PUSH1 0xA0 ADD PUSH1 0x40 MSTORE DUP1 DUP8 PUSH20 0xFFFFFFFFFFFFFFFFFFFFFFFFFFFFFFFFFFFFFFFF AND DUP2 MSTORE PUSH1 0x20 ADD DUP7 DUP2 MSTORE PUSH1 0x20 ADD DUP6 DUP2 MSTORE PUSH1 0x20 ADD PUSH0 ISZERO ISZERO DUP2 MSTORE PUSH1 0x20 ADD PUSH0 DUP2 MSTORE POP SWAP1 DUP1 PUSH1 0x1 DUP2 SLOAD ADD DUP1 DUP3 SSTORE DUP1 SWAP2 POP POP PUSH1 0x1 SWAP1 SUB SWAP1 PUSH0 MSTORE PUSH1 0x20 PUSH0 KECCAK256 SWAP1 PUSH1 0x5 MUL ADD PUSH0 SWAP1 SWAP2 SWAP1 SWAP2 SWAP1 SWAP2 POP PUSH0 DUP3 ADD MLOAD DUP2 PUSH0 ADD PUSH0 PUSH2 0x100 EXP DUP2 SLOAD DUP2 PUSH20 0xFFFFFFFFFFFFFFFFFFFFFFFFFFFFFFFFFFFFFFFF MUL NOT AND SWAP1 DUP4 PUSH20 0xFFFFFFFFFFFFFFFFFFFFFFFFFFFFFFFFFFFFFFFF AND MUL OR SWAP1 SSTORE POP PUSH1 0x20 DUP3 ADD MLOAD DUP2 PUSH1 0x1 ADD SSTORE PUSH1 0x40 DUP3 ADD MLOAD DUP2 PUSH1 0x2 ADD SWAP1 DUP2 PUSH2 0x813 SWAP2 SWAP1 PUSH2 0x13B6 JUMP JUMPDEST POP PUSH1 0x60 DUP3 ADD MLOAD DUP2 PUSH1 0x3 ADD PUSH0 PUSH2 0x100 EXP DUP2 SLOAD DUP2 PUSH1 0xFF MUL NOT AND SWAP1 DUP4 ISZERO ISZERO MUL OR SWAP1 SSTORE POP PUSH1 0x80 DUP3 ADD MLOAD DUP2 PUSH1 0x4 ADD SSTORE POP POP DUP5 PUSH20 0xFFFFFFFFFFFFFFFFFFFFFFFFFFFFFFFFFFFFFFFF AND DUP2 PUSH32 0x6974E8BE5912AE917B788DB2884A51E71CBE0F0979AF347E6A32D07D52EF82A3 DUP7 PUSH1 0x40 MLOAD PUSH2 0x886 SWAP2 SWAP1 PUSH2 0xC40 JUMP JUMPDEST PUSH1 0x40 MLOAD DUP1 SWAP2 SUB SWAP1 LOG3 DUP1 SWAP2 POP POP SWAP4 SWAP3 POP POP POP JUMP JUMPDEST PUSH1 0x1 PUSH0 CALLER PUSH20 0xFFFFFFFFFFFFFFFFFFFFFFFFFFFFFFFFFFFFFFFF AND PUSH20 0xFFFFFFFFFFFFFFFFFFFFFFFFFFFFFFFFFFFFFFFF AND DUP2 MSTORE PUSH1 0x20 ADD SWAP1 DUP2 MSTORE PUSH1 0x20 ADD PUSH0 KECCAK256 PUSH0 SWAP1 SLOAD SWAP1 PUSH2 0x100 EXP SWAP1 DIV PUSH1 0xFF AND PUSH2 0x922 JUMPI PUSH1 0x40 MLOAD PUSH32 0x8C379A000000000000000000000000000000000000000000000000000000000 DUP2 MSTORE PUSH1 0x4 ADD PUSH2 0x919 SWAP1 PUSH2 0xFD9 JUMP JUMPDEST PUSH1 0x40 MLOAD DUP1 SWAP2 SUB SWAP1 REVERT JUMPDEST DUP1 PUSH1 0x3 DUP1 SLOAD SWAP1 POP DUP2 LT PUSH2 0x96A JUMPI PUSH1 0x40 MLOAD PUSH32 0x8C379A000000000000000000000000000000000000000000000000000000000 DUP2 MSTORE PUSH1 0x4 ADD PUSH2 0x961 SWAP1 PUSH2 0x1041 JUMP JUMPDEST PUSH1 0x40 MLOAD DUP1 SWAP2 SUB SWAP1 REVERT JUMPDEST DUP2 PUSH1 0x3 DUP2 DUP2 SLOAD DUP2 LT PUSH2 0x97F JUMPI PUSH2 0x97E PUSH2 0x105F JUMP JUMPDEST JUMPDEST SWAP1 PUSH0 MSTORE PUSH1 0x20 PUSH0 KECCAK256 SWAP1 PUSH1 0x5 MUL ADD PUSH1 0x3 ADD PUSH0 SWAP1 SLOAD SWAP1 PUSH2 0x100 EXP SWAP1 DIV PUSH1 0xFF AND ISZERO PUSH2 0x9DB JUMPI PUSH1 0x40 MLOAD PUSH32 0x8C379A000000000000000000000000000000000000000000000000000000000 DUP2 MSTORE PUSH1 0x4 ADD PUSH2 0x9D2 SWAP1 PUSH2 0x10D6 JUMP JUMPDEST PUSH1 0x40 MLOAD DUP1 SWAP2 SUB SWAP1 REVERT JUMPDEST PUSH0 PUSH1 0x3 DUP5 DUP2 SLOAD DUP2 LT PUSH2 0x9F0 JUMPI PUSH2 0x9EF PUSH2 0x105F JUMP JUMPDEST JUMPDEST SWAP1 PUSH0 MSTORE PUSH1 0x20 PUSH0 KECCAK256 SWAP1 PUSH1 0x5 MUL ADD SWAP1 POP PUSH1 0x2 SLOAD DUP2 PUSH1 0x4 ADD SLOAD LT ISZERO PUSH2 0xA47 JUMPI PUSH1 0x40 MLOAD PUSH32 0x8C379A000000000000000000000000000000000000000000000000000000000 DUP2 MSTORE PUSH1 0x4 ADD PUSH2 0xA3E SWAP1 PUSH2 0x14CF JUMP JUMPDEST PUSH1 0x40 MLOAD DUP1 SWAP2 SUB SWAP1 REVERT JUMPDEST PUSH1 0x1 DUP2 PUSH1 0x3 ADD PUSH0 PUSH2 0x100 EXP DUP2 SLOAD DUP2 PUSH1 0xFF MUL NOT AND SWAP1 DUP4 ISZERO ISZERO MUL OR SWAP1 SSTORE POP PUSH0 DUP2 PUSH0 ADD PUSH0 SWAP1 SLOAD SWAP1 PUSH2 0x100 EXP SWAP1 DIV PUSH20 0xFFFFFFFFFFFFFFFFFFFFFFFFFFFFFFFFFFFFFFFF AND PUSH20 0xFFFFFFFFFFFFFFFFFFFFFFFFFFFFFFFFFFFFFFFF AND DUP3 PUSH1 0x1 ADD SLOAD DUP4 PUSH1 0x2 ADD PUSH1 0x40 MLOAD PUSH2 0xAB3 SWAP2 SWAP1 PUSH2 0x1577 JUMP JUMPDEST PUSH0 PUSH1 0x40 MLOAD DUP1 DUP4 SUB DUP2 DUP6 DUP8 GAS CALL SWAP3 POP POP POP RETURNDATASIZE DUP1 PUSH0 DUP2 EQ PUSH2 0xAED JUMPI PUSH1 0x40 MLOAD SWAP2 POP PUSH1 0x1F NOT PUSH1 0x3F RETURNDATASIZE ADD AND DUP3 ADD PUSH1 0x40 MSTORE RETURNDATASIZE DUP3 MSTORE RETURNDATASIZE PUSH0 PUSH1 0x20 DUP5 ADD RETURNDATACOPY PUSH2 0xAF2 JUMP JUMPDEST PUSH1 0x60 SWAP2 POP JUMPDEST POP POP SWAP1 POP DUP1 PUSH2 0xB36 JUMPI PUSH1 0x40 MLOAD PUSH32 0x8C379A000000000000000000000000000000000000000000000000000000000 DUP2 MSTORE PUSH1 0x4 ADD PUSH2 0xB2D SWAP1 PUSH2 0x15D7 JUMP JUMPDEST PUSH1 0x40 MLOAD DUP1 SWAP2 SUB SWAP1 REVERT JUMPDEST DUP5 PUSH32 0x15ED165A284872EA7017F03DF402A0CADFBFAB588320FFAF83F160C2F82781C7 PUSH1 0x40 MLOAD PUSH1 0x40 MLOAD DUP1 SWAP2 SUB SWAP1 LOG2 POP POP POP POP POP JUMP JUMPDEST PUSH0 PUSH1 0x40 MLOAD SWAP1 POP SWAP1 JUMP JUMPDEST PUSH0 DUP1 REVERT JUMPDEST PUSH0 DUP1 REVERT JUMPDEST PUSH0 DUP2 SWAP1 POP SWAP2 SWAP1 POP JUMP JUMPDEST PUSH2 0xB8D DUP2 PUSH2 0xB7B JUMP JUMPDEST DUP2 EQ PUSH2 0xB97 JUMPI PUSH0 DUP1 REVERT JUMPDEST POP JUMP JUMPDEST PUSH0 DUP2 CALLDATALOAD SWAP1 POP PUSH2 0xBA8 DUP2 PUSH2 0xB84 JUMP JUMPDEST SWAP3 SWAP2 POP POP JUMP JUMPDEST PUSH0 PUSH1 0x20 DUP3 DUP5 SUB SLT ISZERO PUSH2 0xBC3 JUMPI PUSH2 0xBC2 PUSH2 0xB73 JUMP JUMPDEST JUMPDEST PUSH0 PUSH2 0xBD0 DUP5 DUP3 DUP6 ADD PUSH2 0xB9A JUMP JUMPDEST SWAP2 POP POP SWAP3 SWAP2 POP POP JUMP JUMPDEST PUSH0 PUSH20 0xFFFFFFFFFFFFFFFFFFFFFFFFFFFFFFFFFFFFFFFF DUP3 AND SWAP1 POP SWAP2 SWAP1 POP JUMP JUMPDEST PUSH0 PUSH2 0xC02 DUP3 PUSH2 0xBD9 JUMP JUMPDEST SWAP1 POP SWAP2 SWAP1 POP JUMP JUMPDEST PUSH2 0xC12 DUP2 PUSH2 0xBF8 JUMP JUMPDEST DUP3 MSTORE POP POP JUMP JUMPDEST PUSH0 PUSH1 0x20 DUP3 ADD SWAP1 POP PUSH2 0xC2B PUSH0 DUP4 ADD DUP5 PUSH2 0xC09 JUMP JUMPDEST SWAP3 SWAP2 POP POP JUMP JUMPDEST PUSH2 0xC3A DUP2 PUSH2 0xB7B JUMP JUMPDEST DUP3 MSTORE POP POP JUMP JUMPDEST PUSH0 PUSH1 0x20 DUP3 ADD SWAP1 POP PUSH2 0xC53 PUSH0 DUP4 ADD DUP5 PUSH2 0xC31 JUMP JUMPDEST SWAP3 SWAP2 POP POP JUMP JUMPDEST PUSH2 0xC62 DUP2 PUSH2 0xBF8 JUMP JUMPDEST DUP2 EQ PUSH2 0xC6C JUMPI PUSH0 DUP1 REVERT JUMPDEST POP JUMP JUMPDEST PUSH0 DUP2 CALLDATALOAD SWAP1 POP PUSH2 0xC7D DUP2 PUSH2 0xC59 JUMP JUMPDEST SWAP3 SWAP2 POP POP JUMP JUMPDEST PUSH0 PUSH1 0x20 DUP3 DUP5 SUB SLT ISZERO PUSH2 0xC98 JUMPI PUSH2 0xC97 PUSH2 0xB73 JUMP JUMPDEST JUMPDEST PUSH0 PUSH2 0xCA5 DUP5 DUP3 DUP6 ADD PUSH2 0xC6F JUMP JUMPDEST SWAP2 POP POP SWAP3 SWAP2 POP POP JUMP JUMPDEST PUSH0 DUP2 ISZERO ISZERO SWAP1 POP SWAP2 SWAP1 POP JUMP JUMPDEST PUSH2 0xCC2 DUP2 PUSH2 0xCAE JUMP JUMPDEST DUP3 MSTORE POP POP JUMP JUMPDEST PUSH0 PUSH1 0x20 DUP3 ADD SWAP1 POP PUSH2 0xCDB PUSH0 DUP4 ADD DUP5 PUSH2 0xCB9 JUMP JUMPDEST SWAP3 SWAP2 POP POP JUMP JUMPDEST PUSH0 DUP2 MLOAD SWAP1 POP SWAP2 SWAP1 POP JUMP JUMPDEST PUSH0 DUP3 DUP3 MSTORE PUSH1 0x20 DUP3 ADD SWAP1 POP SWAP3 SWAP2 POP POP JUMP JUMPDEST DUP3 DUP2 DUP4 MCOPY PUSH0 DUP4 DUP4 ADD MSTORE POP POP POP JUMP JUMPDEST PUSH0 PUSH1 0x1F NOT PUSH1 0x1F DUP4 ADD AND SWAP1 POP SWAP2 SWAP1 POP JUMP JUMPDEST PUSH0 PUSH2 0xD23 DUP3 PUSH2 0xCE1 JUMP JUMPDEST PUSH2 0xD2D DUP2 DUP6 PUSH2 0xCEB JUMP JUMPDEST SWAP4 POP PUSH2 0xD3D DUP2 DUP6 PUSH1 0x20 DUP7 ADD PUSH2 0xCFB JUMP JUMPDEST PUSH2 0xD46 DUP2 PUSH2 0xD09 JUMP JUMPDEST DUP5 ADD SWAP2 POP POP SWAP3 SWAP2 POP POP JUMP JUMPDEST PUSH0 PUSH1 0xA0 DUP3 ADD SWAP1 POP PUSH2 0xD64 PUSH0 DUP4 ADD DUP9 PUSH2 0xC09 JUMP JUMPDEST PUSH2 0xD71 PUSH1 0x20 DUP4 ADD DUP8 PUSH2 0xC31 JUMP JUMPDEST DUP2 DUP2 SUB PUSH1 0x40 DUP4 ADD MSTORE PUSH2 0xD83 DUP2 DUP7 PUSH2 0xD19 JUMP JUMPDEST SWAP1 POP PUSH2 0xD92 PUSH1 0x60 DUP4 ADD DUP6 PUSH2 0xCB9 JUMP JUMPDEST PUSH2 0xD9F PUSH1 0x80 DUP4 ADD DUP5 PUSH2 0xC31 JUMP JUMPDEST SWAP7 SWAP6 POP POP POP POP POP POP JUMP JUMPDEST PUSH0 DUP1 PUSH1 0x40 DUP4 DUP6 SUB SLT ISZERO PUSH2 0xDBF JUMPI PUSH2 0xDBE PUSH2 0xB73 JUMP JUMPDEST JUMPDEST PUSH0 PUSH2 0xDCC DUP6 DUP3 DUP7 ADD PUSH2 0xB9A JUMP JUMPDEST SWAP3 POP POP PUSH1 0x20 PUSH2 0xDDD DUP6 DUP3 DUP7 ADD PUSH2 0xC6F JUMP JUMPDEST SWAP2 POP POP SWAP3 POP SWAP3 SWAP1 POP JUMP JUMPDEST PUSH0 DUP1 REVERT JUMPDEST PUSH0 DUP1 REVERT JUMPDEST PUSH32 0x4E487B7100000000000000000000000000000000000000000000000000000000 PUSH0 MSTORE PUSH1 0x41 PUSH1 0x4 MSTORE PUSH1 0x24 PUSH0 REVERT JUMPDEST PUSH2 0xE25 DUP3 PUSH2 0xD09 JUMP JUMPDEST DUP2 ADD DUP2 DUP2 LT PUSH8 0xFFFFFFFFFFFFFFFF DUP3 GT OR ISZERO PUSH2 0xE44 JUMPI PUSH2 0xE43 PUSH2 0xDEF JUMP JUMPDEST JUMPDEST DUP1 PUSH1 0x40 MSTORE POP POP POP JUMP JUMPDEST PUSH0 PUSH2 0xE56 PUSH2 0xB6A JUMP JUMPDEST SWAP1 POP PUSH2 0xE62 DUP3 DUP3 PUSH2 0xE1C JUMP JUMPDEST SWAP2 SWAP1 POP JUMP JUMPDEST PUSH0 PUSH8 0xFFFFFFFFFFFFFFFF DUP3 GT ISZERO PUSH2 0xE81 JUMPI PUSH2 0xE80 PUSH2 0xDEF JUMP JUMPDEST JUMPDEST PUSH2 0xE8A DUP3 PUSH2 0xD09 JUMP JUMPDEST SWAP1 POP PUSH1 0x20 DUP2 ADD SWAP1 POP SWAP2 SWAP1 POP JUMP JUMPDEST DUP3 DUP2 DUP4 CALLDATACOPY PUSH0 DUP4 DUP4 ADD MSTORE POP POP POP JUMP JUMPDEST PUSH0 PUSH2 0xEB7 PUSH2 0xEB2 DUP5 PUSH2 0xE67 JUMP JUMPDEST PUSH2 0xE4D JUMP JUMPDEST SWAP1 POP DUP3 DUP2 MSTORE PUSH1 0x20 DUP2 ADD DUP5 DUP5 DUP5 ADD GT ISZERO PUSH2 0xED3 JUMPI PUSH2 0xED2 PUSH2 0xDEB JUMP JUMPDEST JUMPDEST PUSH2 0xEDE DUP5 DUP3 DUP6 PUSH2 0xE97 JUMP JUMPDEST POP SWAP4 SWAP3 POP POP POP JUMP JUMPDEST PUSH0 DUP3 PUSH1 0x1F DUP4 ADD SLT PUSH2 0xEFA JUMPI PUSH2 0xEF9 PUSH2 0xDE7 JUMP JUMPDEST JUMPDEST DUP2 CALLDATALOAD PUSH2 0xF0A DUP5 DUP3 PUSH1 0x20 DUP7 ADD PUSH2 0xEA5 JUMP JUMPDEST SWAP2 POP POP SWAP3 SWAP2 POP POP JUMP JUMPDEST PUSH0 DUP1 PUSH0 PUSH1 0x60 DUP5 DUP7 SUB SLT ISZERO PUSH2 0xF2A JUMPI PUSH2 0xF29 PUSH2 0xB73 JUMP JUMPDEST JUMPDEST PUSH0 PUSH2 0xF37 DUP7 DUP3 DUP8 ADD PUSH2 0xC6F JUMP JUMPDEST SWAP4 POP POP PUSH1 0x20 PUSH2 0xF48 DUP7 DUP3 DUP8 ADD PUSH2 0xB9A JUMP JUMPDEST SWAP3 POP POP PUSH1 0x40 DUP5 ADD CALLDATALOAD PUSH8 0xFFFFFFFFFFFFFFFF DUP2 GT ISZERO PUSH2 0xF69 JUMPI PUSH2 0xF68 PUSH2 0xB77 JUMP JUMPDEST JUMPDEST PUSH2 0xF75 DUP7 DUP3 DUP8 ADD PUSH2 0xEE6 JUMP JUMPDEST SWAP2 POP POP SWAP3 POP SWAP3 POP SWAP3 JUMP JUMPDEST PUSH0 DUP3 DUP3 MSTORE PUSH1 0x20 DUP3 ADD SWAP1 POP SWAP3 SWAP2 POP POP JUMP JUMPDEST PUSH32 0x4E6F7420616E206F776E65720000000000000000000000000000000000000000 PUSH0 DUP3 ADD MSTORE POP JUMP JUMPDEST PUSH0 PUSH2 0xFC3 PUSH1 0xC DUP4 PUSH2 0xF7F JUMP JUMPDEST SWAP2 POP PUSH2 0xFCE DUP3 PUSH2 0xF8F JUMP JUMPDEST PUSH1 0x20 DUP3 ADD SWAP1 POP SWAP2 SWAP1 POP JUMP JUMPDEST PUSH0 PUSH1 0x20 DUP3 ADD SWAP1 POP DUP2 DUP2 SUB PUSH0 DUP4 ADD MSTORE PUSH2 0xFF0 DUP2 PUSH2 0xFB7 JUMP JUMPDEST SWAP1 POP SWAP2 SWAP1 POP JUMP JUMPDEST PUSH32 0x5472616E73616374696F6E20646F6573206E6F74206578697374000000000000 PUSH0 DUP3 ADD MSTORE POP JUMP JUMPDEST PUSH0 PUSH2 0x102B PUSH1 0x1A DUP4 PUSH2 0xF7F JUMP JUMPDEST SWAP2 POP PUSH2 0x1036 DUP3 PUSH2 0xFF7 JUMP JUMPDEST PUSH1 0x20 DUP3 ADD SWAP1 POP SWAP2 SWAP1 POP JUMP JUMPDEST PUSH0 PUSH1 0x20 DUP3 ADD SWAP1 POP DUP2 DUP2 SUB PUSH0 DUP4 ADD MSTORE PUSH2 0x1058 DUP2 PUSH2 0x101F JUMP JUMPDEST SWAP1 POP SWAP2 SWAP1 POP JUMP JUMPDEST PUSH32 0x4E487B7100000000000000000000000000000000000000000000000000000000 PUSH0 MSTORE PUSH1 0x32 PUSH1 0x4 MSTORE PUSH1 0x24 PUSH0 REVERT JUMPDEST PUSH32 0x5472616E73616374696F6E20616C726561647920657865637574656400000000 PUSH0 DUP3 ADD MSTORE POP JUMP JUMPDEST PUSH0 PUSH2 0x10C0 PUSH1 0x1C DUP4 PUSH2 0xF7F JUMP JUMPDEST SWAP2 POP PUSH2 0x10CB DUP3 PUSH2 0x108C JUMP JUMPDEST PUSH1 0x20 DUP3 ADD SWAP1 POP SWAP2 SWAP1 POP JUMP JUMPDEST PUSH0 PUSH1 0x20 DUP3 ADD SWAP1 POP DUP2 DUP2 SUB PUSH0 DUP4 ADD MSTORE PUSH2 0x10ED DUP2 PUSH2 0x10B4 JUMP JUMPDEST SWAP1 POP SWAP2 SWAP1 POP JUMP JUMPDEST PUSH32 0x5472616E73616374696F6E20616C726561647920617070726F76656400000000 PUSH0 DUP3 ADD MSTORE POP JUMP JUMPDEST PUSH0 PUSH2 0x1128 PUSH1 0x1C DUP4 PUSH2 0xF7F JUMP JUMPDEST SWAP2 POP PUSH2 0x1133 DUP3 PUSH2 0x10F4 JUMP JUMPDEST PUSH1 0x20 DUP3 ADD SWAP1 POP SWAP2 SWAP1 POP JUMP JUMPDEST PUSH0 PUSH1 0x20 DUP3 ADD SWAP1 POP DUP2 DUP2 SUB PUSH0 DUP4 ADD MSTORE PUSH2 0x1155 DUP2 PUSH2 0x111C JUMP JUMPDEST SWAP1 POP SWAP2 SWAP1 POP JUMP JUMPDEST PUSH32 0x4E487B7100000000000000000000000000000000000000000000000000000000 PUSH0 MSTORE PUSH1 0x11 PUSH1 0x4 MSTORE PUSH1 0x24 PUSH0 REVERT JUMPDEST PUSH0 PUSH2 0x1193 DUP3 PUSH2 0xB7B JUMP JUMPDEST SWAP2 POP PUSH2 0x119E DUP4 PUSH2 0xB7B JUMP JUMPDEST SWAP3 POP DUP3 DUP3 ADD SWAP1 POP DUP1 DUP3 GT ISZERO PUSH2 0x11B6 JUMPI PUSH2 0x11B5 PUSH2 0x115C JUMP JUMPDEST JUMPDEST SWAP3 SWAP2 POP POP JUMP JUMPDEST PUSH32 0x4E487B7100000000000000000000000000000000000000000000000000000000 PUSH0 MSTORE PUSH1 0x22 PUSH1 0x4 MSTORE PUSH1 0x24 PUSH0 REVERT JUMPDEST PUSH0 PUSH1 0x2 DUP3 DIV SWAP1 POP PUSH1 0x1 DUP3 AND DUP1 PUSH2 0x1200 JUMPI PUSH1 0x7F DUP3 AND SWAP2 POP JUMPDEST PUSH1 0x20 DUP3 LT DUP2 SUB PUSH2 0x1213 JUMPI PUSH2 0x1212 PUSH2 0x11BC JUMP JUMPDEST JUMPDEST POP SWAP2 SWAP1 POP JUMP JUMPDEST PUSH0 DUP2 SWAP1 POP DUP2 PUSH0 MSTORE PUSH1 0x20 PUSH0 KECCAK256 SWAP1 POP SWAP2 SWAP1 POP JUMP JUMPDEST PUSH0 PUSH1 0x20 PUSH1 0x1F DUP4 ADD DIV SWAP1 POP SWAP2 SWAP1 POP JUMP JUMPDEST PUSH0 DUP3 DUP3 SHL SWAP1 POP SWAP3 SWAP2 POP POP JUMP JUMPDEST PUSH0 PUSH1 0x8 DUP4 MUL PUSH2 0x1275 PUSH32 0xFFFFFFFFFFFFFFFFFFFFFFFFFFFFFFFFFFFFFFFFFFFFFFFFFFFFFFFFFFFFFFFF DUP3 PUSH2 0x123A JUMP JUMPDEST PUSH2 0x127F DUP7 DUP4 PUSH2 0x123A JUMP JUMPDEST SWAP6 POP DUP1 NOT DUP5 AND SWAP4 POP DUP1 DUP7 AND DUP5 OR SWAP3 POP POP POP SWAP4 SWAP3 POP POP POP JUMP JUMPDEST PUSH0 DUP2 SWAP1 POP SWAP2 SWAP1 POP JUMP JUMPDEST PUSH0 PUSH2 0x12BA PUSH2 0x12B5 PUSH2 0x12B0 DUP5 PUSH2 0xB7B JUMP JUMPDEST PUSH2 0x1297 JUMP JUMPDEST PUSH2 0xB7B JUMP JUMPDEST SWAP1 POP SWAP2 SWAP1 POP JUMP JUMPDEST PUSH0 DUP2 SWAP1 POP SWAP2 SWAP1 POP JUMP JUMPDEST PUSH2 0x12D3 DUP4 PUSH2 0x12A0 JUMP JUMPDEST PUSH2 0x12E7 PUSH2 0x12DF DUP3 PUSH2 0x12C1 JUMP JUMPDEST DUP5 DUP5 SLOAD PUSH2 0x1246 JUMP JUMPDEST DUP3 SSTORE POP POP POP POP JUMP JUMPDEST PUSH0 SWAP1 JUMP JUMPDEST PUSH2 0x12FB PUSH2 0x12EF JUMP JUMPDEST PUSH2 0x1306 DUP2 DUP5 DUP5 PUSH2 0x12CA JUMP JUMPDEST POP POP POP JUMP JUMPDEST JUMPDEST DUP2 DUP2 LT ISZERO PUSH2 0x1329 JUMPI PUSH2 0x131E PUSH0 DUP3 PUSH2 0x12F3 JUMP JUMPDEST PUSH1 0x1 DUP2 ADD SWAP1 POP PUSH2 0x130C JUMP JUMPDEST POP POP JUMP JUMPDEST PUSH1 0x1F DUP3 GT ISZERO PUSH2 0x136E JUMPI PUSH2 0x133F DUP2 PUSH2 0x1219 JUMP JUMPDEST PUSH2 0x1348 DUP5 PUSH2 0x122B JUMP JUMPDEST DUP2 ADD PUSH1 0x20 DUP6 LT ISZERO PUSH2 0x1357 JUMPI DUP2 SWAP1 POP JUMPDEST PUSH2 0x136B PUSH2 0x1363 DUP6 PUSH2 0x122B JUMP JUMPDEST DUP4 ADD DUP3 PUSH2 0x130B JUMP JUMPDEST POP POP JUMPDEST POP POP POP JUMP JUMPDEST PUSH0 DUP3 DUP3 SHR SWAP1 POP SWAP3 SWAP2 POP POP JUMP JUMPDEST PUSH0 PUSH2 0x138E PUSH0 NOT DUP5 PUSH1 0x8 MUL PUSH2 0x1373 JUMP JUMPDEST NOT DUP1 DUP4 AND SWAP2 POP POP SWAP3 SWAP2 POP POP JUMP JUMPDEST PUSH0 PUSH2 0x13A6 DUP4 DUP4 PUSH2 0x137F JUMP JUMPDEST SWAP2 POP DUP3 PUSH1 0x2 MUL DUP3 OR SWAP1 POP SWAP3 SWAP2 POP POP JUMP JUMPDEST PUSH2 0x13BF DUP3 PUSH2 0xCE1 JUMP JUMPDEST PUSH8 0xFFFFFFFFFFFFFFFF DUP2 GT ISZERO PUSH2 0x13D8 JUMPI PUSH2 0x13D7 PUSH2 0xDEF JUMP JUMPDEST JUMPDEST PUSH2 0x13E2 DUP3 SLOAD PUSH2 0x11E9 JUMP JUMPDEST PUSH2 0x13ED DUP3 DUP3 DUP6 PUSH2 0x132D JUMP JUMPDEST PUSH0 PUSH1 0x20 SWAP1 POP PUSH1 0x1F DUP4 GT PUSH1 0x1 DUP2 EQ PUSH2 0x141E JUMPI PUSH0 DUP5 ISZERO PUSH2 0x140C JUMPI DUP3 DUP8 ADD MLOAD SWAP1 POP JUMPDEST PUSH2 0x1416 DUP6 DUP3 PUSH2 0x139B JUMP JUMPDEST DUP7 SSTORE POP PUSH2 0x147D JUMP JUMPDEST PUSH1 0x1F NOT DUP5 AND PUSH2 0x142C DUP7 PUSH2 0x1219 JUMP JUMPDEST PUSH0 JUMPDEST DUP3 DUP2 LT ISZERO PUSH2 0x1453 JUMPI DUP5 DUP10 ADD MLOAD DUP3 SSTORE PUSH1 0x1 DUP3 ADD SWAP2 POP PUSH1 0x20 DUP6 ADD SWAP5 POP PUSH1 0x20 DUP2 ADD SWAP1 POP PUSH2 0x142E JUMP JUMPDEST DUP7 DUP4 LT ISZERO PUSH2 0x1470 JUMPI DUP5 DUP10 ADD MLOAD PUSH2 0x146C PUSH1 0x1F DUP10 AND DUP3 PUSH2 0x137F JUMP JUMPDEST DUP4 SSTORE POP JUMPDEST PUSH1 0x1 PUSH1 0x2 DUP9 MUL ADD DUP9 SSTORE POP POP POP JUMPDEST POP POP POP POP POP POP JUMP JUMPDEST PUSH32 0x4E6F7420656E6F75676820617070726F76616C73000000000000000000000000 PUSH0 DUP3 ADD MSTORE POP JUMP JUMPDEST PUSH0 PUSH2 0x14B9 PUSH1 0x14 DUP4 PUSH2 0xF7F JUMP JUMPDEST SWAP2 POP PUSH2 0x14C4 DUP3 PUSH2 0x1485 JUMP JUMPDEST PUSH1 0x20 DUP3 ADD SWAP1 POP SWAP2 SWAP1 POP JUMP JUMPDEST PUSH0 PUSH1 0x20 DUP3 ADD SWAP1 POP DUP2 DUP2 SUB PUSH0 DUP4 ADD MSTORE PUSH2 0x14E6 DUP2 PUSH2 0x14AD JUMP JUMPDEST SWAP1 POP SWAP2 SWAP1 POP JUMP JUMPDEST PUSH0 DUP2 SWAP1 POP SWAP3 SWAP2 POP POP JUMP JUMPDEST PUSH0 DUP2 SLOAD PUSH2 0x1503 DUP2 PUSH2 0x11E9 JUMP JUMPDEST PUSH2 0x150D DUP2 DUP7 PUSH2 0x14ED JUMP JUMPDEST SWAP5 POP PUSH1 0x1 DUP3 AND PUSH0 DUP2 EQ PUSH2 0x1527 JUMPI PUSH1 0x1 DUP2 EQ PUSH2 0x153C JUMPI PUSH2 0x156E JUMP JUMPDEST PUSH1 0xFF NOT DUP4 AND DUP7 MSTORE DUP2 ISZERO ISZERO DUP3 MUL DUP7 ADD SWAP4 POP PUSH2 0x156E JUMP JUMPDEST PUSH2 0x1545 DUP6 PUSH2 0x1219 JUMP JUMPDEST PUSH0 JUMPDEST DUP4 DUP2 LT ISZERO PUSH2 0x1566 JUMPI DUP2 SLOAD DUP2 DUP10 ADD MSTORE PUSH1 0x1 DUP3 ADD SWAP2 POP PUSH1 0x20 DUP2 ADD SWAP1 POP PUSH2 0x1547 JUMP JUMPDEST DUP4 DUP9 ADD SWAP6 POP POP POP JUMPDEST POP POP POP SWAP3 SWAP2 POP POP JUMP JUMPDEST PUSH0 PUSH2 0x1582 DUP3 DUP5 PUSH2 0x14F7 JUMP JUMPDEST SWAP2 POP DUP2 SWAP1 POP SWAP3 SWAP2 POP POP JUMP JUMPDEST PUSH32 0x5472616E73616374696F6E206661696C65640000000000000000000000000000 PUSH0 DUP3 ADD MSTORE POP JUMP JUMPDEST PUSH0 PUSH2 0x15C1 PUSH1 0x12 DUP4 PUSH2 0xF7F JUMP JUMPDEST SWAP2 POP PUSH2 0x15CC DUP3 PUSH2 0x158D JUMP JUMPDEST PUSH1 0x20 DUP3 ADD SWAP1 POP SWAP2 SWAP1 POP JUMP JUMPDEST PUSH0 PUSH1 0x20 DUP3 ADD SWAP1 POP DUP2 DUP2 SUB PUSH0 DUP4 ADD MSTORE PUSH2 0x15EE DUP2 PUSH2 0x15B5 JUMP JUMPDEST SWAP1 POP SWAP2 SWAP1 POP JUMP INVALID LOG2 PUSH5 0x6970667358 0x22 SLT KECCAK256 CALLDATALOAD CODESIZE 0xBB ISZERO 0x1F 0x1E 0xC0 MCOPY EQ SWAP6 INVALID 0xB4 CODECOPY 0x2D 0xD5 0xF9 SMOD 0x29 CREATE2 0xBE 0x21 0x4C 0xF7 PUSH13 0xFD93240F4D71707764736F6C63 NUMBER STOP ADDMOD BYTE STOP CALLER "
				},
				"gasEstimates": {
					"creation": {
						"codeDepositCost": "1135000",
						"executionCost": "infinite",
						"totalCost": "infinite"
					},
					"external": {
						"approvals(uint256,address)": "3115",
						"approveTransaction(uint256)": "infinite",
						"executeTransaction(uint256)": "infinite",
						"getTransactionCount()": "2485",
						"isOwner(address)": "2900",
						"owners(uint256)": "4944",
						"requiredApprovals()": "2425",
						"submitTransaction(address,uint256,bytes)": "infinite",
						"transactions(uint256)": "infinite"
					}
				},
				"methodIdentifiers": {
					"approvals(uint256,address)": "ab2850da",
					"approveTransaction(uint256)": "242232d1",
					"executeTransaction(uint256)": "ee22610b",
					"getTransactionCount()": "2e7700f0",
					"isOwner(address)": "2f54bf6e",
					"owners(uint256)": "025e7c27",
					"requiredApprovals()": "99c1aadc",
					"submitTransaction(address,uint256,bytes)": "c6427474",
					"transactions(uint256)": "9ace38c2"
				}
			},
			"storageLayout": {
				"storage": [
					{
						"astId": 15,
						"contract": "Intermediate Level LOL/Multi-Signature Wallet/contracts/MultiSig.sol:MultiSigWallet",
						"label": "owners",
						"offset": 0,
						"slot": "0",
						"type": "t_array(t_address)dyn_storage"
					},
					{
						"astId": 19,
						"contract": "Intermediate Level LOL/Multi-Signature Wallet/contracts/MultiSig.sol:MultiSigWallet",
						"label": "isOwner",
						"offset": 0,
						"slot": "1",
						"type": "t_mapping(t_address,t_bool)"
					},
					{
						"astId": 21,
						"contract": "Intermediate Level LOL/Multi-Signature Wallet/contracts/MultiSig.sol:MultiSigWallet",
						"label": "requiredApprovals",
						"offset": 0,
						"slot": "2",
						"type": "t_uint256"
					},
					{
						"astId": 25,
						"contract": "Intermediate Level LOL/Multi-Signature Wallet/contracts/MultiSig.sol:MultiSigWallet",
						"label": "transactions",
						"offset": 0,
						"slot": "3",
						"type": "t_array(t_struct(Transaction)12_storage)dyn_storage"
					},
					{
						"astId": 31,
						"contract": "Intermediate Level LOL/Multi-Signature Wallet/contracts/MultiSig.sol:MultiSigWallet",
						"label": "approvals",
						"offset": 0,
						"slot": "4",
						"type": "t_mapping(t_uint256,t_mapping(t_address,t_bool))"
					}
				],
				"types": {
					"t_address": {
						"encoding": "inplace",
						"label": "address",
						"numberOfBytes": "20"
					},
					"t_array(t_address)dyn_storage": {
						"base": "t_address",
						"encoding": "dynamic_array",
						"label": "address[]",
						"numberOfBytes": "32"
					},
					"t_array(t_struct(Transaction)12_storage)dyn_storage": {
						"base": "t_struct(Transaction)12_storage",
						"encoding": "dynamic_array",
						"label": "struct MultiSigWallet.Transaction[]",
						"numberOfBytes": "32"
					},
					"t_bool": {
						"encoding": "inplace",
						"label": "bool",
						"numberOfBytes": "1"
					},
					"t_bytes_storage": {
						"encoding": "bytes",
						"label": "bytes",
						"numberOfBytes": "32"
					},
					"t_mapping(t_address,t_bool)": {
						"encoding": "mapping",
						"key": "t_address",
						"label": "mapping(address => bool)",
						"numberOfBytes": "32",
						"value": "t_bool"
					},
					"t_mapping(t_uint256,t_mapping(t_address,t_bool))": {
						"encoding": "mapping",
						"key": "t_uint256",
						"label": "mapping(uint256 => mapping(address => bool))",
						"numberOfBytes": "32",
						"value": "t_mapping(t_address,t_bool)"
					},
					"t_struct(Transaction)12_storage": {
						"encoding": "inplace",
						"label": "struct MultiSigWallet.Transaction",
						"members": [
							{
								"astId": 3,
								"contract": "Intermediate Level LOL/Multi-Signature Wallet/contracts/MultiSig.sol:MultiSigWallet",
								"label": "to",
								"offset": 0,
								"slot": "0",
								"type": "t_address"
							},
							{
								"astId": 5,
								"contract": "Intermediate Level LOL/Multi-Signature Wallet/contracts/MultiSig.sol:MultiSigWallet",
								"label": "value",
								"offset": 0,
								"slot": "1",
								"type": "t_uint256"
							},
							{
								"astId": 7,
								"contract": "Intermediate Level LOL/Multi-Signature Wallet/contracts/MultiSig.sol:MultiSigWallet",
								"label": "data",
								"offset": 0,
								"slot": "2",
								"type": "t_bytes_storage"
							},
							{
								"astId": 9,
								"contract": "Intermediate Level LOL/Multi-Signature Wallet/contracts/MultiSig.sol:MultiSigWallet",
								"label": "executed",
								"offset": 0,
								"slot": "3",
								"type": "t_bool"
							},
							{
								"astId": 11,
								"contract": "Intermediate Level LOL/Multi-Signature Wallet/contracts/MultiSig.sol:MultiSigWallet",
								"label": "approvalCount",
								"offset": 0,
								"slot": "4",
								"type": "t_uint256"
							}
						],
						"numberOfBytes": "160"
					},
					"t_uint256": {
						"encoding": "inplace",
						"label": "uint256",
						"numberOfBytes": "32"
					}
				}
			},
			"userdoc": {
				"kind": "user",
				"methods": {},
				"version": 1
			}
		}
	}
}